{
	"data": {
		"bytecode": {
			"linkReferences": {},
			"object": "608060405262093a8060ca5534801561001757600080fd5b50615d9680620000286000396000f3fe6080604052600436106104675760003560e01c80637907d11c1161024a578063c87b56dd11610139578063e985e9c5116100b6578063f2fde38b1161007a578063f2fde38b14610eee578063f5a482e014610f0e578063f75535f514610f2e578063fd71ca4714610f4e578063ff718c9114610f6e57600080fd5b8063e985e9c514610e4c578063e9f040d214610e95578063ec49fda014610ea8578063ed50aeb914610ebb578063f101d8d214610ece57600080fd5b8063d4a01b02116100fd578063d4a01b0214610de0578063d9548e5314610df3578063db2c6dd914610e13578063df39049a14610e26578063e4cf3b2814610e3957600080fd5b8063c87b56dd14610d5c578063ca709a2514610d7c578063cd88af6e14610d9a578063cdd352ff14610dad578063d27ab81d14610dcd57600080fd5b8063999ebe55116101c7578063a8ee49fe1161018b578063a8ee49fe14610cc6578063a9d36f5b14610cf6578063b2034d2314610d09578063b2bdfa7b14610d1c578063b353aaa714610d3c57600080fd5b8063999ebe5514610c195780639e402dd614610c2c578063a063246114610c59578063a22cb46514610c79578063a26966fb14610c9957600080fd5b8063864018b71161020e578063864018b714610b855780638b04fa8714610b985780638b97304014610bd35780638da5cb5b14610be657806395d89b4114610c0457600080fd5b80637907d11c14610aea5780637adcb9a214610b0a5780637e31774414610b1d578063816032e014610b3d5780638318dea314610b5157600080fd5b80633bf7e8f4116103665780635b7121f8116102e357806370a08231116102a757806370a0823114610a2f57806371bac4cf14610a4f5780637504c97114610a8f578063782f08ae14610ac457806378a4cb0f14610ad757600080fd5b80635b7121f8146109645780635fdd03a21461099a578063613d25bb146109ad5780636352211e146109cd57806364cff5b7146109ed57600080fd5b806347e0a8f71161032a57806347e0a8f7146108fe5780634f6ccce714610911578063514d5b961461082f5780635557b27914610931578063563a14b01461094457600080fd5b80633bf7e8f41461082f5780633d6541991461084f5780633e104a951461089257806340c10f19146108b057806340ee9b32146108c357600080fd5b806317cb2eac116103f4578063232b809f116103b8578063232b809f1461079857806323b872dd146107b85780632769a8b4146107d85780632a57f056146107fc5780632f745c591461080f57600080fd5b806317cb2eac146106d057806318160ddd146107005780631ed86f19146107155780631fe48ac714610735578063228d0fd91461078357600080fd5b8063095ea7b31161043b578063095ea7b3146105e25780630f9e8bc0146106045780631357982014610658578063150b7a021461066b57806315cce224146106b057600080fd5b80629c47a01461046c57806301ffc9a71461055857806306fdde0314610588578063081812fc146105aa575b600080fd5b34801561047857600080fd5b506104ee610487366004615028565b60d3602052600090815260409020805460018201546002830154600384015460048501546005860154600687015460078801546008909801546001600160a01b03978816989787169761ffff600160a01b8904811698600160b01b9004169695949392918b565b604080516001600160a01b039c8d1681529b909a1660208c015261ffff988916998b0199909952969095166060890152608088019390935260a087019190915260c086015260e0850152610100840152610120830152610140820152610160015b60405180910390f35b34801561056457600080fd5b50610578610573366004615057565b610f8e565b604051901515815260200161054f565b34801561059457600080fd5b5061059d610f9f565b60405161054f91906150c1565b3480156105b657600080fd5b506105ca6105c5366004615028565b611031565b6040516001600160a01b03909116815260200161054f565b3480156105ee57600080fd5b506106026105fd3660046150f0565b611066565b005b34801561061057600080fd5b5061064a61061f3660046150f0565b600090815260d3602090815260408083206001600160a01b0394909416835260099093019052205490565b60405190815260200161054f565b61060261066636600461511a565b611180565b34801561067757600080fd5b50610697610686366004615157565b630a85bd0160e11b95945050505050565b6040516001600160e01b0319909116815260200161054f565b3480156106bc57600080fd5b506106026106cb3660046151f2565b6113ed565b3480156106dc57600080fd5b5061064a6106eb366004615028565b600090815260d3602052604090206008015490565b34801561070c57600080fd5b50609a5461064a565b34801561072157600080fd5b506106026107303660046151f2565b611443565b34801561074157600080fd5b50610770610750366004615028565b600090815260d36020526040902060010154600160b01b900461ffff1690565b60405161ffff909116815260200161054f565b34801561078f57600080fd5b5061064a61149b565b3480156107a457600080fd5b506106026107b33660046151f2565b6114b1565b3480156107c457600080fd5b506106026107d336600461520d565b611507565b3480156107e457600080fd5b5061060260cb80546001600160a01b03191633179055565b61060261080a366004615315565b61157e565b34801561081b57600080fd5b5061064a61082a3660046150f0565b611748565b34801561083b57600080fd5b5061060261084a366004615028565b6117de565b34801561085b57600080fd5b5061087360cc5460cf546001600160a01b0390911691565b604080516001600160a01b03909316835260208301919091520161054f565b34801561089e57600080fd5b5060cb546001600160a01b03166105ca565b6106026108be3660046150f0565b611817565b3480156108cf57600080fd5b506107706108de366004615028565b600090815260d36020526040902060010154600160a01b900461ffff1690565b61060261090c36600461539b565b611a04565b34801561091d57600080fd5b5061064a61092c366004615028565b611b44565b61060261093f36600461539b565b611bd7565b34801561095057600080fd5b5061060261095f3660046150f0565b611c40565b34801561097057600080fd5b506105ca61097f366004615028565b600090815260d360205260409020546001600160a01b031690565b6106026109a83660046153bd565b611d71565b3480156109b957600080fd5b506106026109c8366004615414565b612192565b3480156109d957600080fd5b506105ca6109e8366004615028565b61236e565b3480156109f957600080fd5b50610a1d610a08366004615028565b60d66020526000908152604090205460ff1681565b60405160ff909116815260200161054f565b348015610a3b57600080fd5b5061064a610a4a3660046151f2565b6123d3565b348015610a5b57600080fd5b50610578610a6a36600461539b565b600091825260d960209081526040808420928452919052902054610100900460ff1690565b348015610a9b57600080fd5b50610aaf610aaa366004615028565b612459565b6040805192835260208301919091520161054f565b610602610ad2366004615499565b612481565b610602610ae53660046154ee565b61251d565b348015610af657600080fd5b50610578610b053660046155cb565b612684565b610602610b183660046155fe565b6126bc565b348015610b2957600080fd5b50610a1d610b38366004615028565b612be8565b348015610b4957600080fd5b50600061064a565b348015610b5d57600080fd5b50610aaf610b6c366004615028565b60d7602052600090815260409020805460019091015482565b610602610b9336600461539b565b612c15565b348015610ba457600080fd5b50610578610bb33660046150f0565b60d860209081526000928352604080842090915290825290205460ff1681565b610602610be136600461539b565b612c65565b348015610bf257600080fd5b5060cd546001600160a01b03166105ca565b348015610c1057600080fd5b5061059d612cf7565b610602610c2736600461539b565b612d06565b348015610c3857600080fd5b5061064a610c473660046151f2565b60d26020526000908152604090205481565b348015610c6557600080fd5b50610602610c743660046151f2565b612f2b565b348015610c8557600080fd5b50610602610c94366004615637565b612f80565b348015610ca557600080fd5b50610cb9610cb43660046155cb565b612f8b565b60405161054f919061566e565b348015610cd257600080fd5b50610578610ce13660046151f2565b60d56020526000908152604090205460ff1681565b610602610d043660046156de565b613227565b610602610d17366004615713565b6133dc565b348015610d2857600080fd5b5060cd546105ca906001600160a01b031681565b348015610d4857600080fd5b5060d1546105ca906001600160a01b031681565b348015610d6857600080fd5b5061059d610d77366004615028565b613589565b348015610d8857600080fd5b5060cc546001600160a01b03166105ca565b610602610da836600461574e565b613594565b348015610db957600080fd5b50610602610dc83660046151f2565b613750565b610602610ddb366004615789565b6137f8565b610602610dee3660046157b4565b613892565b348015610dff57600080fd5b50610578610e0e366004615028565b613a30565b610602610e213660046156de565b613a59565b610602610e343660046157e0565b613bc2565b610602610e47366004615815565b613c4e565b348015610e5857600080fd5b50610578610e67366004615849565b6001600160a01b039182166000908152606b6020908152604080832093909416825291909152205460ff1690565b610602610ea33660046155cb565b613cf0565b610602610eb63660046156de565b613d9f565b610602610ec936600461539b565b613f18565b348015610eda57600080fd5b50610602610ee9366004615028565b6140dc565b348015610efa57600080fd5b50610602610f093660046151f2565b614115565b348015610f1a57600080fd5b50610602610f2936600461588c565b61416b565b348015610f3a57600080fd5b50610602610f49366004615028565b6141d0565b348015610f5a57600080fd5b50610602610f6936600461539b565b6142c6565b348015610f7a57600080fd5b50610cb9610f8936600461539b565b61434d565b6000610f99826144f8565b92915050565b606060658054610fae906158b1565b80601f0160208091040260200160405190810160405280929190818152602001828054610fda906158b1565b80156110275780601f10610ffc57610100808354040283529160200191611027565b820191906000526020600020905b81548152906001019060200180831161100a57829003601f168201915b5050505050905090565b600061103c8261451d565b151560011461104a57600080fd5b506000908152606a60205260409020546001600160a01b031690565b60006110718261236e565b9050806001600160a01b0316836001600160a01b0316036110e35760405162461bcd60e51b815260206004820152602160248201527f4552433732313a20617070726f76616c20746f2063757272656e74206f776e656044820152603960f91b60648201526084015b60405180910390fd5b336001600160a01b03821614806110ff57506110ff8133610e67565b6111715760405162461bcd60e51b815260206004820152603d60248201527f4552433732313a20617070726f76652063616c6c6572206973206e6f7420746f60448201527f6b656e206f776e6572206f7220617070726f76656420666f7220616c6c00000060648201526084016110da565b61117b838361453a565b505050565b33600090815260d5602052604081205460ff16151590036111b35760405162461bcd60e51b81526004016110da906158e5565b600084815260d3602090815260408083206001600160a01b03861684526009019091529020548111156111f85760405162461bcd60e51b81526004016110da90615908565b6112018461451d565b1515600114801561121c57506112168361451d565b15156001145b61122557600080fd5b600084815260d3602090815260408083206001600160a01b038616845260090190915290205461125690829061593e565b600085815260d3602081815260408084206001600160a01b038816808652600991820184528286209690965588855292825280842094845293909101905220546112a1908290615951565b600084815260d3602090815260408083206001600160a01b03871684526009019091529020556112d0846145a8565b600084815260d360205260409020546001600160a01b031634158015906112ff57506001600160a01b03811615155b80156113285750600085815260d360205260409020600101546001600160a01b03828116911614155b156113e657600085815260d6602052604081205460ff169081900361134b575060055b600060646113598334615964565b611363919061597b565b6040519091506001600160a01b0384169082156108fc029083906000818181858888f1935050505015801561139c573d6000803e3d6000fd5b506113a7813461593e565b6000805260d2602052600080516020615d41833981519152546113ca9190615951565b6000805260d2602052600080516020615d418339815191525550505b5050505050565b60cd546001600160a01b031633146114215760405162461bcd60e51b815260206004820152600060248201526044016110da565b60cc80546001600160a01b0319166001600160a01b0392909216919091179055565b60cd546001600160a01b031633146114775760405162461bcd60e51b815260206004820152600060248201526044016110da565b6001600160a01b0316600090815260d560205260409020805460ff19166001179055565b600060cf5460056114ac9190615964565b905090565b60cd546001600160a01b031633146114e55760405162461bcd60e51b815260206004820152600060248201526044016110da565b60d180546001600160a01b0319166001600160a01b0392909216919091179055565b61151133826145dc565b6115735760405162461bcd60e51b815260206004820152602d60248201527f4552433732313a2063616c6c6572206973206e6f7420746f6b656e206f776e6560448201526c1c881bdc88185c1c1c9bdd9959609a1b60648201526084016110da565b61117b83838361465b565b33600090815260d5602052604081205460ff16151590036115b15760405162461bcd60e51b81526004016110da906158e5565b600084815260d360205260409020600101546001600160a01b0383811691161461160a5760405162461bcd60e51b815260206004820152600a6024820152693737ba103437b63232b960b11b60448201526064016110da565b600084815260d360205260409020600701548110801561163a5750600084815260d3602052604090206005015442105b61167f5760405162461bcd60e51b81526020600482015260166024820152751cdb1bdd08195e18d95959081bdc88195e1c1a5c995960521b60448201526064016110da565b600084815260d360208181526040808420858552600a8101835290842088855292909152600601805491926116b38361599d565b91905055506116c1856145a8565b600181016116cf87826159fc565b50600381016116de85826159fc565b506002810180546001600160a01b0319166001600160a01b0385161790553415611740576000805260d2602052600080516020615d4183398151915254611726903490615951565b6000805260d2602052600080516020615d41833981519152555b505050505050565b6000611753836123d3565b82106117b55760405162461bcd60e51b815260206004820152602b60248201527f455243373231456e756d657261626c653a206f776e657220696e646578206f7560448201526a74206f6620626f756e647360a81b60648201526084016110da565b506001600160a01b03919091166000908152609860209081526040808320938352929052205490565b60cd546001600160a01b031633146118125760405162461bcd60e51b815260206004820152600060248201526044016110da565b60cf55565b33600090815260d5602052604081205460ff161515900361184a5760405162461bcd60e51b81526004016110da906158e5565b6118538161451d565b156118915760405162461bcd60e51b815260206004820152600e60248201526d185b1c9958591e481b5a5b9d195960921b60448201526064016110da565b600081815260d36020908152604080832060d15482516303408e4760e41b815292519194936001600160a01b0390911692633408e47092600480830193928290030181865afa1580156118e8573d6000803e3d6000fd5b505050506040513d601f19601f8201168201806040525081019061190c9190615abc565b905061191884846147cc565b6001820180546001600160a01b0386166001600160a01b031991821681179092558354161782554260038301819055611955906301e13380615951565b6005830155611963836145a8565b60c860078301556001808301805463ffffffff60a01b1916600160a01b61ffff851690810261ffff60b01b191691909117600160b01b9190910217905560028301849055600084815260d760205260409020600a91015534156119fe576000805260d2602052600080516020615d41833981519152546119e4903490615951565b6000805260d2602052600080516020615d41833981519152555b50505050565b33600090815260d56020526040902054829060ff161580611a40575033600090815260d86020908152604080832084845290915290205460ff16155b15611a5d5760405162461bcd60e51b81526004016110da906158e5565b600083815260d960209081526040808320858452909152902054610100900460ff161515600003611aaa5760405162461bcd60e51b815260206004820152600060248201526044016110da565b600083815260d9602090815260408083208584529091528120805461ffff1916815590611ada6001830182614fd2565b6002820180546001600160a01b0319169055611afa600383016000614fd2565b5050341561117b576000805260d2602052600080516020615d4183398151915254611b26903490615951565b6000805260d2602052600080516020615d4183398151915255505050565b6000611b4f609a5490565b8210611bb25760405162461bcd60e51b815260206004820152602c60248201527f455243373231456e756d657261626c653a20676c6f62616c20696e646578206f60448201526b7574206f6620626f756e647360a01b60648201526084016110da565b609a8281548110611bc557611bc5615ad9565b90600052602060002001549050919050565b33600090815260d5602052604081205460ff1615159003611c0a5760405162461bcd60e51b81526004016110da906158e5565b600082815260d36020526040902060080154611c2790829061593e565b600092835260d360205260409092206008019190915550565b60cd546001600160a01b03163314611c745760405162461bcd60e51b815260206004820152600060248201526044016110da565b6001600160a01b038216600090815260d26020526040902054811115611cca5760405162461bcd60e51b815260206004820152600b60248201526a4e6f2062616c616e63657360a81b60448201526064016110da565b6001600160a01b038216600090815260d26020526040902054611cee90829061593e565b6001600160a01b038316600081815260d260205260409081902092909255905163a9059cbb60e01b81523360048201526024810183905263a9059cbb906044016020604051808303816000875af1158015611d4d573d6000803e3d6000fd5b505050506040513d601f19601f8201168201806040525081019061117b9190615aef565b33600090815260d5602052604081205460ff1615159003611da45760405162461bcd60e51b81526004016110da906158e5565b611dad8561451d565b15156001148015611dc657506001600160a01b03841615155b611de25760405162461bcd60e51b81526004016110da90615b0c565b6040516370a0823160e01b815230600482015283906001600160a01b038616906370a0823190602401602060405180830381865afa158015611e28573d6000803e3d6000fd5b505050506040513d601f19601f82011682018060405250810190611e4c9190615b35565b10158015611e7f5750600085815260d3602090815260408083206001600160a01b03881684526009019091529020548311155b611e9b5760405162461bcd60e51b81526004016110da90615908565b600085815260d360205260409020600101546001600160a01b03828116911614611ef35760405162461bcd60e51b81526020600482015260096024820152683737ba1037bbb732b960b91b60448201526064016110da565b60006103e8611f03856002615964565b611f0d919061597b565b600087815260d3602090815260408083206001600160a01b038a168452600901909152902054909150611f4190859061593e565b600087815260d3602090815260408083206001600160a01b038a1680855260099091019092529091209190915563a9059cbb84611f7e848861593e565b6040516001600160e01b031960e085901b1681526001600160a01b03909216600483015260248201526044016020604051808303816000875af1158015611fc9573d6000803e3d6000fd5b505050506040513d601f19601f82011682018060405250810190611fed9190615aef565b50611ff7866145a8565b600086815260d360205260409020546001600160a01b0316801561208a5760405163a9059cbb60e01b81526001600160a01b0382811660048301526024820184905287169063a9059cbb906044016020604051808303816000875af1158015612064573d6000803e3d6000fd5b505050506040513d601f19601f820116820180604052508101906120889190615aef565b505b6000341180156120a257506001600160a01b03811615155b80156120cb5750600087815260d360205260409020600101546001600160a01b03828116911614155b1561218957600087815260d6602052604081205460ff16908190036120ee575060055b600060646120fc8334615964565b612106919061597b565b6040519091506001600160a01b0384169082156108fc029083906000818181858888f1935050505015801561213f573d6000803e3d6000fd5b5061214a813461593e565b6000805260d2602052600080516020615d418339815191525461216d9190615951565b6000805260d2602052600080516020615d418339815191525550505b50505050505050565b600054610100900460ff16158080156121b25750600054600160ff909116105b806121cc5750303b1580156121cc575060005460ff166001145b61222f5760405162461bcd60e51b815260206004820152602e60248201527f496e697469616c697a61626c653a20636f6e747261637420697320616c72656160448201526d191e481a5b9a5d1a585b1a5e995960921b60648201526084016110da565b6000805460ff191660011790558015612252576000805461ff0019166101001790555b60cb546001600160a01b0316331461229b5760405162461bcd60e51b815260206004820152600c60248201526b6e6f7420696e69742061636360a01b60448201526064016110da565b6122a584846147e6565b6122ad614826565b60d180546001600160a01b038085166001600160a01b03199283161790925533600081815260d560205260408120805460ff1916600117905560cd8054841690921790915560cc805493891693909216929092179055600260ce55655af3107a400060cf55600360d055612322903090611817565b80156113e6576000805461ff0019169055604051600181527f7f26b83ff96e1f2b6a682f133852f6798a09c465da95921460cefb38474024989060200160405180910390a15050505050565b6000818152606860205260408120546001600160a01b031680610f995760405162461bcd60e51b815260206004820152601860248201527f4552433732313a20696e76616c696420746f6b656e204944000000000000000060448201526064016110da565b60006001600160a01b03821661243d5760405162461bcd60e51b815260206004820152602960248201527f4552433732313a2061646472657373207a65726f206973206e6f7420612076616044820152683634b21037bbb732b960b91b60648201526084016110da565b506001600160a01b031660009081526069602052604090205490565b600081815260d360205260408120600601548190612478816001615951565b91509150915091565b33600090815260d5602052604081205460ff16151590036124b45760405162461bcd60e51b81526004016110da906158e5565b6124bd8261451d565b15156001146124cb57600080fd5b6124d5828261484f565b3415612519576000805260d2602052600080516020615d41833981519152546124ff903490615951565b6000805260d2602052600080516020615d41833981519152555b5050565b33600090815260d56020526040902054839060ff161580612559575033600090815260d86020908152604080832084845290915290205460ff16155b156125765760405162461bcd60e51b81526004016110da906158e5565b600084815260d960209081526040808320868452909152902054610100900460ff1615156001036125c35760405162461bcd60e51b815260206004820152600060248201526044016110da565b600084815260d960209081526040808320868452825291829020845181549286015161ffff1990931690151561ff001916176101009215159290920291909117815590830151839190600182019061261b90826159fc565b5060608201516002820180546001600160a01b0319166001600160a01b039092169190911790556080820151600382019061265690826159fc565b5050341590506119fe576000805260d2602052600080516020615d41833981519152546119e4903490615951565b600082815260d76020908152604080832084845260020182528083206001600160a01b038716845290915290205460ff169392505050565b600083815260d36020526040902060018101546001600160a01b03163314806126ee575080546001600160a01b031633145b61272e5760405162461bcd60e51b815260206004820152601160248201527003737ba1030b1b1b2b9b9903a379034b21607d1b60448201526064016110da565b6000838152600a820160205260409020600201546001600160a01b0316331461278d5760405162461bcd60e51b81526020600482015260116024820152701b9bc81858d8d95cdcc81d1bc81cdb1bdd607a1b60448201526064016110da565b60018101546001600160a01b0316331480156127ab57506001821515145b1561289a5760cf546127be906005615964565b60cc546001600160a01b0316600090815260098301602052604090205410156127f95760405162461bcd60e51b81526004016110da90615b4e565b60cf54612807906005615964565b60cc546001600160a01b0316600090815260098301602052604090205461282e919061593e565b60cc546001600160a01b0316600090815260098301602052604090205560cf54612859906005615964565b60cc546001600160a01b0316600090815260d2602052604090205461287e9190615951565b60cc546001600160a01b0316600090815260d260205260409020555b60018101546001600160a01b0316331480156128b4575081155b15612a295760cf546128c7906005615964565b60cc546040516370a0823160e01b81523360048201526001600160a01b03909116906370a0823190602401602060405180830381865afa15801561290f573d6000803e3d6000fd5b505050506040513d601f19601f820116820180604052508101906129339190615b35565b10156129515760405162461bcd60e51b81526004016110da90615b4e565b60cc5460cf546001600160a01b03909116906323b872dd9033903090612978906005615964565b6040518463ffffffff1660e01b815260040161299693929190615b70565b6020604051808303816000875af11580156129b5573d6000803e3d6000fd5b505050506040513d601f19601f820116820180604052508101906129d99190615aef565b5060cf546129e8906005615964565b60cc546001600160a01b0316600090815260d26020526040902054612a0d9190615951565b60cc546001600160a01b0316600090815260d260205260409020555b80546001600160a01b031633148015612a4f575060018101546001600160a01b03163314155b15612bc45760cf54612a62906005615964565b60cc546040516370a0823160e01b81523360048201526001600160a01b03909116906370a0823190602401602060405180830381865afa158015612aaa573d6000803e3d6000fd5b505050506040513d601f19601f82011682018060405250810190612ace9190615b35565b1015612aec5760405162461bcd60e51b81526004016110da90615b4e565b60cc5460cf546001600160a01b03909116906323b872dd9033903090612b13906005615964565b6040518463ffffffff1660e01b8152600401612b3193929190615b70565b6020604051808303816000875af1158015612b50573d6000803e3d6000fd5b505050506040513d601f19601f82011682018060405250810190612b749190615aef565b5060cf54612b83906005615964565b60cc546001600160a01b0316600090815260d26020526040902054612ba89190615951565b60cc546001600160a01b0316600090815260d260205260409020555b612bcd846145a8565b6000928352600a016020525060409020805460ff1916905550565b600081815260d6602052604081205460ff168015612c065792915050565b50600292915050565b50919050565b33600090815260d5602052604081205460ff1615159003612c485760405162461bcd60e51b81526004016110da906158e5565b600082815260d36020526040902060080154611c27908290615951565b33600090815260d5602052604081205460ff1615159003612c985760405162461bcd60e51b81526004016110da906158e5565b60d4548210612cb95760405162461bcd60e51b81526004016110da90615b0c565b600082815260d36020526040902042600482015560050154612cdc908290615951565b600083815260d360205260409020600501556124d5826145a8565b606060668054610fae906158b1565b8160cf54612d149190615964565b60cc546040516370a0823160e01b81523360048201526001600160a01b03909116906370a0823190602401602060405180830381865afa158015612d5c573d6000803e3d6000fd5b505050506040513d601f19601f82011682018060405250810190612d809190615b35565b1015612dbf5760405162461bcd60e51b815260206004820152600e60248201526d149958da185c99d948199a5c9cdd60921b60448201526064016110da565b600081815260d360205260409020600101546001600160a01b03163314612de557600080fd5b60cc5460cf546001600160a01b03909116906323b872dd9033903090612e0c908790615964565b6040518463ffffffff1660e01b8152600401612e2a93929190615b70565b6020604051808303816000875af1158015612e49573d6000803e3d6000fd5b505050506040513d601f19601f82011682018060405250810190612e6d9190615aef565b508160cf54612e7c9190615964565b600082815260d36020908152604080832060cc546001600160a01b03168452600901909152902054612eae919061593e565b600082815260d36020818152604080842060cc546001600160a01b03168552600981018352908420949094559184905290524260049091015560ca54612ef49083615964565b600082815260d36020526040902060050154612f109190615951565b600082815260d36020526040902060050155612519816145a8565b60cd546001600160a01b03163314612f5f5760405162461bcd60e51b815260206004820152600060248201526044016110da565b6001600160a01b0316600090815260d560205260409020805460ff19169055565b612519338383614867565b6040805160a081018252600080825260208083018290526060838501819052808401839052608084015285825260d38152838220858352600a01905291909120600201546001600160a01b0385811691161480612ff45750612fee848484612684565b15156001145b6130405760405162461bcd60e51b815260206004820152601860248201527f6e6f74206f776e6572206f6620696420616e6420736c6f74000000000000000060448201526064016110da565b600083815260d360209081526040808320858452600a0190915290205460ff161561309c5760405162461bcd60e51b815260206004820152600c60248201526b11195b195d19590814db1bdd60a21b60448201526064016110da565b600083815260d360209081526040808320858452600a01825291829020825160a081018452815460ff808216151583526101009091041615159281019290925260018101805492939192918401916130f3906158b1565b80601f016020809104026020016040519081016040528092919081815260200182805461311f906158b1565b801561316c5780601f106131415761010080835404028352916020019161316c565b820191906000526020600020905b81548152906001019060200180831161314f57829003601f168201915b505050918352505060028201546001600160a01b0316602082015260038201805460409092019161319c906158b1565b80601f01602080910402602001604051908101604052809291908181526020018280546131c8906158b1565b80156132155780601f106131ea57610100808354040283529160200191613215565b820191906000526020600020905b8154815290600101906020018083116131f857829003601f168201915b50505050508152505090509392505050565b600083815260d360209081526040808320858452600a01825280832086845260d790925290912060018101549054106132a25760405162461bcd60e51b815260206004820152601f60248201527f6d617820736861726520616c6c6f7765642031302062792064656661756c740060448201526064016110da565b600084815260d360205260409020600101546001600160a01b03163314806132e05750600084815260d360205260409020546001600160a01b031633145b61331f5760405162461bcd60e51b815260206004820152601060248201526f03737ba1037bbb732b91037b31034b2160851b60448201526064016110da565b60028101546001600160a01b03163314801561333d5750805460ff16155b6133595760405162461bcd60e51b81526004016110da90615b94565b613362846145a8565b600084815260d7602081815260408084208785526002810183528185206001600160a01b03881686528352908420805460ff191660011790558784529190528054916133ad8361599d565b909155505034156119fe576000805260d2602052600080516020615d41833981519152546119e4903490615951565b6133e58461451d565b15156001146133f357600080fd5b82471015801561341f5750600084815260d3602090815260408083208380526009019091529020548311155b61343b5760405162461bcd60e51b81526004016110da90615908565b600084815260d360205260409020600101546001600160a01b038281169116146134935760405162461bcd60e51b81526020600482015260096024820152683737ba1037bbb732b960b91b60448201526064016110da565b600084815260d3602090815260408083208380526009019091529020546134bb90849061593e565b600085815260d36020818152604080842084805260098101835281852095909555888452919052915491516001600160a01b039283169285169186156108fc02918791818181858888f1935050505015801561351b573d6000803e3d6000fd5b506000341180156112ff57506001600160a01b038116151580156113285750600085815260d360205260409020600101546001600160a01b038281169116146113e657600085815260d6602052604081205460ff169081900361134b57506005600060646113598334615964565b6060610f9982614935565b33600090815260d5602052604081205460ff16151590036135c75760405162461bcd60e51b81526004016110da906158e5565b6135d08461451d565b15156001146135f15760405162461bcd60e51b81526004016110da90615b0c565b6040516370a0823160e01b81526001600160a01b0382811660048301528391908516906370a0823190602401602060405180830381865afa15801561363a573d6000803e3d6000fd5b505050506040513d601f19601f8201168201806040525081019061365e9190615b35565b101561367c5760405162461bcd60e51b81526004016110da90615908565b6040516323b872dd60e01b81526001600160a01b038416906323b872dd906136ac90849030908790600401615b70565b6020604051808303816000875af11580156136cb573d6000803e3d6000fd5b505050506040513d601f19601f820116820180604052508101906136ef9190615aef565b50600084815260d3602090815260408083206001600160a01b0387168452600901909152902054613721908390615951565b600085815260d3602090815260408083206001600160a01b03881684526009019091529020556112d0846145a8565b60cd546001600160a01b031633146137845760405162461bcd60e51b815260206004820152600060248201526044016110da565b6001600160a01b03811660009081527f938258ec6d8d468a3507d140e1c026dc2afa285c097847a088da7b50946fb9246020908152604080832080549084905560d2909252909120546137d8908290615951565b6001600160a01b03909216600090815260d2602052604090209190915550565b33600090815260d5602052604081205460ff161515900361382b5760405162461bcd60e51b81526004016110da906158e5565b600082815260d6602052604090205461384890829060ff16615bd5565b600083815260d660205260409020805460ff191660ff929092169190911790553415612519576000805260d2602052600080516020615d41833981519152546124ff903490615951565b33600090815260d5602052604081205460ff16151590036138c55760405162461bcd60e51b81526004016110da906158e5565b600083815260d360205260409020600801548111156138e357600080fd5b600083815260d3602052604090206008015461390090829061593e565b600084815260d360205260408082206008908101939093558482529020015461392a908290615951565b600083815260d360205260408082206008019290925584815220546001600160a01b0316341580159061396557506001600160a01b03811615155b801561398e5750600084815260d360205260409020600101546001600160a01b03828116911614155b156119fe57600084815260d6602052604081205460ff16908190036139b1575060055b600060646139bf8334615964565b6139c9919061597b565b6040519091506001600160a01b0384169082156108fc029083906000818181858888f19350505050158015613a02573d6000803e3d6000fd5b50613a0d813461593e565b6000805260d2602052600080516020615d41833981519152546117269190615951565b600081815260d36020526040812060050154421115613a5157506001919050565b506000919050565b600083815260d360205260409020600101546001600160a01b0316331480613a975750600083815260d360205260409020546001600160a01b031633145b613ad65760405162461bcd60e51b815260206004820152601060248201526f03737ba1037bbb732b91037b31034b2160851b60448201526064016110da565b600083815260d360209081526040808320858452600a019091529020600201546001600160a01b031633148015613b2a5750600083815260d360209081526040808320858452600a0190915290205460ff16155b613b465760405162461bcd60e51b81526004016110da90615b94565b613b4f836145a8565b600083815260d7602081815260408084208685526002810183528185206001600160a01b03871686528352908420805460ff19169055928690525254613b979060019061593e565b50341561117b576000805260d2602052600080516020615d4183398151915254611b26903490615951565b33600090815260d5602052604081205460ff1615159003613bf55760405162461bcd60e51b81526004016110da906158e5565b6001600160a01b038316600090815260d8602090815260408083208584529091529020805460ff1916821515179055341561117b576000805260d2602052600080516020615d4183398151915254611b26903490615951565b33600090815260d5602052604081205460ff1615159003613c815760405162461bcd60e51b81526004016110da906158e5565b600084815260d360209081526040808320868452600a019091529020600201546001600160a01b03828116911614613cb857600080fd5b600084815260d76020526040902060010154613cd5908390615951565b600094855260d7602052604090942060010193909355505050565b33600090815260d5602052604081205460ff1615159003613d235760405162461bcd60e51b81526004016110da906158e5565b6001600160a01b03831660009081527f938258ec6d8d468a3507d140e1c026dc2afa285c097847a088da7b50946fb9246020526040902054821115613d925760405162461bcd60e51b81526020600482015260056024820152641b9bd8985b60da1b60448201526064016110da565b61117b6000828585611180565b33600090815260d5602052604081205460ff1615159003613dd25760405162461bcd60e51b81526004016110da906158e5565b600083815260d360208181526040808420868552600a8101835290842093879052919052600601548311801590613e195750600084815260d3602052604090206005015442105b613e535760405162461bcd60e51b815260206004820152600b60248201526a1cdb1bdd08195e18d9595960aa1b60448201526064016110da565b60028101546001600160a01b038381169116148015613e8e5750600084815260d360205260409020600101546001600160a01b038381169116145b613eda5760405162461bcd60e51b815260206004820152601760248201527f646964206e6f742073746f7265206461746120736c6f7400000000000000000060448201526064016110da565b613ee3846145a8565b805460ff1916600117815534156119fe576000805260d2602052600080516020615d41833981519152546119e4903490615951565b613f218261451d565b1515600114613f2f57600080fd5b80341015613f6a5760405162461bcd60e51b815260206004820152600860248201526773656e642066656560c01b60448201526064016110da565b600082815260d360205260408120546001600160a01b031690613f8d833461593e565b9050600081118015613fa757506001600160a01b03821615155b8015613fd05750600084815260d360205260409020600101546001600160a01b03838116911614155b1561408e57600084815260d6602052604081205460ff1690819003613ff3575060055b600060646140018385615964565b61400b919061597b565b6040519091506001600160a01b0385169082156108fc029083906000818181858888f19350505050158015614044573d6000803e3d6000fd5b5061404f818461593e565b6000805260d2602052600080516020615d41833981519152546140729190615951565b6000805260d2602052600080516020615d418339815191525550505b600084815260d3602090815260408083208380526009019091529020546140b6908490615951565b600085815260d3602090815260408083208380526009019091529020556119fe846145a8565b60cd546001600160a01b031633146141105760405162461bcd60e51b815260206004820152600060248201526044016110da565b60d055565b60cd546001600160a01b031633146141495760405162461bcd60e51b815260206004820152600060248201526044016110da565b60cd80546001600160a01b0319166001600160a01b0392909216919091179055565b33600090815260d5602052604081205460ff161515900361419e5760405162461bcd60e51b81526004016110da906158e5565b600091825260d36020526040909120600101805461ffff909216600160b01b0261ffff60b01b19909216919091179055565b60cd546001600160a01b031633146142045760405162461bcd60e51b815260206004820152600060248201526044016110da565b600080805260d2602052600080516020615d418339815191525482111561425b5760405162461bcd60e51b815260206004820152600b60248201526a4e6f2062616c616e63657360a81b60448201526064016110da565b6001600160a01b038116600090815260d2602052604090205461427f90839061593e565b6001600160a01b038216600090815260d26020526040808220929092559051339184156108fc02918591818181858888f1935050505015801561117b573d6000803e3d6000fd5b33600090815260d5602052604081205460ff16151590036142f95760405162461bcd60e51b81526004016110da906158e5565b60d454811061431a5760405162461bcd60e51b81526004016110da90615b0c565b600081815260d36020526040902060070154614337908390615951565b600091825260d360205260409091206007015550565b6040805160a08082018352600080835260208084018290526060848601819052808501839052608085015286825260d9815284822086835281529084902084519283018552805460ff80821615158552610100909104161515918301919091526001810180549394929391928401916143c5906158b1565b80601f01602080910402602001604051908101604052809291908181526020018280546143f1906158b1565b801561443e5780601f106144135761010080835404028352916020019161443e565b820191906000526020600020905b81548152906001019060200180831161442157829003601f168201915b505050918352505060028201546001600160a01b0316602082015260038201805460409092019161446e906158b1565b80601f016020809104026020016040519081016040528092919081815260200182805461449a906158b1565b80156144e75780601f106144bc576101008083540402835291602001916144e7565b820191906000526020600020905b8154815290600101906020018083116144ca57829003601f168201915b505050505081525050905092915050565b60006001600160e01b0319821663780e9d6360e01b1480610f995750610f99826149d7565b6000908152606860205260409020546001600160a01b0316151590565b6000818152606a6020526040902080546001600160a01b0319166001600160a01b038416908117909155819061456f8261236e565b6001600160a01b03167f8c5be1e5ebec7d5bd14f71427d1e84f3dd0314c0f7b2291e5b200ac8c7c3b92560405160405180910390a45050565b60d054600082815260d360205260409020600801546145c79190615951565b600091825260d3602052604090912060080155565b6000806145e88361236e565b9050806001600160a01b0316846001600160a01b0316148061462f57506001600160a01b038082166000908152606b602090815260408083209388168352929052205460ff165b806146535750836001600160a01b031661464884611031565b6001600160a01b0316145b949350505050565b826001600160a01b031661466e8261236e565b6001600160a01b0316146146945760405162461bcd60e51b81526004016110da90615bee565b6001600160a01b0382166146f65760405162461bcd60e51b8152602060048201526024808201527f4552433732313a207472616e7366657220746f20746865207a65726f206164646044820152637265737360e01b60648201526084016110da565b6147038383836001614a27565b826001600160a01b03166147168261236e565b6001600160a01b03161461473c5760405162461bcd60e51b81526004016110da90615bee565b6000818152606a6020908152604080832080546001600160a01b03199081169091556001600160a01b0387811680865260698552838620805460001901905590871680865283862080546001019055868652606890945282852080549092168417909155905184937fddf252ad1be2c89b69c2b068fc378daa952ba7f163c4a11628f55a4df523b3ef91a4505050565b612519828260405180602001604052806000815250614a66565b600054610100900460ff1661480d5760405162461bcd60e51b81526004016110da90615c33565b606561481983826159fc565b50606661117b82826159fc565b600054610100900460ff1661484d5760405162461bcd60e51b81526004016110da90615c33565b565b600082815260676020526040902061117b82826159fc565b816001600160a01b0316836001600160a01b0316036148c85760405162461bcd60e51b815260206004820152601960248201527f4552433732313a20617070726f766520746f2063616c6c65720000000000000060448201526064016110da565b6001600160a01b038381166000818152606b6020908152604080832094871680845294825291829020805460ff191686151590811790915591519182527f17307eab39ab6107e8899845ad3d59bd9653f200f220920489ca2b5937696c31910160405180910390a3505050565b6000818152606760205260409020805460609190614952906158b1565b80601f016020809104026020016040519081016040528092919081815260200182805461497e906158b1565b80156149cb5780601f106149a0576101008083540402835291602001916149cb565b820191906000526020600020905b8154815290600101906020018083116149ae57829003601f168201915b50505050509050919050565b60006001600160e01b03198216637aa5391d60e01b1480614a0857506001600160e01b03198216635b5e139f60e01b145b80610f9957506301ffc9a760e01b6001600160e01b0319831614610f99565b614a3384848484614a99565b50600090815260d36020526040902060010180546001600160a01b0319166001600160a01b039290921691909117905550565b614a708383614bc6565b614a7d6000848484614d41565b61117b5760405162461bcd60e51b81526004016110da90615c7e565b6001811115614b085760405162461bcd60e51b815260206004820152603560248201527f455243373231456e756d657261626c653a20636f6e7365637574697665207472604482015274185b9cd9995c9cc81b9bdd081cdd5c1c1bdc9d1959605a1b60648201526084016110da565b816001600160a01b038516614b6457614b5f81609a80546000838152609b60205260408120829055600182018355919091527f44da158ba27f9252712a74ff6a55c5d531f69609f1f6e7f17c4443a8e2089be40155565b614b87565b836001600160a01b0316856001600160a01b031614614b8757614b878582614e42565b6001600160a01b038416614ba357614b9e81614edf565b6113e6565b846001600160a01b0316846001600160a01b0316146113e6576113e68482614f8e565b6001600160a01b038216614c1c5760405162461bcd60e51b815260206004820181905260248201527f4552433732313a206d696e7420746f20746865207a65726f206164647265737360448201526064016110da565b614c258161451d565b15614c725760405162461bcd60e51b815260206004820152601c60248201527f4552433732313a20746f6b656e20616c7265616479206d696e7465640000000060448201526064016110da565b614c80600083836001614a27565b614c898161451d565b15614cd65760405162461bcd60e51b815260206004820152601c60248201527f4552433732313a20746f6b656e20616c7265616479206d696e7465640000000060448201526064016110da565b6001600160a01b038216600081815260696020908152604080832080546001019055848352606890915280822080546001600160a01b0319168417905551839291907fddf252ad1be2c89b69c2b068fc378daa952ba7f163c4a11628f55a4df523b3ef908290a45050565b60006001600160a01b0384163b15614e3757604051630a85bd0160e11b81526001600160a01b0385169063150b7a0290614d85903390899088908890600401615cd0565b6020604051808303816000875af1925050508015614dc0575060408051601f3d908101601f19168201909252614dbd91810190615d0d565b60015b614e1d573d808015614dee576040519150601f19603f3d011682016040523d82523d6000602084013e614df3565b606091505b508051600003614e155760405162461bcd60e51b81526004016110da90615c7e565b805181602001fd5b6001600160e01b031916630a85bd0160e11b149050614653565b506001949350505050565b60006001614e4f846123d3565b614e59919061593e565b600083815260996020526040902054909150808214614eac576001600160a01b03841660009081526098602090815260408083208584528252808320548484528184208190558352609990915290208190555b5060009182526099602090815260408084208490556001600160a01b039094168352609881528383209183525290812055565b609a54600090614ef19060019061593e565b6000838152609b6020526040812054609a8054939450909284908110614f1957614f19615ad9565b9060005260206000200154905080609a8381548110614f3a57614f3a615ad9565b6000918252602080832090910192909255828152609b9091526040808220849055858252812055609a805480614f7257614f72615d2a565b6001900381819060005260206000200160009055905550505050565b6000614f99836123d3565b6001600160a01b039093166000908152609860209081526040808320868452825280832085905593825260999052919091209190915550565b508054614fde906158b1565b6000825580601f10614fee575050565b601f01602090049060005260206000209081019061500c919061500f565b50565b5b808211156150245760008155600101615010565b5090565b60006020828403121561503a57600080fd5b5035919050565b6001600160e01b03198116811461500c57600080fd5b60006020828403121561506957600080fd5b813561507481615041565b9392505050565b6000815180845260005b818110156150a157602081850181015186830182015201615085565b506000602082860101526020601f19601f83011685010191505092915050565b602081526000615074602083018461507b565b80356001600160a01b03811681146150eb57600080fd5b919050565b6000806040838503121561510357600080fd5b61510c836150d4565b946020939093013593505050565b6000806000806080858703121561513057600080fd5b8435935060208501359250615147604086016150d4565b9396929550929360600135925050565b60008060008060006080868803121561516f57600080fd5b615178866150d4565b9450615186602087016150d4565b935060408601359250606086013567ffffffffffffffff808211156151aa57600080fd5b818801915088601f8301126151be57600080fd5b8135818111156151cd57600080fd5b8960208285010111156151df57600080fd5b9699959850939650602001949392505050565b60006020828403121561520457600080fd5b615074826150d4565b60008060006060848603121561522257600080fd5b61522b846150d4565b9250615239602085016150d4565b9150604084013590509250925092565b634e487b7160e01b600052604160045260246000fd5b60405160a0810167ffffffffffffffff8111828210171561528257615282615249565b60405290565b600082601f83011261529957600080fd5b813567ffffffffffffffff808211156152b4576152b4615249565b604051601f8301601f19908116603f011681019082821181831017156152dc576152dc615249565b816040528381528660208588010111156152f557600080fd5b836020870160208301376000602085830101528094505050505092915050565b600080600080600060a0868803121561532d57600080fd5b853567ffffffffffffffff8082111561534557600080fd5b61535189838a01615288565b965060208801359550604088013591508082111561536e57600080fd5b5061537b88828901615288565b93505061538a606087016150d4565b949793965091946080013592915050565b600080604083850312156153ae57600080fd5b50508035926020909101359150565b600080600080600060a086880312156153d557600080fd5b853594506153e5602087016150d4565b9350604086013592506153fa606087016150d4565b9150615408608087016150d4565b90509295509295909350565b6000806000806080858703121561542a57600080fd5b615433856150d4565b9350602085013567ffffffffffffffff8082111561545057600080fd5b61545c88838901615288565b9450604087013591508082111561547257600080fd5b5061547f87828801615288565b92505061548e606086016150d4565b905092959194509250565b600080604083850312156154ac57600080fd5b82359150602083013567ffffffffffffffff8111156154ca57600080fd5b6154d685828601615288565b9150509250929050565b801515811461500c57600080fd5b60008060006060848603121561550357600080fd5b8335925060208401359150604084013567ffffffffffffffff8082111561552957600080fd5b9085019060a0828803121561553d57600080fd5b61554561525f565b8235615550816154e0565b81526020830135615560816154e0565b602082015260408301358281111561557757600080fd5b61558389828601615288565b604083015250615595606084016150d4565b60608201526080830135828111156155ac57600080fd5b6155b889828601615288565b6080830152508093505050509250925092565b6000806000606084860312156155e057600080fd5b6155e9846150d4565b95602085013595506040909401359392505050565b60008060006060848603121561561357600080fd5b8335925060208401359150604084013561562c816154e0565b809150509250925092565b6000806040838503121561564a57600080fd5b615653836150d4565b91506020830135615663816154e0565b809150509250929050565b602081528151151560208201526020820151151560408201526000604083015160a060608401526156a260c084018261507b565b60608501516001600160a01b0316608085810191909152850151848203601f190160a08601529091506156d5828261507b565b95945050505050565b6000806000606084860312156156f357600080fd5b833592506020840135915061570a604085016150d4565b90509250925092565b6000806000806080858703121561572957600080fd5b8435935060208501359250615740604086016150d4565b915061548e606086016150d4565b6000806000806080858703121561576457600080fd5b84359350615774602086016150d4565b92506040850135915061548e606086016150d4565b6000806040838503121561579c57600080fd5b82359150602083013560ff8116811461566357600080fd5b6000806000606084860312156157c957600080fd5b505081359360208301359350604090920135919050565b6000806000606084860312156157f557600080fd5b6157fe846150d4565b925060208401359150604084013561562c816154e0565b6000806000806080858703121561582b57600080fd5b84359350602085013592506040850135915061548e606086016150d4565b6000806040838503121561585c57600080fd5b615865836150d4565b9150615873602084016150d4565b90509250929050565b61ffff8116811461500c57600080fd5b6000806040838503121561589f57600080fd5b8235915060208301356156638161587c565b600181811c908216806158c557607f821691505b602082108103612c0f57634e487b7160e01b600052602260045260246000fd5b6020808252600990820152681b9bc81c195c9b5a5d60ba1b604082015260600190565b6020808252600690820152651b9bc818985b60d21b604082015260600190565b634e487b7160e01b600052601160045260246000fd5b81810381811115610f9957610f99615928565b80820180821115610f9957610f99615928565b8082028115828204841417610f9957610f99615928565b60008261599857634e487b7160e01b600052601260045260246000fd5b500490565b6000600182016159af576159af615928565b5060010190565b601f82111561117b57600081815260208120601f850160051c810160208610156159dd5750805b601f850160051c820191505b81811015611740578281556001016159e9565b815167ffffffffffffffff811115615a1657615a16615249565b615a2a81615a2484546158b1565b846159b6565b602080601f831160018114615a5f5760008415615a475750858301515b600019600386901b1c1916600185901b178555611740565b600085815260208120601f198616915b82811015615a8e57888601518255948401946001909101908401615a6f565b5085821015615aac5787850151600019600388901b60f8161c191681555b5050505050600190811b01905550565b600060208284031215615ace57600080fd5b81516150748161587c565b634e487b7160e01b600052603260045260246000fd5b600060208284031215615b0157600080fd5b8151615074816154e0565b6020808252600f908201526e1b9bdb88195e1a5cdd195b9d081a59608a1b604082015260600190565b600060208284031215615b4757600080fd5b5051919050565b6020808252600890820152676e6565642066656560c01b604082015260600190565b6001600160a01b039384168152919092166020820152604081019190915260600190565b60208082526021908201527f6e6f2061636365737320746f20736c6f74206f722064656c6574656420736c6f6040820152601d60fa1b606082015260800190565b60ff8181168382160190811115610f9957610f99615928565b60208082526025908201527f4552433732313a207472616e736665722066726f6d20696e636f72726563742060408201526437bbb732b960d91b606082015260800190565b6020808252602b908201527f496e697469616c697a61626c653a20636f6e7472616374206973206e6f74206960408201526a6e697469616c697a696e6760a81b606082015260800190565b60208082526032908201527f4552433732313a207472616e7366657220746f206e6f6e20455243373231526560408201527131b2b4bb32b91034b6b83632b6b2b73a32b960711b606082015260800190565b6001600160a01b0385811682528416602082015260408101839052608060608201819052600090615d039083018461507b565b9695505050505050565b600060208284031215615d1f57600080fd5b815161507481615041565b634e487b7160e01b600052603160045260246000fdfe20791b593a776a2631a28f4a3f62a14ad18db22add38130c4f4a8fdfa4639885a2646970667358221220bc7c4dc6ded0bca39fb9f719eb67dd427c7aebcd7926ad2231e9d964bcb0aba664736f6c63430008110033",
			"opcodes": "PUSH1 0x80 PUSH1 0x40 MSTORE PUSH3 0x93A80 PUSH1 0xCA SSTORE CALLVALUE DUP1 ISZERO PUSH2 0x17 JUMPI PUSH1 0x0 DUP1 REVERT JUMPDEST POP PUSH2 0x5D96 DUP1 PUSH3 0x28 PUSH1 0x0 CODECOPY PUSH1 0x0 RETURN INVALID PUSH1 0x80 PUSH1 0x40 MSTORE PUSH1 0x4 CALLDATASIZE LT PUSH2 0x467 JUMPI PUSH1 0x0 CALLDATALOAD PUSH1 0xE0 SHR DUP1 PUSH4 0x7907D11C GT PUSH2 0x24A JUMPI DUP1 PUSH4 0xC87B56DD GT PUSH2 0x139 JUMPI DUP1 PUSH4 0xE985E9C5 GT PUSH2 0xB6 JUMPI DUP1 PUSH4 0xF2FDE38B GT PUSH2 0x7A JUMPI DUP1 PUSH4 0xF2FDE38B EQ PUSH2 0xEEE JUMPI DUP1 PUSH4 0xF5A482E0 EQ PUSH2 0xF0E JUMPI DUP1 PUSH4 0xF75535F5 EQ PUSH2 0xF2E JUMPI DUP1 PUSH4 0xFD71CA47 EQ PUSH2 0xF4E JUMPI DUP1 PUSH4 0xFF718C91 EQ PUSH2 0xF6E JUMPI PUSH1 0x0 DUP1 REVERT JUMPDEST DUP1 PUSH4 0xE985E9C5 EQ PUSH2 0xE4C JUMPI DUP1 PUSH4 0xE9F040D2 EQ PUSH2 0xE95 JUMPI DUP1 PUSH4 0xEC49FDA0 EQ PUSH2 0xEA8 JUMPI DUP1 PUSH4 0xED50AEB9 EQ PUSH2 0xEBB JUMPI DUP1 PUSH4 0xF101D8D2 EQ PUSH2 0xECE JUMPI PUSH1 0x0 DUP1 REVERT JUMPDEST DUP1 PUSH4 0xD4A01B02 GT PUSH2 0xFD JUMPI DUP1 PUSH4 0xD4A01B02 EQ PUSH2 0xDE0 JUMPI DUP1 PUSH4 0xD9548E53 EQ PUSH2 0xDF3 JUMPI DUP1 PUSH4 0xDB2C6DD9 EQ PUSH2 0xE13 JUMPI DUP1 PUSH4 0xDF39049A EQ PUSH2 0xE26 JUMPI DUP1 PUSH4 0xE4CF3B28 EQ PUSH2 0xE39 JUMPI PUSH1 0x0 DUP1 REVERT JUMPDEST DUP1 PUSH4 0xC87B56DD EQ PUSH2 0xD5C JUMPI DUP1 PUSH4 0xCA709A25 EQ PUSH2 0xD7C JUMPI DUP1 PUSH4 0xCD88AF6E EQ PUSH2 0xD9A JUMPI DUP1 PUSH4 0xCDD352FF EQ PUSH2 0xDAD JUMPI DUP1 PUSH4 0xD27AB81D EQ PUSH2 0xDCD JUMPI PUSH1 0x0 DUP1 REVERT JUMPDEST DUP1 PUSH4 0x999EBE55 GT PUSH2 0x1C7 JUMPI DUP1 PUSH4 0xA8EE49FE GT PUSH2 0x18B JUMPI DUP1 PUSH4 0xA8EE49FE EQ PUSH2 0xCC6 JUMPI DUP1 PUSH4 0xA9D36F5B EQ PUSH2 0xCF6 JUMPI DUP1 PUSH4 0xB2034D23 EQ PUSH2 0xD09 JUMPI DUP1 PUSH4 0xB2BDFA7B EQ PUSH2 0xD1C JUMPI DUP1 PUSH4 0xB353AAA7 EQ PUSH2 0xD3C JUMPI PUSH1 0x0 DUP1 REVERT JUMPDEST DUP1 PUSH4 0x999EBE55 EQ PUSH2 0xC19 JUMPI DUP1 PUSH4 0x9E402DD6 EQ PUSH2 0xC2C JUMPI DUP1 PUSH4 0xA0632461 EQ PUSH2 0xC59 JUMPI DUP1 PUSH4 0xA22CB465 EQ PUSH2 0xC79 JUMPI DUP1 PUSH4 0xA26966FB EQ PUSH2 0xC99 JUMPI PUSH1 0x0 DUP1 REVERT JUMPDEST DUP1 PUSH4 0x864018B7 GT PUSH2 0x20E JUMPI DUP1 PUSH4 0x864018B7 EQ PUSH2 0xB85 JUMPI DUP1 PUSH4 0x8B04FA87 EQ PUSH2 0xB98 JUMPI DUP1 PUSH4 0x8B973040 EQ PUSH2 0xBD3 JUMPI DUP1 PUSH4 0x8DA5CB5B EQ PUSH2 0xBE6 JUMPI DUP1 PUSH4 0x95D89B41 EQ PUSH2 0xC04 JUMPI PUSH1 0x0 DUP1 REVERT JUMPDEST DUP1 PUSH4 0x7907D11C EQ PUSH2 0xAEA JUMPI DUP1 PUSH4 0x7ADCB9A2 EQ PUSH2 0xB0A JUMPI DUP1 PUSH4 0x7E317744 EQ PUSH2 0xB1D JUMPI DUP1 PUSH4 0x816032E0 EQ PUSH2 0xB3D JUMPI DUP1 PUSH4 0x8318DEA3 EQ PUSH2 0xB51 JUMPI PUSH1 0x0 DUP1 REVERT JUMPDEST DUP1 PUSH4 0x3BF7E8F4 GT PUSH2 0x366 JUMPI DUP1 PUSH4 0x5B7121F8 GT PUSH2 0x2E3 JUMPI DUP1 PUSH4 0x70A08231 GT PUSH2 0x2A7 JUMPI DUP1 PUSH4 0x70A08231 EQ PUSH2 0xA2F JUMPI DUP1 PUSH4 0x71BAC4CF EQ PUSH2 0xA4F JUMPI DUP1 PUSH4 0x7504C971 EQ PUSH2 0xA8F JUMPI DUP1 PUSH4 0x782F08AE EQ PUSH2 0xAC4 JUMPI DUP1 PUSH4 0x78A4CB0F EQ PUSH2 0xAD7 JUMPI PUSH1 0x0 DUP1 REVERT JUMPDEST DUP1 PUSH4 0x5B7121F8 EQ PUSH2 0x964 JUMPI DUP1 PUSH4 0x5FDD03A2 EQ PUSH2 0x99A JUMPI DUP1 PUSH4 0x613D25BB EQ PUSH2 0x9AD JUMPI DUP1 PUSH4 0x6352211E EQ PUSH2 0x9CD JUMPI DUP1 PUSH4 0x64CFF5B7 EQ PUSH2 0x9ED JUMPI PUSH1 0x0 DUP1 REVERT JUMPDEST DUP1 PUSH4 0x47E0A8F7 GT PUSH2 0x32A JUMPI DUP1 PUSH4 0x47E0A8F7 EQ PUSH2 0x8FE JUMPI DUP1 PUSH4 0x4F6CCCE7 EQ PUSH2 0x911 JUMPI DUP1 PUSH4 0x514D5B96 EQ PUSH2 0x82F JUMPI DUP1 PUSH4 0x5557B279 EQ PUSH2 0x931 JUMPI DUP1 PUSH4 0x563A14B0 EQ PUSH2 0x944 JUMPI PUSH1 0x0 DUP1 REVERT JUMPDEST DUP1 PUSH4 0x3BF7E8F4 EQ PUSH2 0x82F JUMPI DUP1 PUSH4 0x3D654199 EQ PUSH2 0x84F JUMPI DUP1 PUSH4 0x3E104A95 EQ PUSH2 0x892 JUMPI DUP1 PUSH4 0x40C10F19 EQ PUSH2 0x8B0 JUMPI DUP1 PUSH4 0x40EE9B32 EQ PUSH2 0x8C3 JUMPI PUSH1 0x0 DUP1 REVERT JUMPDEST DUP1 PUSH4 0x17CB2EAC GT PUSH2 0x3F4 JUMPI DUP1 PUSH4 0x232B809F GT PUSH2 0x3B8 JUMPI DUP1 PUSH4 0x232B809F EQ PUSH2 0x798 JUMPI DUP1 PUSH4 0x23B872DD EQ PUSH2 0x7B8 JUMPI DUP1 PUSH4 0x2769A8B4 EQ PUSH2 0x7D8 JUMPI DUP1 PUSH4 0x2A57F056 EQ PUSH2 0x7FC JUMPI DUP1 PUSH4 0x2F745C59 EQ PUSH2 0x80F JUMPI PUSH1 0x0 DUP1 REVERT JUMPDEST DUP1 PUSH4 0x17CB2EAC EQ PUSH2 0x6D0 JUMPI DUP1 PUSH4 0x18160DDD EQ PUSH2 0x700 JUMPI DUP1 PUSH4 0x1ED86F19 EQ PUSH2 0x715 JUMPI DUP1 PUSH4 0x1FE48AC7 EQ PUSH2 0x735 JUMPI DUP1 PUSH4 0x228D0FD9 EQ PUSH2 0x783 JUMPI PUSH1 0x0 DUP1 REVERT JUMPDEST DUP1 PUSH4 0x95EA7B3 GT PUSH2 0x43B JUMPI DUP1 PUSH4 0x95EA7B3 EQ PUSH2 0x5E2 JUMPI DUP1 PUSH4 0xF9E8BC0 EQ PUSH2 0x604 JUMPI DUP1 PUSH4 0x13579820 EQ PUSH2 0x658 JUMPI DUP1 PUSH4 0x150B7A02 EQ PUSH2 0x66B JUMPI DUP1 PUSH4 0x15CCE224 EQ PUSH2 0x6B0 JUMPI PUSH1 0x0 DUP1 REVERT JUMPDEST DUP1 PUSH3 0x9C47A0 EQ PUSH2 0x46C JUMPI DUP1 PUSH4 0x1FFC9A7 EQ PUSH2 0x558 JUMPI DUP1 PUSH4 0x6FDDE03 EQ PUSH2 0x588 JUMPI DUP1 PUSH4 0x81812FC EQ PUSH2 0x5AA JUMPI JUMPDEST PUSH1 0x0 DUP1 REVERT JUMPDEST CALLVALUE DUP1 ISZERO PUSH2 0x478 JUMPI PUSH1 0x0 DUP1 REVERT JUMPDEST POP PUSH2 0x4EE PUSH2 0x487 CALLDATASIZE PUSH1 0x4 PUSH2 0x5028 JUMP JUMPDEST PUSH1 0xD3 PUSH1 0x20 MSTORE PUSH1 0x0 SWAP1 DUP2 MSTORE PUSH1 0x40 SWAP1 KECCAK256 DUP1 SLOAD PUSH1 0x1 DUP3 ADD SLOAD PUSH1 0x2 DUP4 ADD SLOAD PUSH1 0x3 DUP5 ADD SLOAD PUSH1 0x4 DUP6 ADD SLOAD PUSH1 0x5 DUP7 ADD SLOAD PUSH1 0x6 DUP8 ADD SLOAD PUSH1 0x7 DUP9 ADD SLOAD PUSH1 0x8 SWAP1 SWAP9 ADD SLOAD PUSH1 0x1 PUSH1 0x1 PUSH1 0xA0 SHL SUB SWAP8 DUP9 AND SWAP9 SWAP8 DUP8 AND SWAP8 PUSH2 0xFFFF PUSH1 0x1 PUSH1 0xA0 SHL DUP10 DIV DUP2 AND SWAP9 PUSH1 0x1 PUSH1 0xB0 SHL SWAP1 DIV AND SWAP7 SWAP6 SWAP5 SWAP4 SWAP3 SWAP2 DUP12 JUMP JUMPDEST PUSH1 0x40 DUP1 MLOAD PUSH1 0x1 PUSH1 0x1 PUSH1 0xA0 SHL SUB SWAP13 DUP14 AND DUP2 MSTORE SWAP12 SWAP1 SWAP11 AND PUSH1 0x20 DUP13 ADD MSTORE PUSH2 0xFFFF SWAP9 DUP10 AND SWAP10 DUP12 ADD SWAP10 SWAP1 SWAP10 MSTORE SWAP7 SWAP1 SWAP6 AND PUSH1 0x60 DUP10 ADD MSTORE PUSH1 0x80 DUP9 ADD SWAP4 SWAP1 SWAP4 MSTORE PUSH1 0xA0 DUP8 ADD SWAP2 SWAP1 SWAP2 MSTORE PUSH1 0xC0 DUP7 ADD MSTORE PUSH1 0xE0 DUP6 ADD MSTORE PUSH2 0x100 DUP5 ADD MSTORE PUSH2 0x120 DUP4 ADD MSTORE PUSH2 0x140 DUP3 ADD MSTORE PUSH2 0x160 ADD JUMPDEST PUSH1 0x40 MLOAD DUP1 SWAP2 SUB SWAP1 RETURN JUMPDEST CALLVALUE DUP1 ISZERO PUSH2 0x564 JUMPI PUSH1 0x0 DUP1 REVERT JUMPDEST POP PUSH2 0x578 PUSH2 0x573 CALLDATASIZE PUSH1 0x4 PUSH2 0x5057 JUMP JUMPDEST PUSH2 0xF8E JUMP JUMPDEST PUSH1 0x40 MLOAD SWAP1 ISZERO ISZERO DUP2 MSTORE PUSH1 0x20 ADD PUSH2 0x54F JUMP JUMPDEST CALLVALUE DUP1 ISZERO PUSH2 0x594 JUMPI PUSH1 0x0 DUP1 REVERT JUMPDEST POP PUSH2 0x59D PUSH2 0xF9F JUMP JUMPDEST PUSH1 0x40 MLOAD PUSH2 0x54F SWAP2 SWAP1 PUSH2 0x50C1 JUMP JUMPDEST CALLVALUE DUP1 ISZERO PUSH2 0x5B6 JUMPI PUSH1 0x0 DUP1 REVERT JUMPDEST POP PUSH2 0x5CA PUSH2 0x5C5 CALLDATASIZE PUSH1 0x4 PUSH2 0x5028 JUMP JUMPDEST PUSH2 0x1031 JUMP JUMPDEST PUSH1 0x40 MLOAD PUSH1 0x1 PUSH1 0x1 PUSH1 0xA0 SHL SUB SWAP1 SWAP2 AND DUP2 MSTORE PUSH1 0x20 ADD PUSH2 0x54F JUMP JUMPDEST CALLVALUE DUP1 ISZERO PUSH2 0x5EE JUMPI PUSH1 0x0 DUP1 REVERT JUMPDEST POP PUSH2 0x602 PUSH2 0x5FD CALLDATASIZE PUSH1 0x4 PUSH2 0x50F0 JUMP JUMPDEST PUSH2 0x1066 JUMP JUMPDEST STOP JUMPDEST CALLVALUE DUP1 ISZERO PUSH2 0x610 JUMPI PUSH1 0x0 DUP1 REVERT JUMPDEST POP PUSH2 0x64A PUSH2 0x61F CALLDATASIZE PUSH1 0x4 PUSH2 0x50F0 JUMP JUMPDEST PUSH1 0x0 SWAP1 DUP2 MSTORE PUSH1 0xD3 PUSH1 0x20 SWAP1 DUP2 MSTORE PUSH1 0x40 DUP1 DUP4 KECCAK256 PUSH1 0x1 PUSH1 0x1 PUSH1 0xA0 SHL SUB SWAP5 SWAP1 SWAP5 AND DUP4 MSTORE PUSH1 0x9 SWAP1 SWAP4 ADD SWAP1 MSTORE KECCAK256 SLOAD SWAP1 JUMP JUMPDEST PUSH1 0x40 MLOAD SWAP1 DUP2 MSTORE PUSH1 0x20 ADD PUSH2 0x54F JUMP JUMPDEST PUSH2 0x602 PUSH2 0x666 CALLDATASIZE PUSH1 0x4 PUSH2 0x511A JUMP JUMPDEST PUSH2 0x1180 JUMP JUMPDEST CALLVALUE DUP1 ISZERO PUSH2 0x677 JUMPI PUSH1 0x0 DUP1 REVERT JUMPDEST POP PUSH2 0x697 PUSH2 0x686 CALLDATASIZE PUSH1 0x4 PUSH2 0x5157 JUMP JUMPDEST PUSH4 0xA85BD01 PUSH1 0xE1 SHL SWAP6 SWAP5 POP POP POP POP POP JUMP JUMPDEST PUSH1 0x40 MLOAD PUSH1 0x1 PUSH1 0x1 PUSH1 0xE0 SHL SUB NOT SWAP1 SWAP2 AND DUP2 MSTORE PUSH1 0x20 ADD PUSH2 0x54F JUMP JUMPDEST CALLVALUE DUP1 ISZERO PUSH2 0x6BC JUMPI PUSH1 0x0 DUP1 REVERT JUMPDEST POP PUSH2 0x602 PUSH2 0x6CB CALLDATASIZE PUSH1 0x4 PUSH2 0x51F2 JUMP JUMPDEST PUSH2 0x13ED JUMP JUMPDEST CALLVALUE DUP1 ISZERO PUSH2 0x6DC JUMPI PUSH1 0x0 DUP1 REVERT JUMPDEST POP PUSH2 0x64A PUSH2 0x6EB CALLDATASIZE PUSH1 0x4 PUSH2 0x5028 JUMP JUMPDEST PUSH1 0x0 SWAP1 DUP2 MSTORE PUSH1 0xD3 PUSH1 0x20 MSTORE PUSH1 0x40 SWAP1 KECCAK256 PUSH1 0x8 ADD SLOAD SWAP1 JUMP JUMPDEST CALLVALUE DUP1 ISZERO PUSH2 0x70C JUMPI PUSH1 0x0 DUP1 REVERT JUMPDEST POP PUSH1 0x9A SLOAD PUSH2 0x64A JUMP JUMPDEST CALLVALUE DUP1 ISZERO PUSH2 0x721 JUMPI PUSH1 0x0 DUP1 REVERT JUMPDEST POP PUSH2 0x602 PUSH2 0x730 CALLDATASIZE PUSH1 0x4 PUSH2 0x51F2 JUMP JUMPDEST PUSH2 0x1443 JUMP JUMPDEST CALLVALUE DUP1 ISZERO PUSH2 0x741 JUMPI PUSH1 0x0 DUP1 REVERT JUMPDEST POP PUSH2 0x770 PUSH2 0x750 CALLDATASIZE PUSH1 0x4 PUSH2 0x5028 JUMP JUMPDEST PUSH1 0x0 SWAP1 DUP2 MSTORE PUSH1 0xD3 PUSH1 0x20 MSTORE PUSH1 0x40 SWAP1 KECCAK256 PUSH1 0x1 ADD SLOAD PUSH1 0x1 PUSH1 0xB0 SHL SWAP1 DIV PUSH2 0xFFFF AND SWAP1 JUMP JUMPDEST PUSH1 0x40 MLOAD PUSH2 0xFFFF SWAP1 SWAP2 AND DUP2 MSTORE PUSH1 0x20 ADD PUSH2 0x54F JUMP JUMPDEST CALLVALUE DUP1 ISZERO PUSH2 0x78F JUMPI PUSH1 0x0 DUP1 REVERT JUMPDEST POP PUSH2 0x64A PUSH2 0x149B JUMP JUMPDEST CALLVALUE DUP1 ISZERO PUSH2 0x7A4 JUMPI PUSH1 0x0 DUP1 REVERT JUMPDEST POP PUSH2 0x602 PUSH2 0x7B3 CALLDATASIZE PUSH1 0x4 PUSH2 0x51F2 JUMP JUMPDEST PUSH2 0x14B1 JUMP JUMPDEST CALLVALUE DUP1 ISZERO PUSH2 0x7C4 JUMPI PUSH1 0x0 DUP1 REVERT JUMPDEST POP PUSH2 0x602 PUSH2 0x7D3 CALLDATASIZE PUSH1 0x4 PUSH2 0x520D JUMP JUMPDEST PUSH2 0x1507 JUMP JUMPDEST CALLVALUE DUP1 ISZERO PUSH2 0x7E4 JUMPI PUSH1 0x0 DUP1 REVERT JUMPDEST POP PUSH2 0x602 PUSH1 0xCB DUP1 SLOAD PUSH1 0x1 PUSH1 0x1 PUSH1 0xA0 SHL SUB NOT AND CALLER OR SWAP1 SSTORE JUMP JUMPDEST PUSH2 0x602 PUSH2 0x80A CALLDATASIZE PUSH1 0x4 PUSH2 0x5315 JUMP JUMPDEST PUSH2 0x157E JUMP JUMPDEST CALLVALUE DUP1 ISZERO PUSH2 0x81B JUMPI PUSH1 0x0 DUP1 REVERT JUMPDEST POP PUSH2 0x64A PUSH2 0x82A CALLDATASIZE PUSH1 0x4 PUSH2 0x50F0 JUMP JUMPDEST PUSH2 0x1748 JUMP JUMPDEST CALLVALUE DUP1 ISZERO PUSH2 0x83B JUMPI PUSH1 0x0 DUP1 REVERT JUMPDEST POP PUSH2 0x602 PUSH2 0x84A CALLDATASIZE PUSH1 0x4 PUSH2 0x5028 JUMP JUMPDEST PUSH2 0x17DE JUMP JUMPDEST CALLVALUE DUP1 ISZERO PUSH2 0x85B JUMPI PUSH1 0x0 DUP1 REVERT JUMPDEST POP PUSH2 0x873 PUSH1 0xCC SLOAD PUSH1 0xCF SLOAD PUSH1 0x1 PUSH1 0x1 PUSH1 0xA0 SHL SUB SWAP1 SWAP2 AND SWAP2 JUMP JUMPDEST PUSH1 0x40 DUP1 MLOAD PUSH1 0x1 PUSH1 0x1 PUSH1 0xA0 SHL SUB SWAP1 SWAP4 AND DUP4 MSTORE PUSH1 0x20 DUP4 ADD SWAP2 SWAP1 SWAP2 MSTORE ADD PUSH2 0x54F JUMP JUMPDEST CALLVALUE DUP1 ISZERO PUSH2 0x89E JUMPI PUSH1 0x0 DUP1 REVERT JUMPDEST POP PUSH1 0xCB SLOAD PUSH1 0x1 PUSH1 0x1 PUSH1 0xA0 SHL SUB AND PUSH2 0x5CA JUMP JUMPDEST PUSH2 0x602 PUSH2 0x8BE CALLDATASIZE PUSH1 0x4 PUSH2 0x50F0 JUMP JUMPDEST PUSH2 0x1817 JUMP JUMPDEST CALLVALUE DUP1 ISZERO PUSH2 0x8CF JUMPI PUSH1 0x0 DUP1 REVERT JUMPDEST POP PUSH2 0x770 PUSH2 0x8DE CALLDATASIZE PUSH1 0x4 PUSH2 0x5028 JUMP JUMPDEST PUSH1 0x0 SWAP1 DUP2 MSTORE PUSH1 0xD3 PUSH1 0x20 MSTORE PUSH1 0x40 SWAP1 KECCAK256 PUSH1 0x1 ADD SLOAD PUSH1 0x1 PUSH1 0xA0 SHL SWAP1 DIV PUSH2 0xFFFF AND SWAP1 JUMP JUMPDEST PUSH2 0x602 PUSH2 0x90C CALLDATASIZE PUSH1 0x4 PUSH2 0x539B JUMP JUMPDEST PUSH2 0x1A04 JUMP JUMPDEST CALLVALUE DUP1 ISZERO PUSH2 0x91D JUMPI PUSH1 0x0 DUP1 REVERT JUMPDEST POP PUSH2 0x64A PUSH2 0x92C CALLDATASIZE PUSH1 0x4 PUSH2 0x5028 JUMP JUMPDEST PUSH2 0x1B44 JUMP JUMPDEST PUSH2 0x602 PUSH2 0x93F CALLDATASIZE PUSH1 0x4 PUSH2 0x539B JUMP JUMPDEST PUSH2 0x1BD7 JUMP JUMPDEST CALLVALUE DUP1 ISZERO PUSH2 0x950 JUMPI PUSH1 0x0 DUP1 REVERT JUMPDEST POP PUSH2 0x602 PUSH2 0x95F CALLDATASIZE PUSH1 0x4 PUSH2 0x50F0 JUMP JUMPDEST PUSH2 0x1C40 JUMP JUMPDEST CALLVALUE DUP1 ISZERO PUSH2 0x970 JUMPI PUSH1 0x0 DUP1 REVERT JUMPDEST POP PUSH2 0x5CA PUSH2 0x97F CALLDATASIZE PUSH1 0x4 PUSH2 0x5028 JUMP JUMPDEST PUSH1 0x0 SWAP1 DUP2 MSTORE PUSH1 0xD3 PUSH1 0x20 MSTORE PUSH1 0x40 SWAP1 KECCAK256 SLOAD PUSH1 0x1 PUSH1 0x1 PUSH1 0xA0 SHL SUB AND SWAP1 JUMP JUMPDEST PUSH2 0x602 PUSH2 0x9A8 CALLDATASIZE PUSH1 0x4 PUSH2 0x53BD JUMP JUMPDEST PUSH2 0x1D71 JUMP JUMPDEST CALLVALUE DUP1 ISZERO PUSH2 0x9B9 JUMPI PUSH1 0x0 DUP1 REVERT JUMPDEST POP PUSH2 0x602 PUSH2 0x9C8 CALLDATASIZE PUSH1 0x4 PUSH2 0x5414 JUMP JUMPDEST PUSH2 0x2192 JUMP JUMPDEST CALLVALUE DUP1 ISZERO PUSH2 0x9D9 JUMPI PUSH1 0x0 DUP1 REVERT JUMPDEST POP PUSH2 0x5CA PUSH2 0x9E8 CALLDATASIZE PUSH1 0x4 PUSH2 0x5028 JUMP JUMPDEST PUSH2 0x236E JUMP JUMPDEST CALLVALUE DUP1 ISZERO PUSH2 0x9F9 JUMPI PUSH1 0x0 DUP1 REVERT JUMPDEST POP PUSH2 0xA1D PUSH2 0xA08 CALLDATASIZE PUSH1 0x4 PUSH2 0x5028 JUMP JUMPDEST PUSH1 0xD6 PUSH1 0x20 MSTORE PUSH1 0x0 SWAP1 DUP2 MSTORE PUSH1 0x40 SWAP1 KECCAK256 SLOAD PUSH1 0xFF AND DUP2 JUMP JUMPDEST PUSH1 0x40 MLOAD PUSH1 0xFF SWAP1 SWAP2 AND DUP2 MSTORE PUSH1 0x20 ADD PUSH2 0x54F JUMP JUMPDEST CALLVALUE DUP1 ISZERO PUSH2 0xA3B JUMPI PUSH1 0x0 DUP1 REVERT JUMPDEST POP PUSH2 0x64A PUSH2 0xA4A CALLDATASIZE PUSH1 0x4 PUSH2 0x51F2 JUMP JUMPDEST PUSH2 0x23D3 JUMP JUMPDEST CALLVALUE DUP1 ISZERO PUSH2 0xA5B JUMPI PUSH1 0x0 DUP1 REVERT JUMPDEST POP PUSH2 0x578 PUSH2 0xA6A CALLDATASIZE PUSH1 0x4 PUSH2 0x539B JUMP JUMPDEST PUSH1 0x0 SWAP2 DUP3 MSTORE PUSH1 0xD9 PUSH1 0x20 SWAP1 DUP2 MSTORE PUSH1 0x40 DUP1 DUP5 KECCAK256 SWAP3 DUP5 MSTORE SWAP2 SWAP1 MSTORE SWAP1 KECCAK256 SLOAD PUSH2 0x100 SWAP1 DIV PUSH1 0xFF AND SWAP1 JUMP JUMPDEST CALLVALUE DUP1 ISZERO PUSH2 0xA9B JUMPI PUSH1 0x0 DUP1 REVERT JUMPDEST POP PUSH2 0xAAF PUSH2 0xAAA CALLDATASIZE PUSH1 0x4 PUSH2 0x5028 JUMP JUMPDEST PUSH2 0x2459 JUMP JUMPDEST PUSH1 0x40 DUP1 MLOAD SWAP3 DUP4 MSTORE PUSH1 0x20 DUP4 ADD SWAP2 SWAP1 SWAP2 MSTORE ADD PUSH2 0x54F JUMP JUMPDEST PUSH2 0x602 PUSH2 0xAD2 CALLDATASIZE PUSH1 0x4 PUSH2 0x5499 JUMP JUMPDEST PUSH2 0x2481 JUMP JUMPDEST PUSH2 0x602 PUSH2 0xAE5 CALLDATASIZE PUSH1 0x4 PUSH2 0x54EE JUMP JUMPDEST PUSH2 0x251D JUMP JUMPDEST CALLVALUE DUP1 ISZERO PUSH2 0xAF6 JUMPI PUSH1 0x0 DUP1 REVERT JUMPDEST POP PUSH2 0x578 PUSH2 0xB05 CALLDATASIZE PUSH1 0x4 PUSH2 0x55CB JUMP JUMPDEST PUSH2 0x2684 JUMP JUMPDEST PUSH2 0x602 PUSH2 0xB18 CALLDATASIZE PUSH1 0x4 PUSH2 0x55FE JUMP JUMPDEST PUSH2 0x26BC JUMP JUMPDEST CALLVALUE DUP1 ISZERO PUSH2 0xB29 JUMPI PUSH1 0x0 DUP1 REVERT JUMPDEST POP PUSH2 0xA1D PUSH2 0xB38 CALLDATASIZE PUSH1 0x4 PUSH2 0x5028 JUMP JUMPDEST PUSH2 0x2BE8 JUMP JUMPDEST CALLVALUE DUP1 ISZERO PUSH2 0xB49 JUMPI PUSH1 0x0 DUP1 REVERT JUMPDEST POP PUSH1 0x0 PUSH2 0x64A JUMP JUMPDEST CALLVALUE DUP1 ISZERO PUSH2 0xB5D JUMPI PUSH1 0x0 DUP1 REVERT JUMPDEST POP PUSH2 0xAAF PUSH2 0xB6C CALLDATASIZE PUSH1 0x4 PUSH2 0x5028 JUMP JUMPDEST PUSH1 0xD7 PUSH1 0x20 MSTORE PUSH1 0x0 SWAP1 DUP2 MSTORE PUSH1 0x40 SWAP1 KECCAK256 DUP1 SLOAD PUSH1 0x1 SWAP1 SWAP2 ADD SLOAD DUP3 JUMP JUMPDEST PUSH2 0x602 PUSH2 0xB93 CALLDATASIZE PUSH1 0x4 PUSH2 0x539B JUMP JUMPDEST PUSH2 0x2C15 JUMP JUMPDEST CALLVALUE DUP1 ISZERO PUSH2 0xBA4 JUMPI PUSH1 0x0 DUP1 REVERT JUMPDEST POP PUSH2 0x578 PUSH2 0xBB3 CALLDATASIZE PUSH1 0x4 PUSH2 0x50F0 JUMP JUMPDEST PUSH1 0xD8 PUSH1 0x20 SWAP1 DUP2 MSTORE PUSH1 0x0 SWAP3 DUP4 MSTORE PUSH1 0x40 DUP1 DUP5 KECCAK256 SWAP1 SWAP2 MSTORE SWAP1 DUP3 MSTORE SWAP1 KECCAK256 SLOAD PUSH1 0xFF AND DUP2 JUMP JUMPDEST PUSH2 0x602 PUSH2 0xBE1 CALLDATASIZE PUSH1 0x4 PUSH2 0x539B JUMP JUMPDEST PUSH2 0x2C65 JUMP JUMPDEST CALLVALUE DUP1 ISZERO PUSH2 0xBF2 JUMPI PUSH1 0x0 DUP1 REVERT JUMPDEST POP PUSH1 0xCD SLOAD PUSH1 0x1 PUSH1 0x1 PUSH1 0xA0 SHL SUB AND PUSH2 0x5CA JUMP JUMPDEST CALLVALUE DUP1 ISZERO PUSH2 0xC10 JUMPI PUSH1 0x0 DUP1 REVERT JUMPDEST POP PUSH2 0x59D PUSH2 0x2CF7 JUMP JUMPDEST PUSH2 0x602 PUSH2 0xC27 CALLDATASIZE PUSH1 0x4 PUSH2 0x539B JUMP JUMPDEST PUSH2 0x2D06 JUMP JUMPDEST CALLVALUE DUP1 ISZERO PUSH2 0xC38 JUMPI PUSH1 0x0 DUP1 REVERT JUMPDEST POP PUSH2 0x64A PUSH2 0xC47 CALLDATASIZE PUSH1 0x4 PUSH2 0x51F2 JUMP JUMPDEST PUSH1 0xD2 PUSH1 0x20 MSTORE PUSH1 0x0 SWAP1 DUP2 MSTORE PUSH1 0x40 SWAP1 KECCAK256 SLOAD DUP2 JUMP JUMPDEST CALLVALUE DUP1 ISZERO PUSH2 0xC65 JUMPI PUSH1 0x0 DUP1 REVERT JUMPDEST POP PUSH2 0x602 PUSH2 0xC74 CALLDATASIZE PUSH1 0x4 PUSH2 0x51F2 JUMP JUMPDEST PUSH2 0x2F2B JUMP JUMPDEST CALLVALUE DUP1 ISZERO PUSH2 0xC85 JUMPI PUSH1 0x0 DUP1 REVERT JUMPDEST POP PUSH2 0x602 PUSH2 0xC94 CALLDATASIZE PUSH1 0x4 PUSH2 0x5637 JUMP JUMPDEST PUSH2 0x2F80 JUMP JUMPDEST CALLVALUE DUP1 ISZERO PUSH2 0xCA5 JUMPI PUSH1 0x0 DUP1 REVERT JUMPDEST POP PUSH2 0xCB9 PUSH2 0xCB4 CALLDATASIZE PUSH1 0x4 PUSH2 0x55CB JUMP JUMPDEST PUSH2 0x2F8B JUMP JUMPDEST PUSH1 0x40 MLOAD PUSH2 0x54F SWAP2 SWAP1 PUSH2 0x566E JUMP JUMPDEST CALLVALUE DUP1 ISZERO PUSH2 0xCD2 JUMPI PUSH1 0x0 DUP1 REVERT JUMPDEST POP PUSH2 0x578 PUSH2 0xCE1 CALLDATASIZE PUSH1 0x4 PUSH2 0x51F2 JUMP JUMPDEST PUSH1 0xD5 PUSH1 0x20 MSTORE PUSH1 0x0 SWAP1 DUP2 MSTORE PUSH1 0x40 SWAP1 KECCAK256 SLOAD PUSH1 0xFF AND DUP2 JUMP JUMPDEST PUSH2 0x602 PUSH2 0xD04 CALLDATASIZE PUSH1 0x4 PUSH2 0x56DE JUMP JUMPDEST PUSH2 0x3227 JUMP JUMPDEST PUSH2 0x602 PUSH2 0xD17 CALLDATASIZE PUSH1 0x4 PUSH2 0x5713 JUMP JUMPDEST PUSH2 0x33DC JUMP JUMPDEST CALLVALUE DUP1 ISZERO PUSH2 0xD28 JUMPI PUSH1 0x0 DUP1 REVERT JUMPDEST POP PUSH1 0xCD SLOAD PUSH2 0x5CA SWAP1 PUSH1 0x1 PUSH1 0x1 PUSH1 0xA0 SHL SUB AND DUP2 JUMP JUMPDEST CALLVALUE DUP1 ISZERO PUSH2 0xD48 JUMPI PUSH1 0x0 DUP1 REVERT JUMPDEST POP PUSH1 0xD1 SLOAD PUSH2 0x5CA SWAP1 PUSH1 0x1 PUSH1 0x1 PUSH1 0xA0 SHL SUB AND DUP2 JUMP JUMPDEST CALLVALUE DUP1 ISZERO PUSH2 0xD68 JUMPI PUSH1 0x0 DUP1 REVERT JUMPDEST POP PUSH2 0x59D PUSH2 0xD77 CALLDATASIZE PUSH1 0x4 PUSH2 0x5028 JUMP JUMPDEST PUSH2 0x3589 JUMP JUMPDEST CALLVALUE DUP1 ISZERO PUSH2 0xD88 JUMPI PUSH1 0x0 DUP1 REVERT JUMPDEST POP PUSH1 0xCC SLOAD PUSH1 0x1 PUSH1 0x1 PUSH1 0xA0 SHL SUB AND PUSH2 0x5CA JUMP JUMPDEST PUSH2 0x602 PUSH2 0xDA8 CALLDATASIZE PUSH1 0x4 PUSH2 0x574E JUMP JUMPDEST PUSH2 0x3594 JUMP JUMPDEST CALLVALUE DUP1 ISZERO PUSH2 0xDB9 JUMPI PUSH1 0x0 DUP1 REVERT JUMPDEST POP PUSH2 0x602 PUSH2 0xDC8 CALLDATASIZE PUSH1 0x4 PUSH2 0x51F2 JUMP JUMPDEST PUSH2 0x3750 JUMP JUMPDEST PUSH2 0x602 PUSH2 0xDDB CALLDATASIZE PUSH1 0x4 PUSH2 0x5789 JUMP JUMPDEST PUSH2 0x37F8 JUMP JUMPDEST PUSH2 0x602 PUSH2 0xDEE CALLDATASIZE PUSH1 0x4 PUSH2 0x57B4 JUMP JUMPDEST PUSH2 0x3892 JUMP JUMPDEST CALLVALUE DUP1 ISZERO PUSH2 0xDFF JUMPI PUSH1 0x0 DUP1 REVERT JUMPDEST POP PUSH2 0x578 PUSH2 0xE0E CALLDATASIZE PUSH1 0x4 PUSH2 0x5028 JUMP JUMPDEST PUSH2 0x3A30 JUMP JUMPDEST PUSH2 0x602 PUSH2 0xE21 CALLDATASIZE PUSH1 0x4 PUSH2 0x56DE JUMP JUMPDEST PUSH2 0x3A59 JUMP JUMPDEST PUSH2 0x602 PUSH2 0xE34 CALLDATASIZE PUSH1 0x4 PUSH2 0x57E0 JUMP JUMPDEST PUSH2 0x3BC2 JUMP JUMPDEST PUSH2 0x602 PUSH2 0xE47 CALLDATASIZE PUSH1 0x4 PUSH2 0x5815 JUMP JUMPDEST PUSH2 0x3C4E JUMP JUMPDEST CALLVALUE DUP1 ISZERO PUSH2 0xE58 JUMPI PUSH1 0x0 DUP1 REVERT JUMPDEST POP PUSH2 0x578 PUSH2 0xE67 CALLDATASIZE PUSH1 0x4 PUSH2 0x5849 JUMP JUMPDEST PUSH1 0x1 PUSH1 0x1 PUSH1 0xA0 SHL SUB SWAP2 DUP3 AND PUSH1 0x0 SWAP1 DUP2 MSTORE PUSH1 0x6B PUSH1 0x20 SWAP1 DUP2 MSTORE PUSH1 0x40 DUP1 DUP4 KECCAK256 SWAP4 SWAP1 SWAP5 AND DUP3 MSTORE SWAP2 SWAP1 SWAP2 MSTORE KECCAK256 SLOAD PUSH1 0xFF AND SWAP1 JUMP JUMPDEST PUSH2 0x602 PUSH2 0xEA3 CALLDATASIZE PUSH1 0x4 PUSH2 0x55CB JUMP JUMPDEST PUSH2 0x3CF0 JUMP JUMPDEST PUSH2 0x602 PUSH2 0xEB6 CALLDATASIZE PUSH1 0x4 PUSH2 0x56DE JUMP JUMPDEST PUSH2 0x3D9F JUMP JUMPDEST PUSH2 0x602 PUSH2 0xEC9 CALLDATASIZE PUSH1 0x4 PUSH2 0x539B JUMP JUMPDEST PUSH2 0x3F18 JUMP JUMPDEST CALLVALUE DUP1 ISZERO PUSH2 0xEDA JUMPI PUSH1 0x0 DUP1 REVERT JUMPDEST POP PUSH2 0x602 PUSH2 0xEE9 CALLDATASIZE PUSH1 0x4 PUSH2 0x5028 JUMP JUMPDEST PUSH2 0x40DC JUMP JUMPDEST CALLVALUE DUP1 ISZERO PUSH2 0xEFA JUMPI PUSH1 0x0 DUP1 REVERT JUMPDEST POP PUSH2 0x602 PUSH2 0xF09 CALLDATASIZE PUSH1 0x4 PUSH2 0x51F2 JUMP JUMPDEST PUSH2 0x4115 JUMP JUMPDEST CALLVALUE DUP1 ISZERO PUSH2 0xF1A JUMPI PUSH1 0x0 DUP1 REVERT JUMPDEST POP PUSH2 0x602 PUSH2 0xF29 CALLDATASIZE PUSH1 0x4 PUSH2 0x588C JUMP JUMPDEST PUSH2 0x416B JUMP JUMPDEST CALLVALUE DUP1 ISZERO PUSH2 0xF3A JUMPI PUSH1 0x0 DUP1 REVERT JUMPDEST POP PUSH2 0x602 PUSH2 0xF49 CALLDATASIZE PUSH1 0x4 PUSH2 0x5028 JUMP JUMPDEST PUSH2 0x41D0 JUMP JUMPDEST CALLVALUE DUP1 ISZERO PUSH2 0xF5A JUMPI PUSH1 0x0 DUP1 REVERT JUMPDEST POP PUSH2 0x602 PUSH2 0xF69 CALLDATASIZE PUSH1 0x4 PUSH2 0x539B JUMP JUMPDEST PUSH2 0x42C6 JUMP JUMPDEST CALLVALUE DUP1 ISZERO PUSH2 0xF7A JUMPI PUSH1 0x0 DUP1 REVERT JUMPDEST POP PUSH2 0xCB9 PUSH2 0xF89 CALLDATASIZE PUSH1 0x4 PUSH2 0x539B JUMP JUMPDEST PUSH2 0x434D JUMP JUMPDEST PUSH1 0x0 PUSH2 0xF99 DUP3 PUSH2 0x44F8 JUMP JUMPDEST SWAP3 SWAP2 POP POP JUMP JUMPDEST PUSH1 0x60 PUSH1 0x65 DUP1 SLOAD PUSH2 0xFAE SWAP1 PUSH2 0x58B1 JUMP JUMPDEST DUP1 PUSH1 0x1F ADD PUSH1 0x20 DUP1 SWAP2 DIV MUL PUSH1 0x20 ADD PUSH1 0x40 MLOAD SWAP1 DUP2 ADD PUSH1 0x40 MSTORE DUP1 SWAP3 SWAP2 SWAP1 DUP2 DUP2 MSTORE PUSH1 0x20 ADD DUP3 DUP1 SLOAD PUSH2 0xFDA SWAP1 PUSH2 0x58B1 JUMP JUMPDEST DUP1 ISZERO PUSH2 0x1027 JUMPI DUP1 PUSH1 0x1F LT PUSH2 0xFFC JUMPI PUSH2 0x100 DUP1 DUP4 SLOAD DIV MUL DUP4 MSTORE SWAP2 PUSH1 0x20 ADD SWAP2 PUSH2 0x1027 JUMP JUMPDEST DUP3 ADD SWAP2 SWAP1 PUSH1 0x0 MSTORE PUSH1 0x20 PUSH1 0x0 KECCAK256 SWAP1 JUMPDEST DUP2 SLOAD DUP2 MSTORE SWAP1 PUSH1 0x1 ADD SWAP1 PUSH1 0x20 ADD DUP1 DUP4 GT PUSH2 0x100A JUMPI DUP3 SWAP1 SUB PUSH1 0x1F AND DUP3 ADD SWAP2 JUMPDEST POP POP POP POP POP SWAP1 POP SWAP1 JUMP JUMPDEST PUSH1 0x0 PUSH2 0x103C DUP3 PUSH2 0x451D JUMP JUMPDEST ISZERO ISZERO PUSH1 0x1 EQ PUSH2 0x104A JUMPI PUSH1 0x0 DUP1 REVERT JUMPDEST POP PUSH1 0x0 SWAP1 DUP2 MSTORE PUSH1 0x6A PUSH1 0x20 MSTORE PUSH1 0x40 SWAP1 KECCAK256 SLOAD PUSH1 0x1 PUSH1 0x1 PUSH1 0xA0 SHL SUB AND SWAP1 JUMP JUMPDEST PUSH1 0x0 PUSH2 0x1071 DUP3 PUSH2 0x236E JUMP JUMPDEST SWAP1 POP DUP1 PUSH1 0x1 PUSH1 0x1 PUSH1 0xA0 SHL SUB AND DUP4 PUSH1 0x1 PUSH1 0x1 PUSH1 0xA0 SHL SUB AND SUB PUSH2 0x10E3 JUMPI PUSH1 0x40 MLOAD PUSH3 0x461BCD PUSH1 0xE5 SHL DUP2 MSTORE PUSH1 0x20 PUSH1 0x4 DUP3 ADD MSTORE PUSH1 0x21 PUSH1 0x24 DUP3 ADD MSTORE PUSH32 0x4552433732313A20617070726F76616C20746F2063757272656E74206F776E65 PUSH1 0x44 DUP3 ADD MSTORE PUSH1 0x39 PUSH1 0xF9 SHL PUSH1 0x64 DUP3 ADD MSTORE PUSH1 0x84 ADD JUMPDEST PUSH1 0x40 MLOAD DUP1 SWAP2 SUB SWAP1 REVERT JUMPDEST CALLER PUSH1 0x1 PUSH1 0x1 PUSH1 0xA0 SHL SUB DUP3 AND EQ DUP1 PUSH2 0x10FF JUMPI POP PUSH2 0x10FF DUP2 CALLER PUSH2 0xE67 JUMP JUMPDEST PUSH2 0x1171 JUMPI PUSH1 0x40 MLOAD PUSH3 0x461BCD PUSH1 0xE5 SHL DUP2 MSTORE PUSH1 0x20 PUSH1 0x4 DUP3 ADD MSTORE PUSH1 0x3D PUSH1 0x24 DUP3 ADD MSTORE PUSH32 0x4552433732313A20617070726F76652063616C6C6572206973206E6F7420746F PUSH1 0x44 DUP3 ADD MSTORE PUSH32 0x6B656E206F776E6572206F7220617070726F76656420666F7220616C6C000000 PUSH1 0x64 DUP3 ADD MSTORE PUSH1 0x84 ADD PUSH2 0x10DA JUMP JUMPDEST PUSH2 0x117B DUP4 DUP4 PUSH2 0x453A JUMP JUMPDEST POP POP POP JUMP JUMPDEST CALLER PUSH1 0x0 SWAP1 DUP2 MSTORE PUSH1 0xD5 PUSH1 0x20 MSTORE PUSH1 0x40 DUP2 KECCAK256 SLOAD PUSH1 0xFF AND ISZERO ISZERO SWAP1 SUB PUSH2 0x11B3 JUMPI PUSH1 0x40 MLOAD PUSH3 0x461BCD PUSH1 0xE5 SHL DUP2 MSTORE PUSH1 0x4 ADD PUSH2 0x10DA SWAP1 PUSH2 0x58E5 JUMP JUMPDEST PUSH1 0x0 DUP5 DUP2 MSTORE PUSH1 0xD3 PUSH1 0x20 SWAP1 DUP2 MSTORE PUSH1 0x40 DUP1 DUP4 KECCAK256 PUSH1 0x1 PUSH1 0x1 PUSH1 0xA0 SHL SUB DUP7 AND DUP5 MSTORE PUSH1 0x9 ADD SWAP1 SWAP2 MSTORE SWAP1 KECCAK256 SLOAD DUP2 GT ISZERO PUSH2 0x11F8 JUMPI PUSH1 0x40 MLOAD PUSH3 0x461BCD PUSH1 0xE5 SHL DUP2 MSTORE PUSH1 0x4 ADD PUSH2 0x10DA SWAP1 PUSH2 0x5908 JUMP JUMPDEST PUSH2 0x1201 DUP5 PUSH2 0x451D JUMP JUMPDEST ISZERO ISZERO PUSH1 0x1 EQ DUP1 ISZERO PUSH2 0x121C JUMPI POP PUSH2 0x1216 DUP4 PUSH2 0x451D JUMP JUMPDEST ISZERO ISZERO PUSH1 0x1 EQ JUMPDEST PUSH2 0x1225 JUMPI PUSH1 0x0 DUP1 REVERT JUMPDEST PUSH1 0x0 DUP5 DUP2 MSTORE PUSH1 0xD3 PUSH1 0x20 SWAP1 DUP2 MSTORE PUSH1 0x40 DUP1 DUP4 KECCAK256 PUSH1 0x1 PUSH1 0x1 PUSH1 0xA0 SHL SUB DUP7 AND DUP5 MSTORE PUSH1 0x9 ADD SWAP1 SWAP2 MSTORE SWAP1 KECCAK256 SLOAD PUSH2 0x1256 SWAP1 DUP3 SWAP1 PUSH2 0x593E JUMP JUMPDEST PUSH1 0x0 DUP6 DUP2 MSTORE PUSH1 0xD3 PUSH1 0x20 DUP2 DUP2 MSTORE PUSH1 0x40 DUP1 DUP5 KECCAK256 PUSH1 0x1 PUSH1 0x1 PUSH1 0xA0 SHL SUB DUP9 AND DUP1 DUP7 MSTORE PUSH1 0x9 SWAP2 DUP3 ADD DUP5 MSTORE DUP3 DUP7 KECCAK256 SWAP7 SWAP1 SWAP7 SSTORE DUP9 DUP6 MSTORE SWAP3 DUP3 MSTORE DUP1 DUP5 KECCAK256 SWAP5 DUP5 MSTORE SWAP4 SWAP1 SWAP2 ADD SWAP1 MSTORE KECCAK256 SLOAD PUSH2 0x12A1 SWAP1 DUP3 SWAP1 PUSH2 0x5951 JUMP JUMPDEST PUSH1 0x0 DUP5 DUP2 MSTORE PUSH1 0xD3 PUSH1 0x20 SWAP1 DUP2 MSTORE PUSH1 0x40 DUP1 DUP4 KECCAK256 PUSH1 0x1 PUSH1 0x1 PUSH1 0xA0 SHL SUB DUP8 AND DUP5 MSTORE PUSH1 0x9 ADD SWAP1 SWAP2 MSTORE SWAP1 KECCAK256 SSTORE PUSH2 0x12D0 DUP5 PUSH2 0x45A8 JUMP JUMPDEST PUSH1 0x0 DUP5 DUP2 MSTORE PUSH1 0xD3 PUSH1 0x20 MSTORE PUSH1 0x40 SWAP1 KECCAK256 SLOAD PUSH1 0x1 PUSH1 0x1 PUSH1 0xA0 SHL SUB AND CALLVALUE ISZERO DUP1 ISZERO SWAP1 PUSH2 0x12FF JUMPI POP PUSH1 0x1 PUSH1 0x1 PUSH1 0xA0 SHL SUB DUP2 AND ISZERO ISZERO JUMPDEST DUP1 ISZERO PUSH2 0x1328 JUMPI POP PUSH1 0x0 DUP6 DUP2 MSTORE PUSH1 0xD3 PUSH1 0x20 MSTORE PUSH1 0x40 SWAP1 KECCAK256 PUSH1 0x1 ADD SLOAD PUSH1 0x1 PUSH1 0x1 PUSH1 0xA0 SHL SUB DUP3 DUP2 AND SWAP2 AND EQ ISZERO JUMPDEST ISZERO PUSH2 0x13E6 JUMPI PUSH1 0x0 DUP6 DUP2 MSTORE PUSH1 0xD6 PUSH1 0x20 MSTORE PUSH1 0x40 DUP2 KECCAK256 SLOAD PUSH1 0xFF AND SWAP1 DUP2 SWAP1 SUB PUSH2 0x134B JUMPI POP PUSH1 0x5 JUMPDEST PUSH1 0x0 PUSH1 0x64 PUSH2 0x1359 DUP4 CALLVALUE PUSH2 0x5964 JUMP JUMPDEST PUSH2 0x1363 SWAP2 SWAP1 PUSH2 0x597B JUMP JUMPDEST PUSH1 0x40 MLOAD SWAP1 SWAP2 POP PUSH1 0x1 PUSH1 0x1 PUSH1 0xA0 SHL SUB DUP5 AND SWAP1 DUP3 ISZERO PUSH2 0x8FC MUL SWAP1 DUP4 SWAP1 PUSH1 0x0 DUP2 DUP2 DUP2 DUP6 DUP9 DUP9 CALL SWAP4 POP POP POP POP ISZERO DUP1 ISZERO PUSH2 0x139C JUMPI RETURNDATASIZE PUSH1 0x0 DUP1 RETURNDATACOPY RETURNDATASIZE PUSH1 0x0 REVERT JUMPDEST POP PUSH2 0x13A7 DUP2 CALLVALUE PUSH2 0x593E JUMP JUMPDEST PUSH1 0x0 DUP1 MSTORE PUSH1 0xD2 PUSH1 0x20 MSTORE PUSH1 0x0 DUP1 MLOAD PUSH1 0x20 PUSH2 0x5D41 DUP4 CODECOPY DUP2 MLOAD SWAP2 MSTORE SLOAD PUSH2 0x13CA SWAP2 SWAP1 PUSH2 0x5951 JUMP JUMPDEST PUSH1 0x0 DUP1 MSTORE PUSH1 0xD2 PUSH1 0x20 MSTORE PUSH1 0x0 DUP1 MLOAD PUSH1 0x20 PUSH2 0x5D41 DUP4 CODECOPY DUP2 MLOAD SWAP2 MSTORE SSTORE POP POP JUMPDEST POP POP POP POP POP JUMP JUMPDEST PUSH1 0xCD SLOAD PUSH1 0x1 PUSH1 0x1 PUSH1 0xA0 SHL SUB AND CALLER EQ PUSH2 0x1421 JUMPI PUSH1 0x40 MLOAD PUSH3 0x461BCD PUSH1 0xE5 SHL DUP2 MSTORE PUSH1 0x20 PUSH1 0x4 DUP3 ADD MSTORE PUSH1 0x0 PUSH1 0x24 DUP3 ADD MSTORE PUSH1 0x44 ADD PUSH2 0x10DA JUMP JUMPDEST PUSH1 0xCC DUP1 SLOAD PUSH1 0x1 PUSH1 0x1 PUSH1 0xA0 SHL SUB NOT AND PUSH1 0x1 PUSH1 0x1 PUSH1 0xA0 SHL SUB SWAP3 SWAP1 SWAP3 AND SWAP2 SWAP1 SWAP2 OR SWAP1 SSTORE JUMP JUMPDEST PUSH1 0xCD SLOAD PUSH1 0x1 PUSH1 0x1 PUSH1 0xA0 SHL SUB AND CALLER EQ PUSH2 0x1477 JUMPI PUSH1 0x40 MLOAD PUSH3 0x461BCD PUSH1 0xE5 SHL DUP2 MSTORE PUSH1 0x20 PUSH1 0x4 DUP3 ADD MSTORE PUSH1 0x0 PUSH1 0x24 DUP3 ADD MSTORE PUSH1 0x44 ADD PUSH2 0x10DA JUMP JUMPDEST PUSH1 0x1 PUSH1 0x1 PUSH1 0xA0 SHL SUB AND PUSH1 0x0 SWAP1 DUP2 MSTORE PUSH1 0xD5 PUSH1 0x20 MSTORE PUSH1 0x40 SWAP1 KECCAK256 DUP1 SLOAD PUSH1 0xFF NOT AND PUSH1 0x1 OR SWAP1 SSTORE JUMP JUMPDEST PUSH1 0x0 PUSH1 0xCF SLOAD PUSH1 0x5 PUSH2 0x14AC SWAP2 SWAP1 PUSH2 0x5964 JUMP JUMPDEST SWAP1 POP SWAP1 JUMP JUMPDEST PUSH1 0xCD SLOAD PUSH1 0x1 PUSH1 0x1 PUSH1 0xA0 SHL SUB AND CALLER EQ PUSH2 0x14E5 JUMPI PUSH1 0x40 MLOAD PUSH3 0x461BCD PUSH1 0xE5 SHL DUP2 MSTORE PUSH1 0x20 PUSH1 0x4 DUP3 ADD MSTORE PUSH1 0x0 PUSH1 0x24 DUP3 ADD MSTORE PUSH1 0x44 ADD PUSH2 0x10DA JUMP JUMPDEST PUSH1 0xD1 DUP1 SLOAD PUSH1 0x1 PUSH1 0x1 PUSH1 0xA0 SHL SUB NOT AND PUSH1 0x1 PUSH1 0x1 PUSH1 0xA0 SHL SUB SWAP3 SWAP1 SWAP3 AND SWAP2 SWAP1 SWAP2 OR SWAP1 SSTORE JUMP JUMPDEST PUSH2 0x1511 CALLER DUP3 PUSH2 0x45DC JUMP JUMPDEST PUSH2 0x1573 JUMPI PUSH1 0x40 MLOAD PUSH3 0x461BCD PUSH1 0xE5 SHL DUP2 MSTORE PUSH1 0x20 PUSH1 0x4 DUP3 ADD MSTORE PUSH1 0x2D PUSH1 0x24 DUP3 ADD MSTORE PUSH32 0x4552433732313A2063616C6C6572206973206E6F7420746F6B656E206F776E65 PUSH1 0x44 DUP3 ADD MSTORE PUSH13 0x1C881BDC88185C1C1C9BDD9959 PUSH1 0x9A SHL PUSH1 0x64 DUP3 ADD MSTORE PUSH1 0x84 ADD PUSH2 0x10DA JUMP JUMPDEST PUSH2 0x117B DUP4 DUP4 DUP4 PUSH2 0x465B JUMP JUMPDEST CALLER PUSH1 0x0 SWAP1 DUP2 MSTORE PUSH1 0xD5 PUSH1 0x20 MSTORE PUSH1 0x40 DUP2 KECCAK256 SLOAD PUSH1 0xFF AND ISZERO ISZERO SWAP1 SUB PUSH2 0x15B1 JUMPI PUSH1 0x40 MLOAD PUSH3 0x461BCD PUSH1 0xE5 SHL DUP2 MSTORE PUSH1 0x4 ADD PUSH2 0x10DA SWAP1 PUSH2 0x58E5 JUMP JUMPDEST PUSH1 0x0 DUP5 DUP2 MSTORE PUSH1 0xD3 PUSH1 0x20 MSTORE PUSH1 0x40 SWAP1 KECCAK256 PUSH1 0x1 ADD SLOAD PUSH1 0x1 PUSH1 0x1 PUSH1 0xA0 SHL SUB DUP4 DUP2 AND SWAP2 AND EQ PUSH2 0x160A JUMPI PUSH1 0x40 MLOAD PUSH3 0x461BCD PUSH1 0xE5 SHL DUP2 MSTORE PUSH1 0x20 PUSH1 0x4 DUP3 ADD MSTORE PUSH1 0xA PUSH1 0x24 DUP3 ADD MSTORE PUSH10 0x3737BA103437B63232B9 PUSH1 0xB1 SHL PUSH1 0x44 DUP3 ADD MSTORE PUSH1 0x64 ADD PUSH2 0x10DA JUMP JUMPDEST PUSH1 0x0 DUP5 DUP2 MSTORE PUSH1 0xD3 PUSH1 0x20 MSTORE PUSH1 0x40 SWAP1 KECCAK256 PUSH1 0x7 ADD SLOAD DUP2 LT DUP1 ISZERO PUSH2 0x163A JUMPI POP PUSH1 0x0 DUP5 DUP2 MSTORE PUSH1 0xD3 PUSH1 0x20 MSTORE PUSH1 0x40 SWAP1 KECCAK256 PUSH1 0x5 ADD SLOAD TIMESTAMP LT JUMPDEST PUSH2 0x167F JUMPI PUSH1 0x40 MLOAD PUSH3 0x461BCD PUSH1 0xE5 SHL DUP2 MSTORE PUSH1 0x20 PUSH1 0x4 DUP3 ADD MSTORE PUSH1 0x16 PUSH1 0x24 DUP3 ADD MSTORE PUSH22 0x1CDB1BDD08195E18D95959081BDC88195E1C1A5C9959 PUSH1 0x52 SHL PUSH1 0x44 DUP3 ADD MSTORE PUSH1 0x64 ADD PUSH2 0x10DA JUMP JUMPDEST PUSH1 0x0 DUP5 DUP2 MSTORE PUSH1 0xD3 PUSH1 0x20 DUP2 DUP2 MSTORE PUSH1 0x40 DUP1 DUP5 KECCAK256 DUP6 DUP6 MSTORE PUSH1 0xA DUP2 ADD DUP4 MSTORE SWAP1 DUP5 KECCAK256 DUP9 DUP6 MSTORE SWAP3 SWAP1 SWAP2 MSTORE PUSH1 0x6 ADD DUP1 SLOAD SWAP2 SWAP3 PUSH2 0x16B3 DUP4 PUSH2 0x599D JUMP JUMPDEST SWAP2 SWAP1 POP SSTORE POP PUSH2 0x16C1 DUP6 PUSH2 0x45A8 JUMP JUMPDEST PUSH1 0x1 DUP2 ADD PUSH2 0x16CF DUP8 DUP3 PUSH2 0x59FC JUMP JUMPDEST POP PUSH1 0x3 DUP2 ADD PUSH2 0x16DE DUP6 DUP3 PUSH2 0x59FC JUMP JUMPDEST POP PUSH1 0x2 DUP2 ADD DUP1 SLOAD PUSH1 0x1 PUSH1 0x1 PUSH1 0xA0 SHL SUB NOT AND PUSH1 0x1 PUSH1 0x1 PUSH1 0xA0 SHL SUB DUP6 AND OR SWAP1 SSTORE CALLVALUE ISZERO PUSH2 0x1740 JUMPI PUSH1 0x0 DUP1 MSTORE PUSH1 0xD2 PUSH1 0x20 MSTORE PUSH1 0x0 DUP1 MLOAD PUSH1 0x20 PUSH2 0x5D41 DUP4 CODECOPY DUP2 MLOAD SWAP2 MSTORE SLOAD PUSH2 0x1726 SWAP1 CALLVALUE SWAP1 PUSH2 0x5951 JUMP JUMPDEST PUSH1 0x0 DUP1 MSTORE PUSH1 0xD2 PUSH1 0x20 MSTORE PUSH1 0x0 DUP1 MLOAD PUSH1 0x20 PUSH2 0x5D41 DUP4 CODECOPY DUP2 MLOAD SWAP2 MSTORE SSTORE JUMPDEST POP POP POP POP POP POP JUMP JUMPDEST PUSH1 0x0 PUSH2 0x1753 DUP4 PUSH2 0x23D3 JUMP JUMPDEST DUP3 LT PUSH2 0x17B5 JUMPI PUSH1 0x40 MLOAD PUSH3 0x461BCD PUSH1 0xE5 SHL DUP2 MSTORE PUSH1 0x20 PUSH1 0x4 DUP3 ADD MSTORE PUSH1 0x2B PUSH1 0x24 DUP3 ADD MSTORE PUSH32 0x455243373231456E756D657261626C653A206F776E657220696E646578206F75 PUSH1 0x44 DUP3 ADD MSTORE PUSH11 0x74206F6620626F756E6473 PUSH1 0xA8 SHL PUSH1 0x64 DUP3 ADD MSTORE PUSH1 0x84 ADD PUSH2 0x10DA JUMP JUMPDEST POP PUSH1 0x1 PUSH1 0x1 PUSH1 0xA0 SHL SUB SWAP2 SWAP1 SWAP2 AND PUSH1 0x0 SWAP1 DUP2 MSTORE PUSH1 0x98 PUSH1 0x20 SWAP1 DUP2 MSTORE PUSH1 0x40 DUP1 DUP4 KECCAK256 SWAP4 DUP4 MSTORE SWAP3 SWAP1 MSTORE KECCAK256 SLOAD SWAP1 JUMP JUMPDEST PUSH1 0xCD SLOAD PUSH1 0x1 PUSH1 0x1 PUSH1 0xA0 SHL SUB AND CALLER EQ PUSH2 0x1812 JUMPI PUSH1 0x40 MLOAD PUSH3 0x461BCD PUSH1 0xE5 SHL DUP2 MSTORE PUSH1 0x20 PUSH1 0x4 DUP3 ADD MSTORE PUSH1 0x0 PUSH1 0x24 DUP3 ADD MSTORE PUSH1 0x44 ADD PUSH2 0x10DA JUMP JUMPDEST PUSH1 0xCF SSTORE JUMP JUMPDEST CALLER PUSH1 0x0 SWAP1 DUP2 MSTORE PUSH1 0xD5 PUSH1 0x20 MSTORE PUSH1 0x40 DUP2 KECCAK256 SLOAD PUSH1 0xFF AND ISZERO ISZERO SWAP1 SUB PUSH2 0x184A JUMPI PUSH1 0x40 MLOAD PUSH3 0x461BCD PUSH1 0xE5 SHL DUP2 MSTORE PUSH1 0x4 ADD PUSH2 0x10DA SWAP1 PUSH2 0x58E5 JUMP JUMPDEST PUSH2 0x1853 DUP2 PUSH2 0x451D JUMP JUMPDEST ISZERO PUSH2 0x1891 JUMPI PUSH1 0x40 MLOAD PUSH3 0x461BCD PUSH1 0xE5 SHL DUP2 MSTORE PUSH1 0x20 PUSH1 0x4 DUP3 ADD MSTORE PUSH1 0xE PUSH1 0x24 DUP3 ADD MSTORE PUSH14 0x185B1C9958591E481B5A5B9D1959 PUSH1 0x92 SHL PUSH1 0x44 DUP3 ADD MSTORE PUSH1 0x64 ADD PUSH2 0x10DA JUMP JUMPDEST PUSH1 0x0 DUP2 DUP2 MSTORE PUSH1 0xD3 PUSH1 0x20 SWAP1 DUP2 MSTORE PUSH1 0x40 DUP1 DUP4 KECCAK256 PUSH1 0xD1 SLOAD DUP3 MLOAD PUSH4 0x3408E47 PUSH1 0xE4 SHL DUP2 MSTORE SWAP3 MLOAD SWAP2 SWAP5 SWAP4 PUSH1 0x1 PUSH1 0x1 PUSH1 0xA0 SHL SUB SWAP1 SWAP2 AND SWAP3 PUSH4 0x3408E470 SWAP3 PUSH1 0x4 DUP1 DUP4 ADD SWAP4 SWAP3 DUP3 SWAP1 SUB ADD DUP2 DUP7 GAS STATICCALL ISZERO DUP1 ISZERO PUSH2 0x18E8 JUMPI RETURNDATASIZE PUSH1 0x0 DUP1 RETURNDATACOPY RETURNDATASIZE PUSH1 0x0 REVERT JUMPDEST POP POP POP POP PUSH1 0x40 MLOAD RETURNDATASIZE PUSH1 0x1F NOT PUSH1 0x1F DUP3 ADD AND DUP3 ADD DUP1 PUSH1 0x40 MSTORE POP DUP2 ADD SWAP1 PUSH2 0x190C SWAP2 SWAP1 PUSH2 0x5ABC JUMP JUMPDEST SWAP1 POP PUSH2 0x1918 DUP5 DUP5 PUSH2 0x47CC JUMP JUMPDEST PUSH1 0x1 DUP3 ADD DUP1 SLOAD PUSH1 0x1 PUSH1 0x1 PUSH1 0xA0 SHL SUB DUP7 AND PUSH1 0x1 PUSH1 0x1 PUSH1 0xA0 SHL SUB NOT SWAP2 DUP3 AND DUP2 OR SWAP1 SWAP3 SSTORE DUP4 SLOAD AND OR DUP3 SSTORE TIMESTAMP PUSH1 0x3 DUP4 ADD DUP2 SWAP1 SSTORE PUSH2 0x1955 SWAP1 PUSH4 0x1E13380 PUSH2 0x5951 JUMP JUMPDEST PUSH1 0x5 DUP4 ADD SSTORE PUSH2 0x1963 DUP4 PUSH2 0x45A8 JUMP JUMPDEST PUSH1 0xC8 PUSH1 0x7 DUP4 ADD SSTORE PUSH1 0x1 DUP1 DUP4 ADD DUP1 SLOAD PUSH4 0xFFFFFFFF PUSH1 0xA0 SHL NOT AND PUSH1 0x1 PUSH1 0xA0 SHL PUSH2 0xFFFF DUP6 AND SWAP1 DUP2 MUL PUSH2 0xFFFF PUSH1 0xB0 SHL NOT AND SWAP2 SWAP1 SWAP2 OR PUSH1 0x1 PUSH1 0xB0 SHL SWAP2 SWAP1 SWAP2 MUL OR SWAP1 SSTORE PUSH1 0x2 DUP4 ADD DUP5 SWAP1 SSTORE PUSH1 0x0 DUP5 DUP2 MSTORE PUSH1 0xD7 PUSH1 0x20 MSTORE PUSH1 0x40 SWAP1 KECCAK256 PUSH1 0xA SWAP2 ADD SSTORE CALLVALUE ISZERO PUSH2 0x19FE JUMPI PUSH1 0x0 DUP1 MSTORE PUSH1 0xD2 PUSH1 0x20 MSTORE PUSH1 0x0 DUP1 MLOAD PUSH1 0x20 PUSH2 0x5D41 DUP4 CODECOPY DUP2 MLOAD SWAP2 MSTORE SLOAD PUSH2 0x19E4 SWAP1 CALLVALUE SWAP1 PUSH2 0x5951 JUMP JUMPDEST PUSH1 0x0 DUP1 MSTORE PUSH1 0xD2 PUSH1 0x20 MSTORE PUSH1 0x0 DUP1 MLOAD PUSH1 0x20 PUSH2 0x5D41 DUP4 CODECOPY DUP2 MLOAD SWAP2 MSTORE SSTORE JUMPDEST POP POP POP POP JUMP JUMPDEST CALLER PUSH1 0x0 SWAP1 DUP2 MSTORE PUSH1 0xD5 PUSH1 0x20 MSTORE PUSH1 0x40 SWAP1 KECCAK256 SLOAD DUP3 SWAP1 PUSH1 0xFF AND ISZERO DUP1 PUSH2 0x1A40 JUMPI POP CALLER PUSH1 0x0 SWAP1 DUP2 MSTORE PUSH1 0xD8 PUSH1 0x20 SWAP1 DUP2 MSTORE PUSH1 0x40 DUP1 DUP4 KECCAK256 DUP5 DUP5 MSTORE SWAP1 SWAP2 MSTORE SWAP1 KECCAK256 SLOAD PUSH1 0xFF AND ISZERO JUMPDEST ISZERO PUSH2 0x1A5D JUMPI PUSH1 0x40 MLOAD PUSH3 0x461BCD PUSH1 0xE5 SHL DUP2 MSTORE PUSH1 0x4 ADD PUSH2 0x10DA SWAP1 PUSH2 0x58E5 JUMP JUMPDEST PUSH1 0x0 DUP4 DUP2 MSTORE PUSH1 0xD9 PUSH1 0x20 SWAP1 DUP2 MSTORE PUSH1 0x40 DUP1 DUP4 KECCAK256 DUP6 DUP5 MSTORE SWAP1 SWAP2 MSTORE SWAP1 KECCAK256 SLOAD PUSH2 0x100 SWAP1 DIV PUSH1 0xFF AND ISZERO ISZERO PUSH1 0x0 SUB PUSH2 0x1AAA JUMPI PUSH1 0x40 MLOAD PUSH3 0x461BCD PUSH1 0xE5 SHL DUP2 MSTORE PUSH1 0x20 PUSH1 0x4 DUP3 ADD MSTORE PUSH1 0x0 PUSH1 0x24 DUP3 ADD MSTORE PUSH1 0x44 ADD PUSH2 0x10DA JUMP JUMPDEST PUSH1 0x0 DUP4 DUP2 MSTORE PUSH1 0xD9 PUSH1 0x20 SWAP1 DUP2 MSTORE PUSH1 0x40 DUP1 DUP4 KECCAK256 DUP6 DUP5 MSTORE SWAP1 SWAP2 MSTORE DUP2 KECCAK256 DUP1 SLOAD PUSH2 0xFFFF NOT AND DUP2 SSTORE SWAP1 PUSH2 0x1ADA PUSH1 0x1 DUP4 ADD DUP3 PUSH2 0x4FD2 JUMP JUMPDEST PUSH1 0x2 DUP3 ADD DUP1 SLOAD PUSH1 0x1 PUSH1 0x1 PUSH1 0xA0 SHL SUB NOT AND SWAP1 SSTORE PUSH2 0x1AFA PUSH1 0x3 DUP4 ADD PUSH1 0x0 PUSH2 0x4FD2 JUMP JUMPDEST POP POP CALLVALUE ISZERO PUSH2 0x117B JUMPI PUSH1 0x0 DUP1 MSTORE PUSH1 0xD2 PUSH1 0x20 MSTORE PUSH1 0x0 DUP1 MLOAD PUSH1 0x20 PUSH2 0x5D41 DUP4 CODECOPY DUP2 MLOAD SWAP2 MSTORE SLOAD PUSH2 0x1B26 SWAP1 CALLVALUE SWAP1 PUSH2 0x5951 JUMP JUMPDEST PUSH1 0x0 DUP1 MSTORE PUSH1 0xD2 PUSH1 0x20 MSTORE PUSH1 0x0 DUP1 MLOAD PUSH1 0x20 PUSH2 0x5D41 DUP4 CODECOPY DUP2 MLOAD SWAP2 MSTORE SSTORE POP POP POP JUMP JUMPDEST PUSH1 0x0 PUSH2 0x1B4F PUSH1 0x9A SLOAD SWAP1 JUMP JUMPDEST DUP3 LT PUSH2 0x1BB2 JUMPI PUSH1 0x40 MLOAD PUSH3 0x461BCD PUSH1 0xE5 SHL DUP2 MSTORE PUSH1 0x20 PUSH1 0x4 DUP3 ADD MSTORE PUSH1 0x2C PUSH1 0x24 DUP3 ADD MSTORE PUSH32 0x455243373231456E756D657261626C653A20676C6F62616C20696E646578206F PUSH1 0x44 DUP3 ADD MSTORE PUSH12 0x7574206F6620626F756E6473 PUSH1 0xA0 SHL PUSH1 0x64 DUP3 ADD MSTORE PUSH1 0x84 ADD PUSH2 0x10DA JUMP JUMPDEST PUSH1 0x9A DUP3 DUP2 SLOAD DUP2 LT PUSH2 0x1BC5 JUMPI PUSH2 0x1BC5 PUSH2 0x5AD9 JUMP JUMPDEST SWAP1 PUSH1 0x0 MSTORE PUSH1 0x20 PUSH1 0x0 KECCAK256 ADD SLOAD SWAP1 POP SWAP2 SWAP1 POP JUMP JUMPDEST CALLER PUSH1 0x0 SWAP1 DUP2 MSTORE PUSH1 0xD5 PUSH1 0x20 MSTORE PUSH1 0x40 DUP2 KECCAK256 SLOAD PUSH1 0xFF AND ISZERO ISZERO SWAP1 SUB PUSH2 0x1C0A JUMPI PUSH1 0x40 MLOAD PUSH3 0x461BCD PUSH1 0xE5 SHL DUP2 MSTORE PUSH1 0x4 ADD PUSH2 0x10DA SWAP1 PUSH2 0x58E5 JUMP JUMPDEST PUSH1 0x0 DUP3 DUP2 MSTORE PUSH1 0xD3 PUSH1 0x20 MSTORE PUSH1 0x40 SWAP1 KECCAK256 PUSH1 0x8 ADD SLOAD PUSH2 0x1C27 SWAP1 DUP3 SWAP1 PUSH2 0x593E JUMP JUMPDEST PUSH1 0x0 SWAP3 DUP4 MSTORE PUSH1 0xD3 PUSH1 0x20 MSTORE PUSH1 0x40 SWAP1 SWAP3 KECCAK256 PUSH1 0x8 ADD SWAP2 SWAP1 SWAP2 SSTORE POP JUMP JUMPDEST PUSH1 0xCD SLOAD PUSH1 0x1 PUSH1 0x1 PUSH1 0xA0 SHL SUB AND CALLER EQ PUSH2 0x1C74 JUMPI PUSH1 0x40 MLOAD PUSH3 0x461BCD PUSH1 0xE5 SHL DUP2 MSTORE PUSH1 0x20 PUSH1 0x4 DUP3 ADD MSTORE PUSH1 0x0 PUSH1 0x24 DUP3 ADD MSTORE PUSH1 0x44 ADD PUSH2 0x10DA JUMP JUMPDEST PUSH1 0x1 PUSH1 0x1 PUSH1 0xA0 SHL SUB DUP3 AND PUSH1 0x0 SWAP1 DUP2 MSTORE PUSH1 0xD2 PUSH1 0x20 MSTORE PUSH1 0x40 SWAP1 KECCAK256 SLOAD DUP2 GT ISZERO PUSH2 0x1CCA JUMPI PUSH1 0x40 MLOAD PUSH3 0x461BCD PUSH1 0xE5 SHL DUP2 MSTORE PUSH1 0x20 PUSH1 0x4 DUP3 ADD MSTORE PUSH1 0xB PUSH1 0x24 DUP3 ADD MSTORE PUSH11 0x4E6F2062616C616E636573 PUSH1 0xA8 SHL PUSH1 0x44 DUP3 ADD MSTORE PUSH1 0x64 ADD PUSH2 0x10DA JUMP JUMPDEST PUSH1 0x1 PUSH1 0x1 PUSH1 0xA0 SHL SUB DUP3 AND PUSH1 0x0 SWAP1 DUP2 MSTORE PUSH1 0xD2 PUSH1 0x20 MSTORE PUSH1 0x40 SWAP1 KECCAK256 SLOAD PUSH2 0x1CEE SWAP1 DUP3 SWAP1 PUSH2 0x593E JUMP JUMPDEST PUSH1 0x1 PUSH1 0x1 PUSH1 0xA0 SHL SUB DUP4 AND PUSH1 0x0 DUP2 DUP2 MSTORE PUSH1 0xD2 PUSH1 0x20 MSTORE PUSH1 0x40 SWAP1 DUP2 SWAP1 KECCAK256 SWAP3 SWAP1 SWAP3 SSTORE SWAP1 MLOAD PUSH4 0xA9059CBB PUSH1 0xE0 SHL DUP2 MSTORE CALLER PUSH1 0x4 DUP3 ADD MSTORE PUSH1 0x24 DUP2 ADD DUP4 SWAP1 MSTORE PUSH4 0xA9059CBB SWAP1 PUSH1 0x44 ADD PUSH1 0x20 PUSH1 0x40 MLOAD DUP1 DUP4 SUB DUP2 PUSH1 0x0 DUP8 GAS CALL ISZERO DUP1 ISZERO PUSH2 0x1D4D JUMPI RETURNDATASIZE PUSH1 0x0 DUP1 RETURNDATACOPY RETURNDATASIZE PUSH1 0x0 REVERT JUMPDEST POP POP POP POP PUSH1 0x40 MLOAD RETURNDATASIZE PUSH1 0x1F NOT PUSH1 0x1F DUP3 ADD AND DUP3 ADD DUP1 PUSH1 0x40 MSTORE POP DUP2 ADD SWAP1 PUSH2 0x117B SWAP2 SWAP1 PUSH2 0x5AEF JUMP JUMPDEST CALLER PUSH1 0x0 SWAP1 DUP2 MSTORE PUSH1 0xD5 PUSH1 0x20 MSTORE PUSH1 0x40 DUP2 KECCAK256 SLOAD PUSH1 0xFF AND ISZERO ISZERO SWAP1 SUB PUSH2 0x1DA4 JUMPI PUSH1 0x40 MLOAD PUSH3 0x461BCD PUSH1 0xE5 SHL DUP2 MSTORE PUSH1 0x4 ADD PUSH2 0x10DA SWAP1 PUSH2 0x58E5 JUMP JUMPDEST PUSH2 0x1DAD DUP6 PUSH2 0x451D JUMP JUMPDEST ISZERO ISZERO PUSH1 0x1 EQ DUP1 ISZERO PUSH2 0x1DC6 JUMPI POP PUSH1 0x1 PUSH1 0x1 PUSH1 0xA0 SHL SUB DUP5 AND ISZERO ISZERO JUMPDEST PUSH2 0x1DE2 JUMPI PUSH1 0x40 MLOAD PUSH3 0x461BCD PUSH1 0xE5 SHL DUP2 MSTORE PUSH1 0x4 ADD PUSH2 0x10DA SWAP1 PUSH2 0x5B0C JUMP JUMPDEST PUSH1 0x40 MLOAD PUSH4 0x70A08231 PUSH1 0xE0 SHL DUP2 MSTORE ADDRESS PUSH1 0x4 DUP3 ADD MSTORE DUP4 SWAP1 PUSH1 0x1 PUSH1 0x1 PUSH1 0xA0 SHL SUB DUP7 AND SWAP1 PUSH4 0x70A08231 SWAP1 PUSH1 0x24 ADD PUSH1 0x20 PUSH1 0x40 MLOAD DUP1 DUP4 SUB DUP2 DUP7 GAS STATICCALL ISZERO DUP1 ISZERO PUSH2 0x1E28 JUMPI RETURNDATASIZE PUSH1 0x0 DUP1 RETURNDATACOPY RETURNDATASIZE PUSH1 0x0 REVERT JUMPDEST POP POP POP POP PUSH1 0x40 MLOAD RETURNDATASIZE PUSH1 0x1F NOT PUSH1 0x1F DUP3 ADD AND DUP3 ADD DUP1 PUSH1 0x40 MSTORE POP DUP2 ADD SWAP1 PUSH2 0x1E4C SWAP2 SWAP1 PUSH2 0x5B35 JUMP JUMPDEST LT ISZERO DUP1 ISZERO PUSH2 0x1E7F JUMPI POP PUSH1 0x0 DUP6 DUP2 MSTORE PUSH1 0xD3 PUSH1 0x20 SWAP1 DUP2 MSTORE PUSH1 0x40 DUP1 DUP4 KECCAK256 PUSH1 0x1 PUSH1 0x1 PUSH1 0xA0 SHL SUB DUP9 AND DUP5 MSTORE PUSH1 0x9 ADD SWAP1 SWAP2 MSTORE SWAP1 KECCAK256 SLOAD DUP4 GT ISZERO JUMPDEST PUSH2 0x1E9B JUMPI PUSH1 0x40 MLOAD PUSH3 0x461BCD PUSH1 0xE5 SHL DUP2 MSTORE PUSH1 0x4 ADD PUSH2 0x10DA SWAP1 PUSH2 0x5908 JUMP JUMPDEST PUSH1 0x0 DUP6 DUP2 MSTORE PUSH1 0xD3 PUSH1 0x20 MSTORE PUSH1 0x40 SWAP1 KECCAK256 PUSH1 0x1 ADD SLOAD PUSH1 0x1 PUSH1 0x1 PUSH1 0xA0 SHL SUB DUP3 DUP2 AND SWAP2 AND EQ PUSH2 0x1EF3 JUMPI PUSH1 0x40 MLOAD PUSH3 0x461BCD PUSH1 0xE5 SHL DUP2 MSTORE PUSH1 0x20 PUSH1 0x4 DUP3 ADD MSTORE PUSH1 0x9 PUSH1 0x24 DUP3 ADD MSTORE PUSH9 0x3737BA1037BBB732B9 PUSH1 0xB9 SHL PUSH1 0x44 DUP3 ADD MSTORE PUSH1 0x64 ADD PUSH2 0x10DA JUMP JUMPDEST PUSH1 0x0 PUSH2 0x3E8 PUSH2 0x1F03 DUP6 PUSH1 0x2 PUSH2 0x5964 JUMP JUMPDEST PUSH2 0x1F0D SWAP2 SWAP1 PUSH2 0x597B JUMP JUMPDEST PUSH1 0x0 DUP8 DUP2 MSTORE PUSH1 0xD3 PUSH1 0x20 SWAP1 DUP2 MSTORE PUSH1 0x40 DUP1 DUP4 KECCAK256 PUSH1 0x1 PUSH1 0x1 PUSH1 0xA0 SHL SUB DUP11 AND DUP5 MSTORE PUSH1 0x9 ADD SWAP1 SWAP2 MSTORE SWAP1 KECCAK256 SLOAD SWAP1 SWAP2 POP PUSH2 0x1F41 SWAP1 DUP6 SWAP1 PUSH2 0x593E JUMP JUMPDEST PUSH1 0x0 DUP8 DUP2 MSTORE PUSH1 0xD3 PUSH1 0x20 SWAP1 DUP2 MSTORE PUSH1 0x40 DUP1 DUP4 KECCAK256 PUSH1 0x1 PUSH1 0x1 PUSH1 0xA0 SHL SUB DUP11 AND DUP1 DUP6 MSTORE PUSH1 0x9 SWAP1 SWAP2 ADD SWAP1 SWAP3 MSTORE SWAP1 SWAP2 KECCAK256 SWAP2 SWAP1 SWAP2 SSTORE PUSH4 0xA9059CBB DUP5 PUSH2 0x1F7E DUP5 DUP9 PUSH2 0x593E JUMP JUMPDEST PUSH1 0x40 MLOAD PUSH1 0x1 PUSH1 0x1 PUSH1 0xE0 SHL SUB NOT PUSH1 0xE0 DUP6 SWAP1 SHL AND DUP2 MSTORE PUSH1 0x1 PUSH1 0x1 PUSH1 0xA0 SHL SUB SWAP1 SWAP3 AND PUSH1 0x4 DUP4 ADD MSTORE PUSH1 0x24 DUP3 ADD MSTORE PUSH1 0x44 ADD PUSH1 0x20 PUSH1 0x40 MLOAD DUP1 DUP4 SUB DUP2 PUSH1 0x0 DUP8 GAS CALL ISZERO DUP1 ISZERO PUSH2 0x1FC9 JUMPI RETURNDATASIZE PUSH1 0x0 DUP1 RETURNDATACOPY RETURNDATASIZE PUSH1 0x0 REVERT JUMPDEST POP POP POP POP PUSH1 0x40 MLOAD RETURNDATASIZE PUSH1 0x1F NOT PUSH1 0x1F DUP3 ADD AND DUP3 ADD DUP1 PUSH1 0x40 MSTORE POP DUP2 ADD SWAP1 PUSH2 0x1FED SWAP2 SWAP1 PUSH2 0x5AEF JUMP JUMPDEST POP PUSH2 0x1FF7 DUP7 PUSH2 0x45A8 JUMP JUMPDEST PUSH1 0x0 DUP7 DUP2 MSTORE PUSH1 0xD3 PUSH1 0x20 MSTORE PUSH1 0x40 SWAP1 KECCAK256 SLOAD PUSH1 0x1 PUSH1 0x1 PUSH1 0xA0 SHL SUB AND DUP1 ISZERO PUSH2 0x208A JUMPI PUSH1 0x40 MLOAD PUSH4 0xA9059CBB PUSH1 0xE0 SHL DUP2 MSTORE PUSH1 0x1 PUSH1 0x1 PUSH1 0xA0 SHL SUB DUP3 DUP2 AND PUSH1 0x4 DUP4 ADD MSTORE PUSH1 0x24 DUP3 ADD DUP5 SWAP1 MSTORE DUP8 AND SWAP1 PUSH4 0xA9059CBB SWAP1 PUSH1 0x44 ADD PUSH1 0x20 PUSH1 0x40 MLOAD DUP1 DUP4 SUB DUP2 PUSH1 0x0 DUP8 GAS CALL ISZERO DUP1 ISZERO PUSH2 0x2064 JUMPI RETURNDATASIZE PUSH1 0x0 DUP1 RETURNDATACOPY RETURNDATASIZE PUSH1 0x0 REVERT JUMPDEST POP POP POP POP PUSH1 0x40 MLOAD RETURNDATASIZE PUSH1 0x1F NOT PUSH1 0x1F DUP3 ADD AND DUP3 ADD DUP1 PUSH1 0x40 MSTORE POP DUP2 ADD SWAP1 PUSH2 0x2088 SWAP2 SWAP1 PUSH2 0x5AEF JUMP JUMPDEST POP JUMPDEST PUSH1 0x0 CALLVALUE GT DUP1 ISZERO PUSH2 0x20A2 JUMPI POP PUSH1 0x1 PUSH1 0x1 PUSH1 0xA0 SHL SUB DUP2 AND ISZERO ISZERO JUMPDEST DUP1 ISZERO PUSH2 0x20CB JUMPI POP PUSH1 0x0 DUP8 DUP2 MSTORE PUSH1 0xD3 PUSH1 0x20 MSTORE PUSH1 0x40 SWAP1 KECCAK256 PUSH1 0x1 ADD SLOAD PUSH1 0x1 PUSH1 0x1 PUSH1 0xA0 SHL SUB DUP3 DUP2 AND SWAP2 AND EQ ISZERO JUMPDEST ISZERO PUSH2 0x2189 JUMPI PUSH1 0x0 DUP8 DUP2 MSTORE PUSH1 0xD6 PUSH1 0x20 MSTORE PUSH1 0x40 DUP2 KECCAK256 SLOAD PUSH1 0xFF AND SWAP1 DUP2 SWAP1 SUB PUSH2 0x20EE JUMPI POP PUSH1 0x5 JUMPDEST PUSH1 0x0 PUSH1 0x64 PUSH2 0x20FC DUP4 CALLVALUE PUSH2 0x5964 JUMP JUMPDEST PUSH2 0x2106 SWAP2 SWAP1 PUSH2 0x597B JUMP JUMPDEST PUSH1 0x40 MLOAD SWAP1 SWAP2 POP PUSH1 0x1 PUSH1 0x1 PUSH1 0xA0 SHL SUB DUP5 AND SWAP1 DUP3 ISZERO PUSH2 0x8FC MUL SWAP1 DUP4 SWAP1 PUSH1 0x0 DUP2 DUP2 DUP2 DUP6 DUP9 DUP9 CALL SWAP4 POP POP POP POP ISZERO DUP1 ISZERO PUSH2 0x213F JUMPI RETURNDATASIZE PUSH1 0x0 DUP1 RETURNDATACOPY RETURNDATASIZE PUSH1 0x0 REVERT JUMPDEST POP PUSH2 0x214A DUP2 CALLVALUE PUSH2 0x593E JUMP JUMPDEST PUSH1 0x0 DUP1 MSTORE PUSH1 0xD2 PUSH1 0x20 MSTORE PUSH1 0x0 DUP1 MLOAD PUSH1 0x20 PUSH2 0x5D41 DUP4 CODECOPY DUP2 MLOAD SWAP2 MSTORE SLOAD PUSH2 0x216D SWAP2 SWAP1 PUSH2 0x5951 JUMP JUMPDEST PUSH1 0x0 DUP1 MSTORE PUSH1 0xD2 PUSH1 0x20 MSTORE PUSH1 0x0 DUP1 MLOAD PUSH1 0x20 PUSH2 0x5D41 DUP4 CODECOPY DUP2 MLOAD SWAP2 MSTORE SSTORE POP POP JUMPDEST POP POP POP POP POP POP POP JUMP JUMPDEST PUSH1 0x0 SLOAD PUSH2 0x100 SWAP1 DIV PUSH1 0xFF AND ISZERO DUP1 DUP1 ISZERO PUSH2 0x21B2 JUMPI POP PUSH1 0x0 SLOAD PUSH1 0x1 PUSH1 0xFF SWAP1 SWAP2 AND LT JUMPDEST DUP1 PUSH2 0x21CC JUMPI POP ADDRESS EXTCODESIZE ISZERO DUP1 ISZERO PUSH2 0x21CC JUMPI POP PUSH1 0x0 SLOAD PUSH1 0xFF AND PUSH1 0x1 EQ JUMPDEST PUSH2 0x222F JUMPI PUSH1 0x40 MLOAD PUSH3 0x461BCD PUSH1 0xE5 SHL DUP2 MSTORE PUSH1 0x20 PUSH1 0x4 DUP3 ADD MSTORE PUSH1 0x2E PUSH1 0x24 DUP3 ADD MSTORE PUSH32 0x496E697469616C697A61626C653A20636F6E747261637420697320616C726561 PUSH1 0x44 DUP3 ADD MSTORE PUSH14 0x191E481A5B9A5D1A585B1A5E9959 PUSH1 0x92 SHL PUSH1 0x64 DUP3 ADD MSTORE PUSH1 0x84 ADD PUSH2 0x10DA JUMP JUMPDEST PUSH1 0x0 DUP1 SLOAD PUSH1 0xFF NOT AND PUSH1 0x1 OR SWAP1 SSTORE DUP1 ISZERO PUSH2 0x2252 JUMPI PUSH1 0x0 DUP1 SLOAD PUSH2 0xFF00 NOT AND PUSH2 0x100 OR SWAP1 SSTORE JUMPDEST PUSH1 0xCB SLOAD PUSH1 0x1 PUSH1 0x1 PUSH1 0xA0 SHL SUB AND CALLER EQ PUSH2 0x229B JUMPI PUSH1 0x40 MLOAD PUSH3 0x461BCD PUSH1 0xE5 SHL DUP2 MSTORE PUSH1 0x20 PUSH1 0x4 DUP3 ADD MSTORE PUSH1 0xC PUSH1 0x24 DUP3 ADD MSTORE PUSH12 0x6E6F7420696E697420616363 PUSH1 0xA0 SHL PUSH1 0x44 DUP3 ADD MSTORE PUSH1 0x64 ADD PUSH2 0x10DA JUMP JUMPDEST PUSH2 0x22A5 DUP5 DUP5 PUSH2 0x47E6 JUMP JUMPDEST PUSH2 0x22AD PUSH2 0x4826 JUMP JUMPDEST PUSH1 0xD1 DUP1 SLOAD PUSH1 0x1 PUSH1 0x1 PUSH1 0xA0 SHL SUB DUP1 DUP6 AND PUSH1 0x1 PUSH1 0x1 PUSH1 0xA0 SHL SUB NOT SWAP3 DUP4 AND OR SWAP1 SWAP3 SSTORE CALLER PUSH1 0x0 DUP2 DUP2 MSTORE PUSH1 0xD5 PUSH1 0x20 MSTORE PUSH1 0x40 DUP2 KECCAK256 DUP1 SLOAD PUSH1 0xFF NOT AND PUSH1 0x1 OR SWAP1 SSTORE PUSH1 0xCD DUP1 SLOAD DUP5 AND SWAP1 SWAP3 OR SWAP1 SWAP2 SSTORE PUSH1 0xCC DUP1 SLOAD SWAP4 DUP10 AND SWAP4 SWAP1 SWAP3 AND SWAP3 SWAP1 SWAP3 OR SWAP1 SSTORE PUSH1 0x2 PUSH1 0xCE SSTORE PUSH6 0x5AF3107A4000 PUSH1 0xCF SSTORE PUSH1 0x3 PUSH1 0xD0 SSTORE PUSH2 0x2322 SWAP1 ADDRESS SWAP1 PUSH2 0x1817 JUMP JUMPDEST DUP1 ISZERO PUSH2 0x13E6 JUMPI PUSH1 0x0 DUP1 SLOAD PUSH2 0xFF00 NOT AND SWAP1 SSTORE PUSH1 0x40 MLOAD PUSH1 0x1 DUP2 MSTORE PUSH32 0x7F26B83FF96E1F2B6A682F133852F6798A09C465DA95921460CEFB3847402498 SWAP1 PUSH1 0x20 ADD PUSH1 0x40 MLOAD DUP1 SWAP2 SUB SWAP1 LOG1 POP POP POP POP POP JUMP JUMPDEST PUSH1 0x0 DUP2 DUP2 MSTORE PUSH1 0x68 PUSH1 0x20 MSTORE PUSH1 0x40 DUP2 KECCAK256 SLOAD PUSH1 0x1 PUSH1 0x1 PUSH1 0xA0 SHL SUB AND DUP1 PUSH2 0xF99 JUMPI PUSH1 0x40 MLOAD PUSH3 0x461BCD PUSH1 0xE5 SHL DUP2 MSTORE PUSH1 0x20 PUSH1 0x4 DUP3 ADD MSTORE PUSH1 0x18 PUSH1 0x24 DUP3 ADD MSTORE PUSH32 0x4552433732313A20696E76616C696420746F6B656E2049440000000000000000 PUSH1 0x44 DUP3 ADD MSTORE PUSH1 0x64 ADD PUSH2 0x10DA JUMP JUMPDEST PUSH1 0x0 PUSH1 0x1 PUSH1 0x1 PUSH1 0xA0 SHL SUB DUP3 AND PUSH2 0x243D JUMPI PUSH1 0x40 MLOAD PUSH3 0x461BCD PUSH1 0xE5 SHL DUP2 MSTORE PUSH1 0x20 PUSH1 0x4 DUP3 ADD MSTORE PUSH1 0x29 PUSH1 0x24 DUP3 ADD MSTORE PUSH32 0x4552433732313A2061646472657373207A65726F206973206E6F742061207661 PUSH1 0x44 DUP3 ADD MSTORE PUSH9 0x3634B21037BBB732B9 PUSH1 0xB9 SHL PUSH1 0x64 DUP3 ADD MSTORE PUSH1 0x84 ADD PUSH2 0x10DA JUMP JUMPDEST POP PUSH1 0x1 PUSH1 0x1 PUSH1 0xA0 SHL SUB AND PUSH1 0x0 SWAP1 DUP2 MSTORE PUSH1 0x69 PUSH1 0x20 MSTORE PUSH1 0x40 SWAP1 KECCAK256 SLOAD SWAP1 JUMP JUMPDEST PUSH1 0x0 DUP2 DUP2 MSTORE PUSH1 0xD3 PUSH1 0x20 MSTORE PUSH1 0x40 DUP2 KECCAK256 PUSH1 0x6 ADD SLOAD DUP2 SWAP1 PUSH2 0x2478 DUP2 PUSH1 0x1 PUSH2 0x5951 JUMP JUMPDEST SWAP2 POP SWAP2 POP SWAP2 POP SWAP2 JUMP JUMPDEST CALLER PUSH1 0x0 SWAP1 DUP2 MSTORE PUSH1 0xD5 PUSH1 0x20 MSTORE PUSH1 0x40 DUP2 KECCAK256 SLOAD PUSH1 0xFF AND ISZERO ISZERO SWAP1 SUB PUSH2 0x24B4 JUMPI PUSH1 0x40 MLOAD PUSH3 0x461BCD PUSH1 0xE5 SHL DUP2 MSTORE PUSH1 0x4 ADD PUSH2 0x10DA SWAP1 PUSH2 0x58E5 JUMP JUMPDEST PUSH2 0x24BD DUP3 PUSH2 0x451D JUMP JUMPDEST ISZERO ISZERO PUSH1 0x1 EQ PUSH2 0x24CB JUMPI PUSH1 0x0 DUP1 REVERT JUMPDEST PUSH2 0x24D5 DUP3 DUP3 PUSH2 0x484F JUMP JUMPDEST CALLVALUE ISZERO PUSH2 0x2519 JUMPI PUSH1 0x0 DUP1 MSTORE PUSH1 0xD2 PUSH1 0x20 MSTORE PUSH1 0x0 DUP1 MLOAD PUSH1 0x20 PUSH2 0x5D41 DUP4 CODECOPY DUP2 MLOAD SWAP2 MSTORE SLOAD PUSH2 0x24FF SWAP1 CALLVALUE SWAP1 PUSH2 0x5951 JUMP JUMPDEST PUSH1 0x0 DUP1 MSTORE PUSH1 0xD2 PUSH1 0x20 MSTORE PUSH1 0x0 DUP1 MLOAD PUSH1 0x20 PUSH2 0x5D41 DUP4 CODECOPY DUP2 MLOAD SWAP2 MSTORE SSTORE JUMPDEST POP POP JUMP JUMPDEST CALLER PUSH1 0x0 SWAP1 DUP2 MSTORE PUSH1 0xD5 PUSH1 0x20 MSTORE PUSH1 0x40 SWAP1 KECCAK256 SLOAD DUP4 SWAP1 PUSH1 0xFF AND ISZERO DUP1 PUSH2 0x2559 JUMPI POP CALLER PUSH1 0x0 SWAP1 DUP2 MSTORE PUSH1 0xD8 PUSH1 0x20 SWAP1 DUP2 MSTORE PUSH1 0x40 DUP1 DUP4 KECCAK256 DUP5 DUP5 MSTORE SWAP1 SWAP2 MSTORE SWAP1 KECCAK256 SLOAD PUSH1 0xFF AND ISZERO JUMPDEST ISZERO PUSH2 0x2576 JUMPI PUSH1 0x40 MLOAD PUSH3 0x461BCD PUSH1 0xE5 SHL DUP2 MSTORE PUSH1 0x4 ADD PUSH2 0x10DA SWAP1 PUSH2 0x58E5 JUMP JUMPDEST PUSH1 0x0 DUP5 DUP2 MSTORE PUSH1 0xD9 PUSH1 0x20 SWAP1 DUP2 MSTORE PUSH1 0x40 DUP1 DUP4 KECCAK256 DUP7 DUP5 MSTORE SWAP1 SWAP2 MSTORE SWAP1 KECCAK256 SLOAD PUSH2 0x100 SWAP1 DIV PUSH1 0xFF AND ISZERO ISZERO PUSH1 0x1 SUB PUSH2 0x25C3 JUMPI PUSH1 0x40 MLOAD PUSH3 0x461BCD PUSH1 0xE5 SHL DUP2 MSTORE PUSH1 0x20 PUSH1 0x4 DUP3 ADD MSTORE PUSH1 0x0 PUSH1 0x24 DUP3 ADD MSTORE PUSH1 0x44 ADD PUSH2 0x10DA JUMP JUMPDEST PUSH1 0x0 DUP5 DUP2 MSTORE PUSH1 0xD9 PUSH1 0x20 SWAP1 DUP2 MSTORE PUSH1 0x40 DUP1 DUP4 KECCAK256 DUP7 DUP5 MSTORE DUP3 MSTORE SWAP2 DUP3 SWAP1 KECCAK256 DUP5 MLOAD DUP2 SLOAD SWAP3 DUP7 ADD MLOAD PUSH2 0xFFFF NOT SWAP1 SWAP4 AND SWAP1 ISZERO ISZERO PUSH2 0xFF00 NOT AND OR PUSH2 0x100 SWAP3 ISZERO ISZERO SWAP3 SWAP1 SWAP3 MUL SWAP2 SWAP1 SWAP2 OR DUP2 SSTORE SWAP1 DUP4 ADD MLOAD DUP4 SWAP2 SWAP1 PUSH1 0x1 DUP3 ADD SWAP1 PUSH2 0x261B SWAP1 DUP3 PUSH2 0x59FC JUMP JUMPDEST POP PUSH1 0x60 DUP3 ADD MLOAD PUSH1 0x2 DUP3 ADD DUP1 SLOAD PUSH1 0x1 PUSH1 0x1 PUSH1 0xA0 SHL SUB NOT AND PUSH1 0x1 PUSH1 0x1 PUSH1 0xA0 SHL SUB SWAP1 SWAP3 AND SWAP2 SWAP1 SWAP2 OR SWAP1 SSTORE PUSH1 0x80 DUP3 ADD MLOAD PUSH1 0x3 DUP3 ADD SWAP1 PUSH2 0x2656 SWAP1 DUP3 PUSH2 0x59FC JUMP JUMPDEST POP POP CALLVALUE ISZERO SWAP1 POP PUSH2 0x19FE JUMPI PUSH1 0x0 DUP1 MSTORE PUSH1 0xD2 PUSH1 0x20 MSTORE PUSH1 0x0 DUP1 MLOAD PUSH1 0x20 PUSH2 0x5D41 DUP4 CODECOPY DUP2 MLOAD SWAP2 MSTORE SLOAD PUSH2 0x19E4 SWAP1 CALLVALUE SWAP1 PUSH2 0x5951 JUMP JUMPDEST PUSH1 0x0 DUP3 DUP2 MSTORE PUSH1 0xD7 PUSH1 0x20 SWAP1 DUP2 MSTORE PUSH1 0x40 DUP1 DUP4 KECCAK256 DUP5 DUP5 MSTORE PUSH1 0x2 ADD DUP3 MSTORE DUP1 DUP4 KECCAK256 PUSH1 0x1 PUSH1 0x1 PUSH1 0xA0 SHL SUB DUP8 AND DUP5 MSTORE SWAP1 SWAP2 MSTORE SWAP1 KECCAK256 SLOAD PUSH1 0xFF AND SWAP4 SWAP3 POP POP POP JUMP JUMPDEST PUSH1 0x0 DUP4 DUP2 MSTORE PUSH1 0xD3 PUSH1 0x20 MSTORE PUSH1 0x40 SWAP1 KECCAK256 PUSH1 0x1 DUP2 ADD SLOAD PUSH1 0x1 PUSH1 0x1 PUSH1 0xA0 SHL SUB AND CALLER EQ DUP1 PUSH2 0x26EE JUMPI POP DUP1 SLOAD PUSH1 0x1 PUSH1 0x1 PUSH1 0xA0 SHL SUB AND CALLER EQ JUMPDEST PUSH2 0x272E JUMPI PUSH1 0x40 MLOAD PUSH3 0x461BCD PUSH1 0xE5 SHL DUP2 MSTORE PUSH1 0x20 PUSH1 0x4 DUP3 ADD MSTORE PUSH1 0x11 PUSH1 0x24 DUP3 ADD MSTORE PUSH17 0x3737BA1030B1B1B2B9B9903A379034B21 PUSH1 0x7D SHL PUSH1 0x44 DUP3 ADD MSTORE PUSH1 0x64 ADD PUSH2 0x10DA JUMP JUMPDEST PUSH1 0x0 DUP4 DUP2 MSTORE PUSH1 0xA DUP3 ADD PUSH1 0x20 MSTORE PUSH1 0x40 SWAP1 KECCAK256 PUSH1 0x2 ADD SLOAD PUSH1 0x1 PUSH1 0x1 PUSH1 0xA0 SHL SUB AND CALLER EQ PUSH2 0x278D JUMPI PUSH1 0x40 MLOAD PUSH3 0x461BCD PUSH1 0xE5 SHL DUP2 MSTORE PUSH1 0x20 PUSH1 0x4 DUP3 ADD MSTORE PUSH1 0x11 PUSH1 0x24 DUP3 ADD MSTORE PUSH17 0x1B9BC81858D8D95CDCC81D1BC81CDB1BDD PUSH1 0x7A SHL PUSH1 0x44 DUP3 ADD MSTORE PUSH1 0x64 ADD PUSH2 0x10DA JUMP JUMPDEST PUSH1 0x1 DUP2 ADD SLOAD PUSH1 0x1 PUSH1 0x1 PUSH1 0xA0 SHL SUB AND CALLER EQ DUP1 ISZERO PUSH2 0x27AB JUMPI POP PUSH1 0x1 DUP3 ISZERO ISZERO EQ JUMPDEST ISZERO PUSH2 0x289A JUMPI PUSH1 0xCF SLOAD PUSH2 0x27BE SWAP1 PUSH1 0x5 PUSH2 0x5964 JUMP JUMPDEST PUSH1 0xCC SLOAD PUSH1 0x1 PUSH1 0x1 PUSH1 0xA0 SHL SUB AND PUSH1 0x0 SWAP1 DUP2 MSTORE PUSH1 0x9 DUP4 ADD PUSH1 0x20 MSTORE PUSH1 0x40 SWAP1 KECCAK256 SLOAD LT ISZERO PUSH2 0x27F9 JUMPI PUSH1 0x40 MLOAD PUSH3 0x461BCD PUSH1 0xE5 SHL DUP2 MSTORE PUSH1 0x4 ADD PUSH2 0x10DA SWAP1 PUSH2 0x5B4E JUMP JUMPDEST PUSH1 0xCF SLOAD PUSH2 0x2807 SWAP1 PUSH1 0x5 PUSH2 0x5964 JUMP JUMPDEST PUSH1 0xCC SLOAD PUSH1 0x1 PUSH1 0x1 PUSH1 0xA0 SHL SUB AND PUSH1 0x0 SWAP1 DUP2 MSTORE PUSH1 0x9 DUP4 ADD PUSH1 0x20 MSTORE PUSH1 0x40 SWAP1 KECCAK256 SLOAD PUSH2 0x282E SWAP2 SWAP1 PUSH2 0x593E JUMP JUMPDEST PUSH1 0xCC SLOAD PUSH1 0x1 PUSH1 0x1 PUSH1 0xA0 SHL SUB AND PUSH1 0x0 SWAP1 DUP2 MSTORE PUSH1 0x9 DUP4 ADD PUSH1 0x20 MSTORE PUSH1 0x40 SWAP1 KECCAK256 SSTORE PUSH1 0xCF SLOAD PUSH2 0x2859 SWAP1 PUSH1 0x5 PUSH2 0x5964 JUMP JUMPDEST PUSH1 0xCC SLOAD PUSH1 0x1 PUSH1 0x1 PUSH1 0xA0 SHL SUB AND PUSH1 0x0 SWAP1 DUP2 MSTORE PUSH1 0xD2 PUSH1 0x20 MSTORE PUSH1 0x40 SWAP1 KECCAK256 SLOAD PUSH2 0x287E SWAP2 SWAP1 PUSH2 0x5951 JUMP JUMPDEST PUSH1 0xCC SLOAD PUSH1 0x1 PUSH1 0x1 PUSH1 0xA0 SHL SUB AND PUSH1 0x0 SWAP1 DUP2 MSTORE PUSH1 0xD2 PUSH1 0x20 MSTORE PUSH1 0x40 SWAP1 KECCAK256 SSTORE JUMPDEST PUSH1 0x1 DUP2 ADD SLOAD PUSH1 0x1 PUSH1 0x1 PUSH1 0xA0 SHL SUB AND CALLER EQ DUP1 ISZERO PUSH2 0x28B4 JUMPI POP DUP2 ISZERO JUMPDEST ISZERO PUSH2 0x2A29 JUMPI PUSH1 0xCF SLOAD PUSH2 0x28C7 SWAP1 PUSH1 0x5 PUSH2 0x5964 JUMP JUMPDEST PUSH1 0xCC SLOAD PUSH1 0x40 MLOAD PUSH4 0x70A08231 PUSH1 0xE0 SHL DUP2 MSTORE CALLER PUSH1 0x4 DUP3 ADD MSTORE PUSH1 0x1 PUSH1 0x1 PUSH1 0xA0 SHL SUB SWAP1 SWAP2 AND SWAP1 PUSH4 0x70A08231 SWAP1 PUSH1 0x24 ADD PUSH1 0x20 PUSH1 0x40 MLOAD DUP1 DUP4 SUB DUP2 DUP7 GAS STATICCALL ISZERO DUP1 ISZERO PUSH2 0x290F JUMPI RETURNDATASIZE PUSH1 0x0 DUP1 RETURNDATACOPY RETURNDATASIZE PUSH1 0x0 REVERT JUMPDEST POP POP POP POP PUSH1 0x40 MLOAD RETURNDATASIZE PUSH1 0x1F NOT PUSH1 0x1F DUP3 ADD AND DUP3 ADD DUP1 PUSH1 0x40 MSTORE POP DUP2 ADD SWAP1 PUSH2 0x2933 SWAP2 SWAP1 PUSH2 0x5B35 JUMP JUMPDEST LT ISZERO PUSH2 0x2951 JUMPI PUSH1 0x40 MLOAD PUSH3 0x461BCD PUSH1 0xE5 SHL DUP2 MSTORE PUSH1 0x4 ADD PUSH2 0x10DA SWAP1 PUSH2 0x5B4E JUMP JUMPDEST PUSH1 0xCC SLOAD PUSH1 0xCF SLOAD PUSH1 0x1 PUSH1 0x1 PUSH1 0xA0 SHL SUB SWAP1 SWAP2 AND SWAP1 PUSH4 0x23B872DD SWAP1 CALLER SWAP1 ADDRESS SWAP1 PUSH2 0x2978 SWAP1 PUSH1 0x5 PUSH2 0x5964 JUMP JUMPDEST PUSH1 0x40 MLOAD DUP5 PUSH4 0xFFFFFFFF AND PUSH1 0xE0 SHL DUP2 MSTORE PUSH1 0x4 ADD PUSH2 0x2996 SWAP4 SWAP3 SWAP2 SWAP1 PUSH2 0x5B70 JUMP JUMPDEST PUSH1 0x20 PUSH1 0x40 MLOAD DUP1 DUP4 SUB DUP2 PUSH1 0x0 DUP8 GAS CALL ISZERO DUP1 ISZERO PUSH2 0x29B5 JUMPI RETURNDATASIZE PUSH1 0x0 DUP1 RETURNDATACOPY RETURNDATASIZE PUSH1 0x0 REVERT JUMPDEST POP POP POP POP PUSH1 0x40 MLOAD RETURNDATASIZE PUSH1 0x1F NOT PUSH1 0x1F DUP3 ADD AND DUP3 ADD DUP1 PUSH1 0x40 MSTORE POP DUP2 ADD SWAP1 PUSH2 0x29D9 SWAP2 SWAP1 PUSH2 0x5AEF JUMP JUMPDEST POP PUSH1 0xCF SLOAD PUSH2 0x29E8 SWAP1 PUSH1 0x5 PUSH2 0x5964 JUMP JUMPDEST PUSH1 0xCC SLOAD PUSH1 0x1 PUSH1 0x1 PUSH1 0xA0 SHL SUB AND PUSH1 0x0 SWAP1 DUP2 MSTORE PUSH1 0xD2 PUSH1 0x20 MSTORE PUSH1 0x40 SWAP1 KECCAK256 SLOAD PUSH2 0x2A0D SWAP2 SWAP1 PUSH2 0x5951 JUMP JUMPDEST PUSH1 0xCC SLOAD PUSH1 0x1 PUSH1 0x1 PUSH1 0xA0 SHL SUB AND PUSH1 0x0 SWAP1 DUP2 MSTORE PUSH1 0xD2 PUSH1 0x20 MSTORE PUSH1 0x40 SWAP1 KECCAK256 SSTORE JUMPDEST DUP1 SLOAD PUSH1 0x1 PUSH1 0x1 PUSH1 0xA0 SHL SUB AND CALLER EQ DUP1 ISZERO PUSH2 0x2A4F JUMPI POP PUSH1 0x1 DUP2 ADD SLOAD PUSH1 0x1 PUSH1 0x1 PUSH1 0xA0 SHL SUB AND CALLER EQ ISZERO JUMPDEST ISZERO PUSH2 0x2BC4 JUMPI PUSH1 0xCF SLOAD PUSH2 0x2A62 SWAP1 PUSH1 0x5 PUSH2 0x5964 JUMP JUMPDEST PUSH1 0xCC SLOAD PUSH1 0x40 MLOAD PUSH4 0x70A08231 PUSH1 0xE0 SHL DUP2 MSTORE CALLER PUSH1 0x4 DUP3 ADD MSTORE PUSH1 0x1 PUSH1 0x1 PUSH1 0xA0 SHL SUB SWAP1 SWAP2 AND SWAP1 PUSH4 0x70A08231 SWAP1 PUSH1 0x24 ADD PUSH1 0x20 PUSH1 0x40 MLOAD DUP1 DUP4 SUB DUP2 DUP7 GAS STATICCALL ISZERO DUP1 ISZERO PUSH2 0x2AAA JUMPI RETURNDATASIZE PUSH1 0x0 DUP1 RETURNDATACOPY RETURNDATASIZE PUSH1 0x0 REVERT JUMPDEST POP POP POP POP PUSH1 0x40 MLOAD RETURNDATASIZE PUSH1 0x1F NOT PUSH1 0x1F DUP3 ADD AND DUP3 ADD DUP1 PUSH1 0x40 MSTORE POP DUP2 ADD SWAP1 PUSH2 0x2ACE SWAP2 SWAP1 PUSH2 0x5B35 JUMP JUMPDEST LT ISZERO PUSH2 0x2AEC JUMPI PUSH1 0x40 MLOAD PUSH3 0x461BCD PUSH1 0xE5 SHL DUP2 MSTORE PUSH1 0x4 ADD PUSH2 0x10DA SWAP1 PUSH2 0x5B4E JUMP JUMPDEST PUSH1 0xCC SLOAD PUSH1 0xCF SLOAD PUSH1 0x1 PUSH1 0x1 PUSH1 0xA0 SHL SUB SWAP1 SWAP2 AND SWAP1 PUSH4 0x23B872DD SWAP1 CALLER SWAP1 ADDRESS SWAP1 PUSH2 0x2B13 SWAP1 PUSH1 0x5 PUSH2 0x5964 JUMP JUMPDEST PUSH1 0x40 MLOAD DUP5 PUSH4 0xFFFFFFFF AND PUSH1 0xE0 SHL DUP2 MSTORE PUSH1 0x4 ADD PUSH2 0x2B31 SWAP4 SWAP3 SWAP2 SWAP1 PUSH2 0x5B70 JUMP JUMPDEST PUSH1 0x20 PUSH1 0x40 MLOAD DUP1 DUP4 SUB DUP2 PUSH1 0x0 DUP8 GAS CALL ISZERO DUP1 ISZERO PUSH2 0x2B50 JUMPI RETURNDATASIZE PUSH1 0x0 DUP1 RETURNDATACOPY RETURNDATASIZE PUSH1 0x0 REVERT JUMPDEST POP POP POP POP PUSH1 0x40 MLOAD RETURNDATASIZE PUSH1 0x1F NOT PUSH1 0x1F DUP3 ADD AND DUP3 ADD DUP1 PUSH1 0x40 MSTORE POP DUP2 ADD SWAP1 PUSH2 0x2B74 SWAP2 SWAP1 PUSH2 0x5AEF JUMP JUMPDEST POP PUSH1 0xCF SLOAD PUSH2 0x2B83 SWAP1 PUSH1 0x5 PUSH2 0x5964 JUMP JUMPDEST PUSH1 0xCC SLOAD PUSH1 0x1 PUSH1 0x1 PUSH1 0xA0 SHL SUB AND PUSH1 0x0 SWAP1 DUP2 MSTORE PUSH1 0xD2 PUSH1 0x20 MSTORE PUSH1 0x40 SWAP1 KECCAK256 SLOAD PUSH2 0x2BA8 SWAP2 SWAP1 PUSH2 0x5951 JUMP JUMPDEST PUSH1 0xCC SLOAD PUSH1 0x1 PUSH1 0x1 PUSH1 0xA0 SHL SUB AND PUSH1 0x0 SWAP1 DUP2 MSTORE PUSH1 0xD2 PUSH1 0x20 MSTORE PUSH1 0x40 SWAP1 KECCAK256 SSTORE JUMPDEST PUSH2 0x2BCD DUP5 PUSH2 0x45A8 JUMP JUMPDEST PUSH1 0x0 SWAP3 DUP4 MSTORE PUSH1 0xA ADD PUSH1 0x20 MSTORE POP PUSH1 0x40 SWAP1 KECCAK256 DUP1 SLOAD PUSH1 0xFF NOT AND SWAP1 SSTORE POP JUMP JUMPDEST PUSH1 0x0 DUP2 DUP2 MSTORE PUSH1 0xD6 PUSH1 0x20 MSTORE PUSH1 0x40 DUP2 KECCAK256 SLOAD PUSH1 0xFF AND DUP1 ISZERO PUSH2 0x2C06 JUMPI SWAP3 SWAP2 POP POP JUMP JUMPDEST POP PUSH1 0x2 SWAP3 SWAP2 POP POP JUMP JUMPDEST POP SWAP2 SWAP1 POP JUMP JUMPDEST CALLER PUSH1 0x0 SWAP1 DUP2 MSTORE PUSH1 0xD5 PUSH1 0x20 MSTORE PUSH1 0x40 DUP2 KECCAK256 SLOAD PUSH1 0xFF AND ISZERO ISZERO SWAP1 SUB PUSH2 0x2C48 JUMPI PUSH1 0x40 MLOAD PUSH3 0x461BCD PUSH1 0xE5 SHL DUP2 MSTORE PUSH1 0x4 ADD PUSH2 0x10DA SWAP1 PUSH2 0x58E5 JUMP JUMPDEST PUSH1 0x0 DUP3 DUP2 MSTORE PUSH1 0xD3 PUSH1 0x20 MSTORE PUSH1 0x40 SWAP1 KECCAK256 PUSH1 0x8 ADD SLOAD PUSH2 0x1C27 SWAP1 DUP3 SWAP1 PUSH2 0x5951 JUMP JUMPDEST CALLER PUSH1 0x0 SWAP1 DUP2 MSTORE PUSH1 0xD5 PUSH1 0x20 MSTORE PUSH1 0x40 DUP2 KECCAK256 SLOAD PUSH1 0xFF AND ISZERO ISZERO SWAP1 SUB PUSH2 0x2C98 JUMPI PUSH1 0x40 MLOAD PUSH3 0x461BCD PUSH1 0xE5 SHL DUP2 MSTORE PUSH1 0x4 ADD PUSH2 0x10DA SWAP1 PUSH2 0x58E5 JUMP JUMPDEST PUSH1 0xD4 SLOAD DUP3 LT PUSH2 0x2CB9 JUMPI PUSH1 0x40 MLOAD PUSH3 0x461BCD PUSH1 0xE5 SHL DUP2 MSTORE PUSH1 0x4 ADD PUSH2 0x10DA SWAP1 PUSH2 0x5B0C JUMP JUMPDEST PUSH1 0x0 DUP3 DUP2 MSTORE PUSH1 0xD3 PUSH1 0x20 MSTORE PUSH1 0x40 SWAP1 KECCAK256 TIMESTAMP PUSH1 0x4 DUP3 ADD SSTORE PUSH1 0x5 ADD SLOAD PUSH2 0x2CDC SWAP1 DUP3 SWAP1 PUSH2 0x5951 JUMP JUMPDEST PUSH1 0x0 DUP4 DUP2 MSTORE PUSH1 0xD3 PUSH1 0x20 MSTORE PUSH1 0x40 SWAP1 KECCAK256 PUSH1 0x5 ADD SSTORE PUSH2 0x24D5 DUP3 PUSH2 0x45A8 JUMP JUMPDEST PUSH1 0x60 PUSH1 0x66 DUP1 SLOAD PUSH2 0xFAE SWAP1 PUSH2 0x58B1 JUMP JUMPDEST DUP2 PUSH1 0xCF SLOAD PUSH2 0x2D14 SWAP2 SWAP1 PUSH2 0x5964 JUMP JUMPDEST PUSH1 0xCC SLOAD PUSH1 0x40 MLOAD PUSH4 0x70A08231 PUSH1 0xE0 SHL DUP2 MSTORE CALLER PUSH1 0x4 DUP3 ADD MSTORE PUSH1 0x1 PUSH1 0x1 PUSH1 0xA0 SHL SUB SWAP1 SWAP2 AND SWAP1 PUSH4 0x70A08231 SWAP1 PUSH1 0x24 ADD PUSH1 0x20 PUSH1 0x40 MLOAD DUP1 DUP4 SUB DUP2 DUP7 GAS STATICCALL ISZERO DUP1 ISZERO PUSH2 0x2D5C JUMPI RETURNDATASIZE PUSH1 0x0 DUP1 RETURNDATACOPY RETURNDATASIZE PUSH1 0x0 REVERT JUMPDEST POP POP POP POP PUSH1 0x40 MLOAD RETURNDATASIZE PUSH1 0x1F NOT PUSH1 0x1F DUP3 ADD AND DUP3 ADD DUP1 PUSH1 0x40 MSTORE POP DUP2 ADD SWAP1 PUSH2 0x2D80 SWAP2 SWAP1 PUSH2 0x5B35 JUMP JUMPDEST LT ISZERO PUSH2 0x2DBF JUMPI PUSH1 0x40 MLOAD PUSH3 0x461BCD PUSH1 0xE5 SHL DUP2 MSTORE PUSH1 0x20 PUSH1 0x4 DUP3 ADD MSTORE PUSH1 0xE PUSH1 0x24 DUP3 ADD MSTORE PUSH14 0x149958DA185C99D948199A5C9CDD PUSH1 0x92 SHL PUSH1 0x44 DUP3 ADD MSTORE PUSH1 0x64 ADD PUSH2 0x10DA JUMP JUMPDEST PUSH1 0x0 DUP2 DUP2 MSTORE PUSH1 0xD3 PUSH1 0x20 MSTORE PUSH1 0x40 SWAP1 KECCAK256 PUSH1 0x1 ADD SLOAD PUSH1 0x1 PUSH1 0x1 PUSH1 0xA0 SHL SUB AND CALLER EQ PUSH2 0x2DE5 JUMPI PUSH1 0x0 DUP1 REVERT JUMPDEST PUSH1 0xCC SLOAD PUSH1 0xCF SLOAD PUSH1 0x1 PUSH1 0x1 PUSH1 0xA0 SHL SUB SWAP1 SWAP2 AND SWAP1 PUSH4 0x23B872DD SWAP1 CALLER SWAP1 ADDRESS SWAP1 PUSH2 0x2E0C SWAP1 DUP8 SWAP1 PUSH2 0x5964 JUMP JUMPDEST PUSH1 0x40 MLOAD DUP5 PUSH4 0xFFFFFFFF AND PUSH1 0xE0 SHL DUP2 MSTORE PUSH1 0x4 ADD PUSH2 0x2E2A SWAP4 SWAP3 SWAP2 SWAP1 PUSH2 0x5B70 JUMP JUMPDEST PUSH1 0x20 PUSH1 0x40 MLOAD DUP1 DUP4 SUB DUP2 PUSH1 0x0 DUP8 GAS CALL ISZERO DUP1 ISZERO PUSH2 0x2E49 JUMPI RETURNDATASIZE PUSH1 0x0 DUP1 RETURNDATACOPY RETURNDATASIZE PUSH1 0x0 REVERT JUMPDEST POP POP POP POP PUSH1 0x40 MLOAD RETURNDATASIZE PUSH1 0x1F NOT PUSH1 0x1F DUP3 ADD AND DUP3 ADD DUP1 PUSH1 0x40 MSTORE POP DUP2 ADD SWAP1 PUSH2 0x2E6D SWAP2 SWAP1 PUSH2 0x5AEF JUMP JUMPDEST POP DUP2 PUSH1 0xCF SLOAD PUSH2 0x2E7C SWAP2 SWAP1 PUSH2 0x5964 JUMP JUMPDEST PUSH1 0x0 DUP3 DUP2 MSTORE PUSH1 0xD3 PUSH1 0x20 SWAP1 DUP2 MSTORE PUSH1 0x40 DUP1 DUP4 KECCAK256 PUSH1 0xCC SLOAD PUSH1 0x1 PUSH1 0x1 PUSH1 0xA0 SHL SUB AND DUP5 MSTORE PUSH1 0x9 ADD SWAP1 SWAP2 MSTORE SWAP1 KECCAK256 SLOAD PUSH2 0x2EAE SWAP2 SWAP1 PUSH2 0x593E JUMP JUMPDEST PUSH1 0x0 DUP3 DUP2 MSTORE PUSH1 0xD3 PUSH1 0x20 DUP2 DUP2 MSTORE PUSH1 0x40 DUP1 DUP5 KECCAK256 PUSH1 0xCC SLOAD PUSH1 0x1 PUSH1 0x1 PUSH1 0xA0 SHL SUB AND DUP6 MSTORE PUSH1 0x9 DUP2 ADD DUP4 MSTORE SWAP1 DUP5 KECCAK256 SWAP5 SWAP1 SWAP5 SSTORE SWAP2 DUP5 SWAP1 MSTORE SWAP1 MSTORE TIMESTAMP PUSH1 0x4 SWAP1 SWAP2 ADD SSTORE PUSH1 0xCA SLOAD PUSH2 0x2EF4 SWAP1 DUP4 PUSH2 0x5964 JUMP JUMPDEST PUSH1 0x0 DUP3 DUP2 MSTORE PUSH1 0xD3 PUSH1 0x20 MSTORE PUSH1 0x40 SWAP1 KECCAK256 PUSH1 0x5 ADD SLOAD PUSH2 0x2F10 SWAP2 SWAP1 PUSH2 0x5951 JUMP JUMPDEST PUSH1 0x0 DUP3 DUP2 MSTORE PUSH1 0xD3 PUSH1 0x20 MSTORE PUSH1 0x40 SWAP1 KECCAK256 PUSH1 0x5 ADD SSTORE PUSH2 0x2519 DUP2 PUSH2 0x45A8 JUMP JUMPDEST PUSH1 0xCD SLOAD PUSH1 0x1 PUSH1 0x1 PUSH1 0xA0 SHL SUB AND CALLER EQ PUSH2 0x2F5F JUMPI PUSH1 0x40 MLOAD PUSH3 0x461BCD PUSH1 0xE5 SHL DUP2 MSTORE PUSH1 0x20 PUSH1 0x4 DUP3 ADD MSTORE PUSH1 0x0 PUSH1 0x24 DUP3 ADD MSTORE PUSH1 0x44 ADD PUSH2 0x10DA JUMP JUMPDEST PUSH1 0x1 PUSH1 0x1 PUSH1 0xA0 SHL SUB AND PUSH1 0x0 SWAP1 DUP2 MSTORE PUSH1 0xD5 PUSH1 0x20 MSTORE PUSH1 0x40 SWAP1 KECCAK256 DUP1 SLOAD PUSH1 0xFF NOT AND SWAP1 SSTORE JUMP JUMPDEST PUSH2 0x2519 CALLER DUP4 DUP4 PUSH2 0x4867 JUMP JUMPDEST PUSH1 0x40 DUP1 MLOAD PUSH1 0xA0 DUP2 ADD DUP3 MSTORE PUSH1 0x0 DUP1 DUP3 MSTORE PUSH1 0x20 DUP1 DUP4 ADD DUP3 SWAP1 MSTORE PUSH1 0x60 DUP4 DUP6 ADD DUP2 SWAP1 MSTORE DUP1 DUP5 ADD DUP4 SWAP1 MSTORE PUSH1 0x80 DUP5 ADD MSTORE DUP6 DUP3 MSTORE PUSH1 0xD3 DUP2 MSTORE DUP4 DUP3 KECCAK256 DUP6 DUP4 MSTORE PUSH1 0xA ADD SWAP1 MSTORE SWAP2 SWAP1 SWAP2 KECCAK256 PUSH1 0x2 ADD SLOAD PUSH1 0x1 PUSH1 0x1 PUSH1 0xA0 SHL SUB DUP6 DUP2 AND SWAP2 AND EQ DUP1 PUSH2 0x2FF4 JUMPI POP PUSH2 0x2FEE DUP5 DUP5 DUP5 PUSH2 0x2684 JUMP JUMPDEST ISZERO ISZERO PUSH1 0x1 EQ JUMPDEST PUSH2 0x3040 JUMPI PUSH1 0x40 MLOAD PUSH3 0x461BCD PUSH1 0xE5 SHL DUP2 MSTORE PUSH1 0x20 PUSH1 0x4 DUP3 ADD MSTORE PUSH1 0x18 PUSH1 0x24 DUP3 ADD MSTORE PUSH32 0x6E6F74206F776E6572206F6620696420616E6420736C6F740000000000000000 PUSH1 0x44 DUP3 ADD MSTORE PUSH1 0x64 ADD PUSH2 0x10DA JUMP JUMPDEST PUSH1 0x0 DUP4 DUP2 MSTORE PUSH1 0xD3 PUSH1 0x20 SWAP1 DUP2 MSTORE PUSH1 0x40 DUP1 DUP4 KECCAK256 DUP6 DUP5 MSTORE PUSH1 0xA ADD SWAP1 SWAP2 MSTORE SWAP1 KECCAK256 SLOAD PUSH1 0xFF AND ISZERO PUSH2 0x309C JUMPI PUSH1 0x40 MLOAD PUSH3 0x461BCD PUSH1 0xE5 SHL DUP2 MSTORE PUSH1 0x20 PUSH1 0x4 DUP3 ADD MSTORE PUSH1 0xC PUSH1 0x24 DUP3 ADD MSTORE PUSH12 0x11195B195D19590814DB1BDD PUSH1 0xA2 SHL PUSH1 0x44 DUP3 ADD MSTORE PUSH1 0x64 ADD PUSH2 0x10DA JUMP JUMPDEST PUSH1 0x0 DUP4 DUP2 MSTORE PUSH1 0xD3 PUSH1 0x20 SWAP1 DUP2 MSTORE PUSH1 0x40 DUP1 DUP4 KECCAK256 DUP6 DUP5 MSTORE PUSH1 0xA ADD DUP3 MSTORE SWAP2 DUP3 SWAP1 KECCAK256 DUP3 MLOAD PUSH1 0xA0 DUP2 ADD DUP5 MSTORE DUP2 SLOAD PUSH1 0xFF DUP1 DUP3 AND ISZERO ISZERO DUP4 MSTORE PUSH2 0x100 SWAP1 SWAP2 DIV AND ISZERO ISZERO SWAP3 DUP2 ADD SWAP3 SWAP1 SWAP3 MSTORE PUSH1 0x1 DUP2 ADD DUP1 SLOAD SWAP3 SWAP4 SWAP2 SWAP3 SWAP2 DUP5 ADD SWAP2 PUSH2 0x30F3 SWAP1 PUSH2 0x58B1 JUMP JUMPDEST DUP1 PUSH1 0x1F ADD PUSH1 0x20 DUP1 SWAP2 DIV MUL PUSH1 0x20 ADD PUSH1 0x40 MLOAD SWAP1 DUP2 ADD PUSH1 0x40 MSTORE DUP1 SWAP3 SWAP2 SWAP1 DUP2 DUP2 MSTORE PUSH1 0x20 ADD DUP3 DUP1 SLOAD PUSH2 0x311F SWAP1 PUSH2 0x58B1 JUMP JUMPDEST DUP1 ISZERO PUSH2 0x316C JUMPI DUP1 PUSH1 0x1F LT PUSH2 0x3141 JUMPI PUSH2 0x100 DUP1 DUP4 SLOAD DIV MUL DUP4 MSTORE SWAP2 PUSH1 0x20 ADD SWAP2 PUSH2 0x316C JUMP JUMPDEST DUP3 ADD SWAP2 SWAP1 PUSH1 0x0 MSTORE PUSH1 0x20 PUSH1 0x0 KECCAK256 SWAP1 JUMPDEST DUP2 SLOAD DUP2 MSTORE SWAP1 PUSH1 0x1 ADD SWAP1 PUSH1 0x20 ADD DUP1 DUP4 GT PUSH2 0x314F JUMPI DUP3 SWAP1 SUB PUSH1 0x1F AND DUP3 ADD SWAP2 JUMPDEST POP POP POP SWAP2 DUP4 MSTORE POP POP PUSH1 0x2 DUP3 ADD SLOAD PUSH1 0x1 PUSH1 0x1 PUSH1 0xA0 SHL SUB AND PUSH1 0x20 DUP3 ADD MSTORE PUSH1 0x3 DUP3 ADD DUP1 SLOAD PUSH1 0x40 SWAP1 SWAP3 ADD SWAP2 PUSH2 0x319C SWAP1 PUSH2 0x58B1 JUMP JUMPDEST DUP1 PUSH1 0x1F ADD PUSH1 0x20 DUP1 SWAP2 DIV MUL PUSH1 0x20 ADD PUSH1 0x40 MLOAD SWAP1 DUP2 ADD PUSH1 0x40 MSTORE DUP1 SWAP3 SWAP2 SWAP1 DUP2 DUP2 MSTORE PUSH1 0x20 ADD DUP3 DUP1 SLOAD PUSH2 0x31C8 SWAP1 PUSH2 0x58B1 JUMP JUMPDEST DUP1 ISZERO PUSH2 0x3215 JUMPI DUP1 PUSH1 0x1F LT PUSH2 0x31EA JUMPI PUSH2 0x100 DUP1 DUP4 SLOAD DIV MUL DUP4 MSTORE SWAP2 PUSH1 0x20 ADD SWAP2 PUSH2 0x3215 JUMP JUMPDEST DUP3 ADD SWAP2 SWAP1 PUSH1 0x0 MSTORE PUSH1 0x20 PUSH1 0x0 KECCAK256 SWAP1 JUMPDEST DUP2 SLOAD DUP2 MSTORE SWAP1 PUSH1 0x1 ADD SWAP1 PUSH1 0x20 ADD DUP1 DUP4 GT PUSH2 0x31F8 JUMPI DUP3 SWAP1 SUB PUSH1 0x1F AND DUP3 ADD SWAP2 JUMPDEST POP POP POP POP POP DUP2 MSTORE POP POP SWAP1 POP SWAP4 SWAP3 POP POP POP JUMP JUMPDEST PUSH1 0x0 DUP4 DUP2 MSTORE PUSH1 0xD3 PUSH1 0x20 SWAP1 DUP2 MSTORE PUSH1 0x40 DUP1 DUP4 KECCAK256 DUP6 DUP5 MSTORE PUSH1 0xA ADD DUP3 MSTORE DUP1 DUP4 KECCAK256 DUP7 DUP5 MSTORE PUSH1 0xD7 SWAP1 SWAP3 MSTORE SWAP1 SWAP2 KECCAK256 PUSH1 0x1 DUP2 ADD SLOAD SWAP1 SLOAD LT PUSH2 0x32A2 JUMPI PUSH1 0x40 MLOAD PUSH3 0x461BCD PUSH1 0xE5 SHL DUP2 MSTORE PUSH1 0x20 PUSH1 0x4 DUP3 ADD MSTORE PUSH1 0x1F PUSH1 0x24 DUP3 ADD MSTORE PUSH32 0x6D617820736861726520616C6C6F7765642031302062792064656661756C7400 PUSH1 0x44 DUP3 ADD MSTORE PUSH1 0x64 ADD PUSH2 0x10DA JUMP JUMPDEST PUSH1 0x0 DUP5 DUP2 MSTORE PUSH1 0xD3 PUSH1 0x20 MSTORE PUSH1 0x40 SWAP1 KECCAK256 PUSH1 0x1 ADD SLOAD PUSH1 0x1 PUSH1 0x1 PUSH1 0xA0 SHL SUB AND CALLER EQ DUP1 PUSH2 0x32E0 JUMPI POP PUSH1 0x0 DUP5 DUP2 MSTORE PUSH1 0xD3 PUSH1 0x20 MSTORE PUSH1 0x40 SWAP1 KECCAK256 SLOAD PUSH1 0x1 PUSH1 0x1 PUSH1 0xA0 SHL SUB AND CALLER EQ JUMPDEST PUSH2 0x331F JUMPI PUSH1 0x40 MLOAD PUSH3 0x461BCD PUSH1 0xE5 SHL DUP2 MSTORE PUSH1 0x20 PUSH1 0x4 DUP3 ADD MSTORE PUSH1 0x10 PUSH1 0x24 DUP3 ADD MSTORE PUSH16 0x3737BA1037BBB732B91037B31034B21 PUSH1 0x85 SHL PUSH1 0x44 DUP3 ADD MSTORE PUSH1 0x64 ADD PUSH2 0x10DA JUMP JUMPDEST PUSH1 0x2 DUP2 ADD SLOAD PUSH1 0x1 PUSH1 0x1 PUSH1 0xA0 SHL SUB AND CALLER EQ DUP1 ISZERO PUSH2 0x333D JUMPI POP DUP1 SLOAD PUSH1 0xFF AND ISZERO JUMPDEST PUSH2 0x3359 JUMPI PUSH1 0x40 MLOAD PUSH3 0x461BCD PUSH1 0xE5 SHL DUP2 MSTORE PUSH1 0x4 ADD PUSH2 0x10DA SWAP1 PUSH2 0x5B94 JUMP JUMPDEST PUSH2 0x3362 DUP5 PUSH2 0x45A8 JUMP JUMPDEST PUSH1 0x0 DUP5 DUP2 MSTORE PUSH1 0xD7 PUSH1 0x20 DUP2 DUP2 MSTORE PUSH1 0x40 DUP1 DUP5 KECCAK256 DUP8 DUP6 MSTORE PUSH1 0x2 DUP2 ADD DUP4 MSTORE DUP2 DUP6 KECCAK256 PUSH1 0x1 PUSH1 0x1 PUSH1 0xA0 SHL SUB DUP9 AND DUP7 MSTORE DUP4 MSTORE SWAP1 DUP5 KECCAK256 DUP1 SLOAD PUSH1 0xFF NOT AND PUSH1 0x1 OR SWAP1 SSTORE DUP8 DUP5 MSTORE SWAP2 SWAP1 MSTORE DUP1 SLOAD SWAP2 PUSH2 0x33AD DUP4 PUSH2 0x599D JUMP JUMPDEST SWAP1 SWAP2 SSTORE POP POP CALLVALUE ISZERO PUSH2 0x19FE JUMPI PUSH1 0x0 DUP1 MSTORE PUSH1 0xD2 PUSH1 0x20 MSTORE PUSH1 0x0 DUP1 MLOAD PUSH1 0x20 PUSH2 0x5D41 DUP4 CODECOPY DUP2 MLOAD SWAP2 MSTORE SLOAD PUSH2 0x19E4 SWAP1 CALLVALUE SWAP1 PUSH2 0x5951 JUMP JUMPDEST PUSH2 0x33E5 DUP5 PUSH2 0x451D JUMP JUMPDEST ISZERO ISZERO PUSH1 0x1 EQ PUSH2 0x33F3 JUMPI PUSH1 0x0 DUP1 REVERT JUMPDEST DUP3 SELFBALANCE LT ISZERO DUP1 ISZERO PUSH2 0x341F JUMPI POP PUSH1 0x0 DUP5 DUP2 MSTORE PUSH1 0xD3 PUSH1 0x20 SWAP1 DUP2 MSTORE PUSH1 0x40 DUP1 DUP4 KECCAK256 DUP4 DUP1 MSTORE PUSH1 0x9 ADD SWAP1 SWAP2 MSTORE SWAP1 KECCAK256 SLOAD DUP4 GT ISZERO JUMPDEST PUSH2 0x343B JUMPI PUSH1 0x40 MLOAD PUSH3 0x461BCD PUSH1 0xE5 SHL DUP2 MSTORE PUSH1 0x4 ADD PUSH2 0x10DA SWAP1 PUSH2 0x5908 JUMP JUMPDEST PUSH1 0x0 DUP5 DUP2 MSTORE PUSH1 0xD3 PUSH1 0x20 MSTORE PUSH1 0x40 SWAP1 KECCAK256 PUSH1 0x1 ADD SLOAD PUSH1 0x1 PUSH1 0x1 PUSH1 0xA0 SHL SUB DUP3 DUP2 AND SWAP2 AND EQ PUSH2 0x3493 JUMPI PUSH1 0x40 MLOAD PUSH3 0x461BCD PUSH1 0xE5 SHL DUP2 MSTORE PUSH1 0x20 PUSH1 0x4 DUP3 ADD MSTORE PUSH1 0x9 PUSH1 0x24 DUP3 ADD MSTORE PUSH9 0x3737BA1037BBB732B9 PUSH1 0xB9 SHL PUSH1 0x44 DUP3 ADD MSTORE PUSH1 0x64 ADD PUSH2 0x10DA JUMP JUMPDEST PUSH1 0x0 DUP5 DUP2 MSTORE PUSH1 0xD3 PUSH1 0x20 SWAP1 DUP2 MSTORE PUSH1 0x40 DUP1 DUP4 KECCAK256 DUP4 DUP1 MSTORE PUSH1 0x9 ADD SWAP1 SWAP2 MSTORE SWAP1 KECCAK256 SLOAD PUSH2 0x34BB SWAP1 DUP5 SWAP1 PUSH2 0x593E JUMP JUMPDEST PUSH1 0x0 DUP6 DUP2 MSTORE PUSH1 0xD3 PUSH1 0x20 DUP2 DUP2 MSTORE PUSH1 0x40 DUP1 DUP5 KECCAK256 DUP5 DUP1 MSTORE PUSH1 0x9 DUP2 ADD DUP4 MSTORE DUP2 DUP6 KECCAK256 SWAP6 SWAP1 SWAP6 SSTORE DUP9 DUP5 MSTORE SWAP2 SWAP1 MSTORE SWAP2 SLOAD SWAP2 MLOAD PUSH1 0x1 PUSH1 0x1 PUSH1 0xA0 SHL SUB SWAP3 DUP4 AND SWAP3 DUP6 AND SWAP2 DUP7 ISZERO PUSH2 0x8FC MUL SWAP2 DUP8 SWAP2 DUP2 DUP2 DUP2 DUP6 DUP9 DUP9 CALL SWAP4 POP POP POP POP ISZERO DUP1 ISZERO PUSH2 0x351B JUMPI RETURNDATASIZE PUSH1 0x0 DUP1 RETURNDATACOPY RETURNDATASIZE PUSH1 0x0 REVERT JUMPDEST POP PUSH1 0x0 CALLVALUE GT DUP1 ISZERO PUSH2 0x12FF JUMPI POP PUSH1 0x1 PUSH1 0x1 PUSH1 0xA0 SHL SUB DUP2 AND ISZERO ISZERO DUP1 ISZERO PUSH2 0x1328 JUMPI POP PUSH1 0x0 DUP6 DUP2 MSTORE PUSH1 0xD3 PUSH1 0x20 MSTORE PUSH1 0x40 SWAP1 KECCAK256 PUSH1 0x1 ADD SLOAD PUSH1 0x1 PUSH1 0x1 PUSH1 0xA0 SHL SUB DUP3 DUP2 AND SWAP2 AND EQ PUSH2 0x13E6 JUMPI PUSH1 0x0 DUP6 DUP2 MSTORE PUSH1 0xD6 PUSH1 0x20 MSTORE PUSH1 0x40 DUP2 KECCAK256 SLOAD PUSH1 0xFF AND SWAP1 DUP2 SWAP1 SUB PUSH2 0x134B JUMPI POP PUSH1 0x5 PUSH1 0x0 PUSH1 0x64 PUSH2 0x1359 DUP4 CALLVALUE PUSH2 0x5964 JUMP JUMPDEST PUSH1 0x60 PUSH2 0xF99 DUP3 PUSH2 0x4935 JUMP JUMPDEST CALLER PUSH1 0x0 SWAP1 DUP2 MSTORE PUSH1 0xD5 PUSH1 0x20 MSTORE PUSH1 0x40 DUP2 KECCAK256 SLOAD PUSH1 0xFF AND ISZERO ISZERO SWAP1 SUB PUSH2 0x35C7 JUMPI PUSH1 0x40 MLOAD PUSH3 0x461BCD PUSH1 0xE5 SHL DUP2 MSTORE PUSH1 0x4 ADD PUSH2 0x10DA SWAP1 PUSH2 0x58E5 JUMP JUMPDEST PUSH2 0x35D0 DUP5 PUSH2 0x451D JUMP JUMPDEST ISZERO ISZERO PUSH1 0x1 EQ PUSH2 0x35F1 JUMPI PUSH1 0x40 MLOAD PUSH3 0x461BCD PUSH1 0xE5 SHL DUP2 MSTORE PUSH1 0x4 ADD PUSH2 0x10DA SWAP1 PUSH2 0x5B0C JUMP JUMPDEST PUSH1 0x40 MLOAD PUSH4 0x70A08231 PUSH1 0xE0 SHL DUP2 MSTORE PUSH1 0x1 PUSH1 0x1 PUSH1 0xA0 SHL SUB DUP3 DUP2 AND PUSH1 0x4 DUP4 ADD MSTORE DUP4 SWAP2 SWAP1 DUP6 AND SWAP1 PUSH4 0x70A08231 SWAP1 PUSH1 0x24 ADD PUSH1 0x20 PUSH1 0x40 MLOAD DUP1 DUP4 SUB DUP2 DUP7 GAS STATICCALL ISZERO DUP1 ISZERO PUSH2 0x363A JUMPI RETURNDATASIZE PUSH1 0x0 DUP1 RETURNDATACOPY RETURNDATASIZE PUSH1 0x0 REVERT JUMPDEST POP POP POP POP PUSH1 0x40 MLOAD RETURNDATASIZE PUSH1 0x1F NOT PUSH1 0x1F DUP3 ADD AND DUP3 ADD DUP1 PUSH1 0x40 MSTORE POP DUP2 ADD SWAP1 PUSH2 0x365E SWAP2 SWAP1 PUSH2 0x5B35 JUMP JUMPDEST LT ISZERO PUSH2 0x367C JUMPI PUSH1 0x40 MLOAD PUSH3 0x461BCD PUSH1 0xE5 SHL DUP2 MSTORE PUSH1 0x4 ADD PUSH2 0x10DA SWAP1 PUSH2 0x5908 JUMP JUMPDEST PUSH1 0x40 MLOAD PUSH4 0x23B872DD PUSH1 0xE0 SHL DUP2 MSTORE PUSH1 0x1 PUSH1 0x1 PUSH1 0xA0 SHL SUB DUP5 AND SWAP1 PUSH4 0x23B872DD SWAP1 PUSH2 0x36AC SWAP1 DUP5 SWAP1 ADDRESS SWAP1 DUP8 SWAP1 PUSH1 0x4 ADD PUSH2 0x5B70 JUMP JUMPDEST PUSH1 0x20 PUSH1 0x40 MLOAD DUP1 DUP4 SUB DUP2 PUSH1 0x0 DUP8 GAS CALL ISZERO DUP1 ISZERO PUSH2 0x36CB JUMPI RETURNDATASIZE PUSH1 0x0 DUP1 RETURNDATACOPY RETURNDATASIZE PUSH1 0x0 REVERT JUMPDEST POP POP POP POP PUSH1 0x40 MLOAD RETURNDATASIZE PUSH1 0x1F NOT PUSH1 0x1F DUP3 ADD AND DUP3 ADD DUP1 PUSH1 0x40 MSTORE POP DUP2 ADD SWAP1 PUSH2 0x36EF SWAP2 SWAP1 PUSH2 0x5AEF JUMP JUMPDEST POP PUSH1 0x0 DUP5 DUP2 MSTORE PUSH1 0xD3 PUSH1 0x20 SWAP1 DUP2 MSTORE PUSH1 0x40 DUP1 DUP4 KECCAK256 PUSH1 0x1 PUSH1 0x1 PUSH1 0xA0 SHL SUB DUP8 AND DUP5 MSTORE PUSH1 0x9 ADD SWAP1 SWAP2 MSTORE SWAP1 KECCAK256 SLOAD PUSH2 0x3721 SWAP1 DUP4 SWAP1 PUSH2 0x5951 JUMP JUMPDEST PUSH1 0x0 DUP6 DUP2 MSTORE PUSH1 0xD3 PUSH1 0x20 SWAP1 DUP2 MSTORE PUSH1 0x40 DUP1 DUP4 KECCAK256 PUSH1 0x1 PUSH1 0x1 PUSH1 0xA0 SHL SUB DUP9 AND DUP5 MSTORE PUSH1 0x9 ADD SWAP1 SWAP2 MSTORE SWAP1 KECCAK256 SSTORE PUSH2 0x12D0 DUP5 PUSH2 0x45A8 JUMP JUMPDEST PUSH1 0xCD SLOAD PUSH1 0x1 PUSH1 0x1 PUSH1 0xA0 SHL SUB AND CALLER EQ PUSH2 0x3784 JUMPI PUSH1 0x40 MLOAD PUSH3 0x461BCD PUSH1 0xE5 SHL DUP2 MSTORE PUSH1 0x20 PUSH1 0x4 DUP3 ADD MSTORE PUSH1 0x0 PUSH1 0x24 DUP3 ADD MSTORE PUSH1 0x44 ADD PUSH2 0x10DA JUMP JUMPDEST PUSH1 0x1 PUSH1 0x1 PUSH1 0xA0 SHL SUB DUP2 AND PUSH1 0x0 SWAP1 DUP2 MSTORE PUSH32 0x938258EC6D8D468A3507D140E1C026DC2AFA285C097847A088DA7B50946FB924 PUSH1 0x20 SWAP1 DUP2 MSTORE PUSH1 0x40 DUP1 DUP4 KECCAK256 DUP1 SLOAD SWAP1 DUP5 SWAP1 SSTORE PUSH1 0xD2 SWAP1 SWAP3 MSTORE SWAP1 SWAP2 KECCAK256 SLOAD PUSH2 0x37D8 SWAP1 DUP3 SWAP1 PUSH2 0x5951 JUMP JUMPDEST PUSH1 0x1 PUSH1 0x1 PUSH1 0xA0 SHL SUB SWAP1 SWAP3 AND PUSH1 0x0 SWAP1 DUP2 MSTORE PUSH1 0xD2 PUSH1 0x20 MSTORE PUSH1 0x40 SWAP1 KECCAK256 SWAP2 SWAP1 SWAP2 SSTORE POP JUMP JUMPDEST CALLER PUSH1 0x0 SWAP1 DUP2 MSTORE PUSH1 0xD5 PUSH1 0x20 MSTORE PUSH1 0x40 DUP2 KECCAK256 SLOAD PUSH1 0xFF AND ISZERO ISZERO SWAP1 SUB PUSH2 0x382B JUMPI PUSH1 0x40 MLOAD PUSH3 0x461BCD PUSH1 0xE5 SHL DUP2 MSTORE PUSH1 0x4 ADD PUSH2 0x10DA SWAP1 PUSH2 0x58E5 JUMP JUMPDEST PUSH1 0x0 DUP3 DUP2 MSTORE PUSH1 0xD6 PUSH1 0x20 MSTORE PUSH1 0x40 SWAP1 KECCAK256 SLOAD PUSH2 0x3848 SWAP1 DUP3 SWAP1 PUSH1 0xFF AND PUSH2 0x5BD5 JUMP JUMPDEST PUSH1 0x0 DUP4 DUP2 MSTORE PUSH1 0xD6 PUSH1 0x20 MSTORE PUSH1 0x40 SWAP1 KECCAK256 DUP1 SLOAD PUSH1 0xFF NOT AND PUSH1 0xFF SWAP3 SWAP1 SWAP3 AND SWAP2 SWAP1 SWAP2 OR SWAP1 SSTORE CALLVALUE ISZERO PUSH2 0x2519 JUMPI PUSH1 0x0 DUP1 MSTORE PUSH1 0xD2 PUSH1 0x20 MSTORE PUSH1 0x0 DUP1 MLOAD PUSH1 0x20 PUSH2 0x5D41 DUP4 CODECOPY DUP2 MLOAD SWAP2 MSTORE SLOAD PUSH2 0x24FF SWAP1 CALLVALUE SWAP1 PUSH2 0x5951 JUMP JUMPDEST CALLER PUSH1 0x0 SWAP1 DUP2 MSTORE PUSH1 0xD5 PUSH1 0x20 MSTORE PUSH1 0x40 DUP2 KECCAK256 SLOAD PUSH1 0xFF AND ISZERO ISZERO SWAP1 SUB PUSH2 0x38C5 JUMPI PUSH1 0x40 MLOAD PUSH3 0x461BCD PUSH1 0xE5 SHL DUP2 MSTORE PUSH1 0x4 ADD PUSH2 0x10DA SWAP1 PUSH2 0x58E5 JUMP JUMPDEST PUSH1 0x0 DUP4 DUP2 MSTORE PUSH1 0xD3 PUSH1 0x20 MSTORE PUSH1 0x40 SWAP1 KECCAK256 PUSH1 0x8 ADD SLOAD DUP2 GT ISZERO PUSH2 0x38E3 JUMPI PUSH1 0x0 DUP1 REVERT JUMPDEST PUSH1 0x0 DUP4 DUP2 MSTORE PUSH1 0xD3 PUSH1 0x20 MSTORE PUSH1 0x40 SWAP1 KECCAK256 PUSH1 0x8 ADD SLOAD PUSH2 0x3900 SWAP1 DUP3 SWAP1 PUSH2 0x593E JUMP JUMPDEST PUSH1 0x0 DUP5 DUP2 MSTORE PUSH1 0xD3 PUSH1 0x20 MSTORE PUSH1 0x40 DUP1 DUP3 KECCAK256 PUSH1 0x8 SWAP1 DUP2 ADD SWAP4 SWAP1 SWAP4 SSTORE DUP5 DUP3 MSTORE SWAP1 KECCAK256 ADD SLOAD PUSH2 0x392A SWAP1 DUP3 SWAP1 PUSH2 0x5951 JUMP JUMPDEST PUSH1 0x0 DUP4 DUP2 MSTORE PUSH1 0xD3 PUSH1 0x20 MSTORE PUSH1 0x40 DUP1 DUP3 KECCAK256 PUSH1 0x8 ADD SWAP3 SWAP1 SWAP3 SSTORE DUP5 DUP2 MSTORE KECCAK256 SLOAD PUSH1 0x1 PUSH1 0x1 PUSH1 0xA0 SHL SUB AND CALLVALUE ISZERO DUP1 ISZERO SWAP1 PUSH2 0x3965 JUMPI POP PUSH1 0x1 PUSH1 0x1 PUSH1 0xA0 SHL SUB DUP2 AND ISZERO ISZERO JUMPDEST DUP1 ISZERO PUSH2 0x398E JUMPI POP PUSH1 0x0 DUP5 DUP2 MSTORE PUSH1 0xD3 PUSH1 0x20 MSTORE PUSH1 0x40 SWAP1 KECCAK256 PUSH1 0x1 ADD SLOAD PUSH1 0x1 PUSH1 0x1 PUSH1 0xA0 SHL SUB DUP3 DUP2 AND SWAP2 AND EQ ISZERO JUMPDEST ISZERO PUSH2 0x19FE JUMPI PUSH1 0x0 DUP5 DUP2 MSTORE PUSH1 0xD6 PUSH1 0x20 MSTORE PUSH1 0x40 DUP2 KECCAK256 SLOAD PUSH1 0xFF AND SWAP1 DUP2 SWAP1 SUB PUSH2 0x39B1 JUMPI POP PUSH1 0x5 JUMPDEST PUSH1 0x0 PUSH1 0x64 PUSH2 0x39BF DUP4 CALLVALUE PUSH2 0x5964 JUMP JUMPDEST PUSH2 0x39C9 SWAP2 SWAP1 PUSH2 0x597B JUMP JUMPDEST PUSH1 0x40 MLOAD SWAP1 SWAP2 POP PUSH1 0x1 PUSH1 0x1 PUSH1 0xA0 SHL SUB DUP5 AND SWAP1 DUP3 ISZERO PUSH2 0x8FC MUL SWAP1 DUP4 SWAP1 PUSH1 0x0 DUP2 DUP2 DUP2 DUP6 DUP9 DUP9 CALL SWAP4 POP POP POP POP ISZERO DUP1 ISZERO PUSH2 0x3A02 JUMPI RETURNDATASIZE PUSH1 0x0 DUP1 RETURNDATACOPY RETURNDATASIZE PUSH1 0x0 REVERT JUMPDEST POP PUSH2 0x3A0D DUP2 CALLVALUE PUSH2 0x593E JUMP JUMPDEST PUSH1 0x0 DUP1 MSTORE PUSH1 0xD2 PUSH1 0x20 MSTORE PUSH1 0x0 DUP1 MLOAD PUSH1 0x20 PUSH2 0x5D41 DUP4 CODECOPY DUP2 MLOAD SWAP2 MSTORE SLOAD PUSH2 0x1726 SWAP2 SWAP1 PUSH2 0x5951 JUMP JUMPDEST PUSH1 0x0 DUP2 DUP2 MSTORE PUSH1 0xD3 PUSH1 0x20 MSTORE PUSH1 0x40 DUP2 KECCAK256 PUSH1 0x5 ADD SLOAD TIMESTAMP GT ISZERO PUSH2 0x3A51 JUMPI POP PUSH1 0x1 SWAP2 SWAP1 POP JUMP JUMPDEST POP PUSH1 0x0 SWAP2 SWAP1 POP JUMP JUMPDEST PUSH1 0x0 DUP4 DUP2 MSTORE PUSH1 0xD3 PUSH1 0x20 MSTORE PUSH1 0x40 SWAP1 KECCAK256 PUSH1 0x1 ADD SLOAD PUSH1 0x1 PUSH1 0x1 PUSH1 0xA0 SHL SUB AND CALLER EQ DUP1 PUSH2 0x3A97 JUMPI POP PUSH1 0x0 DUP4 DUP2 MSTORE PUSH1 0xD3 PUSH1 0x20 MSTORE PUSH1 0x40 SWAP1 KECCAK256 SLOAD PUSH1 0x1 PUSH1 0x1 PUSH1 0xA0 SHL SUB AND CALLER EQ JUMPDEST PUSH2 0x3AD6 JUMPI PUSH1 0x40 MLOAD PUSH3 0x461BCD PUSH1 0xE5 SHL DUP2 MSTORE PUSH1 0x20 PUSH1 0x4 DUP3 ADD MSTORE PUSH1 0x10 PUSH1 0x24 DUP3 ADD MSTORE PUSH16 0x3737BA1037BBB732B91037B31034B21 PUSH1 0x85 SHL PUSH1 0x44 DUP3 ADD MSTORE PUSH1 0x64 ADD PUSH2 0x10DA JUMP JUMPDEST PUSH1 0x0 DUP4 DUP2 MSTORE PUSH1 0xD3 PUSH1 0x20 SWAP1 DUP2 MSTORE PUSH1 0x40 DUP1 DUP4 KECCAK256 DUP6 DUP5 MSTORE PUSH1 0xA ADD SWAP1 SWAP2 MSTORE SWAP1 KECCAK256 PUSH1 0x2 ADD SLOAD PUSH1 0x1 PUSH1 0x1 PUSH1 0xA0 SHL SUB AND CALLER EQ DUP1 ISZERO PUSH2 0x3B2A JUMPI POP PUSH1 0x0 DUP4 DUP2 MSTORE PUSH1 0xD3 PUSH1 0x20 SWAP1 DUP2 MSTORE PUSH1 0x40 DUP1 DUP4 KECCAK256 DUP6 DUP5 MSTORE PUSH1 0xA ADD SWAP1 SWAP2 MSTORE SWAP1 KECCAK256 SLOAD PUSH1 0xFF AND ISZERO JUMPDEST PUSH2 0x3B46 JUMPI PUSH1 0x40 MLOAD PUSH3 0x461BCD PUSH1 0xE5 SHL DUP2 MSTORE PUSH1 0x4 ADD PUSH2 0x10DA SWAP1 PUSH2 0x5B94 JUMP JUMPDEST PUSH2 0x3B4F DUP4 PUSH2 0x45A8 JUMP JUMPDEST PUSH1 0x0 DUP4 DUP2 MSTORE PUSH1 0xD7 PUSH1 0x20 DUP2 DUP2 MSTORE PUSH1 0x40 DUP1 DUP5 KECCAK256 DUP7 DUP6 MSTORE PUSH1 0x2 DUP2 ADD DUP4 MSTORE DUP2 DUP6 KECCAK256 PUSH1 0x1 PUSH1 0x1 PUSH1 0xA0 SHL SUB DUP8 AND DUP7 MSTORE DUP4 MSTORE SWAP1 DUP5 KECCAK256 DUP1 SLOAD PUSH1 0xFF NOT AND SWAP1 SSTORE SWAP3 DUP7 SWAP1 MSTORE MSTORE SLOAD PUSH2 0x3B97 SWAP1 PUSH1 0x1 SWAP1 PUSH2 0x593E JUMP JUMPDEST POP CALLVALUE ISZERO PUSH2 0x117B JUMPI PUSH1 0x0 DUP1 MSTORE PUSH1 0xD2 PUSH1 0x20 MSTORE PUSH1 0x0 DUP1 MLOAD PUSH1 0x20 PUSH2 0x5D41 DUP4 CODECOPY DUP2 MLOAD SWAP2 MSTORE SLOAD PUSH2 0x1B26 SWAP1 CALLVALUE SWAP1 PUSH2 0x5951 JUMP JUMPDEST CALLER PUSH1 0x0 SWAP1 DUP2 MSTORE PUSH1 0xD5 PUSH1 0x20 MSTORE PUSH1 0x40 DUP2 KECCAK256 SLOAD PUSH1 0xFF AND ISZERO ISZERO SWAP1 SUB PUSH2 0x3BF5 JUMPI PUSH1 0x40 MLOAD PUSH3 0x461BCD PUSH1 0xE5 SHL DUP2 MSTORE PUSH1 0x4 ADD PUSH2 0x10DA SWAP1 PUSH2 0x58E5 JUMP JUMPDEST PUSH1 0x1 PUSH1 0x1 PUSH1 0xA0 SHL SUB DUP4 AND PUSH1 0x0 SWAP1 DUP2 MSTORE PUSH1 0xD8 PUSH1 0x20 SWAP1 DUP2 MSTORE PUSH1 0x40 DUP1 DUP4 KECCAK256 DUP6 DUP5 MSTORE SWAP1 SWAP2 MSTORE SWAP1 KECCAK256 DUP1 SLOAD PUSH1 0xFF NOT AND DUP3 ISZERO ISZERO OR SWAP1 SSTORE CALLVALUE ISZERO PUSH2 0x117B JUMPI PUSH1 0x0 DUP1 MSTORE PUSH1 0xD2 PUSH1 0x20 MSTORE PUSH1 0x0 DUP1 MLOAD PUSH1 0x20 PUSH2 0x5D41 DUP4 CODECOPY DUP2 MLOAD SWAP2 MSTORE SLOAD PUSH2 0x1B26 SWAP1 CALLVALUE SWAP1 PUSH2 0x5951 JUMP JUMPDEST CALLER PUSH1 0x0 SWAP1 DUP2 MSTORE PUSH1 0xD5 PUSH1 0x20 MSTORE PUSH1 0x40 DUP2 KECCAK256 SLOAD PUSH1 0xFF AND ISZERO ISZERO SWAP1 SUB PUSH2 0x3C81 JUMPI PUSH1 0x40 MLOAD PUSH3 0x461BCD PUSH1 0xE5 SHL DUP2 MSTORE PUSH1 0x4 ADD PUSH2 0x10DA SWAP1 PUSH2 0x58E5 JUMP JUMPDEST PUSH1 0x0 DUP5 DUP2 MSTORE PUSH1 0xD3 PUSH1 0x20 SWAP1 DUP2 MSTORE PUSH1 0x40 DUP1 DUP4 KECCAK256 DUP7 DUP5 MSTORE PUSH1 0xA ADD SWAP1 SWAP2 MSTORE SWAP1 KECCAK256 PUSH1 0x2 ADD SLOAD PUSH1 0x1 PUSH1 0x1 PUSH1 0xA0 SHL SUB DUP3 DUP2 AND SWAP2 AND EQ PUSH2 0x3CB8 JUMPI PUSH1 0x0 DUP1 REVERT JUMPDEST PUSH1 0x0 DUP5 DUP2 MSTORE PUSH1 0xD7 PUSH1 0x20 MSTORE PUSH1 0x40 SWAP1 KECCAK256 PUSH1 0x1 ADD SLOAD PUSH2 0x3CD5 SWAP1 DUP4 SWAP1 PUSH2 0x5951 JUMP JUMPDEST PUSH1 0x0 SWAP5 DUP6 MSTORE PUSH1 0xD7 PUSH1 0x20 MSTORE PUSH1 0x40 SWAP1 SWAP5 KECCAK256 PUSH1 0x1 ADD SWAP4 SWAP1 SWAP4 SSTORE POP POP POP JUMP JUMPDEST CALLER PUSH1 0x0 SWAP1 DUP2 MSTORE PUSH1 0xD5 PUSH1 0x20 MSTORE PUSH1 0x40 DUP2 KECCAK256 SLOAD PUSH1 0xFF AND ISZERO ISZERO SWAP1 SUB PUSH2 0x3D23 JUMPI PUSH1 0x40 MLOAD PUSH3 0x461BCD PUSH1 0xE5 SHL DUP2 MSTORE PUSH1 0x4 ADD PUSH2 0x10DA SWAP1 PUSH2 0x58E5 JUMP JUMPDEST PUSH1 0x1 PUSH1 0x1 PUSH1 0xA0 SHL SUB DUP4 AND PUSH1 0x0 SWAP1 DUP2 MSTORE PUSH32 0x938258EC6D8D468A3507D140E1C026DC2AFA285C097847A088DA7B50946FB924 PUSH1 0x20 MSTORE PUSH1 0x40 SWAP1 KECCAK256 SLOAD DUP3 GT ISZERO PUSH2 0x3D92 JUMPI PUSH1 0x40 MLOAD PUSH3 0x461BCD PUSH1 0xE5 SHL DUP2 MSTORE PUSH1 0x20 PUSH1 0x4 DUP3 ADD MSTORE PUSH1 0x5 PUSH1 0x24 DUP3 ADD MSTORE PUSH5 0x1B9BD8985B PUSH1 0xDA SHL PUSH1 0x44 DUP3 ADD MSTORE PUSH1 0x64 ADD PUSH2 0x10DA JUMP JUMPDEST PUSH2 0x117B PUSH1 0x0 DUP3 DUP6 DUP6 PUSH2 0x1180 JUMP JUMPDEST CALLER PUSH1 0x0 SWAP1 DUP2 MSTORE PUSH1 0xD5 PUSH1 0x20 MSTORE PUSH1 0x40 DUP2 KECCAK256 SLOAD PUSH1 0xFF AND ISZERO ISZERO SWAP1 SUB PUSH2 0x3DD2 JUMPI PUSH1 0x40 MLOAD PUSH3 0x461BCD PUSH1 0xE5 SHL DUP2 MSTORE PUSH1 0x4 ADD PUSH2 0x10DA SWAP1 PUSH2 0x58E5 JUMP JUMPDEST PUSH1 0x0 DUP4 DUP2 MSTORE PUSH1 0xD3 PUSH1 0x20 DUP2 DUP2 MSTORE PUSH1 0x40 DUP1 DUP5 KECCAK256 DUP7 DUP6 MSTORE PUSH1 0xA DUP2 ADD DUP4 MSTORE SWAP1 DUP5 KECCAK256 SWAP4 DUP8 SWAP1 MSTORE SWAP2 SWAP1 MSTORE PUSH1 0x6 ADD SLOAD DUP4 GT DUP1 ISZERO SWAP1 PUSH2 0x3E19 JUMPI POP PUSH1 0x0 DUP5 DUP2 MSTORE PUSH1 0xD3 PUSH1 0x20 MSTORE PUSH1 0x40 SWAP1 KECCAK256 PUSH1 0x5 ADD SLOAD TIMESTAMP LT JUMPDEST PUSH2 0x3E53 JUMPI PUSH1 0x40 MLOAD PUSH3 0x461BCD PUSH1 0xE5 SHL DUP2 MSTORE PUSH1 0x20 PUSH1 0x4 DUP3 ADD MSTORE PUSH1 0xB PUSH1 0x24 DUP3 ADD MSTORE PUSH11 0x1CDB1BDD08195E18D95959 PUSH1 0xAA SHL PUSH1 0x44 DUP3 ADD MSTORE PUSH1 0x64 ADD PUSH2 0x10DA JUMP JUMPDEST PUSH1 0x2 DUP2 ADD SLOAD PUSH1 0x1 PUSH1 0x1 PUSH1 0xA0 SHL SUB DUP4 DUP2 AND SWAP2 AND EQ DUP1 ISZERO PUSH2 0x3E8E JUMPI POP PUSH1 0x0 DUP5 DUP2 MSTORE PUSH1 0xD3 PUSH1 0x20 MSTORE PUSH1 0x40 SWAP1 KECCAK256 PUSH1 0x1 ADD SLOAD PUSH1 0x1 PUSH1 0x1 PUSH1 0xA0 SHL SUB DUP4 DUP2 AND SWAP2 AND EQ JUMPDEST PUSH2 0x3EDA JUMPI PUSH1 0x40 MLOAD PUSH3 0x461BCD PUSH1 0xE5 SHL DUP2 MSTORE PUSH1 0x20 PUSH1 0x4 DUP3 ADD MSTORE PUSH1 0x17 PUSH1 0x24 DUP3 ADD MSTORE PUSH32 0x646964206E6F742073746F7265206461746120736C6F74000000000000000000 PUSH1 0x44 DUP3 ADD MSTORE PUSH1 0x64 ADD PUSH2 0x10DA JUMP JUMPDEST PUSH2 0x3EE3 DUP5 PUSH2 0x45A8 JUMP JUMPDEST DUP1 SLOAD PUSH1 0xFF NOT AND PUSH1 0x1 OR DUP2 SSTORE CALLVALUE ISZERO PUSH2 0x19FE JUMPI PUSH1 0x0 DUP1 MSTORE PUSH1 0xD2 PUSH1 0x20 MSTORE PUSH1 0x0 DUP1 MLOAD PUSH1 0x20 PUSH2 0x5D41 DUP4 CODECOPY DUP2 MLOAD SWAP2 MSTORE SLOAD PUSH2 0x19E4 SWAP1 CALLVALUE SWAP1 PUSH2 0x5951 JUMP JUMPDEST PUSH2 0x3F21 DUP3 PUSH2 0x451D JUMP JUMPDEST ISZERO ISZERO PUSH1 0x1 EQ PUSH2 0x3F2F JUMPI PUSH1 0x0 DUP1 REVERT JUMPDEST DUP1 CALLVALUE LT ISZERO PUSH2 0x3F6A JUMPI PUSH1 0x40 MLOAD PUSH3 0x461BCD PUSH1 0xE5 SHL DUP2 MSTORE PUSH1 0x20 PUSH1 0x4 DUP3 ADD MSTORE PUSH1 0x8 PUSH1 0x24 DUP3 ADD MSTORE PUSH8 0x73656E6420666565 PUSH1 0xC0 SHL PUSH1 0x44 DUP3 ADD MSTORE PUSH1 0x64 ADD PUSH2 0x10DA JUMP JUMPDEST PUSH1 0x0 DUP3 DUP2 MSTORE PUSH1 0xD3 PUSH1 0x20 MSTORE PUSH1 0x40 DUP2 KECCAK256 SLOAD PUSH1 0x1 PUSH1 0x1 PUSH1 0xA0 SHL SUB AND SWAP1 PUSH2 0x3F8D DUP4 CALLVALUE PUSH2 0x593E JUMP JUMPDEST SWAP1 POP PUSH1 0x0 DUP2 GT DUP1 ISZERO PUSH2 0x3FA7 JUMPI POP PUSH1 0x1 PUSH1 0x1 PUSH1 0xA0 SHL SUB DUP3 AND ISZERO ISZERO JUMPDEST DUP1 ISZERO PUSH2 0x3FD0 JUMPI POP PUSH1 0x0 DUP5 DUP2 MSTORE PUSH1 0xD3 PUSH1 0x20 MSTORE PUSH1 0x40 SWAP1 KECCAK256 PUSH1 0x1 ADD SLOAD PUSH1 0x1 PUSH1 0x1 PUSH1 0xA0 SHL SUB DUP4 DUP2 AND SWAP2 AND EQ ISZERO JUMPDEST ISZERO PUSH2 0x408E JUMPI PUSH1 0x0 DUP5 DUP2 MSTORE PUSH1 0xD6 PUSH1 0x20 MSTORE PUSH1 0x40 DUP2 KECCAK256 SLOAD PUSH1 0xFF AND SWAP1 DUP2 SWAP1 SUB PUSH2 0x3FF3 JUMPI POP PUSH1 0x5 JUMPDEST PUSH1 0x0 PUSH1 0x64 PUSH2 0x4001 DUP4 DUP6 PUSH2 0x5964 JUMP JUMPDEST PUSH2 0x400B SWAP2 SWAP1 PUSH2 0x597B JUMP JUMPDEST PUSH1 0x40 MLOAD SWAP1 SWAP2 POP PUSH1 0x1 PUSH1 0x1 PUSH1 0xA0 SHL SUB DUP6 AND SWAP1 DUP3 ISZERO PUSH2 0x8FC MUL SWAP1 DUP4 SWAP1 PUSH1 0x0 DUP2 DUP2 DUP2 DUP6 DUP9 DUP9 CALL SWAP4 POP POP POP POP ISZERO DUP1 ISZERO PUSH2 0x4044 JUMPI RETURNDATASIZE PUSH1 0x0 DUP1 RETURNDATACOPY RETURNDATASIZE PUSH1 0x0 REVERT JUMPDEST POP PUSH2 0x404F DUP2 DUP5 PUSH2 0x593E JUMP JUMPDEST PUSH1 0x0 DUP1 MSTORE PUSH1 0xD2 PUSH1 0x20 MSTORE PUSH1 0x0 DUP1 MLOAD PUSH1 0x20 PUSH2 0x5D41 DUP4 CODECOPY DUP2 MLOAD SWAP2 MSTORE SLOAD PUSH2 0x4072 SWAP2 SWAP1 PUSH2 0x5951 JUMP JUMPDEST PUSH1 0x0 DUP1 MSTORE PUSH1 0xD2 PUSH1 0x20 MSTORE PUSH1 0x0 DUP1 MLOAD PUSH1 0x20 PUSH2 0x5D41 DUP4 CODECOPY DUP2 MLOAD SWAP2 MSTORE SSTORE POP POP JUMPDEST PUSH1 0x0 DUP5 DUP2 MSTORE PUSH1 0xD3 PUSH1 0x20 SWAP1 DUP2 MSTORE PUSH1 0x40 DUP1 DUP4 KECCAK256 DUP4 DUP1 MSTORE PUSH1 0x9 ADD SWAP1 SWAP2 MSTORE SWAP1 KECCAK256 SLOAD PUSH2 0x40B6 SWAP1 DUP5 SWAP1 PUSH2 0x5951 JUMP JUMPDEST PUSH1 0x0 DUP6 DUP2 MSTORE PUSH1 0xD3 PUSH1 0x20 SWAP1 DUP2 MSTORE PUSH1 0x40 DUP1 DUP4 KECCAK256 DUP4 DUP1 MSTORE PUSH1 0x9 ADD SWAP1 SWAP2 MSTORE SWAP1 KECCAK256 SSTORE PUSH2 0x19FE DUP5 PUSH2 0x45A8 JUMP JUMPDEST PUSH1 0xCD SLOAD PUSH1 0x1 PUSH1 0x1 PUSH1 0xA0 SHL SUB AND CALLER EQ PUSH2 0x4110 JUMPI PUSH1 0x40 MLOAD PUSH3 0x461BCD PUSH1 0xE5 SHL DUP2 MSTORE PUSH1 0x20 PUSH1 0x4 DUP3 ADD MSTORE PUSH1 0x0 PUSH1 0x24 DUP3 ADD MSTORE PUSH1 0x44 ADD PUSH2 0x10DA JUMP JUMPDEST PUSH1 0xD0 SSTORE JUMP JUMPDEST PUSH1 0xCD SLOAD PUSH1 0x1 PUSH1 0x1 PUSH1 0xA0 SHL SUB AND CALLER EQ PUSH2 0x4149 JUMPI PUSH1 0x40 MLOAD PUSH3 0x461BCD PUSH1 0xE5 SHL DUP2 MSTORE PUSH1 0x20 PUSH1 0x4 DUP3 ADD MSTORE PUSH1 0x0 PUSH1 0x24 DUP3 ADD MSTORE PUSH1 0x44 ADD PUSH2 0x10DA JUMP JUMPDEST PUSH1 0xCD DUP1 SLOAD PUSH1 0x1 PUSH1 0x1 PUSH1 0xA0 SHL SUB NOT AND PUSH1 0x1 PUSH1 0x1 PUSH1 0xA0 SHL SUB SWAP3 SWAP1 SWAP3 AND SWAP2 SWAP1 SWAP2 OR SWAP1 SSTORE JUMP JUMPDEST CALLER PUSH1 0x0 SWAP1 DUP2 MSTORE PUSH1 0xD5 PUSH1 0x20 MSTORE PUSH1 0x40 DUP2 KECCAK256 SLOAD PUSH1 0xFF AND ISZERO ISZERO SWAP1 SUB PUSH2 0x419E JUMPI PUSH1 0x40 MLOAD PUSH3 0x461BCD PUSH1 0xE5 SHL DUP2 MSTORE PUSH1 0x4 ADD PUSH2 0x10DA SWAP1 PUSH2 0x58E5 JUMP JUMPDEST PUSH1 0x0 SWAP2 DUP3 MSTORE PUSH1 0xD3 PUSH1 0x20 MSTORE PUSH1 0x40 SWAP1 SWAP2 KECCAK256 PUSH1 0x1 ADD DUP1 SLOAD PUSH2 0xFFFF SWAP1 SWAP3 AND PUSH1 0x1 PUSH1 0xB0 SHL MUL PUSH2 0xFFFF PUSH1 0xB0 SHL NOT SWAP1 SWAP3 AND SWAP2 SWAP1 SWAP2 OR SWAP1 SSTORE JUMP JUMPDEST PUSH1 0xCD SLOAD PUSH1 0x1 PUSH1 0x1 PUSH1 0xA0 SHL SUB AND CALLER EQ PUSH2 0x4204 JUMPI PUSH1 0x40 MLOAD PUSH3 0x461BCD PUSH1 0xE5 SHL DUP2 MSTORE PUSH1 0x20 PUSH1 0x4 DUP3 ADD MSTORE PUSH1 0x0 PUSH1 0x24 DUP3 ADD MSTORE PUSH1 0x44 ADD PUSH2 0x10DA JUMP JUMPDEST PUSH1 0x0 DUP1 DUP1 MSTORE PUSH1 0xD2 PUSH1 0x20 MSTORE PUSH1 0x0 DUP1 MLOAD PUSH1 0x20 PUSH2 0x5D41 DUP4 CODECOPY DUP2 MLOAD SWAP2 MSTORE SLOAD DUP3 GT ISZERO PUSH2 0x425B JUMPI PUSH1 0x40 MLOAD PUSH3 0x461BCD PUSH1 0xE5 SHL DUP2 MSTORE PUSH1 0x20 PUSH1 0x4 DUP3 ADD MSTORE PUSH1 0xB PUSH1 0x24 DUP3 ADD MSTORE PUSH11 0x4E6F2062616C616E636573 PUSH1 0xA8 SHL PUSH1 0x44 DUP3 ADD MSTORE PUSH1 0x64 ADD PUSH2 0x10DA JUMP JUMPDEST PUSH1 0x1 PUSH1 0x1 PUSH1 0xA0 SHL SUB DUP2 AND PUSH1 0x0 SWAP1 DUP2 MSTORE PUSH1 0xD2 PUSH1 0x20 MSTORE PUSH1 0x40 SWAP1 KECCAK256 SLOAD PUSH2 0x427F SWAP1 DUP4 SWAP1 PUSH2 0x593E JUMP JUMPDEST PUSH1 0x1 PUSH1 0x1 PUSH1 0xA0 SHL SUB DUP3 AND PUSH1 0x0 SWAP1 DUP2 MSTORE PUSH1 0xD2 PUSH1 0x20 MSTORE PUSH1 0x40 DUP1 DUP3 KECCAK256 SWAP3 SWAP1 SWAP3 SSTORE SWAP1 MLOAD CALLER SWAP2 DUP5 ISZERO PUSH2 0x8FC MUL SWAP2 DUP6 SWAP2 DUP2 DUP2 DUP2 DUP6 DUP9 DUP9 CALL SWAP4 POP POP POP POP ISZERO DUP1 ISZERO PUSH2 0x117B JUMPI RETURNDATASIZE PUSH1 0x0 DUP1 RETURNDATACOPY RETURNDATASIZE PUSH1 0x0 REVERT JUMPDEST CALLER PUSH1 0x0 SWAP1 DUP2 MSTORE PUSH1 0xD5 PUSH1 0x20 MSTORE PUSH1 0x40 DUP2 KECCAK256 SLOAD PUSH1 0xFF AND ISZERO ISZERO SWAP1 SUB PUSH2 0x42F9 JUMPI PUSH1 0x40 MLOAD PUSH3 0x461BCD PUSH1 0xE5 SHL DUP2 MSTORE PUSH1 0x4 ADD PUSH2 0x10DA SWAP1 PUSH2 0x58E5 JUMP JUMPDEST PUSH1 0xD4 SLOAD DUP2 LT PUSH2 0x431A JUMPI PUSH1 0x40 MLOAD PUSH3 0x461BCD PUSH1 0xE5 SHL DUP2 MSTORE PUSH1 0x4 ADD PUSH2 0x10DA SWAP1 PUSH2 0x5B0C JUMP JUMPDEST PUSH1 0x0 DUP2 DUP2 MSTORE PUSH1 0xD3 PUSH1 0x20 MSTORE PUSH1 0x40 SWAP1 KECCAK256 PUSH1 0x7 ADD SLOAD PUSH2 0x4337 SWAP1 DUP4 SWAP1 PUSH2 0x5951 JUMP JUMPDEST PUSH1 0x0 SWAP2 DUP3 MSTORE PUSH1 0xD3 PUSH1 0x20 MSTORE PUSH1 0x40 SWAP1 SWAP2 KECCAK256 PUSH1 0x7 ADD SSTORE POP JUMP JUMPDEST PUSH1 0x40 DUP1 MLOAD PUSH1 0xA0 DUP1 DUP3 ADD DUP4 MSTORE PUSH1 0x0 DUP1 DUP4 MSTORE PUSH1 0x20 DUP1 DUP5 ADD DUP3 SWAP1 MSTORE PUSH1 0x60 DUP5 DUP7 ADD DUP2 SWAP1 MSTORE DUP1 DUP6 ADD DUP4 SWAP1 MSTORE PUSH1 0x80 DUP6 ADD MSTORE DUP7 DUP3 MSTORE PUSH1 0xD9 DUP2 MSTORE DUP5 DUP3 KECCAK256 DUP7 DUP4 MSTORE DUP2 MSTORE SWAP1 DUP5 SWAP1 KECCAK256 DUP5 MLOAD SWAP3 DUP4 ADD DUP6 MSTORE DUP1 SLOAD PUSH1 0xFF DUP1 DUP3 AND ISZERO ISZERO DUP6 MSTORE PUSH2 0x100 SWAP1 SWAP2 DIV AND ISZERO ISZERO SWAP2 DUP4 ADD SWAP2 SWAP1 SWAP2 MSTORE PUSH1 0x1 DUP2 ADD DUP1 SLOAD SWAP4 SWAP5 SWAP3 SWAP4 SWAP2 SWAP3 DUP5 ADD SWAP2 PUSH2 0x43C5 SWAP1 PUSH2 0x58B1 JUMP JUMPDEST DUP1 PUSH1 0x1F ADD PUSH1 0x20 DUP1 SWAP2 DIV MUL PUSH1 0x20 ADD PUSH1 0x40 MLOAD SWAP1 DUP2 ADD PUSH1 0x40 MSTORE DUP1 SWAP3 SWAP2 SWAP1 DUP2 DUP2 MSTORE PUSH1 0x20 ADD DUP3 DUP1 SLOAD PUSH2 0x43F1 SWAP1 PUSH2 0x58B1 JUMP JUMPDEST DUP1 ISZERO PUSH2 0x443E JUMPI DUP1 PUSH1 0x1F LT PUSH2 0x4413 JUMPI PUSH2 0x100 DUP1 DUP4 SLOAD DIV MUL DUP4 MSTORE SWAP2 PUSH1 0x20 ADD SWAP2 PUSH2 0x443E JUMP JUMPDEST DUP3 ADD SWAP2 SWAP1 PUSH1 0x0 MSTORE PUSH1 0x20 PUSH1 0x0 KECCAK256 SWAP1 JUMPDEST DUP2 SLOAD DUP2 MSTORE SWAP1 PUSH1 0x1 ADD SWAP1 PUSH1 0x20 ADD DUP1 DUP4 GT PUSH2 0x4421 JUMPI DUP3 SWAP1 SUB PUSH1 0x1F AND DUP3 ADD SWAP2 JUMPDEST POP POP POP SWAP2 DUP4 MSTORE POP POP PUSH1 0x2 DUP3 ADD SLOAD PUSH1 0x1 PUSH1 0x1 PUSH1 0xA0 SHL SUB AND PUSH1 0x20 DUP3 ADD MSTORE PUSH1 0x3 DUP3 ADD DUP1 SLOAD PUSH1 0x40 SWAP1 SWAP3 ADD SWAP2 PUSH2 0x446E SWAP1 PUSH2 0x58B1 JUMP JUMPDEST DUP1 PUSH1 0x1F ADD PUSH1 0x20 DUP1 SWAP2 DIV MUL PUSH1 0x20 ADD PUSH1 0x40 MLOAD SWAP1 DUP2 ADD PUSH1 0x40 MSTORE DUP1 SWAP3 SWAP2 SWAP1 DUP2 DUP2 MSTORE PUSH1 0x20 ADD DUP3 DUP1 SLOAD PUSH2 0x449A SWAP1 PUSH2 0x58B1 JUMP JUMPDEST DUP1 ISZERO PUSH2 0x44E7 JUMPI DUP1 PUSH1 0x1F LT PUSH2 0x44BC JUMPI PUSH2 0x100 DUP1 DUP4 SLOAD DIV MUL DUP4 MSTORE SWAP2 PUSH1 0x20 ADD SWAP2 PUSH2 0x44E7 JUMP JUMPDEST DUP3 ADD SWAP2 SWAP1 PUSH1 0x0 MSTORE PUSH1 0x20 PUSH1 0x0 KECCAK256 SWAP1 JUMPDEST DUP2 SLOAD DUP2 MSTORE SWAP1 PUSH1 0x1 ADD SWAP1 PUSH1 0x20 ADD DUP1 DUP4 GT PUSH2 0x44CA JUMPI DUP3 SWAP1 SUB PUSH1 0x1F AND DUP3 ADD SWAP2 JUMPDEST POP POP POP POP POP DUP2 MSTORE POP POP SWAP1 POP SWAP3 SWAP2 POP POP JUMP JUMPDEST PUSH1 0x0 PUSH1 0x1 PUSH1 0x1 PUSH1 0xE0 SHL SUB NOT DUP3 AND PUSH4 0x780E9D63 PUSH1 0xE0 SHL EQ DUP1 PUSH2 0xF99 JUMPI POP PUSH2 0xF99 DUP3 PUSH2 0x49D7 JUMP JUMPDEST PUSH1 0x0 SWAP1 DUP2 MSTORE PUSH1 0x68 PUSH1 0x20 MSTORE PUSH1 0x40 SWAP1 KECCAK256 SLOAD PUSH1 0x1 PUSH1 0x1 PUSH1 0xA0 SHL SUB AND ISZERO ISZERO SWAP1 JUMP JUMPDEST PUSH1 0x0 DUP2 DUP2 MSTORE PUSH1 0x6A PUSH1 0x20 MSTORE PUSH1 0x40 SWAP1 KECCAK256 DUP1 SLOAD PUSH1 0x1 PUSH1 0x1 PUSH1 0xA0 SHL SUB NOT AND PUSH1 0x1 PUSH1 0x1 PUSH1 0xA0 SHL SUB DUP5 AND SWAP1 DUP2 OR SWAP1 SWAP2 SSTORE DUP2 SWAP1 PUSH2 0x456F DUP3 PUSH2 0x236E JUMP JUMPDEST PUSH1 0x1 PUSH1 0x1 PUSH1 0xA0 SHL SUB AND PUSH32 0x8C5BE1E5EBEC7D5BD14F71427D1E84F3DD0314C0F7B2291E5B200AC8C7C3B925 PUSH1 0x40 MLOAD PUSH1 0x40 MLOAD DUP1 SWAP2 SUB SWAP1 LOG4 POP POP JUMP JUMPDEST PUSH1 0xD0 SLOAD PUSH1 0x0 DUP3 DUP2 MSTORE PUSH1 0xD3 PUSH1 0x20 MSTORE PUSH1 0x40 SWAP1 KECCAK256 PUSH1 0x8 ADD SLOAD PUSH2 0x45C7 SWAP2 SWAP1 PUSH2 0x5951 JUMP JUMPDEST PUSH1 0x0 SWAP2 DUP3 MSTORE PUSH1 0xD3 PUSH1 0x20 MSTORE PUSH1 0x40 SWAP1 SWAP2 KECCAK256 PUSH1 0x8 ADD SSTORE JUMP JUMPDEST PUSH1 0x0 DUP1 PUSH2 0x45E8 DUP4 PUSH2 0x236E JUMP JUMPDEST SWAP1 POP DUP1 PUSH1 0x1 PUSH1 0x1 PUSH1 0xA0 SHL SUB AND DUP5 PUSH1 0x1 PUSH1 0x1 PUSH1 0xA0 SHL SUB AND EQ DUP1 PUSH2 0x462F JUMPI POP PUSH1 0x1 PUSH1 0x1 PUSH1 0xA0 SHL SUB DUP1 DUP3 AND PUSH1 0x0 SWAP1 DUP2 MSTORE PUSH1 0x6B PUSH1 0x20 SWAP1 DUP2 MSTORE PUSH1 0x40 DUP1 DUP4 KECCAK256 SWAP4 DUP9 AND DUP4 MSTORE SWAP3 SWAP1 MSTORE KECCAK256 SLOAD PUSH1 0xFF AND JUMPDEST DUP1 PUSH2 0x4653 JUMPI POP DUP4 PUSH1 0x1 PUSH1 0x1 PUSH1 0xA0 SHL SUB AND PUSH2 0x4648 DUP5 PUSH2 0x1031 JUMP JUMPDEST PUSH1 0x1 PUSH1 0x1 PUSH1 0xA0 SHL SUB AND EQ JUMPDEST SWAP5 SWAP4 POP POP POP POP JUMP JUMPDEST DUP3 PUSH1 0x1 PUSH1 0x1 PUSH1 0xA0 SHL SUB AND PUSH2 0x466E DUP3 PUSH2 0x236E JUMP JUMPDEST PUSH1 0x1 PUSH1 0x1 PUSH1 0xA0 SHL SUB AND EQ PUSH2 0x4694 JUMPI PUSH1 0x40 MLOAD PUSH3 0x461BCD PUSH1 0xE5 SHL DUP2 MSTORE PUSH1 0x4 ADD PUSH2 0x10DA SWAP1 PUSH2 0x5BEE JUMP JUMPDEST PUSH1 0x1 PUSH1 0x1 PUSH1 0xA0 SHL SUB DUP3 AND PUSH2 0x46F6 JUMPI PUSH1 0x40 MLOAD PUSH3 0x461BCD PUSH1 0xE5 SHL DUP2 MSTORE PUSH1 0x20 PUSH1 0x4 DUP3 ADD MSTORE PUSH1 0x24 DUP1 DUP3 ADD MSTORE PUSH32 0x4552433732313A207472616E7366657220746F20746865207A65726F20616464 PUSH1 0x44 DUP3 ADD MSTORE PUSH4 0x72657373 PUSH1 0xE0 SHL PUSH1 0x64 DUP3 ADD MSTORE PUSH1 0x84 ADD PUSH2 0x10DA JUMP JUMPDEST PUSH2 0x4703 DUP4 DUP4 DUP4 PUSH1 0x1 PUSH2 0x4A27 JUMP JUMPDEST DUP3 PUSH1 0x1 PUSH1 0x1 PUSH1 0xA0 SHL SUB AND PUSH2 0x4716 DUP3 PUSH2 0x236E JUMP JUMPDEST PUSH1 0x1 PUSH1 0x1 PUSH1 0xA0 SHL SUB AND EQ PUSH2 0x473C JUMPI PUSH1 0x40 MLOAD PUSH3 0x461BCD PUSH1 0xE5 SHL DUP2 MSTORE PUSH1 0x4 ADD PUSH2 0x10DA SWAP1 PUSH2 0x5BEE JUMP JUMPDEST PUSH1 0x0 DUP2 DUP2 MSTORE PUSH1 0x6A PUSH1 0x20 SWAP1 DUP2 MSTORE PUSH1 0x40 DUP1 DUP4 KECCAK256 DUP1 SLOAD PUSH1 0x1 PUSH1 0x1 PUSH1 0xA0 SHL SUB NOT SWAP1 DUP2 AND SWAP1 SWAP2 SSTORE PUSH1 0x1 PUSH1 0x1 PUSH1 0xA0 SHL SUB DUP8 DUP2 AND DUP1 DUP7 MSTORE PUSH1 0x69 DUP6 MSTORE DUP4 DUP7 KECCAK256 DUP1 SLOAD PUSH1 0x0 NOT ADD SWAP1 SSTORE SWAP1 DUP8 AND DUP1 DUP7 MSTORE DUP4 DUP7 KECCAK256 DUP1 SLOAD PUSH1 0x1 ADD SWAP1 SSTORE DUP7 DUP7 MSTORE PUSH1 0x68 SWAP1 SWAP5 MSTORE DUP3 DUP6 KECCAK256 DUP1 SLOAD SWAP1 SWAP3 AND DUP5 OR SWAP1 SWAP2 SSTORE SWAP1 MLOAD DUP5 SWAP4 PUSH32 0xDDF252AD1BE2C89B69C2B068FC378DAA952BA7F163C4A11628F55A4DF523B3EF SWAP2 LOG4 POP POP POP JUMP JUMPDEST PUSH2 0x2519 DUP3 DUP3 PUSH1 0x40 MLOAD DUP1 PUSH1 0x20 ADD PUSH1 0x40 MSTORE DUP1 PUSH1 0x0 DUP2 MSTORE POP PUSH2 0x4A66 JUMP JUMPDEST PUSH1 0x0 SLOAD PUSH2 0x100 SWAP1 DIV PUSH1 0xFF AND PUSH2 0x480D JUMPI PUSH1 0x40 MLOAD PUSH3 0x461BCD PUSH1 0xE5 SHL DUP2 MSTORE PUSH1 0x4 ADD PUSH2 0x10DA SWAP1 PUSH2 0x5C33 JUMP JUMPDEST PUSH1 0x65 PUSH2 0x4819 DUP4 DUP3 PUSH2 0x59FC JUMP JUMPDEST POP PUSH1 0x66 PUSH2 0x117B DUP3 DUP3 PUSH2 0x59FC JUMP JUMPDEST PUSH1 0x0 SLOAD PUSH2 0x100 SWAP1 DIV PUSH1 0xFF AND PUSH2 0x484D JUMPI PUSH1 0x40 MLOAD PUSH3 0x461BCD PUSH1 0xE5 SHL DUP2 MSTORE PUSH1 0x4 ADD PUSH2 0x10DA SWAP1 PUSH2 0x5C33 JUMP JUMPDEST JUMP JUMPDEST PUSH1 0x0 DUP3 DUP2 MSTORE PUSH1 0x67 PUSH1 0x20 MSTORE PUSH1 0x40 SWAP1 KECCAK256 PUSH2 0x117B DUP3 DUP3 PUSH2 0x59FC JUMP JUMPDEST DUP2 PUSH1 0x1 PUSH1 0x1 PUSH1 0xA0 SHL SUB AND DUP4 PUSH1 0x1 PUSH1 0x1 PUSH1 0xA0 SHL SUB AND SUB PUSH2 0x48C8 JUMPI PUSH1 0x40 MLOAD PUSH3 0x461BCD PUSH1 0xE5 SHL DUP2 MSTORE PUSH1 0x20 PUSH1 0x4 DUP3 ADD MSTORE PUSH1 0x19 PUSH1 0x24 DUP3 ADD MSTORE PUSH32 0x4552433732313A20617070726F766520746F2063616C6C657200000000000000 PUSH1 0x44 DUP3 ADD MSTORE PUSH1 0x64 ADD PUSH2 0x10DA JUMP JUMPDEST PUSH1 0x1 PUSH1 0x1 PUSH1 0xA0 SHL SUB DUP4 DUP2 AND PUSH1 0x0 DUP2 DUP2 MSTORE PUSH1 0x6B PUSH1 0x20 SWAP1 DUP2 MSTORE PUSH1 0x40 DUP1 DUP4 KECCAK256 SWAP5 DUP8 AND DUP1 DUP5 MSTORE SWAP5 DUP3 MSTORE SWAP2 DUP3 SWAP1 KECCAK256 DUP1 SLOAD PUSH1 0xFF NOT AND DUP7 ISZERO ISZERO SWAP1 DUP2 OR SWAP1 SWAP2 SSTORE SWAP2 MLOAD SWAP2 DUP3 MSTORE PUSH32 0x17307EAB39AB6107E8899845AD3D59BD9653F200F220920489CA2B5937696C31 SWAP2 ADD PUSH1 0x40 MLOAD DUP1 SWAP2 SUB SWAP1 LOG3 POP POP POP JUMP JUMPDEST PUSH1 0x0 DUP2 DUP2 MSTORE PUSH1 0x67 PUSH1 0x20 MSTORE PUSH1 0x40 SWAP1 KECCAK256 DUP1 SLOAD PUSH1 0x60 SWAP2 SWAP1 PUSH2 0x4952 SWAP1 PUSH2 0x58B1 JUMP JUMPDEST DUP1 PUSH1 0x1F ADD PUSH1 0x20 DUP1 SWAP2 DIV MUL PUSH1 0x20 ADD PUSH1 0x40 MLOAD SWAP1 DUP2 ADD PUSH1 0x40 MSTORE DUP1 SWAP3 SWAP2 SWAP1 DUP2 DUP2 MSTORE PUSH1 0x20 ADD DUP3 DUP1 SLOAD PUSH2 0x497E SWAP1 PUSH2 0x58B1 JUMP JUMPDEST DUP1 ISZERO PUSH2 0x49CB JUMPI DUP1 PUSH1 0x1F LT PUSH2 0x49A0 JUMPI PUSH2 0x100 DUP1 DUP4 SLOAD DIV MUL DUP4 MSTORE SWAP2 PUSH1 0x20 ADD SWAP2 PUSH2 0x49CB JUMP JUMPDEST DUP3 ADD SWAP2 SWAP1 PUSH1 0x0 MSTORE PUSH1 0x20 PUSH1 0x0 KECCAK256 SWAP1 JUMPDEST DUP2 SLOAD DUP2 MSTORE SWAP1 PUSH1 0x1 ADD SWAP1 PUSH1 0x20 ADD DUP1 DUP4 GT PUSH2 0x49AE JUMPI DUP3 SWAP1 SUB PUSH1 0x1F AND DUP3 ADD SWAP2 JUMPDEST POP POP POP POP POP SWAP1 POP SWAP2 SWAP1 POP JUMP JUMPDEST PUSH1 0x0 PUSH1 0x1 PUSH1 0x1 PUSH1 0xE0 SHL SUB NOT DUP3 AND PUSH4 0x7AA5391D PUSH1 0xE0 SHL EQ DUP1 PUSH2 0x4A08 JUMPI POP PUSH1 0x1 PUSH1 0x1 PUSH1 0xE0 SHL SUB NOT DUP3 AND PUSH4 0x5B5E139F PUSH1 0xE0 SHL EQ JUMPDEST DUP1 PUSH2 0xF99 JUMPI POP PUSH4 0x1FFC9A7 PUSH1 0xE0 SHL PUSH1 0x1 PUSH1 0x1 PUSH1 0xE0 SHL SUB NOT DUP4 AND EQ PUSH2 0xF99 JUMP JUMPDEST PUSH2 0x4A33 DUP5 DUP5 DUP5 DUP5 PUSH2 0x4A99 JUMP JUMPDEST POP PUSH1 0x0 SWAP1 DUP2 MSTORE PUSH1 0xD3 PUSH1 0x20 MSTORE PUSH1 0x40 SWAP1 KECCAK256 PUSH1 0x1 ADD DUP1 SLOAD PUSH1 0x1 PUSH1 0x1 PUSH1 0xA0 SHL SUB NOT AND PUSH1 0x1 PUSH1 0x1 PUSH1 0xA0 SHL SUB SWAP3 SWAP1 SWAP3 AND SWAP2 SWAP1 SWAP2 OR SWAP1 SSTORE POP JUMP JUMPDEST PUSH2 0x4A70 DUP4 DUP4 PUSH2 0x4BC6 JUMP JUMPDEST PUSH2 0x4A7D PUSH1 0x0 DUP5 DUP5 DUP5 PUSH2 0x4D41 JUMP JUMPDEST PUSH2 0x117B JUMPI PUSH1 0x40 MLOAD PUSH3 0x461BCD PUSH1 0xE5 SHL DUP2 MSTORE PUSH1 0x4 ADD PUSH2 0x10DA SWAP1 PUSH2 0x5C7E JUMP JUMPDEST PUSH1 0x1 DUP2 GT ISZERO PUSH2 0x4B08 JUMPI PUSH1 0x40 MLOAD PUSH3 0x461BCD PUSH1 0xE5 SHL DUP2 MSTORE PUSH1 0x20 PUSH1 0x4 DUP3 ADD MSTORE PUSH1 0x35 PUSH1 0x24 DUP3 ADD MSTORE PUSH32 0x455243373231456E756D657261626C653A20636F6E7365637574697665207472 PUSH1 0x44 DUP3 ADD MSTORE PUSH21 0x185B9CD9995C9CC81B9BDD081CDD5C1C1BDC9D1959 PUSH1 0x5A SHL PUSH1 0x64 DUP3 ADD MSTORE PUSH1 0x84 ADD PUSH2 0x10DA JUMP JUMPDEST DUP2 PUSH1 0x1 PUSH1 0x1 PUSH1 0xA0 SHL SUB DUP6 AND PUSH2 0x4B64 JUMPI PUSH2 0x4B5F DUP2 PUSH1 0x9A DUP1 SLOAD PUSH1 0x0 DUP4 DUP2 MSTORE PUSH1 0x9B PUSH1 0x20 MSTORE PUSH1 0x40 DUP2 KECCAK256 DUP3 SWAP1 SSTORE PUSH1 0x1 DUP3 ADD DUP4 SSTORE SWAP2 SWAP1 SWAP2 MSTORE PUSH32 0x44DA158BA27F9252712A74FF6A55C5D531F69609F1F6E7F17C4443A8E2089BE4 ADD SSTORE JUMP JUMPDEST PUSH2 0x4B87 JUMP JUMPDEST DUP4 PUSH1 0x1 PUSH1 0x1 PUSH1 0xA0 SHL SUB AND DUP6 PUSH1 0x1 PUSH1 0x1 PUSH1 0xA0 SHL SUB AND EQ PUSH2 0x4B87 JUMPI PUSH2 0x4B87 DUP6 DUP3 PUSH2 0x4E42 JUMP JUMPDEST PUSH1 0x1 PUSH1 0x1 PUSH1 0xA0 SHL SUB DUP5 AND PUSH2 0x4BA3 JUMPI PUSH2 0x4B9E DUP2 PUSH2 0x4EDF JUMP JUMPDEST PUSH2 0x13E6 JUMP JUMPDEST DUP5 PUSH1 0x1 PUSH1 0x1 PUSH1 0xA0 SHL SUB AND DUP5 PUSH1 0x1 PUSH1 0x1 PUSH1 0xA0 SHL SUB AND EQ PUSH2 0x13E6 JUMPI PUSH2 0x13E6 DUP5 DUP3 PUSH2 0x4F8E JUMP JUMPDEST PUSH1 0x1 PUSH1 0x1 PUSH1 0xA0 SHL SUB DUP3 AND PUSH2 0x4C1C JUMPI PUSH1 0x40 MLOAD PUSH3 0x461BCD PUSH1 0xE5 SHL DUP2 MSTORE PUSH1 0x20 PUSH1 0x4 DUP3 ADD DUP2 SWAP1 MSTORE PUSH1 0x24 DUP3 ADD MSTORE PUSH32 0x4552433732313A206D696E7420746F20746865207A65726F2061646472657373 PUSH1 0x44 DUP3 ADD MSTORE PUSH1 0x64 ADD PUSH2 0x10DA JUMP JUMPDEST PUSH2 0x4C25 DUP2 PUSH2 0x451D JUMP JUMPDEST ISZERO PUSH2 0x4C72 JUMPI PUSH1 0x40 MLOAD PUSH3 0x461BCD PUSH1 0xE5 SHL DUP2 MSTORE PUSH1 0x20 PUSH1 0x4 DUP3 ADD MSTORE PUSH1 0x1C PUSH1 0x24 DUP3 ADD MSTORE PUSH32 0x4552433732313A20746F6B656E20616C7265616479206D696E74656400000000 PUSH1 0x44 DUP3 ADD MSTORE PUSH1 0x64 ADD PUSH2 0x10DA JUMP JUMPDEST PUSH2 0x4C80 PUSH1 0x0 DUP4 DUP4 PUSH1 0x1 PUSH2 0x4A27 JUMP JUMPDEST PUSH2 0x4C89 DUP2 PUSH2 0x451D JUMP JUMPDEST ISZERO PUSH2 0x4CD6 JUMPI PUSH1 0x40 MLOAD PUSH3 0x461BCD PUSH1 0xE5 SHL DUP2 MSTORE PUSH1 0x20 PUSH1 0x4 DUP3 ADD MSTORE PUSH1 0x1C PUSH1 0x24 DUP3 ADD MSTORE PUSH32 0x4552433732313A20746F6B656E20616C7265616479206D696E74656400000000 PUSH1 0x44 DUP3 ADD MSTORE PUSH1 0x64 ADD PUSH2 0x10DA JUMP JUMPDEST PUSH1 0x1 PUSH1 0x1 PUSH1 0xA0 SHL SUB DUP3 AND PUSH1 0x0 DUP2 DUP2 MSTORE PUSH1 0x69 PUSH1 0x20 SWAP1 DUP2 MSTORE PUSH1 0x40 DUP1 DUP4 KECCAK256 DUP1 SLOAD PUSH1 0x1 ADD SWAP1 SSTORE DUP5 DUP4 MSTORE PUSH1 0x68 SWAP1 SWAP2 MSTORE DUP1 DUP3 KECCAK256 DUP1 SLOAD PUSH1 0x1 PUSH1 0x1 PUSH1 0xA0 SHL SUB NOT AND DUP5 OR SWAP1 SSTORE MLOAD DUP4 SWAP3 SWAP2 SWAP1 PUSH32 0xDDF252AD1BE2C89B69C2B068FC378DAA952BA7F163C4A11628F55A4DF523B3EF SWAP1 DUP3 SWAP1 LOG4 POP POP JUMP JUMPDEST PUSH1 0x0 PUSH1 0x1 PUSH1 0x1 PUSH1 0xA0 SHL SUB DUP5 AND EXTCODESIZE ISZERO PUSH2 0x4E37 JUMPI PUSH1 0x40 MLOAD PUSH4 0xA85BD01 PUSH1 0xE1 SHL DUP2 MSTORE PUSH1 0x1 PUSH1 0x1 PUSH1 0xA0 SHL SUB DUP6 AND SWAP1 PUSH4 0x150B7A02 SWAP1 PUSH2 0x4D85 SWAP1 CALLER SWAP1 DUP10 SWAP1 DUP9 SWAP1 DUP9 SWAP1 PUSH1 0x4 ADD PUSH2 0x5CD0 JUMP JUMPDEST PUSH1 0x20 PUSH1 0x40 MLOAD DUP1 DUP4 SUB DUP2 PUSH1 0x0 DUP8 GAS CALL SWAP3 POP POP POP DUP1 ISZERO PUSH2 0x4DC0 JUMPI POP PUSH1 0x40 DUP1 MLOAD PUSH1 0x1F RETURNDATASIZE SWAP1 DUP2 ADD PUSH1 0x1F NOT AND DUP3 ADD SWAP1 SWAP3 MSTORE PUSH2 0x4DBD SWAP2 DUP2 ADD SWAP1 PUSH2 0x5D0D JUMP JUMPDEST PUSH1 0x1 JUMPDEST PUSH2 0x4E1D JUMPI RETURNDATASIZE DUP1 DUP1 ISZERO PUSH2 0x4DEE JUMPI PUSH1 0x40 MLOAD SWAP2 POP PUSH1 0x1F NOT PUSH1 0x3F RETURNDATASIZE ADD AND DUP3 ADD PUSH1 0x40 MSTORE RETURNDATASIZE DUP3 MSTORE RETURNDATASIZE PUSH1 0x0 PUSH1 0x20 DUP5 ADD RETURNDATACOPY PUSH2 0x4DF3 JUMP JUMPDEST PUSH1 0x60 SWAP2 POP JUMPDEST POP DUP1 MLOAD PUSH1 0x0 SUB PUSH2 0x4E15 JUMPI PUSH1 0x40 MLOAD PUSH3 0x461BCD PUSH1 0xE5 SHL DUP2 MSTORE PUSH1 0x4 ADD PUSH2 0x10DA SWAP1 PUSH2 0x5C7E JUMP JUMPDEST DUP1 MLOAD DUP2 PUSH1 0x20 ADD REVERT JUMPDEST PUSH1 0x1 PUSH1 0x1 PUSH1 0xE0 SHL SUB NOT AND PUSH4 0xA85BD01 PUSH1 0xE1 SHL EQ SWAP1 POP PUSH2 0x4653 JUMP JUMPDEST POP PUSH1 0x1 SWAP5 SWAP4 POP POP POP POP JUMP JUMPDEST PUSH1 0x0 PUSH1 0x1 PUSH2 0x4E4F DUP5 PUSH2 0x23D3 JUMP JUMPDEST PUSH2 0x4E59 SWAP2 SWAP1 PUSH2 0x593E JUMP JUMPDEST PUSH1 0x0 DUP4 DUP2 MSTORE PUSH1 0x99 PUSH1 0x20 MSTORE PUSH1 0x40 SWAP1 KECCAK256 SLOAD SWAP1 SWAP2 POP DUP1 DUP3 EQ PUSH2 0x4EAC JUMPI PUSH1 0x1 PUSH1 0x1 PUSH1 0xA0 SHL SUB DUP5 AND PUSH1 0x0 SWAP1 DUP2 MSTORE PUSH1 0x98 PUSH1 0x20 SWAP1 DUP2 MSTORE PUSH1 0x40 DUP1 DUP4 KECCAK256 DUP6 DUP5 MSTORE DUP3 MSTORE DUP1 DUP4 KECCAK256 SLOAD DUP5 DUP5 MSTORE DUP2 DUP5 KECCAK256 DUP2 SWAP1 SSTORE DUP4 MSTORE PUSH1 0x99 SWAP1 SWAP2 MSTORE SWAP1 KECCAK256 DUP2 SWAP1 SSTORE JUMPDEST POP PUSH1 0x0 SWAP2 DUP3 MSTORE PUSH1 0x99 PUSH1 0x20 SWAP1 DUP2 MSTORE PUSH1 0x40 DUP1 DUP5 KECCAK256 DUP5 SWAP1 SSTORE PUSH1 0x1 PUSH1 0x1 PUSH1 0xA0 SHL SUB SWAP1 SWAP5 AND DUP4 MSTORE PUSH1 0x98 DUP2 MSTORE DUP4 DUP4 KECCAK256 SWAP2 DUP4 MSTORE MSTORE SWAP1 DUP2 KECCAK256 SSTORE JUMP JUMPDEST PUSH1 0x9A SLOAD PUSH1 0x0 SWAP1 PUSH2 0x4EF1 SWAP1 PUSH1 0x1 SWAP1 PUSH2 0x593E JUMP JUMPDEST PUSH1 0x0 DUP4 DUP2 MSTORE PUSH1 0x9B PUSH1 0x20 MSTORE PUSH1 0x40 DUP2 KECCAK256 SLOAD PUSH1 0x9A DUP1 SLOAD SWAP4 SWAP5 POP SWAP1 SWAP3 DUP5 SWAP1 DUP2 LT PUSH2 0x4F19 JUMPI PUSH2 0x4F19 PUSH2 0x5AD9 JUMP JUMPDEST SWAP1 PUSH1 0x0 MSTORE PUSH1 0x20 PUSH1 0x0 KECCAK256 ADD SLOAD SWAP1 POP DUP1 PUSH1 0x9A DUP4 DUP2 SLOAD DUP2 LT PUSH2 0x4F3A JUMPI PUSH2 0x4F3A PUSH2 0x5AD9 JUMP JUMPDEST PUSH1 0x0 SWAP2 DUP3 MSTORE PUSH1 0x20 DUP1 DUP4 KECCAK256 SWAP1 SWAP2 ADD SWAP3 SWAP1 SWAP3 SSTORE DUP3 DUP2 MSTORE PUSH1 0x9B SWAP1 SWAP2 MSTORE PUSH1 0x40 DUP1 DUP3 KECCAK256 DUP5 SWAP1 SSTORE DUP6 DUP3 MSTORE DUP2 KECCAK256 SSTORE PUSH1 0x9A DUP1 SLOAD DUP1 PUSH2 0x4F72 JUMPI PUSH2 0x4F72 PUSH2 0x5D2A JUMP JUMPDEST PUSH1 0x1 SWAP1 SUB DUP2 DUP2 SWAP1 PUSH1 0x0 MSTORE PUSH1 0x20 PUSH1 0x0 KECCAK256 ADD PUSH1 0x0 SWAP1 SSTORE SWAP1 SSTORE POP POP POP POP JUMP JUMPDEST PUSH1 0x0 PUSH2 0x4F99 DUP4 PUSH2 0x23D3 JUMP JUMPDEST PUSH1 0x1 PUSH1 0x1 PUSH1 0xA0 SHL SUB SWAP1 SWAP4 AND PUSH1 0x0 SWAP1 DUP2 MSTORE PUSH1 0x98 PUSH1 0x20 SWAP1 DUP2 MSTORE PUSH1 0x40 DUP1 DUP4 KECCAK256 DUP7 DUP5 MSTORE DUP3 MSTORE DUP1 DUP4 KECCAK256 DUP6 SWAP1 SSTORE SWAP4 DUP3 MSTORE PUSH1 0x99 SWAP1 MSTORE SWAP2 SWAP1 SWAP2 KECCAK256 SWAP2 SWAP1 SWAP2 SSTORE POP JUMP JUMPDEST POP DUP1 SLOAD PUSH2 0x4FDE SWAP1 PUSH2 0x58B1 JUMP JUMPDEST PUSH1 0x0 DUP3 SSTORE DUP1 PUSH1 0x1F LT PUSH2 0x4FEE JUMPI POP POP JUMP JUMPDEST PUSH1 0x1F ADD PUSH1 0x20 SWAP1 DIV SWAP1 PUSH1 0x0 MSTORE PUSH1 0x20 PUSH1 0x0 KECCAK256 SWAP1 DUP2 ADD SWAP1 PUSH2 0x500C SWAP2 SWAP1 PUSH2 0x500F JUMP JUMPDEST POP JUMP JUMPDEST JUMPDEST DUP1 DUP3 GT ISZERO PUSH2 0x5024 JUMPI PUSH1 0x0 DUP2 SSTORE PUSH1 0x1 ADD PUSH2 0x5010 JUMP JUMPDEST POP SWAP1 JUMP JUMPDEST PUSH1 0x0 PUSH1 0x20 DUP3 DUP5 SUB SLT ISZERO PUSH2 0x503A JUMPI PUSH1 0x0 DUP1 REVERT JUMPDEST POP CALLDATALOAD SWAP2 SWAP1 POP JUMP JUMPDEST PUSH1 0x1 PUSH1 0x1 PUSH1 0xE0 SHL SUB NOT DUP2 AND DUP2 EQ PUSH2 0x500C JUMPI PUSH1 0x0 DUP1 REVERT JUMPDEST PUSH1 0x0 PUSH1 0x20 DUP3 DUP5 SUB SLT ISZERO PUSH2 0x5069 JUMPI PUSH1 0x0 DUP1 REVERT JUMPDEST DUP2 CALLDATALOAD PUSH2 0x5074 DUP2 PUSH2 0x5041 JUMP JUMPDEST SWAP4 SWAP3 POP POP POP JUMP JUMPDEST PUSH1 0x0 DUP2 MLOAD DUP1 DUP5 MSTORE PUSH1 0x0 JUMPDEST DUP2 DUP2 LT ISZERO PUSH2 0x50A1 JUMPI PUSH1 0x20 DUP2 DUP6 ADD DUP2 ADD MLOAD DUP7 DUP4 ADD DUP3 ADD MSTORE ADD PUSH2 0x5085 JUMP JUMPDEST POP PUSH1 0x0 PUSH1 0x20 DUP3 DUP7 ADD ADD MSTORE PUSH1 0x20 PUSH1 0x1F NOT PUSH1 0x1F DUP4 ADD AND DUP6 ADD ADD SWAP2 POP POP SWAP3 SWAP2 POP POP JUMP JUMPDEST PUSH1 0x20 DUP2 MSTORE PUSH1 0x0 PUSH2 0x5074 PUSH1 0x20 DUP4 ADD DUP5 PUSH2 0x507B JUMP JUMPDEST DUP1 CALLDATALOAD PUSH1 0x1 PUSH1 0x1 PUSH1 0xA0 SHL SUB DUP2 AND DUP2 EQ PUSH2 0x50EB JUMPI PUSH1 0x0 DUP1 REVERT JUMPDEST SWAP2 SWAP1 POP JUMP JUMPDEST PUSH1 0x0 DUP1 PUSH1 0x40 DUP4 DUP6 SUB SLT ISZERO PUSH2 0x5103 JUMPI PUSH1 0x0 DUP1 REVERT JUMPDEST PUSH2 0x510C DUP4 PUSH2 0x50D4 JUMP JUMPDEST SWAP5 PUSH1 0x20 SWAP4 SWAP1 SWAP4 ADD CALLDATALOAD SWAP4 POP POP POP JUMP JUMPDEST PUSH1 0x0 DUP1 PUSH1 0x0 DUP1 PUSH1 0x80 DUP6 DUP8 SUB SLT ISZERO PUSH2 0x5130 JUMPI PUSH1 0x0 DUP1 REVERT JUMPDEST DUP5 CALLDATALOAD SWAP4 POP PUSH1 0x20 DUP6 ADD CALLDATALOAD SWAP3 POP PUSH2 0x5147 PUSH1 0x40 DUP7 ADD PUSH2 0x50D4 JUMP JUMPDEST SWAP4 SWAP7 SWAP3 SWAP6 POP SWAP3 SWAP4 PUSH1 0x60 ADD CALLDATALOAD SWAP3 POP POP JUMP JUMPDEST PUSH1 0x0 DUP1 PUSH1 0x0 DUP1 PUSH1 0x0 PUSH1 0x80 DUP7 DUP9 SUB SLT ISZERO PUSH2 0x516F JUMPI PUSH1 0x0 DUP1 REVERT JUMPDEST PUSH2 0x5178 DUP7 PUSH2 0x50D4 JUMP JUMPDEST SWAP5 POP PUSH2 0x5186 PUSH1 0x20 DUP8 ADD PUSH2 0x50D4 JUMP JUMPDEST SWAP4 POP PUSH1 0x40 DUP7 ADD CALLDATALOAD SWAP3 POP PUSH1 0x60 DUP7 ADD CALLDATALOAD PUSH8 0xFFFFFFFFFFFFFFFF DUP1 DUP3 GT ISZERO PUSH2 0x51AA JUMPI PUSH1 0x0 DUP1 REVERT JUMPDEST DUP2 DUP9 ADD SWAP2 POP DUP9 PUSH1 0x1F DUP4 ADD SLT PUSH2 0x51BE JUMPI PUSH1 0x0 DUP1 REVERT JUMPDEST DUP2 CALLDATALOAD DUP2 DUP2 GT ISZERO PUSH2 0x51CD JUMPI PUSH1 0x0 DUP1 REVERT JUMPDEST DUP10 PUSH1 0x20 DUP3 DUP6 ADD ADD GT ISZERO PUSH2 0x51DF JUMPI PUSH1 0x0 DUP1 REVERT JUMPDEST SWAP7 SWAP10 SWAP6 SWAP9 POP SWAP4 SWAP7 POP PUSH1 0x20 ADD SWAP5 SWAP4 SWAP3 POP POP POP JUMP JUMPDEST PUSH1 0x0 PUSH1 0x20 DUP3 DUP5 SUB SLT ISZERO PUSH2 0x5204 JUMPI PUSH1 0x0 DUP1 REVERT JUMPDEST PUSH2 0x5074 DUP3 PUSH2 0x50D4 JUMP JUMPDEST PUSH1 0x0 DUP1 PUSH1 0x0 PUSH1 0x60 DUP5 DUP7 SUB SLT ISZERO PUSH2 0x5222 JUMPI PUSH1 0x0 DUP1 REVERT JUMPDEST PUSH2 0x522B DUP5 PUSH2 0x50D4 JUMP JUMPDEST SWAP3 POP PUSH2 0x5239 PUSH1 0x20 DUP6 ADD PUSH2 0x50D4 JUMP JUMPDEST SWAP2 POP PUSH1 0x40 DUP5 ADD CALLDATALOAD SWAP1 POP SWAP3 POP SWAP3 POP SWAP3 JUMP JUMPDEST PUSH4 0x4E487B71 PUSH1 0xE0 SHL PUSH1 0x0 MSTORE PUSH1 0x41 PUSH1 0x4 MSTORE PUSH1 0x24 PUSH1 0x0 REVERT JUMPDEST PUSH1 0x40 MLOAD PUSH1 0xA0 DUP2 ADD PUSH8 0xFFFFFFFFFFFFFFFF DUP2 GT DUP3 DUP3 LT OR ISZERO PUSH2 0x5282 JUMPI PUSH2 0x5282 PUSH2 0x5249 JUMP JUMPDEST PUSH1 0x40 MSTORE SWAP1 JUMP JUMPDEST PUSH1 0x0 DUP3 PUSH1 0x1F DUP4 ADD SLT PUSH2 0x5299 JUMPI PUSH1 0x0 DUP1 REVERT JUMPDEST DUP2 CALLDATALOAD PUSH8 0xFFFFFFFFFFFFFFFF DUP1 DUP3 GT ISZERO PUSH2 0x52B4 JUMPI PUSH2 0x52B4 PUSH2 0x5249 JUMP JUMPDEST PUSH1 0x40 MLOAD PUSH1 0x1F DUP4 ADD PUSH1 0x1F NOT SWAP1 DUP2 AND PUSH1 0x3F ADD AND DUP2 ADD SWAP1 DUP3 DUP3 GT DUP2 DUP4 LT OR ISZERO PUSH2 0x52DC JUMPI PUSH2 0x52DC PUSH2 0x5249 JUMP JUMPDEST DUP2 PUSH1 0x40 MSTORE DUP4 DUP2 MSTORE DUP7 PUSH1 0x20 DUP6 DUP9 ADD ADD GT ISZERO PUSH2 0x52F5 JUMPI PUSH1 0x0 DUP1 REVERT JUMPDEST DUP4 PUSH1 0x20 DUP8 ADD PUSH1 0x20 DUP4 ADD CALLDATACOPY PUSH1 0x0 PUSH1 0x20 DUP6 DUP4 ADD ADD MSTORE DUP1 SWAP5 POP POP POP POP POP SWAP3 SWAP2 POP POP JUMP JUMPDEST PUSH1 0x0 DUP1 PUSH1 0x0 DUP1 PUSH1 0x0 PUSH1 0xA0 DUP7 DUP9 SUB SLT ISZERO PUSH2 0x532D JUMPI PUSH1 0x0 DUP1 REVERT JUMPDEST DUP6 CALLDATALOAD PUSH8 0xFFFFFFFFFFFFFFFF DUP1 DUP3 GT ISZERO PUSH2 0x5345 JUMPI PUSH1 0x0 DUP1 REVERT JUMPDEST PUSH2 0x5351 DUP10 DUP4 DUP11 ADD PUSH2 0x5288 JUMP JUMPDEST SWAP7 POP PUSH1 0x20 DUP9 ADD CALLDATALOAD SWAP6 POP PUSH1 0x40 DUP9 ADD CALLDATALOAD SWAP2 POP DUP1 DUP3 GT ISZERO PUSH2 0x536E JUMPI PUSH1 0x0 DUP1 REVERT JUMPDEST POP PUSH2 0x537B DUP9 DUP3 DUP10 ADD PUSH2 0x5288 JUMP JUMPDEST SWAP4 POP POP PUSH2 0x538A PUSH1 0x60 DUP8 ADD PUSH2 0x50D4 JUMP JUMPDEST SWAP5 SWAP8 SWAP4 SWAP7 POP SWAP2 SWAP5 PUSH1 0x80 ADD CALLDATALOAD SWAP3 SWAP2 POP POP JUMP JUMPDEST PUSH1 0x0 DUP1 PUSH1 0x40 DUP4 DUP6 SUB SLT ISZERO PUSH2 0x53AE JUMPI PUSH1 0x0 DUP1 REVERT JUMPDEST POP POP DUP1 CALLDATALOAD SWAP3 PUSH1 0x20 SWAP1 SWAP2 ADD CALLDATALOAD SWAP2 POP JUMP JUMPDEST PUSH1 0x0 DUP1 PUSH1 0x0 DUP1 PUSH1 0x0 PUSH1 0xA0 DUP7 DUP9 SUB SLT ISZERO PUSH2 0x53D5 JUMPI PUSH1 0x0 DUP1 REVERT JUMPDEST DUP6 CALLDATALOAD SWAP5 POP PUSH2 0x53E5 PUSH1 0x20 DUP8 ADD PUSH2 0x50D4 JUMP JUMPDEST SWAP4 POP PUSH1 0x40 DUP7 ADD CALLDATALOAD SWAP3 POP PUSH2 0x53FA PUSH1 0x60 DUP8 ADD PUSH2 0x50D4 JUMP JUMPDEST SWAP2 POP PUSH2 0x5408 PUSH1 0x80 DUP8 ADD PUSH2 0x50D4 JUMP JUMPDEST SWAP1 POP SWAP3 SWAP6 POP SWAP3 SWAP6 SWAP1 SWAP4 POP JUMP JUMPDEST PUSH1 0x0 DUP1 PUSH1 0x0 DUP1 PUSH1 0x80 DUP6 DUP8 SUB SLT ISZERO PUSH2 0x542A JUMPI PUSH1 0x0 DUP1 REVERT JUMPDEST PUSH2 0x5433 DUP6 PUSH2 0x50D4 JUMP JUMPDEST SWAP4 POP PUSH1 0x20 DUP6 ADD CALLDATALOAD PUSH8 0xFFFFFFFFFFFFFFFF DUP1 DUP3 GT ISZERO PUSH2 0x5450 JUMPI PUSH1 0x0 DUP1 REVERT JUMPDEST PUSH2 0x545C DUP9 DUP4 DUP10 ADD PUSH2 0x5288 JUMP JUMPDEST SWAP5 POP PUSH1 0x40 DUP8 ADD CALLDATALOAD SWAP2 POP DUP1 DUP3 GT ISZERO PUSH2 0x5472 JUMPI PUSH1 0x0 DUP1 REVERT JUMPDEST POP PUSH2 0x547F DUP8 DUP3 DUP9 ADD PUSH2 0x5288 JUMP JUMPDEST SWAP3 POP POP PUSH2 0x548E PUSH1 0x60 DUP7 ADD PUSH2 0x50D4 JUMP JUMPDEST SWAP1 POP SWAP3 SWAP6 SWAP2 SWAP5 POP SWAP3 POP JUMP JUMPDEST PUSH1 0x0 DUP1 PUSH1 0x40 DUP4 DUP6 SUB SLT ISZERO PUSH2 0x54AC JUMPI PUSH1 0x0 DUP1 REVERT JUMPDEST DUP3 CALLDATALOAD SWAP2 POP PUSH1 0x20 DUP4 ADD CALLDATALOAD PUSH8 0xFFFFFFFFFFFFFFFF DUP2 GT ISZERO PUSH2 0x54CA JUMPI PUSH1 0x0 DUP1 REVERT JUMPDEST PUSH2 0x54D6 DUP6 DUP3 DUP7 ADD PUSH2 0x5288 JUMP JUMPDEST SWAP2 POP POP SWAP3 POP SWAP3 SWAP1 POP JUMP JUMPDEST DUP1 ISZERO ISZERO DUP2 EQ PUSH2 0x500C JUMPI PUSH1 0x0 DUP1 REVERT JUMPDEST PUSH1 0x0 DUP1 PUSH1 0x0 PUSH1 0x60 DUP5 DUP7 SUB SLT ISZERO PUSH2 0x5503 JUMPI PUSH1 0x0 DUP1 REVERT JUMPDEST DUP4 CALLDATALOAD SWAP3 POP PUSH1 0x20 DUP5 ADD CALLDATALOAD SWAP2 POP PUSH1 0x40 DUP5 ADD CALLDATALOAD PUSH8 0xFFFFFFFFFFFFFFFF DUP1 DUP3 GT ISZERO PUSH2 0x5529 JUMPI PUSH1 0x0 DUP1 REVERT JUMPDEST SWAP1 DUP6 ADD SWAP1 PUSH1 0xA0 DUP3 DUP9 SUB SLT ISZERO PUSH2 0x553D JUMPI PUSH1 0x0 DUP1 REVERT JUMPDEST PUSH2 0x5545 PUSH2 0x525F JUMP JUMPDEST DUP3 CALLDATALOAD PUSH2 0x5550 DUP2 PUSH2 0x54E0 JUMP JUMPDEST DUP2 MSTORE PUSH1 0x20 DUP4 ADD CALLDATALOAD PUSH2 0x5560 DUP2 PUSH2 0x54E0 JUMP JUMPDEST PUSH1 0x20 DUP3 ADD MSTORE PUSH1 0x40 DUP4 ADD CALLDATALOAD DUP3 DUP2 GT ISZERO PUSH2 0x5577 JUMPI PUSH1 0x0 DUP1 REVERT JUMPDEST PUSH2 0x5583 DUP10 DUP3 DUP7 ADD PUSH2 0x5288 JUMP JUMPDEST PUSH1 0x40 DUP4 ADD MSTORE POP PUSH2 0x5595 PUSH1 0x60 DUP5 ADD PUSH2 0x50D4 JUMP JUMPDEST PUSH1 0x60 DUP3 ADD MSTORE PUSH1 0x80 DUP4 ADD CALLDATALOAD DUP3 DUP2 GT ISZERO PUSH2 0x55AC JUMPI PUSH1 0x0 DUP1 REVERT JUMPDEST PUSH2 0x55B8 DUP10 DUP3 DUP7 ADD PUSH2 0x5288 JUMP JUMPDEST PUSH1 0x80 DUP4 ADD MSTORE POP DUP1 SWAP4 POP POP POP POP SWAP3 POP SWAP3 POP SWAP3 JUMP JUMPDEST PUSH1 0x0 DUP1 PUSH1 0x0 PUSH1 0x60 DUP5 DUP7 SUB SLT ISZERO PUSH2 0x55E0 JUMPI PUSH1 0x0 DUP1 REVERT JUMPDEST PUSH2 0x55E9 DUP5 PUSH2 0x50D4 JUMP JUMPDEST SWAP6 PUSH1 0x20 DUP6 ADD CALLDATALOAD SWAP6 POP PUSH1 0x40 SWAP1 SWAP5 ADD CALLDATALOAD SWAP4 SWAP3 POP POP POP JUMP JUMPDEST PUSH1 0x0 DUP1 PUSH1 0x0 PUSH1 0x60 DUP5 DUP7 SUB SLT ISZERO PUSH2 0x5613 JUMPI PUSH1 0x0 DUP1 REVERT JUMPDEST DUP4 CALLDATALOAD SWAP3 POP PUSH1 0x20 DUP5 ADD CALLDATALOAD SWAP2 POP PUSH1 0x40 DUP5 ADD CALLDATALOAD PUSH2 0x562C DUP2 PUSH2 0x54E0 JUMP JUMPDEST DUP1 SWAP2 POP POP SWAP3 POP SWAP3 POP SWAP3 JUMP JUMPDEST PUSH1 0x0 DUP1 PUSH1 0x40 DUP4 DUP6 SUB SLT ISZERO PUSH2 0x564A JUMPI PUSH1 0x0 DUP1 REVERT JUMPDEST PUSH2 0x5653 DUP4 PUSH2 0x50D4 JUMP JUMPDEST SWAP2 POP PUSH1 0x20 DUP4 ADD CALLDATALOAD PUSH2 0x5663 DUP2 PUSH2 0x54E0 JUMP JUMPDEST DUP1 SWAP2 POP POP SWAP3 POP SWAP3 SWAP1 POP JUMP JUMPDEST PUSH1 0x20 DUP2 MSTORE DUP2 MLOAD ISZERO ISZERO PUSH1 0x20 DUP3 ADD MSTORE PUSH1 0x20 DUP3 ADD MLOAD ISZERO ISZERO PUSH1 0x40 DUP3 ADD MSTORE PUSH1 0x0 PUSH1 0x40 DUP4 ADD MLOAD PUSH1 0xA0 PUSH1 0x60 DUP5 ADD MSTORE PUSH2 0x56A2 PUSH1 0xC0 DUP5 ADD DUP3 PUSH2 0x507B JUMP JUMPDEST PUSH1 0x60 DUP6 ADD MLOAD PUSH1 0x1 PUSH1 0x1 PUSH1 0xA0 SHL SUB AND PUSH1 0x80 DUP6 DUP2 ADD SWAP2 SWAP1 SWAP2 MSTORE DUP6 ADD MLOAD DUP5 DUP3 SUB PUSH1 0x1F NOT ADD PUSH1 0xA0 DUP7 ADD MSTORE SWAP1 SWAP2 POP PUSH2 0x56D5 DUP3 DUP3 PUSH2 0x507B JUMP JUMPDEST SWAP6 SWAP5 POP POP POP POP POP JUMP JUMPDEST PUSH1 0x0 DUP1 PUSH1 0x0 PUSH1 0x60 DUP5 DUP7 SUB SLT ISZERO PUSH2 0x56F3 JUMPI PUSH1 0x0 DUP1 REVERT JUMPDEST DUP4 CALLDATALOAD SWAP3 POP PUSH1 0x20 DUP5 ADD CALLDATALOAD SWAP2 POP PUSH2 0x570A PUSH1 0x40 DUP6 ADD PUSH2 0x50D4 JUMP JUMPDEST SWAP1 POP SWAP3 POP SWAP3 POP SWAP3 JUMP JUMPDEST PUSH1 0x0 DUP1 PUSH1 0x0 DUP1 PUSH1 0x80 DUP6 DUP8 SUB SLT ISZERO PUSH2 0x5729 JUMPI PUSH1 0x0 DUP1 REVERT JUMPDEST DUP5 CALLDATALOAD SWAP4 POP PUSH1 0x20 DUP6 ADD CALLDATALOAD SWAP3 POP PUSH2 0x5740 PUSH1 0x40 DUP7 ADD PUSH2 0x50D4 JUMP JUMPDEST SWAP2 POP PUSH2 0x548E PUSH1 0x60 DUP7 ADD PUSH2 0x50D4 JUMP JUMPDEST PUSH1 0x0 DUP1 PUSH1 0x0 DUP1 PUSH1 0x80 DUP6 DUP8 SUB SLT ISZERO PUSH2 0x5764 JUMPI PUSH1 0x0 DUP1 REVERT JUMPDEST DUP5 CALLDATALOAD SWAP4 POP PUSH2 0x5774 PUSH1 0x20 DUP7 ADD PUSH2 0x50D4 JUMP JUMPDEST SWAP3 POP PUSH1 0x40 DUP6 ADD CALLDATALOAD SWAP2 POP PUSH2 0x548E PUSH1 0x60 DUP7 ADD PUSH2 0x50D4 JUMP JUMPDEST PUSH1 0x0 DUP1 PUSH1 0x40 DUP4 DUP6 SUB SLT ISZERO PUSH2 0x579C JUMPI PUSH1 0x0 DUP1 REVERT JUMPDEST DUP3 CALLDATALOAD SWAP2 POP PUSH1 0x20 DUP4 ADD CALLDATALOAD PUSH1 0xFF DUP2 AND DUP2 EQ PUSH2 0x5663 JUMPI PUSH1 0x0 DUP1 REVERT JUMPDEST PUSH1 0x0 DUP1 PUSH1 0x0 PUSH1 0x60 DUP5 DUP7 SUB SLT ISZERO PUSH2 0x57C9 JUMPI PUSH1 0x0 DUP1 REVERT JUMPDEST POP POP DUP2 CALLDATALOAD SWAP4 PUSH1 0x20 DUP4 ADD CALLDATALOAD SWAP4 POP PUSH1 0x40 SWAP1 SWAP3 ADD CALLDATALOAD SWAP2 SWAP1 POP JUMP JUMPDEST PUSH1 0x0 DUP1 PUSH1 0x0 PUSH1 0x60 DUP5 DUP7 SUB SLT ISZERO PUSH2 0x57F5 JUMPI PUSH1 0x0 DUP1 REVERT JUMPDEST PUSH2 0x57FE DUP5 PUSH2 0x50D4 JUMP JUMPDEST SWAP3 POP PUSH1 0x20 DUP5 ADD CALLDATALOAD SWAP2 POP PUSH1 0x40 DUP5 ADD CALLDATALOAD PUSH2 0x562C DUP2 PUSH2 0x54E0 JUMP JUMPDEST PUSH1 0x0 DUP1 PUSH1 0x0 DUP1 PUSH1 0x80 DUP6 DUP8 SUB SLT ISZERO PUSH2 0x582B JUMPI PUSH1 0x0 DUP1 REVERT JUMPDEST DUP5 CALLDATALOAD SWAP4 POP PUSH1 0x20 DUP6 ADD CALLDATALOAD SWAP3 POP PUSH1 0x40 DUP6 ADD CALLDATALOAD SWAP2 POP PUSH2 0x548E PUSH1 0x60 DUP7 ADD PUSH2 0x50D4 JUMP JUMPDEST PUSH1 0x0 DUP1 PUSH1 0x40 DUP4 DUP6 SUB SLT ISZERO PUSH2 0x585C JUMPI PUSH1 0x0 DUP1 REVERT JUMPDEST PUSH2 0x5865 DUP4 PUSH2 0x50D4 JUMP JUMPDEST SWAP2 POP PUSH2 0x5873 PUSH1 0x20 DUP5 ADD PUSH2 0x50D4 JUMP JUMPDEST SWAP1 POP SWAP3 POP SWAP3 SWAP1 POP JUMP JUMPDEST PUSH2 0xFFFF DUP2 AND DUP2 EQ PUSH2 0x500C JUMPI PUSH1 0x0 DUP1 REVERT JUMPDEST PUSH1 0x0 DUP1 PUSH1 0x40 DUP4 DUP6 SUB SLT ISZERO PUSH2 0x589F JUMPI PUSH1 0x0 DUP1 REVERT JUMPDEST DUP3 CALLDATALOAD SWAP2 POP PUSH1 0x20 DUP4 ADD CALLDATALOAD PUSH2 0x5663 DUP2 PUSH2 0x587C JUMP JUMPDEST PUSH1 0x1 DUP2 DUP2 SHR SWAP1 DUP3 AND DUP1 PUSH2 0x58C5 JUMPI PUSH1 0x7F DUP3 AND SWAP2 POP JUMPDEST PUSH1 0x20 DUP3 LT DUP2 SUB PUSH2 0x2C0F JUMPI PUSH4 0x4E487B71 PUSH1 0xE0 SHL PUSH1 0x0 MSTORE PUSH1 0x22 PUSH1 0x4 MSTORE PUSH1 0x24 PUSH1 0x0 REVERT JUMPDEST PUSH1 0x20 DUP1 DUP3 MSTORE PUSH1 0x9 SWAP1 DUP3 ADD MSTORE PUSH9 0x1B9BC81C195C9B5A5D PUSH1 0xBA SHL PUSH1 0x40 DUP3 ADD MSTORE PUSH1 0x60 ADD SWAP1 JUMP JUMPDEST PUSH1 0x20 DUP1 DUP3 MSTORE PUSH1 0x6 SWAP1 DUP3 ADD MSTORE PUSH6 0x1B9BC818985B PUSH1 0xD2 SHL PUSH1 0x40 DUP3 ADD MSTORE PUSH1 0x60 ADD SWAP1 JUMP JUMPDEST PUSH4 0x4E487B71 PUSH1 0xE0 SHL PUSH1 0x0 MSTORE PUSH1 0x11 PUSH1 0x4 MSTORE PUSH1 0x24 PUSH1 0x0 REVERT JUMPDEST DUP2 DUP2 SUB DUP2 DUP2 GT ISZERO PUSH2 0xF99 JUMPI PUSH2 0xF99 PUSH2 0x5928 JUMP JUMPDEST DUP1 DUP3 ADD DUP1 DUP3 GT ISZERO PUSH2 0xF99 JUMPI PUSH2 0xF99 PUSH2 0x5928 JUMP JUMPDEST DUP1 DUP3 MUL DUP2 ISZERO DUP3 DUP3 DIV DUP5 EQ OR PUSH2 0xF99 JUMPI PUSH2 0xF99 PUSH2 0x5928 JUMP JUMPDEST PUSH1 0x0 DUP3 PUSH2 0x5998 JUMPI PUSH4 0x4E487B71 PUSH1 0xE0 SHL PUSH1 0x0 MSTORE PUSH1 0x12 PUSH1 0x4 MSTORE PUSH1 0x24 PUSH1 0x0 REVERT JUMPDEST POP DIV SWAP1 JUMP JUMPDEST PUSH1 0x0 PUSH1 0x1 DUP3 ADD PUSH2 0x59AF JUMPI PUSH2 0x59AF PUSH2 0x5928 JUMP JUMPDEST POP PUSH1 0x1 ADD SWAP1 JUMP JUMPDEST PUSH1 0x1F DUP3 GT ISZERO PUSH2 0x117B JUMPI PUSH1 0x0 DUP2 DUP2 MSTORE PUSH1 0x20 DUP2 KECCAK256 PUSH1 0x1F DUP6 ADD PUSH1 0x5 SHR DUP2 ADD PUSH1 0x20 DUP7 LT ISZERO PUSH2 0x59DD JUMPI POP DUP1 JUMPDEST PUSH1 0x1F DUP6 ADD PUSH1 0x5 SHR DUP3 ADD SWAP2 POP JUMPDEST DUP2 DUP2 LT ISZERO PUSH2 0x1740 JUMPI DUP3 DUP2 SSTORE PUSH1 0x1 ADD PUSH2 0x59E9 JUMP JUMPDEST DUP2 MLOAD PUSH8 0xFFFFFFFFFFFFFFFF DUP2 GT ISZERO PUSH2 0x5A16 JUMPI PUSH2 0x5A16 PUSH2 0x5249 JUMP JUMPDEST PUSH2 0x5A2A DUP2 PUSH2 0x5A24 DUP5 SLOAD PUSH2 0x58B1 JUMP JUMPDEST DUP5 PUSH2 0x59B6 JUMP JUMPDEST PUSH1 0x20 DUP1 PUSH1 0x1F DUP4 GT PUSH1 0x1 DUP2 EQ PUSH2 0x5A5F JUMPI PUSH1 0x0 DUP5 ISZERO PUSH2 0x5A47 JUMPI POP DUP6 DUP4 ADD MLOAD JUMPDEST PUSH1 0x0 NOT PUSH1 0x3 DUP7 SWAP1 SHL SHR NOT AND PUSH1 0x1 DUP6 SWAP1 SHL OR DUP6 SSTORE PUSH2 0x1740 JUMP JUMPDEST PUSH1 0x0 DUP6 DUP2 MSTORE PUSH1 0x20 DUP2 KECCAK256 PUSH1 0x1F NOT DUP7 AND SWAP2 JUMPDEST DUP3 DUP2 LT ISZERO PUSH2 0x5A8E JUMPI DUP9 DUP7 ADD MLOAD DUP3 SSTORE SWAP5 DUP5 ADD SWAP5 PUSH1 0x1 SWAP1 SWAP2 ADD SWAP1 DUP5 ADD PUSH2 0x5A6F JUMP JUMPDEST POP DUP6 DUP3 LT ISZERO PUSH2 0x5AAC JUMPI DUP8 DUP6 ADD MLOAD PUSH1 0x0 NOT PUSH1 0x3 DUP9 SWAP1 SHL PUSH1 0xF8 AND SHR NOT AND DUP2 SSTORE JUMPDEST POP POP POP POP POP PUSH1 0x1 SWAP1 DUP2 SHL ADD SWAP1 SSTORE POP JUMP JUMPDEST PUSH1 0x0 PUSH1 0x20 DUP3 DUP5 SUB SLT ISZERO PUSH2 0x5ACE JUMPI PUSH1 0x0 DUP1 REVERT JUMPDEST DUP2 MLOAD PUSH2 0x5074 DUP2 PUSH2 0x587C JUMP JUMPDEST PUSH4 0x4E487B71 PUSH1 0xE0 SHL PUSH1 0x0 MSTORE PUSH1 0x32 PUSH1 0x4 MSTORE PUSH1 0x24 PUSH1 0x0 REVERT JUMPDEST PUSH1 0x0 PUSH1 0x20 DUP3 DUP5 SUB SLT ISZERO PUSH2 0x5B01 JUMPI PUSH1 0x0 DUP1 REVERT JUMPDEST DUP2 MLOAD PUSH2 0x5074 DUP2 PUSH2 0x54E0 JUMP JUMPDEST PUSH1 0x20 DUP1 DUP3 MSTORE PUSH1 0xF SWAP1 DUP3 ADD MSTORE PUSH15 0x1B9BDB88195E1A5CDD195B9D081A59 PUSH1 0x8A SHL PUSH1 0x40 DUP3 ADD MSTORE PUSH1 0x60 ADD SWAP1 JUMP JUMPDEST PUSH1 0x0 PUSH1 0x20 DUP3 DUP5 SUB SLT ISZERO PUSH2 0x5B47 JUMPI PUSH1 0x0 DUP1 REVERT JUMPDEST POP MLOAD SWAP2 SWAP1 POP JUMP JUMPDEST PUSH1 0x20 DUP1 DUP3 MSTORE PUSH1 0x8 SWAP1 DUP3 ADD MSTORE PUSH8 0x6E65656420666565 PUSH1 0xC0 SHL PUSH1 0x40 DUP3 ADD MSTORE PUSH1 0x60 ADD SWAP1 JUMP JUMPDEST PUSH1 0x1 PUSH1 0x1 PUSH1 0xA0 SHL SUB SWAP4 DUP5 AND DUP2 MSTORE SWAP2 SWAP1 SWAP3 AND PUSH1 0x20 DUP3 ADD MSTORE PUSH1 0x40 DUP2 ADD SWAP2 SWAP1 SWAP2 MSTORE PUSH1 0x60 ADD SWAP1 JUMP JUMPDEST PUSH1 0x20 DUP1 DUP3 MSTORE PUSH1 0x21 SWAP1 DUP3 ADD MSTORE PUSH32 0x6E6F2061636365737320746F20736C6F74206F722064656C6574656420736C6F PUSH1 0x40 DUP3 ADD MSTORE PUSH1 0x1D PUSH1 0xFA SHL PUSH1 0x60 DUP3 ADD MSTORE PUSH1 0x80 ADD SWAP1 JUMP JUMPDEST PUSH1 0xFF DUP2 DUP2 AND DUP4 DUP3 AND ADD SWAP1 DUP2 GT ISZERO PUSH2 0xF99 JUMPI PUSH2 0xF99 PUSH2 0x5928 JUMP JUMPDEST PUSH1 0x20 DUP1 DUP3 MSTORE PUSH1 0x25 SWAP1 DUP3 ADD MSTORE PUSH32 0x4552433732313A207472616E736665722066726F6D20696E636F727265637420 PUSH1 0x40 DUP3 ADD MSTORE PUSH5 0x37BBB732B9 PUSH1 0xD9 SHL PUSH1 0x60 DUP3 ADD MSTORE PUSH1 0x80 ADD SWAP1 JUMP JUMPDEST PUSH1 0x20 DUP1 DUP3 MSTORE PUSH1 0x2B SWAP1 DUP3 ADD MSTORE PUSH32 0x496E697469616C697A61626C653A20636F6E7472616374206973206E6F742069 PUSH1 0x40 DUP3 ADD MSTORE PUSH11 0x6E697469616C697A696E67 PUSH1 0xA8 SHL PUSH1 0x60 DUP3 ADD MSTORE PUSH1 0x80 ADD SWAP1 JUMP JUMPDEST PUSH1 0x20 DUP1 DUP3 MSTORE PUSH1 0x32 SWAP1 DUP3 ADD MSTORE PUSH32 0x4552433732313A207472616E7366657220746F206E6F6E204552433732315265 PUSH1 0x40 DUP3 ADD MSTORE PUSH18 0x31B2B4BB32B91034B6B83632B6B2B73A32B9 PUSH1 0x71 SHL PUSH1 0x60 DUP3 ADD MSTORE PUSH1 0x80 ADD SWAP1 JUMP JUMPDEST PUSH1 0x1 PUSH1 0x1 PUSH1 0xA0 SHL SUB DUP6 DUP2 AND DUP3 MSTORE DUP5 AND PUSH1 0x20 DUP3 ADD MSTORE PUSH1 0x40 DUP2 ADD DUP4 SWAP1 MSTORE PUSH1 0x80 PUSH1 0x60 DUP3 ADD DUP2 SWAP1 MSTORE PUSH1 0x0 SWAP1 PUSH2 0x5D03 SWAP1 DUP4 ADD DUP5 PUSH2 0x507B JUMP JUMPDEST SWAP7 SWAP6 POP POP POP POP POP POP JUMP JUMPDEST PUSH1 0x0 PUSH1 0x20 DUP3 DUP5 SUB SLT ISZERO PUSH2 0x5D1F JUMPI PUSH1 0x0 DUP1 REVERT JUMPDEST DUP2 MLOAD PUSH2 0x5074 DUP2 PUSH2 0x5041 JUMP JUMPDEST PUSH4 0x4E487B71 PUSH1 0xE0 SHL PUSH1 0x0 MSTORE PUSH1 0x31 PUSH1 0x4 MSTORE PUSH1 0x24 PUSH1 0x0 REVERT INVALID KECCAK256 PUSH26 0x1B593A776A2631A28F4A3F62A14AD18DB22ADD38130C4F4A8FDF LOG4 PUSH4 0x9885A264 PUSH10 0x70667358221220BC7C4D 0xC6 0xDE 0xD0 0xBC LOG3 SWAP16 0xB9 0xF7 NOT 0xEB PUSH8 0xDD427C7AEBCD7926 0xAD 0x22 BALANCE 0xE9 0xD9 PUSH5 0xBCB0ABA664 PUSH20 0x6F6C634300081100330000000000000000000000 "
		},
		"gasEstimates": {
			"creation": {
				"codeDepositCost": "4791600",
				"executionCost": "27746",
				"totalCost": "4819346"
			},
			"external": {
				"__fx__()": "24479",
				"_owner()": "2470",
				"_zonepassmaps(uint256)": "19718",
				"addModule(address)": "26863",
				"addToStorage(string,uint256,bytes,address,uint256)": "infinite",
				"approve(address,uint256)": "infinite",
				"balanceOf(address)": "2656",
				"boostPass(uint256,uint256)": "infinite",
				"cachePermits(address,uint256)": "2714",
				"changeDirectFee(uint256)": "24533",
				"contractAccruedFee(address)": "2609",
				"contractPay_(address,uint256,uint256)": "infinite",
				"decrementServices(uint256,uint256)": "26999",
				"delFromStorage(uint256,uint256,address)": "infinite",
				"deleteCache(uint256,uint256)": "infinite",
				"deposit(uint256,address,uint256,address)": "infinite",
				"depositEth(uint256,uint256)": "infinite",
				"extendPassTime(uint256,uint256)": "infinite",
				"getActiveChain(uint256)": "2611",
				"getApproved(uint256)": "4879",
				"getFeeId()": "327",
				"getFeeToken()": "2421",
				"getIdBalance(address,uint256)": "2733",
				"getIdPoints(uint256)": "2513",
				"getInitializer()": "2444",
				"getMintChain(uint256)": "2633",
				"getMinter(uint256)": "2545",
				"getRecoveryFee()": "2566",
				"getRevenueData(uint256)": "2610",
				"getSlotsUsed(uint256)": "2687",
				"getStorage(address,uint256,uint256)": "infinite",
				"getWeeklyFee()": "4558",
				"haveStorageAccess(address,uint256,uint256)": "2821",
				"idToId(uint256,uint256,address,uint256)": "infinite",
				"increaseMaxShare(uint256,uint256,uint256,address)": "29454",
				"increaseSlots(uint256,uint256)": "29135",
				"incrementServices(uint256,uint256)": "26933",
				"initialize(address,string,string,address)": "infinite",
				"isApprovedForAll(address,address)": "infinite",
				"isCacheUsed(uint256,uint256)": "2645",
				"isExpired(uint256)": "2583",
				"lzEndpoint()": "2492",
				"mint(address,uint256)": "infinite",
				"modules(address)": "2598",
				"name()": "infinite",
				"onERC721Received(address,address,uint256,bytes)": "infinite",
				"owner()": "2465",
				"ownerOf(uint256)": "2666",
				"permitCacheSlot(address,uint256,bool)": "51521",
				"processContractId__(address)": "34229",
				"readCache(uint256,uint256)": "infinite",
				"recoverData(uint256,uint256,bool)": "66492",
				"removeModule(address)": "26856",
				"removeShare(uint256,uint256,address)": "infinite",
				"revenueData(uint256)": "2609",
				"setActiveChain(uint256,uint16)": "26949",
				"setApprovalForAll(address,bool)": "26846",
				"setDirectFee(uint256)": "24576",
				"setFeeToken(address)": "26868",
				"setLzPoint(address)": "26779",
				"setPointsM(uint256)": "24619",
				"setRev(uint256,uint8)": "infinite",
				"setUri(uint256,string)": "infinite",
				"shareStorage(uint256,uint256,address)": "infinite",
				"storageViewAccess(uint256)": "4734",
				"supportsInterface(bytes4)": "infinite",
				"symbol()": "infinite",
				"tokenByIndex(uint256)": "6805",
				"tokenOfOwnerByIndex(address,uint256)": "5086",
				"tokenURI(uint256)": "infinite",
				"totalSupply()": "2383",
				"transferFrom(address,address,uint256)": "infinite",
				"transferOwnership(address)": "26777",
				"transferPoints(uint256,uint256,uint256)": "infinite",
				"withdraw(uint256,address,uint256,address,address)": "infinite",
				"withdrawEth(uint256,uint256,address,address)": "infinite",
				"withdrawRevenueErc(address,uint256)": "infinite",
				"withdrawRevenueEth(uint256)": "infinite",
				"writeCache(uint256,uint256,(bool,bool,string,address,bytes))": "infinite"
			},
			"internal": {
				"_beforeTokenTransfer(address,address,uint256,uint256)": "infinite",
				"_burn(uint256)": "infinite",
				"incrementTotalServices(uint256)": "26546"
			}
		},
		"methodIdentifiers": {
			"__fx__()": "2769a8b4",
			"_owner()": "b2bdfa7b",
			"_zonepassmaps(uint256)": "009c47a0",
			"addModule(address)": "1ed86f19",
			"addToStorage(string,uint256,bytes,address,uint256)": "2a57f056",
			"approve(address,uint256)": "095ea7b3",
			"balanceOf(address)": "70a08231",
			"boostPass(uint256,uint256)": "999ebe55",
			"cachePermits(address,uint256)": "8b04fa87",
			"changeDirectFee(uint256)": "3bf7e8f4",
			"contractAccruedFee(address)": "9e402dd6",
			"contractPay_(address,uint256,uint256)": "e9f040d2",
			"decrementServices(uint256,uint256)": "5557b279",
			"delFromStorage(uint256,uint256,address)": "ec49fda0",
			"deleteCache(uint256,uint256)": "47e0a8f7",
			"deposit(uint256,address,uint256,address)": "cd88af6e",
			"depositEth(uint256,uint256)": "ed50aeb9",
			"extendPassTime(uint256,uint256)": "8b973040",
			"getActiveChain(uint256)": "1fe48ac7",
			"getApproved(uint256)": "081812fc",
			"getFeeId()": "816032e0",
			"getFeeToken()": "ca709a25",
			"getIdBalance(address,uint256)": "0f9e8bc0",
			"getIdPoints(uint256)": "17cb2eac",
			"getInitializer()": "3e104a95",
			"getMintChain(uint256)": "40ee9b32",
			"getMinter(uint256)": "5b7121f8",
			"getRecoveryFee()": "228d0fd9",
			"getRevenueData(uint256)": "7e317744",
			"getSlotsUsed(uint256)": "7504c971",
			"getStorage(address,uint256,uint256)": "a26966fb",
			"getWeeklyFee()": "3d654199",
			"haveStorageAccess(address,uint256,uint256)": "7907d11c",
			"idToId(uint256,uint256,address,uint256)": "13579820",
			"increaseMaxShare(uint256,uint256,uint256,address)": "e4cf3b28",
			"increaseSlots(uint256,uint256)": "fd71ca47",
			"incrementServices(uint256,uint256)": "864018b7",
			"initialize(address,string,string,address)": "613d25bb",
			"isApprovedForAll(address,address)": "e985e9c5",
			"isCacheUsed(uint256,uint256)": "71bac4cf",
			"isExpired(uint256)": "d9548e53",
			"lzEndpoint()": "b353aaa7",
			"mint(address,uint256)": "40c10f19",
			"modules(address)": "a8ee49fe",
			"name()": "06fdde03",
			"onERC721Received(address,address,uint256,bytes)": "150b7a02",
			"owner()": "8da5cb5b",
			"ownerOf(uint256)": "6352211e",
			"permitCacheSlot(address,uint256,bool)": "df39049a",
			"processContractId__(address)": "cdd352ff",
			"readCache(uint256,uint256)": "ff718c91",
			"recoverData(uint256,uint256,bool)": "7adcb9a2",
			"removeModule(address)": "a0632461",
			"removeShare(uint256,uint256,address)": "db2c6dd9",
			"revenueData(uint256)": "64cff5b7",
			"setActiveChain(uint256,uint16)": "f5a482e0",
			"setApprovalForAll(address,bool)": "a22cb465",
			"setDirectFee(uint256)": "514d5b96",
			"setFeeToken(address)": "15cce224",
			"setLzPoint(address)": "232b809f",
			"setPointsM(uint256)": "f101d8d2",
			"setRev(uint256,uint8)": "d27ab81d",
			"setUri(uint256,string)": "782f08ae",
			"shareStorage(uint256,uint256,address)": "a9d36f5b",
			"storageViewAccess(uint256)": "8318dea3",
			"supportsInterface(bytes4)": "01ffc9a7",
			"symbol()": "95d89b41",
			"tokenByIndex(uint256)": "4f6ccce7",
			"tokenOfOwnerByIndex(address,uint256)": "2f745c59",
			"tokenURI(uint256)": "c87b56dd",
			"totalSupply()": "18160ddd",
			"transferFrom(address,address,uint256)": "23b872dd",
			"transferOwnership(address)": "f2fde38b",
			"transferPoints(uint256,uint256,uint256)": "d4a01b02",
			"withdraw(uint256,address,uint256,address,address)": "5fdd03a2",
			"withdrawEth(uint256,uint256,address,address)": "b2034d23",
			"withdrawRevenueErc(address,uint256)": "563a14b0",
			"withdrawRevenueEth(uint256)": "f75535f5",
			"writeCache(uint256,uint256,(bool,bool,string,address,bytes))": "78a4cb0f"
		}
	},
	"abi": [
		{
			"anonymous": false,
			"inputs": [
				{
					"indexed": true,
					"internalType": "address",
					"name": "owner",
					"type": "address"
				},
				{
					"indexed": true,
					"internalType": "address",
					"name": "approved",
					"type": "address"
				},
				{
					"indexed": true,
					"internalType": "uint256",
					"name": "tokenId",
					"type": "uint256"
				}
			],
			"name": "Approval",
			"type": "event"
		},
		{
			"anonymous": false,
			"inputs": [
				{
					"indexed": true,
					"internalType": "address",
					"name": "owner",
					"type": "address"
				},
				{
					"indexed": true,
					"internalType": "address",
					"name": "operator",
					"type": "address"
				},
				{
					"indexed": false,
					"internalType": "bool",
					"name": "approved",
					"type": "bool"
				}
			],
			"name": "ApprovalForAll",
			"type": "event"
		},
		{
			"anonymous": false,
			"inputs": [
				{
					"indexed": false,
					"internalType": "uint8",
					"name": "version",
					"type": "uint8"
				}
			],
			"name": "Initialized",
			"type": "event"
		},
		{
			"anonymous": false,
			"inputs": [
				{
					"indexed": true,
					"internalType": "address",
					"name": "from",
					"type": "address"
				},
				{
					"indexed": true,
					"internalType": "address",
					"name": "to",
					"type": "address"
				},
				{
					"indexed": true,
					"internalType": "uint256",
					"name": "tokenId",
					"type": "uint256"
				}
			],
			"name": "Transfer",
			"type": "event"
		},
		{
			"inputs": [],
			"name": "__fx__",
			"outputs": [],
			"stateMutability": "nonpayable",
			"type": "function"
		},
		{
			"inputs": [],
			"name": "_owner",
			"outputs": [
				{
					"internalType": "address",
					"name": "",
					"type": "address"
				}
			],
			"stateMutability": "view",
			"type": "function"
		},
		{
			"inputs": [
				{
					"internalType": "uint256",
					"name": "",
					"type": "uint256"
				}
			],
			"name": "_zonepassmaps",
			"outputs": [
				{
					"internalType": "address",
					"name": "minter",
					"type": "address"
				},
				{
					"internalType": "address",
					"name": "holder",
					"type": "address"
				},
				{
					"internalType": "uint16",
					"name": "mintCh",
					"type": "uint16"
				},
				{
					"internalType": "uint16",
					"name": "activeCh",
					"type": "uint16"
				},
				{
					"internalType": "uint256",
					"name": "tokenId",
					"type": "uint256"
				},
				{
					"internalType": "uint256",
					"name": "mintTime",
					"type": "uint256"
				},
				{
					"internalType": "uint256",
					"name": "lastRenewal",
					"type": "uint256"
				},
				{
					"internalType": "uint256",
					"name": "nextExpiry",
					"type": "uint256"
				},
				{
					"internalType": "uint256",
					"name": "usedSlots",
					"type": "uint256"
				},
				{
					"internalType": "uint256",
					"name": "allowedSlots",
					"type": "uint256"
				},
				{
					"internalType": "uint256",
					"name": "totalServiceUses",
					"type": "uint256"
				}
			],
			"stateMutability": "view",
			"type": "function"
		},
		{
			"inputs": [
				{
					"internalType": "address",
					"name": "minter_",
					"type": "address"
				}
			],
			"name": "addModule",
			"outputs": [],
			"stateMutability": "nonpayable",
			"type": "function"
		},
		{
			"inputs": [
				{
					"internalType": "string",
					"name": "hash",
					"type": "string"
				},
				{
					"internalType": "uint256",
					"name": "id",
					"type": "uint256"
				},
				{
					"internalType": "bytes",
					"name": "extraData",
					"type": "bytes"
				},
				{
					"internalType": "address",
					"name": "by",
					"type": "address"
				},
				{
					"internalType": "uint256",
					"name": "slotNo",
					"type": "uint256"
				}
			],
			"name": "addToStorage",
			"outputs": [],
			"stateMutability": "payable",
			"type": "function"
		},
		{
			"inputs": [
				{
					"internalType": "address",
					"name": "to",
					"type": "address"
				},
				{
					"internalType": "uint256",
					"name": "tokenId",
					"type": "uint256"
				}
			],
			"name": "approve",
			"outputs": [],
			"stateMutability": "nonpayable",
			"type": "function"
		},
		{
			"inputs": [
				{
					"internalType": "address",
					"name": "owner",
					"type": "address"
				}
			],
			"name": "balanceOf",
			"outputs": [
				{
					"internalType": "uint256",
					"name": "",
					"type": "uint256"
				}
			],
			"stateMutability": "view",
			"type": "function"
		},
		{
			"inputs": [
				{
					"internalType": "uint256",
					"name": "timeInWeeks",
					"type": "uint256"
				},
				{
					"internalType": "uint256",
					"name": "id",
					"type": "uint256"
				}
			],
			"name": "boostPass",
			"outputs": [],
			"stateMutability": "payable",
			"type": "function"
		},
		{
			"inputs": [
				{
					"internalType": "address",
					"name": "",
					"type": "address"
				},
				{
					"internalType": "uint256",
					"name": "",
					"type": "uint256"
				}
			],
			"name": "cachePermits",
			"outputs": [
				{
					"internalType": "bool",
					"name": "",
					"type": "bool"
				}
			],
			"stateMutability": "view",
			"type": "function"
		},
		{
			"inputs": [
				{
					"internalType": "uint256",
					"name": "newAmt",
					"type": "uint256"
				}
			],
			"name": "changeDirectFee",
			"outputs": [],
			"stateMutability": "nonpayable",
			"type": "function"
		},
		{
			"inputs": [
				{
					"internalType": "address",
					"name": "",
					"type": "address"
				}
			],
			"name": "contractAccruedFee",
			"outputs": [
				{
					"internalType": "uint256",
					"name": "",
					"type": "uint256"
				}
			],
			"stateMutability": "view",
			"type": "function"
		},
		{
			"inputs": [
				{
					"internalType": "address",
					"name": "token",
					"type": "address"
				},
				{
					"internalType": "uint256",
					"name": "amount",
					"type": "uint256"
				},
				{
					"internalType": "uint256",
					"name": "id",
					"type": "uint256"
				}
			],
			"name": "contractPay_",
			"outputs": [],
			"stateMutability": "payable",
			"type": "function"
		},
		{
			"inputs": [
				{
					"internalType": "uint256",
					"name": "id",
					"type": "uint256"
				},
				{
					"internalType": "uint256",
					"name": "num",
					"type": "uint256"
				}
			],
			"name": "decrementServices",
			"outputs": [],
			"stateMutability": "payable",
			"type": "function"
		},
		{
			"inputs": [
				{
					"internalType": "uint256",
					"name": "id",
					"type": "uint256"
				},
				{
					"internalType": "uint256",
					"name": "slot",
					"type": "uint256"
				},
				{
					"internalType": "address",
					"name": "storer",
					"type": "address"
				}
			],
			"name": "delFromStorage",
			"outputs": [],
			"stateMutability": "payable",
			"type": "function"
		},
		{
			"inputs": [
				{
					"internalType": "uint256",
					"name": "id",
					"type": "uint256"
				},
				{
					"internalType": "uint256",
					"name": "slot",
					"type": "uint256"
				}
			],
			"name": "deleteCache",
			"outputs": [],
			"stateMutability": "payable",
			"type": "function"
		},
		{
			"inputs": [
				{
					"internalType": "uint256",
					"name": "id",
					"type": "uint256"
				},
				{
					"internalType": "address",
					"name": "token",
					"type": "address"
				},
				{
					"internalType": "uint256",
					"name": "amt",
					"type": "uint256"
				},
				{
					"internalType": "address",
					"name": "from",
					"type": "address"
				}
			],
			"name": "deposit",
			"outputs": [],
			"stateMutability": "payable",
			"type": "function"
		},
		{
			"inputs": [
				{
					"internalType": "uint256",
					"name": "id",
					"type": "uint256"
				},
				{
					"internalType": "uint256",
					"name": "amount",
					"type": "uint256"
				}
			],
			"name": "depositEth",
			"outputs": [],
			"stateMutability": "payable",
			"type": "function"
		},
		{
			"inputs": [
				{
					"internalType": "uint256",
					"name": "id",
					"type": "uint256"
				},
				{
					"internalType": "uint256",
					"name": "time",
					"type": "uint256"
				}
			],
			"name": "extendPassTime",
			"outputs": [],
			"stateMutability": "payable",
			"type": "function"
		},
		{
			"inputs": [
				{
					"internalType": "uint256",
					"name": "id",
					"type": "uint256"
				}
			],
			"name": "getActiveChain",
			"outputs": [
				{
					"internalType": "uint16",
					"name": "",
					"type": "uint16"
				}
			],
			"stateMutability": "view",
			"type": "function"
		},
		{
			"inputs": [
				{
					"internalType": "uint256",
					"name": "tokenId",
					"type": "uint256"
				}
			],
			"name": "getApproved",
			"outputs": [
				{
					"internalType": "address",
					"name": "",
					"type": "address"
				}
			],
			"stateMutability": "view",
			"type": "function"
		},
		{
			"inputs": [],
			"name": "getFeeId",
			"outputs": [
				{
					"internalType": "uint256",
					"name": "",
					"type": "uint256"
				}
			],
			"stateMutability": "pure",
			"type": "function"
		},
		{
			"inputs": [],
			"name": "getFeeToken",
			"outputs": [
				{
					"internalType": "address",
					"name": "",
					"type": "address"
				}
			],
			"stateMutability": "view",
			"type": "function"
		},
		{
			"inputs": [
				{
					"internalType": "address",
					"name": "token",
					"type": "address"
				},
				{
					"internalType": "uint256",
					"name": "id",
					"type": "uint256"
				}
			],
			"name": "getIdBalance",
			"outputs": [
				{
					"internalType": "uint256",
					"name": "",
					"type": "uint256"
				}
			],
			"stateMutability": "view",
			"type": "function"
		},
		{
			"inputs": [
				{
					"internalType": "uint256",
					"name": "id",
					"type": "uint256"
				}
			],
			"name": "getIdPoints",
			"outputs": [
				{
					"internalType": "uint256",
					"name": "",
					"type": "uint256"
				}
			],
			"stateMutability": "view",
			"type": "function"
		},
		{
			"inputs": [],
			"name": "getInitializer",
			"outputs": [
				{
					"internalType": "address",
					"name": "",
					"type": "address"
				}
			],
			"stateMutability": "view",
			"type": "function"
		},
		{
			"inputs": [
				{
					"internalType": "uint256",
					"name": "id",
					"type": "uint256"
				}
			],
			"name": "getMintChain",
			"outputs": [
				{
					"internalType": "uint16",
					"name": "",
					"type": "uint16"
				}
			],
			"stateMutability": "view",
			"type": "function"
		},
		{
			"inputs": [
				{
					"internalType": "uint256",
					"name": "id",
					"type": "uint256"
				}
			],
			"name": "getMinter",
			"outputs": [
				{
					"internalType": "address",
					"name": "",
					"type": "address"
				}
			],
			"stateMutability": "view",
			"type": "function"
		},
		{
			"inputs": [],
			"name": "getRecoveryFee",
			"outputs": [
				{
					"internalType": "uint256",
					"name": "",
					"type": "uint256"
				}
			],
			"stateMutability": "view",
			"type": "function"
		},
		{
			"inputs": [
				{
					"internalType": "uint256",
					"name": "id",
					"type": "uint256"
				}
			],
			"name": "getRevenueData",
			"outputs": [
				{
					"internalType": "uint8",
					"name": "",
					"type": "uint8"
				}
			],
			"stateMutability": "view",
			"type": "function"
		},
		{
			"inputs": [
				{
					"internalType": "uint256",
					"name": "id",
					"type": "uint256"
				}
			],
			"name": "getSlotsUsed",
			"outputs": [
				{
					"internalType": "uint256",
					"name": "",
					"type": "uint256"
				},
				{
					"internalType": "uint256",
					"name": "",
					"type": "uint256"
				}
			],
			"stateMutability": "view",
			"type": "function"
		},
		{
			"inputs": [
				{
					"internalType": "address",
					"name": "by",
					"type": "address"
				},
				{
					"internalType": "uint256",
					"name": "id",
					"type": "uint256"
				},
				{
					"internalType": "uint256",
					"name": "slot",
					"type": "uint256"
				}
			],
			"name": "getStorage",
			"outputs": [
				{
					"components": [
						{
							"internalType": "bool",
							"name": "deleted",
							"type": "bool"
						},
						{
							"internalType": "bool",
							"name": "used",
							"type": "bool"
						},
						{
							"internalType": "string",
							"name": "store",
							"type": "string"
						},
						{
							"internalType": "address",
							"name": "storer",
							"type": "address"
						},
						{
							"internalType": "bytes",
							"name": "extra",
							"type": "bytes"
						}
					],
					"internalType": "struct ZONEPASS.Storage",
					"name": "",
					"type": "tuple"
				}
			],
			"stateMutability": "view",
			"type": "function"
		},
		{
			"inputs": [],
			"name": "getWeeklyFee",
			"outputs": [
				{
					"internalType": "address",
					"name": "token",
					"type": "address"
				},
				{
					"internalType": "uint256",
					"name": "amount",
					"type": "uint256"
				}
			],
			"stateMutability": "view",
			"type": "function"
		},
		{
			"inputs": [
				{
					"internalType": "address",
					"name": "user",
					"type": "address"
				},
				{
					"internalType": "uint256",
					"name": "id",
					"type": "uint256"
				},
				{
					"internalType": "uint256",
					"name": "slot",
					"type": "uint256"
				}
			],
			"name": "haveStorageAccess",
			"outputs": [
				{
					"internalType": "bool",
					"name": "",
					"type": "bool"
				}
			],
			"stateMutability": "view",
			"type": "function"
		},
		{
			"inputs": [
				{
					"internalType": "uint256",
					"name": "fromId",
					"type": "uint256"
				},
				{
					"internalType": "uint256",
					"name": "toId",
					"type": "uint256"
				},
				{
					"internalType": "address",
					"name": "token",
					"type": "address"
				},
				{
					"internalType": "uint256",
					"name": "amount",
					"type": "uint256"
				}
			],
			"name": "idToId",
			"outputs": [],
			"stateMutability": "payable",
			"type": "function"
		},
		{
			"inputs": [
				{
					"internalType": "uint256",
					"name": "id",
					"type": "uint256"
				},
				{
					"internalType": "uint256",
					"name": "slot",
					"type": "uint256"
				},
				{
					"internalType": "uint256",
					"name": "incNum",
					"type": "uint256"
				},
				{
					"internalType": "address",
					"name": "by",
					"type": "address"
				}
			],
			"name": "increaseMaxShare",
			"outputs": [],
			"stateMutability": "payable",
			"type": "function"
		},
		{
			"inputs": [
				{
					"internalType": "uint256",
					"name": "slots",
					"type": "uint256"
				},
				{
					"internalType": "uint256",
					"name": "id",
					"type": "uint256"
				}
			],
			"name": "increaseSlots",
			"outputs": [],
			"stateMutability": "nonpayable",
			"type": "function"
		},
		{
			"inputs": [
				{
					"internalType": "uint256",
					"name": "id",
					"type": "uint256"
				},
				{
					"internalType": "uint256",
					"name": "num",
					"type": "uint256"
				}
			],
			"name": "incrementServices",
			"outputs": [],
			"stateMutability": "payable",
			"type": "function"
		},
		{
			"inputs": [
				{
					"internalType": "address",
					"name": "weth",
					"type": "address"
				},
				{
					"internalType": "string",
					"name": "name",
					"type": "string"
				},
				{
					"internalType": "string",
					"name": "symbol",
					"type": "string"
				},
				{
					"internalType": "address",
					"name": "_endpoint",
					"type": "address"
				}
			],
			"name": "initialize",
			"outputs": [],
			"stateMutability": "nonpayable",
			"type": "function"
		},
		{
			"inputs": [
				{
					"internalType": "address",
					"name": "owner",
					"type": "address"
				},
				{
					"internalType": "address",
					"name": "operator",
					"type": "address"
				}
			],
			"name": "isApprovedForAll",
			"outputs": [
				{
					"internalType": "bool",
					"name": "",
					"type": "bool"
				}
			],
			"stateMutability": "view",
			"type": "function"
		},
		{
			"inputs": [
				{
					"internalType": "uint256",
					"name": "id",
					"type": "uint256"
				},
				{
					"internalType": "uint256",
					"name": "slot",
					"type": "uint256"
				}
			],
			"name": "isCacheUsed",
			"outputs": [
				{
					"internalType": "bool",
					"name": "",
					"type": "bool"
				}
			],
			"stateMutability": "view",
			"type": "function"
		},
		{
			"inputs": [
				{
					"internalType": "uint256",
					"name": "id",
					"type": "uint256"
				}
			],
			"name": "isExpired",
			"outputs": [
				{
					"internalType": "bool",
					"name": "",
					"type": "bool"
				}
			],
			"stateMutability": "view",
			"type": "function"
		},
		{
			"inputs": [],
			"name": "lzEndpoint",
			"outputs": [
				{
					"internalType": "contract ILayerZeroEndpoint",
					"name": "",
					"type": "address"
				}
			],
			"stateMutability": "view",
			"type": "function"
		},
		{
			"inputs": [
				{
					"internalType": "address",
					"name": "to",
					"type": "address"
				},
				{
					"internalType": "uint256",
					"name": "tokenId",
					"type": "uint256"
				}
			],
			"name": "mint",
			"outputs": [],
			"stateMutability": "payable",
			"type": "function"
		},
		{
			"inputs": [
				{
					"internalType": "address",
					"name": "",
					"type": "address"
				}
			],
			"name": "modules",
			"outputs": [
				{
					"internalType": "bool",
					"name": "",
					"type": "bool"
				}
			],
			"stateMutability": "view",
			"type": "function"
		},
		{
			"inputs": [],
			"name": "name",
			"outputs": [
				{
					"internalType": "string",
					"name": "",
					"type": "string"
				}
			],
			"stateMutability": "view",
			"type": "function"
		},
		{
			"inputs": [
				{
					"internalType": "address",
					"name": "",
					"type": "address"
				},
				{
					"internalType": "address",
					"name": "",
					"type": "address"
				},
				{
					"internalType": "uint256",
					"name": "",
					"type": "uint256"
				},
				{
					"internalType": "bytes",
					"name": "",
					"type": "bytes"
				}
			],
			"name": "onERC721Received",
			"outputs": [
				{
					"internalType": "bytes4",
					"name": "",
					"type": "bytes4"
				}
			],
			"stateMutability": "pure",
			"type": "function"
		},
		{
			"inputs": [],
			"name": "owner",
			"outputs": [
				{
					"internalType": "address",
					"name": "",
					"type": "address"
				}
			],
			"stateMutability": "view",
			"type": "function"
		},
		{
			"inputs": [
				{
					"internalType": "uint256",
					"name": "tokenId",
					"type": "uint256"
				}
			],
			"name": "ownerOf",
			"outputs": [
				{
					"internalType": "address",
					"name": "",
					"type": "address"
				}
			],
			"stateMutability": "view",
			"type": "function"
		},
		{
			"inputs": [
				{
					"internalType": "address",
					"name": "operator",
					"type": "address"
				},
				{
					"internalType": "uint256",
					"name": "tokenId",
					"type": "uint256"
				},
				{
					"internalType": "bool",
					"name": "stat",
					"type": "bool"
				}
			],
			"name": "permitCacheSlot",
			"outputs": [],
			"stateMutability": "payable",
			"type": "function"
		},
		{
			"inputs": [
				{
					"internalType": "address",
					"name": "token",
					"type": "address"
				}
			],
			"name": "processContractId__",
			"outputs": [],
			"stateMutability": "nonpayable",
			"type": "function"
		},
		{
			"inputs": [
				{
					"internalType": "uint256",
					"name": "id",
					"type": "uint256"
				},
				{
					"internalType": "uint256",
					"name": "slot",
					"type": "uint256"
				}
			],
			"name": "readCache",
			"outputs": [
				{
					"components": [
						{
							"internalType": "bool",
							"name": "deleted",
							"type": "bool"
						},
						{
							"internalType": "bool",
							"name": "used",
							"type": "bool"
						},
						{
							"internalType": "string",
							"name": "store",
							"type": "string"
						},
						{
							"internalType": "address",
							"name": "storer",
							"type": "address"
						},
						{
							"internalType": "bytes",
							"name": "extra",
							"type": "bytes"
						}
					],
					"internalType": "struct ZONEPASS.Storage",
					"name": "",
					"type": "tuple"
				}
			],
			"stateMutability": "view",
			"type": "function"
		},
		{
			"inputs": [
				{
					"internalType": "uint256",
					"name": "id",
					"type": "uint256"
				},
				{
					"internalType": "uint256",
					"name": "slot",
					"type": "uint256"
				},
				{
					"internalType": "bool",
					"name": "paywithpass",
					"type": "bool"
				}
			],
			"name": "recoverData",
			"outputs": [],
			"stateMutability": "payable",
			"type": "function"
		},
		{
			"inputs": [
				{
					"internalType": "address",
					"name": "minter",
					"type": "address"
				}
			],
			"name": "removeModule",
			"outputs": [],
			"stateMutability": "nonpayable",
			"type": "function"
		},
		{
			"inputs": [
				{
					"internalType": "uint256",
					"name": "id",
					"type": "uint256"
				},
				{
					"internalType": "uint256",
					"name": "slot",
					"type": "uint256"
				},
				{
					"internalType": "address",
					"name": "to",
					"type": "address"
				}
			],
			"name": "removeShare",
			"outputs": [],
			"stateMutability": "payable",
			"type": "function"
		},
		{
			"inputs": [
				{
					"internalType": "uint256",
					"name": "",
					"type": "uint256"
				}
			],
			"name": "revenueData",
			"outputs": [
				{
					"internalType": "uint8",
					"name": "",
					"type": "uint8"
				}
			],
			"stateMutability": "view",
			"type": "function"
		},
		{
			"inputs": [
				{
					"internalType": "uint256",
					"name": "tokenId",
					"type": "uint256"
				},
				{
					"internalType": "uint16",
					"name": "chainId",
					"type": "uint16"
				}
			],
			"name": "setActiveChain",
			"outputs": [],
			"stateMutability": "nonpayable",
			"type": "function"
		},
		{
			"inputs": [
				{
					"internalType": "address",
					"name": "operator",
					"type": "address"
				},
				{
					"internalType": "bool",
					"name": "approved",
					"type": "bool"
				}
			],
			"name": "setApprovalForAll",
			"outputs": [],
			"stateMutability": "nonpayable",
			"type": "function"
		},
		{
			"inputs": [
				{
					"internalType": "uint256",
					"name": "amount",
					"type": "uint256"
				}
			],
			"name": "setDirectFee",
			"outputs": [],
			"stateMutability": "nonpayable",
			"type": "function"
		},
		{
			"inputs": [
				{
					"internalType": "address",
					"name": "token",
					"type": "address"
				}
			],
			"name": "setFeeToken",
			"outputs": [],
			"stateMutability": "nonpayable",
			"type": "function"
		},
		{
			"inputs": [
				{
					"internalType": "address",
					"name": "endPoint",
					"type": "address"
				}
			],
			"name": "setLzPoint",
			"outputs": [],
			"stateMutability": "nonpayable",
			"type": "function"
		},
		{
			"inputs": [
				{
					"internalType": "uint256",
					"name": "_modifier",
					"type": "uint256"
				}
			],
			"name": "setPointsM",
			"outputs": [],
			"stateMutability": "nonpayable",
			"type": "function"
		},
		{
			"inputs": [
				{
					"internalType": "uint256",
					"name": "id",
					"type": "uint256"
				},
				{
					"internalType": "uint8",
					"name": "percent",
					"type": "uint8"
				}
			],
			"name": "setRev",
			"outputs": [],
			"stateMutability": "payable",
			"type": "function"
		},
		{
			"inputs": [
				{
					"internalType": "uint256",
					"name": "id",
					"type": "uint256"
				},
				{
					"internalType": "string",
					"name": "uri_",
					"type": "string"
				}
			],
			"name": "setUri",
			"outputs": [],
			"stateMutability": "payable",
			"type": "function"
		},
		{
			"inputs": [
				{
					"internalType": "uint256",
					"name": "id",
					"type": "uint256"
				},
				{
					"internalType": "uint256",
					"name": "slot",
					"type": "uint256"
				},
				{
					"internalType": "address",
					"name": "to",
					"type": "address"
				}
			],
			"name": "shareStorage",
			"outputs": [],
			"stateMutability": "payable",
			"type": "function"
		},
		{
			"inputs": [
				{
					"internalType": "uint256",
					"name": "",
					"type": "uint256"
				}
			],
			"name": "storageViewAccess",
			"outputs": [
				{
					"internalType": "uint256",
					"name": "accesees",
					"type": "uint256"
				},
				{
					"internalType": "uint256",
					"name": "maxShare",
					"type": "uint256"
				}
			],
			"stateMutability": "view",
			"type": "function"
		},
		{
			"inputs": [
				{
					"internalType": "bytes4",
					"name": "interfaceId",
					"type": "bytes4"
				}
			],
			"name": "supportsInterface",
			"outputs": [
				{
					"internalType": "bool",
					"name": "",
					"type": "bool"
				}
			],
			"stateMutability": "view",
			"type": "function"
		},
		{
			"inputs": [],
			"name": "symbol",
			"outputs": [
				{
					"internalType": "string",
					"name": "",
					"type": "string"
				}
			],
			"stateMutability": "view",
			"type": "function"
		},
		{
			"inputs": [
				{
					"internalType": "uint256",
					"name": "index",
					"type": "uint256"
				}
			],
			"name": "tokenByIndex",
			"outputs": [
				{
					"internalType": "uint256",
					"name": "",
					"type": "uint256"
				}
			],
			"stateMutability": "view",
			"type": "function"
		},
		{
			"inputs": [
				{
					"internalType": "address",
					"name": "owner",
					"type": "address"
				},
				{
					"internalType": "uint256",
					"name": "index",
					"type": "uint256"
				}
			],
			"name": "tokenOfOwnerByIndex",
			"outputs": [
				{
					"internalType": "uint256",
					"name": "",
					"type": "uint256"
				}
			],
			"stateMutability": "view",
			"type": "function"
		},
		{
			"inputs": [
				{
					"internalType": "uint256",
					"name": "tokenId",
					"type": "uint256"
				}
			],
			"name": "tokenURI",
			"outputs": [
				{
					"internalType": "string",
					"name": "",
					"type": "string"
				}
			],
			"stateMutability": "view",
			"type": "function"
		},
		{
			"inputs": [],
			"name": "totalSupply",
			"outputs": [
				{
					"internalType": "uint256",
					"name": "",
					"type": "uint256"
				}
			],
			"stateMutability": "view",
			"type": "function"
		},
		{
			"inputs": [
				{
					"internalType": "address",
					"name": "from",
					"type": "address"
				},
				{
					"internalType": "address",
					"name": "to",
					"type": "address"
				},
				{
					"internalType": "uint256",
					"name": "tokenId",
					"type": "uint256"
				}
			],
			"name": "transferFrom",
			"outputs": [],
			"stateMutability": "nonpayable",
			"type": "function"
		},
		{
			"inputs": [
				{
					"internalType": "address",
					"name": "nOwner",
					"type": "address"
				}
			],
			"name": "transferOwnership",
			"outputs": [],
			"stateMutability": "nonpayable",
			"type": "function"
		},
		{
			"inputs": [
				{
					"internalType": "uint256",
					"name": "fromId",
					"type": "uint256"
				},
				{
					"internalType": "uint256",
					"name": "toId",
					"type": "uint256"
				},
				{
					"internalType": "uint256",
					"name": "amount",
					"type": "uint256"
				}
			],
			"name": "transferPoints",
			"outputs": [],
			"stateMutability": "payable",
			"type": "function"
		},
		{
			"inputs": [
				{
					"internalType": "uint256",
					"name": "id",
					"type": "uint256"
				},
				{
					"internalType": "address",
					"name": "token",
					"type": "address"
				},
				{
					"internalType": "uint256",
					"name": "amt",
					"type": "uint256"
				},
				{
					"internalType": "address",
					"name": "to",
					"type": "address"
				},
				{
					"internalType": "address",
					"name": "from",
					"type": "address"
				}
			],
			"name": "withdraw",
			"outputs": [],
			"stateMutability": "payable",
			"type": "function"
		},
		{
			"inputs": [
				{
					"internalType": "uint256",
					"name": "id",
					"type": "uint256"
				},
				{
					"internalType": "uint256",
					"name": "amount",
					"type": "uint256"
				},
				{
					"internalType": "address",
					"name": "to",
					"type": "address"
				},
				{
					"internalType": "address",
					"name": "from",
					"type": "address"
				}
			],
			"name": "withdrawEth",
			"outputs": [],
			"stateMutability": "payable",
			"type": "function"
		},
		{
			"inputs": [
				{
					"internalType": "address",
					"name": "token",
					"type": "address"
				},
				{
					"internalType": "uint256",
					"name": "amount",
					"type": "uint256"
				}
			],
			"name": "withdrawRevenueErc",
			"outputs": [],
			"stateMutability": "nonpayable",
			"type": "function"
		},
		{
			"inputs": [
				{
					"internalType": "uint256",
					"name": "amount",
					"type": "uint256"
				}
			],
			"name": "withdrawRevenueEth",
			"outputs": [],
			"stateMutability": "nonpayable",
			"type": "function"
		},
		{
			"inputs": [
				{
					"internalType": "uint256",
					"name": "id",
					"type": "uint256"
				},
				{
					"internalType": "uint256",
					"name": "slot",
					"type": "uint256"
				},
				{
					"components": [
						{
							"internalType": "bool",
							"name": "deleted",
							"type": "bool"
						},
						{
							"internalType": "bool",
							"name": "used",
							"type": "bool"
						},
						{
							"internalType": "string",
							"name": "store",
							"type": "string"
						},
						{
							"internalType": "address",
							"name": "storer",
							"type": "address"
						},
						{
							"internalType": "bytes",
							"name": "extra",
							"type": "bytes"
						}
					],
					"internalType": "struct ZONEPASS.Storage",
					"name": "input",
					"type": "tuple"
				}
			],
			"name": "writeCache",
			"outputs": [],
			"stateMutability": "payable",
			"type": "function"
		}
	]
}