{
  "_format": "hh-sol-artifact-1",
  "contractName": "BridgeV1",
  "sourceName": "contracts/BridgePart.sol",
  "abi": [
    {
      "inputs": [
        {
          "internalType": "address",
          "name": "_wormholeRelayer",
          "type": "address"
        },
        {
          "internalType": "address",
          "name": "_tokenBridge",
          "type": "address"
        },
        {
          "internalType": "address",
          "name": "_wormhole",
          "type": "address"
        },
        {
          "internalType": "address",
          "name": "grayzoneAddress",
          "type": "address"
        }
      ],
      "stateMutability": "nonpayable",
      "type": "constructor"
    },
    {
      "inputs": [
        {
          "internalType": "bytes32",
          "name": "",
          "type": "bytes32"
        }
      ],
      "name": "NotAnEvmAddress",
      "type": "error"
    },
    {
      "anonymous": false,
      "inputs": [
        {
          "indexed": true,
          "internalType": "address",
          "name": "previousOwner",
          "type": "address"
        },
        {
          "indexed": true,
          "internalType": "address",
          "name": "newOwner",
          "type": "address"
        }
      ],
      "name": "OwnershipTransferred",
      "type": "event"
    },
    {
      "inputs": [],
      "name": "bridgeActive",
      "outputs": [
        {
          "internalType": "bool",
          "name": "",
          "type": "bool"
        }
      ],
      "stateMutability": "view",
      "type": "function"
    },
    {
      "inputs": [
        {
          "internalType": "uint16",
          "name": "targetChain",
          "type": "uint16"
        },
        {
          "internalType": "address",
          "name": "targetBridge",
          "type": "address"
        },
        {
          "internalType": "address",
          "name": "recipient",
          "type": "address"
        },
        {
          "internalType": "uint256",
          "name": "amount",
          "type": "uint256"
        },
        {
          "internalType": "address",
          "name": "token",
          "type": "address"
        },
        {
          "internalType": "uint256",
          "name": "dstGas",
          "type": "uint256"
        },
        {
          "internalType": "address",
          "name": "ref",
          "type": "address"
        }
      ],
      "name": "bridgeErc20",
      "outputs": [],
      "stateMutability": "payable",
      "type": "function"
    },
    {
      "inputs": [
        {
          "internalType": "uint16",
          "name": "targetChain",
          "type": "uint16"
        },
        {
          "internalType": "address",
          "name": "targetBridge",
          "type": "address"
        },
        {
          "internalType": "address",
          "name": "recipient",
          "type": "address"
        },
        {
          "internalType": "uint256",
          "name": "amount",
          "type": "uint256"
        },
        {
          "internalType": "uint256",
          "name": "dstGas",
          "type": "uint256"
        },
        {
          "internalType": "address",
          "name": "ref",
          "type": "address"
        }
      ],
      "name": "bridgeEther",
      "outputs": [],
      "stateMutability": "payable",
      "type": "function"
    },
    {
      "inputs": [
        {
          "internalType": "uint256",
          "name": "wEi",
          "type": "uint256"
        }
      ],
      "name": "changeBaseFee",
      "outputs": [],
      "stateMutability": "nonpayable",
      "type": "function"
    },
    {
      "inputs": [
        {
          "internalType": "uint256",
          "name": "fMultiplier_",
          "type": "uint256"
        }
      ],
      "name": "changePercentFee",
      "outputs": [],
      "stateMutability": "nonpayable",
      "type": "function"
    },
    {
      "inputs": [
        {
          "internalType": "bytes32",
          "name": "deliveryhash",
          "type": "bytes32"
        }
      ],
      "name": "claimFailedBridge",
      "outputs": [],
      "stateMutability": "nonpayable",
      "type": "function"
    },
    {
      "inputs": [
        {
          "internalType": "uint16",
          "name": "",
          "type": "uint16"
        },
        {
          "internalType": "address",
          "name": "",
          "type": "address"
        }
      ],
      "name": "endpoints",
      "outputs": [
        {
          "internalType": "bool",
          "name": "",
          "type": "bool"
        }
      ],
      "stateMutability": "view",
      "type": "function"
    },
    {
      "inputs": [],
      "name": "fMultiplier",
      "outputs": [
        {
          "internalType": "uint256",
          "name": "",
          "type": "uint256"
        }
      ],
      "stateMutability": "view",
      "type": "function"
    },
    {
      "inputs": [],
      "name": "fee",
      "outputs": [
        {
          "internalType": "uint256",
          "name": "",
          "type": "uint256"
        }
      ],
      "stateMutability": "view",
      "type": "function"
    },
    {
      "inputs": [
        {
          "internalType": "address",
          "name": "",
          "type": "address"
        }
      ],
      "name": "feesTotal",
      "outputs": [
        {
          "internalType": "uint256",
          "name": "",
          "type": "uint256"
        }
      ],
      "stateMutability": "view",
      "type": "function"
    },
    {
      "inputs": [
        {
          "internalType": "address",
          "name": "user",
          "type": "address"
        },
        {
          "internalType": "uint256",
          "name": "nonce",
          "type": "uint256"
        },
        {
          "internalType": "uint16",
          "name": "chainId",
          "type": "uint16"
        }
      ],
      "name": "getUserBridgeHashes",
      "outputs": [
        {
          "internalType": "bytes32",
          "name": "",
          "type": "bytes32"
        }
      ],
      "stateMutability": "view",
      "type": "function"
    },
    {
      "inputs": [
        {
          "internalType": "address",
          "name": "user",
          "type": "address"
        },
        {
          "internalType": "bytes32",
          "name": "hash",
          "type": "bytes32"
        }
      ],
      "name": "getUserBridges",
      "outputs": [
        {
          "components": [
            {
              "internalType": "uint16",
              "name": "fromChain",
              "type": "uint16"
            },
            {
              "internalType": "uint8",
              "name": "sendType",
              "type": "uint8"
            },
            {
              "internalType": "address",
              "name": "token",
              "type": "address"
            },
            {
              "internalType": "uint256",
              "name": "amount",
              "type": "uint256"
            },
            {
              "internalType": "bool",
              "name": "claimed",
              "type": "bool"
            }
          ],
          "internalType": "struct BridgeV1.Bridges",
          "name": "",
          "type": "tuple"
        }
      ],
      "stateMutability": "view",
      "type": "function"
    },
    {
      "inputs": [
        {
          "internalType": "address",
          "name": "user",
          "type": "address"
        }
      ],
      "name": "getUserData",
      "outputs": [
        {
          "internalType": "uint256",
          "name": "",
          "type": "uint256"
        },
        {
          "internalType": "uint256",
          "name": "",
          "type": "uint256"
        },
        {
          "internalType": "uint256",
          "name": "",
          "type": "uint256"
        },
        {
          "internalType": "uint256",
          "name": "",
          "type": "uint256"
        }
      ],
      "stateMutability": "view",
      "type": "function"
    },
    {
      "inputs": [
        {
          "internalType": "address",
          "name": "user",
          "type": "address"
        }
      ],
      "name": "getUserReferalStat",
      "outputs": [
        {
          "components": [
            {
              "internalType": "bool",
              "name": "refered",
              "type": "bool"
            },
            {
              "internalType": "address",
              "name": "referer",
              "type": "address"
            }
          ],
          "internalType": "struct BridgeV1.Referals",
          "name": "",
          "type": "tuple"
        }
      ],
      "stateMutability": "view",
      "type": "function"
    },
    {
      "inputs": [
        {
          "internalType": "address",
          "name": "user",
          "type": "address"
        },
        {
          "internalType": "uint256",
          "name": "nonce",
          "type": "uint256"
        }
      ],
      "name": "getUserReferals",
      "outputs": [
        {
          "internalType": "address",
          "name": "",
          "type": "address"
        }
      ],
      "stateMutability": "view",
      "type": "function"
    },
    {
      "inputs": [],
      "name": "owner",
      "outputs": [
        {
          "internalType": "address",
          "name": "",
          "type": "address"
        }
      ],
      "stateMutability": "view",
      "type": "function"
    },
    {
      "inputs": [
        {
          "internalType": "uint16",
          "name": "targetChain",
          "type": "uint16"
        },
        {
          "internalType": "uint256",
          "name": "amt",
          "type": "uint256"
        },
        {
          "internalType": "uint256",
          "name": "gasUnits",
          "type": "uint256"
        }
      ],
      "name": "quoteCrossChainDeposit",
      "outputs": [
        {
          "internalType": "uint256",
          "name": "cost",
          "type": "uint256"
        }
      ],
      "stateMutability": "view",
      "type": "function"
    },
    {
      "inputs": [
        {
          "internalType": "bytes",
          "name": "payload",
          "type": "bytes"
        },
        {
          "internalType": "bytes[]",
          "name": "additionalVaas",
          "type": "bytes[]"
        },
        {
          "internalType": "bytes32",
          "name": "sourceAddress",
          "type": "bytes32"
        },
        {
          "internalType": "uint16",
          "name": "sourceChain",
          "type": "uint16"
        },
        {
          "internalType": "bytes32",
          "name": "deliveryHash",
          "type": "bytes32"
        }
      ],
      "name": "receiveWormholeMessages",
      "outputs": [],
      "stateMutability": "payable",
      "type": "function"
    },
    {
      "inputs": [],
      "name": "renounceOwnership",
      "outputs": [],
      "stateMutability": "nonpayable",
      "type": "function"
    },
    {
      "inputs": [
        {
          "internalType": "uint16",
          "name": "chainId",
          "type": "uint16"
        },
        {
          "internalType": "address",
          "name": "bridgeContract",
          "type": "address"
        }
      ],
      "name": "setAllowedEndpoint",
      "outputs": [],
      "stateMutability": "nonpayable",
      "type": "function"
    },
    {
      "inputs": [
        {
          "internalType": "address",
          "name": "addr",
          "type": "address"
        }
      ],
      "name": "setProfitShareAddr",
      "outputs": [],
      "stateMutability": "nonpayable",
      "type": "function"
    },
    {
      "inputs": [
        {
          "internalType": "uint256",
          "name": "multiplier",
          "type": "uint256"
        }
      ],
      "name": "setProfitSharePercent",
      "outputs": [],
      "stateMutability": "nonpayable",
      "type": "function"
    },
    {
      "inputs": [
        {
          "internalType": "uint16",
          "name": "sourceChain",
          "type": "uint16"
        },
        {
          "internalType": "bytes32",
          "name": "sourceAddress",
          "type": "bytes32"
        }
      ],
      "name": "setRegisteredSender",
      "outputs": [],
      "stateMutability": "nonpayable",
      "type": "function"
    },
    {
      "inputs": [
        {
          "internalType": "address",
          "name": "user",
          "type": "address"
        },
        {
          "internalType": "uint256",
          "name": "p",
          "type": "uint256"
        }
      ],
      "name": "setUserPoints",
      "outputs": [],
      "stateMutability": "nonpayable",
      "type": "function"
    },
    {
      "inputs": [],
      "name": "solutionsProviderAddress",
      "outputs": [
        {
          "internalType": "address",
          "name": "",
          "type": "address"
        }
      ],
      "stateMutability": "view",
      "type": "function"
    },
    {
      "inputs": [],
      "name": "solutionsProviderShare",
      "outputs": [
        {
          "internalType": "uint256",
          "name": "",
          "type": "uint256"
        }
      ],
      "stateMutability": "view",
      "type": "function"
    },
    {
      "inputs": [
        {
          "internalType": "bool",
          "name": "state",
          "type": "bool"
        }
      ],
      "name": "toggleState",
      "outputs": [],
      "stateMutability": "nonpayable",
      "type": "function"
    },
    {
      "inputs": [],
      "name": "tokenBridge",
      "outputs": [
        {
          "internalType": "contract ITokenBridge",
          "name": "",
          "type": "address"
        }
      ],
      "stateMutability": "view",
      "type": "function"
    },
    {
      "inputs": [],
      "name": "totalPoints",
      "outputs": [
        {
          "internalType": "uint256",
          "name": "",
          "type": "uint256"
        }
      ],
      "stateMutability": "view",
      "type": "function"
    },
    {
      "inputs": [
        {
          "internalType": "address",
          "name": "",
          "type": "address"
        },
        {
          "internalType": "address",
          "name": "",
          "type": "address"
        }
      ],
      "name": "totalUserVolume",
      "outputs": [
        {
          "internalType": "uint256",
          "name": "",
          "type": "uint256"
        }
      ],
      "stateMutability": "view",
      "type": "function"
    },
    {
      "inputs": [
        {
          "internalType": "address",
          "name": "newOwner",
          "type": "address"
        }
      ],
      "name": "transferOwnership",
      "outputs": [],
      "stateMutability": "nonpayable",
      "type": "function"
    },
    {
      "inputs": [
        {
          "internalType": "address",
          "name": "token",
          "type": "address"
        },
        {
          "internalType": "uint256",
          "name": "amt",
          "type": "uint256"
        },
        {
          "internalType": "bool",
          "name": "isFee",
          "type": "bool"
        }
      ],
      "name": "unsafeWithdraw",
      "outputs": [],
      "stateMutability": "nonpayable",
      "type": "function"
    },
    {
      "inputs": [
        {
          "internalType": "uint256",
          "name": "amt",
          "type": "uint256"
        },
        {
          "internalType": "address",
          "name": "to",
          "type": "address"
        }
      ],
      "name": "withdrawEthRevenue",
      "outputs": [],
      "stateMutability": "nonpayable",
      "type": "function"
    },
    {
      "inputs": [
        {
          "internalType": "address",
          "name": "token",
          "type": "address"
        },
        {
          "internalType": "uint256",
          "name": "amt",
          "type": "uint256"
        },
        {
          "internalType": "address",
          "name": "to",
          "type": "address"
        }
      ],
      "name": "withdrawTokenRevenue",
      "outputs": [],
      "stateMutability": "nonpayable",
      "type": "function"
    },
    {
      "inputs": [],
      "name": "wormhole",
      "outputs": [
        {
          "internalType": "contract IWormhole",
          "name": "",
          "type": "address"
        }
      ],
      "stateMutability": "view",
      "type": "function"
    },
    {
      "inputs": [],
      "name": "wormholeRelayer",
      "outputs": [
        {
          "internalType": "contract IWormholeRelayer",
          "name": "",
          "type": "address"
        }
      ],
      "stateMutability": "view",
      "type": "function"
    }
  ],
  "bytecode": "0x60e060405266038d7ea4c68000600355600560045560136006556008805460ff191660011790553480156200003357600080fd5b5060405162003b1138038062003b1183398101604081905262000056916200012c565b6001600160a01b0380851660805280831660a052600080546001600160a01b03191633179055831660c052620000936200008d3390565b620000bd565b600580546001600160a01b0319166001600160a01b03929092169190911790555062000189915050565b600280546001600160a01b038381166001600160a01b0319831681179093556040519116919082907f8be0079c531659141344cd1fd0a4f28419497f9722a3daafe3b4186f6b6457e090600090a35050565b80516001600160a01b03811681146200012757600080fd5b919050565b600080600080608085870312156200014357600080fd5b6200014e856200010f565b93506200015e602086016200010f565b92506200016e604086016200010f565b91506200017e606086016200010f565b905092959194509250565b60805160a05160c0516138da62000237600039600081816105df015281816110520152818161112f015281816112a1015281816116df01528181611fa4015281816128fc0152818161297d0152612b4201526000818161042701528181610f88015281816111b9015281816114cd01528181611ef6015281816129ac0152612aaf0152600081816107420152818161145901528181611c3c01528181611cab01526120d201526138da6000f3fe60806040526004361061020f5760003560e01c8063a74ae70d11610118578063dd12d68b116100a0578063ead93c8f1161006f578063ead93c8f146107e3578063eff6be2f146107fd578063f2fde38b1461081d578063fdf04da31461083d578063ffc9896b1461085d57600080fd5b8063dd12d68b14610777578063dd3a2ae614610797578063ddca3f43146107ad578063e1de15fb146107c357600080fd5b8063c6328a46116100e7578063c6328a46146105cd578063cb3bad9114610601578063ce9581b414610621578063da25b72514610730578063db4284911461076457600080fd5b8063a74ae70d146104b4578063a7ea87e2146104d4578063b7d5dadf146104f4578063c3d9d2bf1461058257600080fd5b8063567142be1161019b57806382a1708e1161016a57806382a1708e146103f557806384acd1bb146104155780638da5cb5b14610449578063940916d614610467578063a345908f1461049457600080fd5b8063567142be146103945780636d8e6d72146103aa578063715018a6146103ca5780637877e724146103df57600080fd5b8063346b994b116101e2578063346b994b146102d957806334aad8d6146102ec578063412222d01461030c578063489895b014610361578063529dca321461038157600080fd5b806306b2fc0b146102145780630fe5180214610236578063175693771461027357806330f014b6146102b9575b600080fd5b34801561022057600080fd5b5061023461022f366004612b95565b6108c9565b005b34801561024257600080fd5b50600554610256906001600160a01b031681565b6040516001600160a01b0390911681526020015b60405180910390f35b34801561027f57600080fd5b506102ab61028e366004612bc5565b600960209081526000928352604080842090915290825290205481565b60405190815260200161026a565b3480156102c557600080fd5b506102346102d4366004612bf3565b6109a9565b6102346102e7366004612c2c565b610b5d565b3480156102f857600080fd5b50610234610307366004612cb0565b610da2565b34801561031857600080fd5b506102ab610327366004612ccd565b6001600160a01b0383166000908152600c60209081526040808320858452600601825280832061ffff851684529091529020549392505050565b34801561036d57600080fd5b5061023461037c366004612d0f565b610ddb565b61023461038f366004612e9a565b610f01565b3480156103a057600080fd5b506102ab60075481565b3480156103b657600080fd5b506102ab6103c5366004612f8f565b611425565b3480156103d657600080fd5b5061023461156a565b3480156103eb57600080fd5b506102ab60065481565b34801561040157600080fd5b50610234610410366004612fc4565b61157e565b34801561042157600080fd5b506102567f000000000000000000000000000000000000000000000000000000000000000081565b34801561045557600080fd5b506002546001600160a01b0316610256565b34801561047357600080fd5b506102ab610482366004612cb0565b600b6020526000908152604090205481565b3480156104a057600080fd5b506102566104af366004612fe2565b6115bb565b3480156104c057600080fd5b506102346104cf366004612bf3565b6115eb565b3480156104e057600080fd5b506102346104ef366004612fe2565b61163c565b34801561050057600080fd5b5061055c61050f366004612cb0565b604080518082018252600080825260209182018190526001600160a01b039384168152600a825282902082518084019093525460ff81161515835261010090049092169181019190915290565b604080518251151581526020928301516001600160a01b0316928101929092520161026a565b34801561058e57600080fd5b506105bd61059d366004612fc4565b600d60209081526000928352604080842090915290825290205460ff1681565b604051901515815260200161026a565b3480156105d957600080fd5b506102567f000000000000000000000000000000000000000000000000000000000000000081565b34801561060d57600080fd5b5061023461061c366004612bf3565b611663565b34801561062d57600080fd5b506106e161063c366004612fe2565b6040805160a081018252600080825260208201819052918101829052606081018290526080810191909152506001600160a01b038083166000908152600c60209081526040808320858452600501825291829020825160a081018452815461ffff8116825260ff620100008204811694830194909452630100000090049094169284019290925260018201546060840152600290910154161515608082015292915050565b60405161026a9190815161ffff16815260208083015160ff16908201526040808301516001600160a01b0316908201526060808301519082015260809182015115159181019190915260a00190565b34801561073c57600080fd5b506102567f000000000000000000000000000000000000000000000000000000000000000081565b61023461077236600461300e565b61168c565b34801561078357600080fd5b5061023461079236600461307e565b61188e565b3480156107a357600080fd5b506102ab60045481565b3480156107b957600080fd5b506102ab60035481565b3480156107cf57600080fd5b506102346107de3660046130aa565b61190b565b3480156107ef57600080fd5b506008546105bd9060ff1681565b34801561080957600080fd5b50610234610818366004612bf3565b611926565b34801561082957600080fd5b50610234610838366004612cb0565b611933565b34801561084957600080fd5b506102346108583660046130c7565b6119ac565b34801561086957600080fd5b506108a9610878366004612cb0565b6001600160a01b03166000908152600c60205260409020805460018201546002830154600390930154919390929190565b60408051948552602085019390935291830152606082015260800161026a565b6108d1611acf565b60008052600b6020526000805160206138858339815191525482111561092f5760405162461bcd60e51b815260206004820152600e60248201526d1b9bdd08195b9bdd59da08185b5d60921b60448201526064015b60405180910390fd5b60008052600b60205260008051602061388583398151915254610953908390613114565b6000808052600b602052600080516020613885833981519152919091556040516001600160a01b0383169184156108fc02918591818181858888f193505050501580156109a4573d6000803e3d6000fd5b505050565b336000908152600c60209081526040808320848452600501825291829020825160a081018452815461ffff8116825260ff620100008204811694830194909452630100000090046001600160a01b031693810184905260018201546060820181905260029092015490921615156080830181905291928115801590610a2c575082155b610a6a5760405162461bcd60e51b815260206004820152600f60248201526e185b1c9958591e4818db185a5b5959608a1b6044820152606401610926565b602084015160ff16158015610a7f5750600082115b8015610a89575082155b15610abd57604051339083156108fc029084906000818181858888f19350505050158015610abb573d6000803e3d6000fd5b505b602084015160ff166001148015610ad45750600082115b8015610ade575082155b15610b565760405163a9059cbb60e01b8152336004820152602481018390526001600160a01b0382169063a9059cbb906044016020604051808303816000875af1158015610b30573d6000803e3d6000fd5b505050506040513d601f19601f82011682018060405250810190610b549190613127565b505b5050505050565b6000610b6b88600085611425565b9050803414610bac5760405162461bcd60e51b815260206004820152600d60248201526c1b9bdd0818dc9c98dd08185b5d609a1b6044820152606401610926565b6040516323b872dd60e01b8152336004820152306024820152604481018690526000906001600160a01b038616906323b872dd906064016020604051808303816000875af1158015610c02573d6000803e3d6000fd5b505050506040513d601f19601f82011682018060405250810190610c269190613127565b905080610c5e5760405162461bcd60e51b815260206004820152600660248201526519985a5b195960d21b6044820152606401610926565b610c69600354611b29565b50600355604080516001600160a01b0389166020820152600191810191909152600060608201819052906080016040516020818303038152906040529050610cb78a8a836000898b8d611b97565b503360009081526009602090815260408083206001600160a01b038a168452909152902054610ce7908890613144565b3360008181526009602090815260408083206001600160a01b038c168452909152902091909155610d189085611d51565b610d223385611e47565b336000908152600c60205260409020600190810154610d4091613144565b336000908152600c60209081526040822060010192909255600354908052600b90915260008051602061388583398151915254610d7d9190613144565b60008052600b6020526000805160206138858339815191525550505050505050505050565b6005546001600160a01b03163314610db957600080fd5b600580546001600160a01b0319166001600160a01b0392909216919091179055565b610de3611acf565b6001600160a01b0383166000908152600b60205260409020548211801590610e1357506001600160a01b03831615155b610e505760405162461bcd60e51b815260206004820152600e60248201526d1b9bdd08195b9bdd59da08185b5d60921b6044820152606401610926565b6001600160a01b0383166000908152600b6020526040902054610e74908390613114565b6001600160a01b038481166000818152600b60205260409081902093909355915163a9059cbb60e01b815290831660048201526024810184905263a9059cbb906044015b6020604051808303816000875af1158015610ed7573d6000803e3d6000fd5b505050506040513d601f19601f82011682018060405250810190610efb9190613127565b50505050565b600084516001600160401b03811115610f1c57610f1c612d46565b604051908082528060200260200182016040528015610f7557816020015b6040805160a081018252600080825260208083018290529282018190526060820181905260808201528252600019909201910181610f3a5790505b50905060005b85518110156114175760007f00000000000000000000000000000000000000000000000000000000000000006001600160a01b031663a9e11893888481518110610fc757610fc7613157565b60200260200101516040518263ffffffff1660e01b8152600401610feb91906131bd565b600060405180830381865afa158015611008573d6000803e3d6000fd5b505050506040513d6000823e601f3d908101601f191682016040526110309190810190613310565b606081015160405163ad66a5f160e01b815261ffff90911660048201529091507f00000000000000000000000000000000000000000000000000000000000000006001600160a01b03169063ad66a5f190602401602060405180830381865afa1580156110a1573d6000803e3d6000fd5b505050506040513d601f19601f820116820180604052508101906110c59190613434565b8160800151146111105760405162461bcd60e51b81526020600482015260166024820152754e6f74206120546f6b656e204272696467652056414160501b6044820152606401610926565b60e081015160405163ea63738d60e01b81526000916001600160a01b037f0000000000000000000000000000000000000000000000000000000000000000169163ea63738d91611162916004016131bd565b600060405180830381865afa15801561117f573d6000803e3d6000fd5b505050506040513d6000823e601f3d908101601f191682016040526111a7919081019061344d565b905030816080015114801561124857507f00000000000000000000000000000000000000000000000000000000000000006001600160a01b0316639a8a05926040518163ffffffff1660e01b8152600401602060405180830381865afa158015611215573d6000803e3d6000fd5b505050506040513d601f19601f820116820180604052508101906112399190613515565b61ffff168160a0015161ffff16145b61129f5760405162461bcd60e51b815260206004820152602260248201527f546f6b656e20776173206e6f742073656e7420746f2074686973206164647265604482015261737360f01b6064820152608401610926565b7f00000000000000000000000000000000000000000000000000000000000000006001600160a01b031663c3f511c18985815181106112e0576112e0613157565b60200260200101516040518263ffffffff1660e01b815260040161130491906131bd565b6000604051808303816000875af1158015611323573d6000803e3d6000fd5b505050506040513d6000823e601f3d908101601f1916820160405261134b9190810190613532565b50600061136082606001518360400151611ef2565b9050600061136d8261202c565b6020840151909150600860ff831611156113a45761138c600883613566565b61139790600a613663565b6113a19082613672565b90505b6040518060a0016040528085604001518152602001856060015161ffff168152602001846001600160a01b0316815260200182815260200185602001518152508787815181106113f6576113f6613157565b602002602001018190525050505050508061141090613689565b9050610f7b565b50610b5486828686866120c7565b60405163c23ee3c360e01b815261ffff84166004820152602481018390526044810182905260009081906001600160a01b037f0000000000000000000000000000000000000000000000000000000000000000169063c23ee3c3906064016040805180830381865afa15801561149f573d6000803e3d6000fd5b505050506040513d601f19601f820116820180604052508101906114c391906136a2565b50809150506003547f00000000000000000000000000000000000000000000000000000000000000006001600160a01b0316631a90a2196040518163ffffffff1660e01b8152600401602060405180830381865afa158015611529573d6000803e3d6000fd5b505050506040513d601f19601f8201168201806040525081019061154d9190613434565b6115579083613144565b6115619190613144565b95945050505050565b611572611acf565b61157c6000612811565b565b611586611acf565b61ffff9091166000908152600d602090815260408083206001600160a01b03909416835292905220805460ff19166001179055565b6001600160a01b038083166000908152600c60209081526040808320858452600401909152902054165b92915050565b6115f3611acf565b606581106116375760405162461bcd60e51b815260206004820152601160248201527063616e6e6f74206578636565642031302560781b6044820152606401610926565b600455565b611644611acf565b6001600160a01b039091166000908152600c6020526040902060020155565b6014811061167057600080fd5b6005546001600160a01b0316331461168757600080fd5b600655565b6000611699878585611425565b9050803410156116db5760405162461bcd60e51b815260206004820152600d60248201526c1b9bdd0818dc9c98dd08185b5d609a1b6044820152606401610926565b60007f00000000000000000000000000000000000000000000000000000000000000006001600160a01b031663ad5c46486040518163ffffffff1660e01b8152600401602060405180830381865afa15801561173b573d6000803e3d6000fd5b505050506040513d601f19601f8201168201806040525081019061175f91906136c6565b905061176c600354611b29565b50600355604080516001600160a01b038816602082015260009181018290526060810187905260800160405160208183030381529060405290506117b68989838989876000611b97565b503360009081526009602090815260408083208380529091529020546117dd908790613144565b3360008181526009602090815260408083208380529091529020919091556118059085611d51565b61180f3385611e47565b336000908152600c6020526040902060019081015461182d91613144565b336000908152600c60209081526040822060010192909255600354908052600b9091526000805160206138858339815191525461186a9190613144565b60008052600b60205260008051602061388583398151915255505050505050505050565b6000546001600160a01b031633146118f45760405162461bcd60e51b8152602060048201526024808201527f4e6f7420616c6c6f77656420746f207365742072656769737465726564207365604482015263373232b960e11b6064820152608401610926565b61ffff909116600090815260016020526040902055565b611913611acf565b6008805460ff1916911515919091179055565b61192e611acf565b600355565b61193b611acf565b6001600160a01b0381166119a05760405162461bcd60e51b815260206004820152602660248201527f4f776e61626c653a206e6577206f776e657220697320746865207a65726f206160448201526564647265737360d01b6064820152608401610926565b6119a981612811565b50565b6119b4611acf565b60085460ff1615611a195760405162461bcd60e51b815260206004820152602960248201527f4f6e6c7920616c6c6f7765642069662062726964676520696e61637469766520604482015268666f7220757365727360b81b6064820152608401610926565b801515600103611a61576001600160a01b0383166000908152600b6020526040902054611a47908390613114565b6001600160a01b0384166000908152600b60205260409020555b6001600160a01b038316611a9c57604051339083156108fc029084906000818181858888f19350505050158015610efb573d6000803e3d6000fd5b60405163a9059cbb60e01b8152336004820152602481018390526001600160a01b0384169063a9059cbb90604401610eb8565b6002546001600160a01b0316331461157c5760405162461bcd60e51b815260206004820181905260248201527f4f776e61626c653a2063616c6c6572206973206e6f7420746865206f776e65726044820152606401610926565b6000806000606460065485611b3e9190613672565b611b4891906136e3565b6005546040519192506001600160a01b03169082156108fc029083906000818181858888f19350505050158015611b83573d6000803e3d6000fd5b50611b8e8185613114565b94909350915050565b604080516001808252818301909252600091829190816020015b6040805160608101825260008082526020808301829052928201528252600019909201910181611bb1579050509050611bec84848b8b612863565b81600081518110611bff57611bff613157565b602090810291909101015260405163c23ee3c360e01b815261ffff8a16600482015260248101879052604481018690526000906001600160a01b037f0000000000000000000000000000000000000000000000000000000000000000169063c23ee3c3906064016040805180830381865afa158015611c82573d6000803e3d6000fd5b505050506040513d601f19601f82011682018060405250810190611ca691906136a2565b5090507f00000000000000000000000000000000000000000000000000000000000000006001600160a01b031663329a2be7828c8c8c8c8c896040518863ffffffff1660e01b8152600401611d0096959493929190613705565b60206040518083038185885af1158015611d1e573d6000803e3d6000fd5b50505050506040513d601f19601f82011682018060405250810190611d4391906137a5565b9a9950505050505050505050565b6001600160a01b03811615801590611d8257506001600160a01b0382166000908152600a602052604090205460ff16155b8015611da957506001600160a01b0382166000908152600c60205260409020600190810154105b15611e43576001600160a01b038281166000908152600a60209081526040808320805460016001600160a81b0319909116610100968816968702178117909155938352600c90915290206003015490611e03908290613144565b6001600160a01b0383166000908152600c60209081526040808320600381019490945593825260049092019091522080546001600160a01b031916331790555b5050565b6001600160a01b0382166000908152600c6020526040902060020154611e6e906001613144565b6001600160a01b038084166000908152600c6020526040902060020191909155811615611ed9576001600160a01b0381166000908152600c6020526040902060020154611ebc906001613144565b6001600160a01b0382166000908152600c60205260409020600201555b60078054906000611ee983613689565b91905055505050565b60007f00000000000000000000000000000000000000000000000000000000000000006001600160a01b0316639a8a05926040518163ffffffff1660e01b8152600401602060405180830381865afa158015611f52573d6000803e3d6000fd5b505050506040513d601f19601f82011682018060405250810190611f769190613515565b61ffff168361ffff161461201c57604051630ff8f14360e11b815261ffff84166004820152602481018390527f00000000000000000000000000000000000000000000000000000000000000006001600160a01b031690631ff1e28690604401602060405180830381865afa158015611ff3573d6000803e3d6000fd5b505050506040513d601f19601f8201168201806040525081019061201791906136c6565b612025565b6120258261289c565b9392505050565b60408051600481526024810182526020810180516001600160e01b031663313ce56760e01b179052905160009182916001600160a01b0385169161206f916137c0565b600060405180830381855afa9150503d80600081146120aa576040519150601f19603f3d011682016040523d82523d6000602084013e6120af565b606091505b509150508080602001905181019061202591906137dc565b336001600160a01b037f0000000000000000000000000000000000000000000000000000000000000000161461214a5760405162461bcd60e51b815260206004820152602260248201527f4d73672e73656e646572206973206e6f7420576f726d686f6c652052656c617960448201526132b960f11b6064820152608401610926565b835160011461215857600080fd5b60006121638461289c565b61ffff84166000908152600d602090815260408083206001600160a01b038516845290915290205490915060ff16151560011461219f57600080fd5b6000806000888060200190518101906121b891906137f7565b6001600160a01b0383166000908152600c602090815260408083208b8452600501909152902060020154929550909350915060ff16156121f757600080fd5b6001600160a01b0383166000908152600c602052604090205461221b816001613144565b6001600160a01b0385166000908152600c602052604090205560ff83161580156122455750600082115b156124de5760006103e86004548461225d9190613672565b61226791906136e3565b905060006122758285613114565b905060006040518060a001604052808b61ffff1681526020018760ff16815260200160006001600160a01b0316815260200183815260200160011515815250905080600c6000896001600160a01b03166001600160a01b0316815260200190815260200160002060050160008b815260200190815260200160002060008201518160000160006101000a81548161ffff021916908361ffff16021790555060208201518160000160026101000a81548160ff021916908360ff16021790555060408201518160000160036101000a8154816001600160a01b0302191690836001600160a01b031602179055506060820151816001015560808201518160020160006101000a81548160ff02191690831515021790555090505088600c6000896001600160a01b03166001600160a01b03168152602001908152602001600020600601600086815260200190815260200160002060008c61ffff1661ffff1681526020019081526020016000208190555082600b6000806001600160a01b03166001600160a01b03168152602001908152602001600020546124169190613144565b6000808052600b602090815260008051602061388583398151915292909255604080518281529283019052906001600160a01b03891690849060405161245c91906137c0565b60006040518083038185875af1925050503d8060008114612499576040519150601f19603f3d011682016040523d82523d6000602084013e61249e565b606091505b50509050806124d9576001600160a01b0388166000908152600c602090815260408083208d84526005019091529020600201805460ff191690555b505050505b60ff8316600114801561250f575060008960008151811061250157612501613157565b602002602001015160600151115b156128055760008960008151811061252957612529613157565b602002602001015160400151905060006103e86004548c60008151811061255257612552613157565b6020026020010151606001516125689190613672565b61257291906136e3565b90506000818c60008151811061258a5761258a613157565b6020026020010151606001516125a09190613114565b905060006040518060a001604052808c61ffff1681526020018860ff168152602001856001600160a01b0316815260200183815260200160011515815250905080600c60008a6001600160a01b03166001600160a01b0316815260200190815260200160002060050160008c815260200190815260200160002060008201518160000160006101000a81548161ffff021916908361ffff16021790555060208201518160000160026101000a81548160ff021916908360ff16021790555060408201518160000160036101000a8154816001600160a01b0302191690836001600160a01b031602179055506060820151816001015560808201518160020160006101000a81548160ff02191690831515021790555090505089600c60008a6001600160a01b03166001600160a01b03168152602001908152602001600020600601600087815260200190815260200160002060008d61ffff1661ffff1681526020019081526020016000208190555082600b6000866001600160a01b03166001600160a01b03168152602001908152602001600020546127409190613144565b6001600160a01b038581166000818152600b602052604080822094909455925163a9059cbb60e01b8152918b166004830152602482018590529063a9059cbb906044016020604051808303816000875af11580156127a2573d6000803e3d6000fd5b505050506040513d601f19601f820116820180604052508101906127c69190613127565b9050806127ff576001600160a01b0389166000908152600c602090815260408083208e84526005019091529020600201805460ff191690555b50505050505b50505050505050505050565b600280546001600160a01b038381166001600160a01b0319831681179093556040519116919082907f8be0079c531659141344cd1fd0a4f28419497f9722a3daafe3b4186f6b6457e090600090a35050565b604080516060810182526000808252602082018190529181019190915261156185858585604051806020016040528060008152506128c8565b600060a082901c156128c45760405163033b960d60e41b815260048101839052602401610926565b5090565b604080516060810182526000808252602082018190529181019190915260405163095ea7b360e01b81526001600160a01b037f0000000000000000000000000000000000000000000000000000000000000000811660048301526024820187905287169063095ea7b3906044016020604051808303816000875af1158015612954573d6000803e3d6000fd5b505050506040513d601f19601f820116820180604052508101906129789190613127565b5060007f00000000000000000000000000000000000000000000000000000000000000006001600160a01b031663c5a5ebda7f00000000000000000000000000000000000000000000000000000000000000006001600160a01b0316631a90a2196040518163ffffffff1660e01b8152600401602060405180830381865afa158015612a08573d6000803e3d6000fd5b505050506040513d601f19601f82011682018060405250810190612a2c9190613434565b8989896001600160a01b038a1660008a6040518863ffffffff1660e01b8152600401612a5d96959493929190613835565b60206040518083038185885af1158015612a7b573d6000803e3d6000fd5b50505050506040513d601f19601f82011682018060405250810190612aa091906137a5565b905060405180606001604052807f00000000000000000000000000000000000000000000000000000000000000006001600160a01b0316639a8a05926040518163ffffffff1660e01b8152600401602060405180830381865afa158015612b0b573d6000803e3d6000fd5b505050506040513d601f19601f82011682018060405250810190612b2f9190613515565b61ffff1681526020016001600160a01b037f0000000000000000000000000000000000000000000000000000000000000000168152602001826001600160401b031681525091505095945050505050565b6001600160a01b03811681146119a957600080fd5b60008060408385031215612ba857600080fd5b823591506020830135612bba81612b80565b809150509250929050565b60008060408385031215612bd857600080fd5b8235612be381612b80565b91506020830135612bba81612b80565b600060208284031215612c0557600080fd5b5035919050565b61ffff811681146119a957600080fd5b8035612c2781612c0c565b919050565b600080600080600080600060e0888a031215612c4757600080fd5b8735612c5281612c0c565b96506020880135612c6281612b80565b95506040880135612c7281612b80565b9450606088013593506080880135612c8981612b80565b925060a0880135915060c0880135612ca081612b80565b8091505092959891949750929550565b600060208284031215612cc257600080fd5b813561202581612b80565b600080600060608486031215612ce257600080fd5b8335612ced81612b80565b9250602084013591506040840135612d0481612c0c565b809150509250925092565b600080600060608486031215612d2457600080fd5b8335612d2f81612b80565b9250602084013591506040840135612d0481612b80565b634e487b7160e01b600052604160045260246000fd5b604051608081016001600160401b0381118282101715612d7e57612d7e612d46565b60405290565b60405161016081016001600160401b0381118282101715612d7e57612d7e612d46565b60405161010081016001600160401b0381118282101715612d7e57612d7e612d46565b604051601f8201601f191681016001600160401b0381118282101715612df257612df2612d46565b604052919050565b60006001600160401b03821115612e1357612e13612d46565b50601f01601f191660200190565b600082601f830112612e3257600080fd5b8135612e45612e4082612dfa565b612dca565b818152846020838601011115612e5a57600080fd5b816020850160208301376000918101602001919091529392505050565b60006001600160401b03821115612e9057612e90612d46565b5060051b60200190565b600080600080600060a08688031215612eb257600080fd5b85356001600160401b0380821115612ec957600080fd5b612ed589838a01612e21565b9650602091508188013581811115612eec57600080fd5b8801601f81018a13612efd57600080fd5b8035612f0b612e4082612e77565b81815260059190911b8201840190848101908c831115612f2a57600080fd5b8584015b83811015612f6257803586811115612f465760008081fd5b612f548f8983890101612e21565b845250918601918601612f2e565b50985050505060408801359450612f7e91505060608701612c1c565b949793965091946080013592915050565b600080600060608486031215612fa457600080fd5b8335612faf81612c0c565b95602085013595506040909401359392505050565b60008060408385031215612fd757600080fd5b8235612be381612c0c565b60008060408385031215612ff557600080fd5b823561300081612b80565b946020939093013593505050565b60008060008060008060c0878903121561302757600080fd5b863561303281612c0c565b9550602087013561304281612b80565b9450604087013561305281612b80565b9350606087013592506080870135915060a087013561307081612b80565b809150509295509295509295565b6000806040838503121561309157600080fd5b823561300081612c0c565b80151581146119a957600080fd5b6000602082840312156130bc57600080fd5b81356120258161309c565b6000806000606084860312156130dc57600080fd5b83356130e781612b80565b9250602084013591506040840135612d048161309c565b634e487b7160e01b600052601160045260246000fd5b818103818111156115e5576115e56130fe565b60006020828403121561313957600080fd5b81516120258161309c565b808201808211156115e5576115e56130fe565b634e487b7160e01b600052603260045260246000fd5b60005b83811015613188578181015183820152602001613170565b50506000910152565b600081518084526131a981602086016020860161316d565b601f01601f19169290920160200192915050565b6020815260006120256020830184613191565b805160ff81168114612c2757600080fd5b805163ffffffff81168114612c2757600080fd5b8051612c2781612c0c565b80516001600160401b0381168114612c2757600080fd5b600082601f83011261322857600080fd5b8151613236612e4082612dfa565b81815284602083860101111561324b57600080fd5b61325c82602083016020870161316d565b949350505050565b600082601f83011261327557600080fd5b81516020613285612e4083612e77565b82815260079290921b840181019181810190868411156132a457600080fd5b8286015b8481101561330557608081890312156132c15760008081fd5b6132c9612d5c565b81518152848201518582015260406132e28184016131d0565b9082015260606132f38382016131d0565b908201528352918301916080016132a8565b509695505050505050565b60006020828403121561332257600080fd5b81516001600160401b038082111561333957600080fd5b90830190610160828603121561334e57600080fd5b613356612d84565b61335f836131d0565b815261336d602084016131e1565b602082015261337e604084016131e1565b604082015261338f606084016131f5565b6060820152608083015160808201526133aa60a08401613200565b60a08201526133bb60c084016131d0565b60c082015260e0830151828111156133d257600080fd5b6133de87828601613217565b60e0830152506101006133f28185016131e1565b90820152610120838101518381111561340a57600080fd5b61341688828701613264565b91830191909152506101409283015192810192909252509392505050565b60006020828403121561344657600080fd5b5051919050565b60006020828403121561345f57600080fd5b81516001600160401b038082111561347657600080fd5b90830190610100828603121561348b57600080fd5b613493612da7565b61349c836131d0565b815260208301516020820152604083015160408201526134be606084016131f5565b6060820152608083015160808201526134d960a084016131f5565b60a082015260c083015160c082015260e0830151828111156134fa57600080fd5b61350687828601613217565b60e08301525095945050505050565b60006020828403121561352757600080fd5b815161202581612c0c565b60006020828403121561354457600080fd5b81516001600160401b0381111561355a57600080fd5b61325c84828501613217565b60ff82811682821603908111156115e5576115e56130fe565b600181815b808511156135ba5781600019048211156135a0576135a06130fe565b808516156135ad57918102915b93841c9390800290613584565b509250929050565b6000826135d1575060016115e5565b816135de575060006115e5565b81600181146135f457600281146135fe5761361a565b60019150506115e5565b60ff84111561360f5761360f6130fe565b50506001821b6115e5565b5060208310610133831016604e8410600b841016171561363d575081810a6115e5565b613647838361357f565b806000190482111561365b5761365b6130fe565b029392505050565b600061202560ff8416836135c2565b80820281158282048414176115e5576115e56130fe565b60006001820161369b5761369b6130fe565b5060010190565b600080604083850312156136b557600080fd5b505080516020909101519092909150565b6000602082840312156136d857600080fd5b815161202581612b80565b60008261370057634e487b7160e01b600052601260045260246000fd5b500490565b600061ffff8089168352602060018060a01b03891681850152604060c08186015261373360c086018a613191565b60608681018a90526080870189905286820360a088015287518083528489019285019060005b8181101561379157845180518916845287810151888501528601516001600160401b0316868401529386019391830191600101613759565b50909e9d5050505050505050505050505050565b6000602082840312156137b757600080fd5b61202582613200565b600082516137d281846020870161316d565b9190910192915050565b6000602082840312156137ee57600080fd5b612025826131d0565b60008060006060848603121561380c57600080fd5b835161381781612b80565b9250613825602085016131d0565b9150604084015190509250925092565b60018060a01b038716815285602082015261ffff8516604082015283606082015263ffffffff8316608082015260c060a0820152600061387860c0830184613191565b9897505050505050505056fedf7de25b7f1fd6d0b5205f0e18f1f35bd7b8d84cce336588d184533ce43a6f76a26469706673582212207b72650c6c3ee2ceee073c57771392ecf79f73ebcf4e1b21ee3e81a78fa3bfbd64736f6c63430008110033",
  "linkReferences": {},
  "deployedLinkReferences": {}
}