{"contracts/BridgePart.sol":{"BridgeV1":{"abi":[{"inputs":[{"internalType":"address","name":"_wormholeRelayer","type":"address"},{"internalType":"address","name":"_tokenBridge","type":"address"},{"internalType":"address","name":"_wormhole","type":"address"},{"internalType":"address","name":"grayzoneAddress","type":"address"}],"stateMutability":"nonpayable","type":"constructor"},{"inputs":[{"internalType":"bytes32","name":"","type":"bytes32"}],"name":"NotAnEvmAddress","type":"error"},{"anonymous":false,"inputs":[{"indexed":true,"internalType":"address","name":"previousOwner","type":"address"},{"indexed":true,"internalType":"address","name":"newOwner","type":"address"}],"name":"OwnershipTransferred","type":"event"},{"inputs":[],"name":"bridgeActive","outputs":[{"internalType":"bool","name":"","type":"bool"}],"stateMutability":"view","type":"function"},{"inputs":[{"internalType":"uint16","name":"targetChain","type":"uint16"},{"internalType":"address","name":"targetBridge","type":"address"},{"internalType":"address","name":"recipient","type":"address"},{"internalType":"uint256","name":"amount","type":"uint256"},{"internalType":"address","name":"token","type":"address"},{"internalType":"uint256","name":"dstGas","type":"uint256"},{"internalType":"address","name":"ref","type":"address"}],"name":"bridgeErc20","outputs":[],"stateMutability":"payable","type":"function"},{"inputs":[{"internalType":"uint16","name":"targetChain","type":"uint16"},{"internalType":"address","name":"targetBridge","type":"address"},{"internalType":"address","name":"recipient","type":"address"},{"internalType":"uint256","name":"amount","type":"uint256"},{"internalType":"uint256","name":"dstGas","type":"uint256"},{"internalType":"address","name":"ref","type":"address"}],"name":"bridgeEther","outputs":[],"stateMutability":"payable","type":"function"},{"inputs":[{"internalType":"uint256","name":"wEi","type":"uint256"}],"name":"changeBaseFee","outputs":[],"stateMutability":"nonpayable","type":"function"},{"inputs":[{"internalType":"uint256","name":"fMultiplier_","type":"uint256"}],"name":"changePercentFee","outputs":[],"stateMutability":"nonpayable","type":"function"},{"inputs":[{"internalType":"bytes32","name":"deliveryhash","type":"bytes32"}],"name":"claimFailedBridge","outputs":[],"stateMutability":"nonpayable","type":"function"},{"inputs":[{"internalType":"uint16","name":"","type":"uint16"},{"internalType":"address","name":"","type":"address"}],"name":"endpoints","outputs":[{"internalType":"bool","name":"","type":"bool"}],"stateMutability":"view","type":"function"},{"inputs":[],"name":"fMultiplier","outputs":[{"internalType":"uint256","name":"","type":"uint256"}],"stateMutability":"view","type":"function"},{"inputs":[],"name":"fee","outputs":[{"internalType":"uint256","name":"","type":"uint256"}],"stateMutability":"view","type":"function"},{"inputs":[{"internalType":"address","name":"","type":"address"}],"name":"feesTotal","outputs":[{"internalType":"uint256","name":"","type":"uint256"}],"stateMutability":"view","type":"function"},{"inputs":[{"internalType":"address","name":"user","type":"address"},{"internalType":"uint256","name":"nonce","type":"uint256"},{"internalType":"uint16","name":"chainId","type":"uint16"}],"name":"getUserBridgeHashes","outputs":[{"internalType":"bytes32","name":"","type":"bytes32"}],"stateMutability":"view","type":"function"},{"inputs":[{"internalType":"address","name":"user","type":"address"},{"internalType":"bytes32","name":"hash","type":"bytes32"}],"name":"getUserBridges","outputs":[{"components":[{"internalType":"uint16","name":"fromChain","type":"uint16"},{"internalType":"uint8","name":"sendType","type":"uint8"},{"internalType":"address","name":"token","type":"address"},{"internalType":"uint256","name":"amount","type":"uint256"},{"internalType":"bool","name":"claimed","type":"bool"}],"internalType":"struct BridgeV1.Bridges","name":"","type":"tuple"}],"stateMutability":"view","type":"function"},{"inputs":[{"internalType":"address","name":"user","type":"address"}],"name":"getUserData","outputs":[{"internalType":"uint256","name":"","type":"uint256"},{"internalType":"uint256","name":"","type":"uint256"},{"internalType":"uint256","name":"","type":"uint256"},{"internalType":"uint256","name":"","type":"uint256"}],"stateMutability":"view","type":"function"},{"inputs":[{"internalType":"address","name":"user","type":"address"}],"name":"getUserReferalStat","outputs":[{"components":[{"internalType":"bool","name":"refered","type":"bool"},{"internalType":"address","name":"referer","type":"address"}],"internalType":"struct BridgeV1.Referals","name":"","type":"tuple"}],"stateMutability":"view","type":"function"},{"inputs":[{"internalType":"address","name":"user","type":"address"},{"internalType":"uint256","name":"nonce","type":"uint256"}],"name":"getUserReferals","outputs":[{"internalType":"address","name":"","type":"address"}],"stateMutability":"view","type":"function"},{"inputs":[],"name":"owner","outputs":[{"internalType":"address","name":"","type":"address"}],"stateMutability":"view","type":"function"},{"inputs":[{"internalType":"uint16","name":"targetChain","type":"uint16"},{"internalType":"uint256","name":"amt","type":"uint256"},{"internalType":"uint256","name":"gasUnits","type":"uint256"}],"name":"quoteCrossChainDeposit","outputs":[{"internalType":"uint256","name":"cost","type":"uint256"}],"stateMutability":"view","type":"function"},{"inputs":[{"internalType":"bytes","name":"payload","type":"bytes"},{"internalType":"bytes[]","name":"additionalVaas","type":"bytes[]"},{"internalType":"bytes32","name":"sourceAddress","type":"bytes32"},{"internalType":"uint16","name":"sourceChain","type":"uint16"},{"internalType":"bytes32","name":"deliveryHash","type":"bytes32"}],"name":"receiveWormholeMessages","outputs":[],"stateMutability":"payable","type":"function"},{"inputs":[],"name":"renounceOwnership","outputs":[],"stateMutability":"nonpayable","type":"function"},{"inputs":[{"internalType":"uint16","name":"chainId","type":"uint16"},{"internalType":"address","name":"bridgeContract","type":"address"}],"name":"setAllowedEndpoint","outputs":[],"stateMutability":"nonpayable","type":"function"},{"inputs":[{"internalType":"address","name":"addr","type":"address"}],"name":"setProfitShareAddr","outputs":[],"stateMutability":"nonpayable","type":"function"},{"inputs":[{"internalType":"uint256","name":"multiplier","type":"uint256"}],"name":"setProfitSharePercent","outputs":[],"stateMutability":"nonpayable","type":"function"},{"inputs":[{"internalType":"uint16","name":"sourceChain","type":"uint16"},{"internalType":"bytes32","name":"sourceAddress","type":"bytes32"}],"name":"setRegisteredSender","outputs":[],"stateMutability":"nonpayable","type":"function"},{"inputs":[{"internalType":"address","name":"user","type":"address"},{"internalType":"uint256","name":"p","type":"uint256"}],"name":"setUserPoints","outputs":[],"stateMutability":"nonpayable","type":"function"},{"inputs":[],"name":"solutionsProviderAddress","outputs":[{"internalType":"address","name":"","type":"address"}],"stateMutability":"view","type":"function"},{"inputs":[],"name":"solutionsProviderShare","outputs":[{"internalType":"uint256","name":"","type":"uint256"}],"stateMutability":"view","type":"function"},{"inputs":[{"internalType":"bool","name":"state","type":"bool"}],"name":"toggleState","outputs":[],"stateMutability":"nonpayable","type":"function"},{"inputs":[],"name":"tokenBridge","outputs":[{"internalType":"contract ITokenBridge","name":"","type":"address"}],"stateMutability":"view","type":"function"},{"inputs":[],"name":"totalPoints","outputs":[{"internalType":"uint256","name":"","type":"uint256"}],"stateMutability":"view","type":"function"},{"inputs":[{"internalType":"address","name":"","type":"address"},{"internalType":"address","name":"","type":"address"}],"name":"totalUserVolume","outputs":[{"internalType":"uint256","name":"","type":"uint256"}],"stateMutability":"view","type":"function"},{"inputs":[{"internalType":"address","name":"newOwner","type":"address"}],"name":"transferOwnership","outputs":[],"stateMutability":"nonpayable","type":"function"},{"inputs":[{"internalType":"address","name":"token","type":"address"},{"internalType":"uint256","name":"amt","type":"uint256"},{"internalType":"bool","name":"isFee","type":"bool"}],"name":"unsafeWithdraw","outputs":[],"stateMutability":"nonpayable","type":"function"},{"inputs":[{"internalType":"uint256","name":"amt","type":"uint256"},{"internalType":"address","name":"to","type":"address"}],"name":"withdrawEthRevenue","outputs":[],"stateMutability":"nonpayable","type":"function"},{"inputs":[{"internalType":"address","name":"token","type":"address"},{"internalType":"uint256","name":"amt","type":"uint256"},{"internalType":"address","name":"to","type":"address"}],"name":"withdrawTokenRevenue","outputs":[],"stateMutability":"nonpayable","type":"function"},{"inputs":[],"name":"wormhole","outputs":[{"internalType":"contract IWormhole","name":"","type":"address"}],"stateMutability":"view","type":"function"},{"inputs":[],"name":"wormholeRelayer","outputs":[{"internalType":"contract IWormholeRelayer","name":"","type":"address"}],"stateMutability":"view","type":"function"}],"evm":{"bytecode":{"linkReferences":{},"object":"60e060405266038d7ea4c68000600355600560045560136006556008805460ff191660011790553480156200003357600080fd5b5060405162003b1138038062003b1183398101604081905262000056916200012c565b6001600160a01b0380851660805280831660a052600080546001600160a01b03191633179055831660c052620000936200008d3390565b620000bd565b600580546001600160a01b0319166001600160a01b03929092169190911790555062000189915050565b600280546001600160a01b038381166001600160a01b0319831681179093556040519116919082907f8be0079c531659141344cd1fd0a4f28419497f9722a3daafe3b4186f6b6457e090600090a35050565b80516001600160a01b03811681146200012757600080fd5b919050565b600080600080608085870312156200014357600080fd5b6200014e856200010f565b93506200015e602086016200010f565b92506200016e604086016200010f565b91506200017e606086016200010f565b905092959194509250565b60805160a05160c0516138da62000237600039600081816105df015281816110520152818161112f015281816112a1015281816116df01528181611fa4015281816128fc0152818161297d0152612b4201526000818161042701528181610f88015281816111b9015281816114cd01528181611ef6015281816129ac0152612aaf0152600081816107420152818161145901528181611c3c01528181611cab01526120d201526138da6000f3fe60806040526004361061020f5760003560e01c8063a74ae70d11610118578063dd12d68b116100a0578063ead93c8f1161006f578063ead93c8f146107e3578063eff6be2f146107fd578063f2fde38b1461081d578063fdf04da31461083d578063ffc9896b1461085d57600080fd5b8063dd12d68b14610777578063dd3a2ae614610797578063ddca3f43146107ad578063e1de15fb146107c357600080fd5b8063c6328a46116100e7578063c6328a46146105cd578063cb3bad9114610601578063ce9581b414610621578063da25b72514610730578063db4284911461076457600080fd5b8063a74ae70d146104b4578063a7ea87e2146104d4578063b7d5dadf146104f4578063c3d9d2bf1461058257600080fd5b8063567142be1161019b57806382a1708e1161016a57806382a1708e146103f557806384acd1bb146104155780638da5cb5b14610449578063940916d614610467578063a345908f1461049457600080fd5b8063567142be146103945780636d8e6d72146103aa578063715018a6146103ca5780637877e724146103df57600080fd5b8063346b994b116101e2578063346b994b146102d957806334aad8d6146102ec578063412222d01461030c578063489895b014610361578063529dca321461038157600080fd5b806306b2fc0b146102145780630fe5180214610236578063175693771461027357806330f014b6146102b9575b600080fd5b34801561022057600080fd5b5061023461022f366004612b95565b6108c9565b005b34801561024257600080fd5b50600554610256906001600160a01b031681565b6040516001600160a01b0390911681526020015b60405180910390f35b34801561027f57600080fd5b506102ab61028e366004612bc5565b600960209081526000928352604080842090915290825290205481565b60405190815260200161026a565b3480156102c557600080fd5b506102346102d4366004612bf3565b6109a9565b6102346102e7366004612c2c565b610b5d565b3480156102f857600080fd5b50610234610307366004612cb0565b610da2565b34801561031857600080fd5b506102ab610327366004612ccd565b6001600160a01b0383166000908152600c60209081526040808320858452600601825280832061ffff851684529091529020549392505050565b34801561036d57600080fd5b5061023461037c366004612d0f565b610ddb565b61023461038f366004612e9a565b610f01565b3480156103a057600080fd5b506102ab60075481565b3480156103b657600080fd5b506102ab6103c5366004612f8f565b611425565b3480156103d657600080fd5b5061023461156a565b3480156103eb57600080fd5b506102ab60065481565b34801561040157600080fd5b50610234610410366004612fc4565b61157e565b34801561042157600080fd5b506102567f000000000000000000000000000000000000000000000000000000000000000081565b34801561045557600080fd5b506002546001600160a01b0316610256565b34801561047357600080fd5b506102ab610482366004612cb0565b600b6020526000908152604090205481565b3480156104a057600080fd5b506102566104af366004612fe2565b6115bb565b3480156104c057600080fd5b506102346104cf366004612bf3565b6115eb565b3480156104e057600080fd5b506102346104ef366004612fe2565b61163c565b34801561050057600080fd5b5061055c61050f366004612cb0565b604080518082018252600080825260209182018190526001600160a01b039384168152600a825282902082518084019093525460ff81161515835261010090049092169181019190915290565b604080518251151581526020928301516001600160a01b0316928101929092520161026a565b34801561058e57600080fd5b506105bd61059d366004612fc4565b600d60209081526000928352604080842090915290825290205460ff1681565b604051901515815260200161026a565b3480156105d957600080fd5b506102567f000000000000000000000000000000000000000000000000000000000000000081565b34801561060d57600080fd5b5061023461061c366004612bf3565b611663565b34801561062d57600080fd5b506106e161063c366004612fe2565b6040805160a081018252600080825260208201819052918101829052606081018290526080810191909152506001600160a01b038083166000908152600c60209081526040808320858452600501825291829020825160a081018452815461ffff8116825260ff620100008204811694830194909452630100000090049094169284019290925260018201546060840152600290910154161515608082015292915050565b60405161026a9190815161ffff16815260208083015160ff16908201526040808301516001600160a01b0316908201526060808301519082015260809182015115159181019190915260a00190565b34801561073c57600080fd5b506102567f000000000000000000000000000000000000000000000000000000000000000081565b61023461077236600461300e565b61168c565b34801561078357600080fd5b5061023461079236600461307e565b61188e565b3480156107a357600080fd5b506102ab60045481565b3480156107b957600080fd5b506102ab60035481565b3480156107cf57600080fd5b506102346107de3660046130aa565b61190b565b3480156107ef57600080fd5b506008546105bd9060ff1681565b34801561080957600080fd5b50610234610818366004612bf3565b611926565b34801561082957600080fd5b50610234610838366004612cb0565b611933565b34801561084957600080fd5b506102346108583660046130c7565b6119ac565b34801561086957600080fd5b506108a9610878366004612cb0565b6001600160a01b03166000908152600c60205260409020805460018201546002830154600390930154919390929190565b60408051948552602085019390935291830152606082015260800161026a565b6108d1611acf565b60008052600b6020526000805160206138858339815191525482111561092f5760405162461bcd60e51b815260206004820152600e60248201526d1b9bdd08195b9bdd59da08185b5d60921b60448201526064015b60405180910390fd5b60008052600b60205260008051602061388583398151915254610953908390613114565b6000808052600b602052600080516020613885833981519152919091556040516001600160a01b0383169184156108fc02918591818181858888f193505050501580156109a4573d6000803e3d6000fd5b505050565b336000908152600c60209081526040808320848452600501825291829020825160a081018452815461ffff8116825260ff620100008204811694830194909452630100000090046001600160a01b031693810184905260018201546060820181905260029092015490921615156080830181905291928115801590610a2c575082155b610a6a5760405162461bcd60e51b815260206004820152600f60248201526e185b1c9958591e4818db185a5b5959608a1b6044820152606401610926565b602084015160ff16158015610a7f5750600082115b8015610a89575082155b15610abd57604051339083156108fc029084906000818181858888f19350505050158015610abb573d6000803e3d6000fd5b505b602084015160ff166001148015610ad45750600082115b8015610ade575082155b15610b565760405163a9059cbb60e01b8152336004820152602481018390526001600160a01b0382169063a9059cbb906044016020604051808303816000875af1158015610b30573d6000803e3d6000fd5b505050506040513d601f19601f82011682018060405250810190610b549190613127565b505b5050505050565b6000610b6b88600085611425565b9050803414610bac5760405162461bcd60e51b815260206004820152600d60248201526c1b9bdd0818dc9c98dd08185b5d609a1b6044820152606401610926565b6040516323b872dd60e01b8152336004820152306024820152604481018690526000906001600160a01b038616906323b872dd906064016020604051808303816000875af1158015610c02573d6000803e3d6000fd5b505050506040513d601f19601f82011682018060405250810190610c269190613127565b905080610c5e5760405162461bcd60e51b815260206004820152600660248201526519985a5b195960d21b6044820152606401610926565b610c69600354611b29565b50600355604080516001600160a01b0389166020820152600191810191909152600060608201819052906080016040516020818303038152906040529050610cb78a8a836000898b8d611b97565b503360009081526009602090815260408083206001600160a01b038a168452909152902054610ce7908890613144565b3360008181526009602090815260408083206001600160a01b038c168452909152902091909155610d189085611d51565b610d223385611e47565b336000908152600c60205260409020600190810154610d4091613144565b336000908152600c60209081526040822060010192909255600354908052600b90915260008051602061388583398151915254610d7d9190613144565b60008052600b6020526000805160206138858339815191525550505050505050505050565b6005546001600160a01b03163314610db957600080fd5b600580546001600160a01b0319166001600160a01b0392909216919091179055565b610de3611acf565b6001600160a01b0383166000908152600b60205260409020548211801590610e1357506001600160a01b03831615155b610e505760405162461bcd60e51b815260206004820152600e60248201526d1b9bdd08195b9bdd59da08185b5d60921b6044820152606401610926565b6001600160a01b0383166000908152600b6020526040902054610e74908390613114565b6001600160a01b038481166000818152600b60205260409081902093909355915163a9059cbb60e01b815290831660048201526024810184905263a9059cbb906044015b6020604051808303816000875af1158015610ed7573d6000803e3d6000fd5b505050506040513d601f19601f82011682018060405250810190610efb9190613127565b50505050565b600084516001600160401b03811115610f1c57610f1c612d46565b604051908082528060200260200182016040528015610f7557816020015b6040805160a081018252600080825260208083018290529282018190526060820181905260808201528252600019909201910181610f3a5790505b50905060005b85518110156114175760007f00000000000000000000000000000000000000000000000000000000000000006001600160a01b031663a9e11893888481518110610fc757610fc7613157565b60200260200101516040518263ffffffff1660e01b8152600401610feb91906131bd565b600060405180830381865afa158015611008573d6000803e3d6000fd5b505050506040513d6000823e601f3d908101601f191682016040526110309190810190613310565b606081015160405163ad66a5f160e01b815261ffff90911660048201529091507f00000000000000000000000000000000000000000000000000000000000000006001600160a01b03169063ad66a5f190602401602060405180830381865afa1580156110a1573d6000803e3d6000fd5b505050506040513d601f19601f820116820180604052508101906110c59190613434565b8160800151146111105760405162461bcd60e51b81526020600482015260166024820152754e6f74206120546f6b656e204272696467652056414160501b6044820152606401610926565b60e081015160405163ea63738d60e01b81526000916001600160a01b037f0000000000000000000000000000000000000000000000000000000000000000169163ea63738d91611162916004016131bd565b600060405180830381865afa15801561117f573d6000803e3d6000fd5b505050506040513d6000823e601f3d908101601f191682016040526111a7919081019061344d565b905030816080015114801561124857507f00000000000000000000000000000000000000000000000000000000000000006001600160a01b0316639a8a05926040518163ffffffff1660e01b8152600401602060405180830381865afa158015611215573d6000803e3d6000fd5b505050506040513d601f19601f820116820180604052508101906112399190613515565b61ffff168160a0015161ffff16145b61129f5760405162461bcd60e51b815260206004820152602260248201527f546f6b656e20776173206e6f742073656e7420746f2074686973206164647265604482015261737360f01b6064820152608401610926565b7f00000000000000000000000000000000000000000000000000000000000000006001600160a01b031663c3f511c18985815181106112e0576112e0613157565b60200260200101516040518263ffffffff1660e01b815260040161130491906131bd565b6000604051808303816000875af1158015611323573d6000803e3d6000fd5b505050506040513d6000823e601f3d908101601f1916820160405261134b9190810190613532565b50600061136082606001518360400151611ef2565b9050600061136d8261202c565b6020840151909150600860ff831611156113a45761138c600883613566565b61139790600a613663565b6113a19082613672565b90505b6040518060a0016040528085604001518152602001856060015161ffff168152602001846001600160a01b0316815260200182815260200185602001518152508787815181106113f6576113f6613157565b602002602001018190525050505050508061141090613689565b9050610f7b565b50610b5486828686866120c7565b60405163c23ee3c360e01b815261ffff84166004820152602481018390526044810182905260009081906001600160a01b037f0000000000000000000000000000000000000000000000000000000000000000169063c23ee3c3906064016040805180830381865afa15801561149f573d6000803e3d6000fd5b505050506040513d601f19601f820116820180604052508101906114c391906136a2565b50809150506003547f00000000000000000000000000000000000000000000000000000000000000006001600160a01b0316631a90a2196040518163ffffffff1660e01b8152600401602060405180830381865afa158015611529573d6000803e3d6000fd5b505050506040513d601f19601f8201168201806040525081019061154d9190613434565b6115579083613144565b6115619190613144565b95945050505050565b611572611acf565b61157c6000612811565b565b611586611acf565b61ffff9091166000908152600d602090815260408083206001600160a01b03909416835292905220805460ff19166001179055565b6001600160a01b038083166000908152600c60209081526040808320858452600401909152902054165b92915050565b6115f3611acf565b606581106116375760405162461bcd60e51b815260206004820152601160248201527063616e6e6f74206578636565642031302560781b6044820152606401610926565b600455565b611644611acf565b6001600160a01b039091166000908152600c6020526040902060020155565b6014811061167057600080fd5b6005546001600160a01b0316331461168757600080fd5b600655565b6000611699878585611425565b9050803410156116db5760405162461bcd60e51b815260206004820152600d60248201526c1b9bdd0818dc9c98dd08185b5d609a1b6044820152606401610926565b60007f00000000000000000000000000000000000000000000000000000000000000006001600160a01b031663ad5c46486040518163ffffffff1660e01b8152600401602060405180830381865afa15801561173b573d6000803e3d6000fd5b505050506040513d601f19601f8201168201806040525081019061175f91906136c6565b905061176c600354611b29565b50600355604080516001600160a01b038816602082015260009181018290526060810187905260800160405160208183030381529060405290506117b68989838989876000611b97565b503360009081526009602090815260408083208380529091529020546117dd908790613144565b3360008181526009602090815260408083208380529091529020919091556118059085611d51565b61180f3385611e47565b336000908152600c6020526040902060019081015461182d91613144565b336000908152600c60209081526040822060010192909255600354908052600b9091526000805160206138858339815191525461186a9190613144565b60008052600b60205260008051602061388583398151915255505050505050505050565b6000546001600160a01b031633146118f45760405162461bcd60e51b8152602060048201526024808201527f4e6f7420616c6c6f77656420746f207365742072656769737465726564207365604482015263373232b960e11b6064820152608401610926565b61ffff909116600090815260016020526040902055565b611913611acf565b6008805460ff1916911515919091179055565b61192e611acf565b600355565b61193b611acf565b6001600160a01b0381166119a05760405162461bcd60e51b815260206004820152602660248201527f4f776e61626c653a206e6577206f776e657220697320746865207a65726f206160448201526564647265737360d01b6064820152608401610926565b6119a981612811565b50565b6119b4611acf565b60085460ff1615611a195760405162461bcd60e51b815260206004820152602960248201527f4f6e6c7920616c6c6f7765642069662062726964676520696e61637469766520604482015268666f7220757365727360b81b6064820152608401610926565b801515600103611a61576001600160a01b0383166000908152600b6020526040902054611a47908390613114565b6001600160a01b0384166000908152600b60205260409020555b6001600160a01b038316611a9c57604051339083156108fc029084906000818181858888f19350505050158015610efb573d6000803e3d6000fd5b60405163a9059cbb60e01b8152336004820152602481018390526001600160a01b0384169063a9059cbb90604401610eb8565b6002546001600160a01b0316331461157c5760405162461bcd60e51b815260206004820181905260248201527f4f776e61626c653a2063616c6c6572206973206e6f7420746865206f776e65726044820152606401610926565b6000806000606460065485611b3e9190613672565b611b4891906136e3565b6005546040519192506001600160a01b03169082156108fc029083906000818181858888f19350505050158015611b83573d6000803e3d6000fd5b50611b8e8185613114565b94909350915050565b604080516001808252818301909252600091829190816020015b6040805160608101825260008082526020808301829052928201528252600019909201910181611bb1579050509050611bec84848b8b612863565b81600081518110611bff57611bff613157565b602090810291909101015260405163c23ee3c360e01b815261ffff8a16600482015260248101879052604481018690526000906001600160a01b037f0000000000000000000000000000000000000000000000000000000000000000169063c23ee3c3906064016040805180830381865afa158015611c82573d6000803e3d6000fd5b505050506040513d601f19601f82011682018060405250810190611ca691906136a2565b5090507f00000000000000000000000000000000000000000000000000000000000000006001600160a01b031663329a2be7828c8c8c8c8c896040518863ffffffff1660e01b8152600401611d0096959493929190613705565b60206040518083038185885af1158015611d1e573d6000803e3d6000fd5b50505050506040513d601f19601f82011682018060405250810190611d4391906137a5565b9a9950505050505050505050565b6001600160a01b03811615801590611d8257506001600160a01b0382166000908152600a602052604090205460ff16155b8015611da957506001600160a01b0382166000908152600c60205260409020600190810154105b15611e43576001600160a01b038281166000908152600a60209081526040808320805460016001600160a81b0319909116610100968816968702178117909155938352600c90915290206003015490611e03908290613144565b6001600160a01b0383166000908152600c60209081526040808320600381019490945593825260049092019091522080546001600160a01b031916331790555b5050565b6001600160a01b0382166000908152600c6020526040902060020154611e6e906001613144565b6001600160a01b038084166000908152600c6020526040902060020191909155811615611ed9576001600160a01b0381166000908152600c6020526040902060020154611ebc906001613144565b6001600160a01b0382166000908152600c60205260409020600201555b60078054906000611ee983613689565b91905055505050565b60007f00000000000000000000000000000000000000000000000000000000000000006001600160a01b0316639a8a05926040518163ffffffff1660e01b8152600401602060405180830381865afa158015611f52573d6000803e3d6000fd5b505050506040513d601f19601f82011682018060405250810190611f769190613515565b61ffff168361ffff161461201c57604051630ff8f14360e11b815261ffff84166004820152602481018390527f00000000000000000000000000000000000000000000000000000000000000006001600160a01b031690631ff1e28690604401602060405180830381865afa158015611ff3573d6000803e3d6000fd5b505050506040513d601f19601f8201168201806040525081019061201791906136c6565b612025565b6120258261289c565b9392505050565b60408051600481526024810182526020810180516001600160e01b031663313ce56760e01b179052905160009182916001600160a01b0385169161206f916137c0565b600060405180830381855afa9150503d80600081146120aa576040519150601f19603f3d011682016040523d82523d6000602084013e6120af565b606091505b509150508080602001905181019061202591906137dc565b336001600160a01b037f0000000000000000000000000000000000000000000000000000000000000000161461214a5760405162461bcd60e51b815260206004820152602260248201527f4d73672e73656e646572206973206e6f7420576f726d686f6c652052656c617960448201526132b960f11b6064820152608401610926565b835160011461215857600080fd5b60006121638461289c565b61ffff84166000908152600d602090815260408083206001600160a01b038516845290915290205490915060ff16151560011461219f57600080fd5b6000806000888060200190518101906121b891906137f7565b6001600160a01b0383166000908152600c602090815260408083208b8452600501909152902060020154929550909350915060ff16156121f757600080fd5b6001600160a01b0383166000908152600c602052604090205461221b816001613144565b6001600160a01b0385166000908152600c602052604090205560ff83161580156122455750600082115b156124de5760006103e86004548461225d9190613672565b61226791906136e3565b905060006122758285613114565b905060006040518060a001604052808b61ffff1681526020018760ff16815260200160006001600160a01b0316815260200183815260200160011515815250905080600c6000896001600160a01b03166001600160a01b0316815260200190815260200160002060050160008b815260200190815260200160002060008201518160000160006101000a81548161ffff021916908361ffff16021790555060208201518160000160026101000a81548160ff021916908360ff16021790555060408201518160000160036101000a8154816001600160a01b0302191690836001600160a01b031602179055506060820151816001015560808201518160020160006101000a81548160ff02191690831515021790555090505088600c6000896001600160a01b03166001600160a01b03168152602001908152602001600020600601600086815260200190815260200160002060008c61ffff1661ffff1681526020019081526020016000208190555082600b6000806001600160a01b03166001600160a01b03168152602001908152602001600020546124169190613144565b6000808052600b602090815260008051602061388583398151915292909255604080518281529283019052906001600160a01b03891690849060405161245c91906137c0565b60006040518083038185875af1925050503d8060008114612499576040519150601f19603f3d011682016040523d82523d6000602084013e61249e565b606091505b50509050806124d9576001600160a01b0388166000908152600c602090815260408083208d84526005019091529020600201805460ff191690555b505050505b60ff8316600114801561250f575060008960008151811061250157612501613157565b602002602001015160600151115b156128055760008960008151811061252957612529613157565b602002602001015160400151905060006103e86004548c60008151811061255257612552613157565b6020026020010151606001516125689190613672565b61257291906136e3565b90506000818c60008151811061258a5761258a613157565b6020026020010151606001516125a09190613114565b905060006040518060a001604052808c61ffff1681526020018860ff168152602001856001600160a01b0316815260200183815260200160011515815250905080600c60008a6001600160a01b03166001600160a01b0316815260200190815260200160002060050160008c815260200190815260200160002060008201518160000160006101000a81548161ffff021916908361ffff16021790555060208201518160000160026101000a81548160ff021916908360ff16021790555060408201518160000160036101000a8154816001600160a01b0302191690836001600160a01b031602179055506060820151816001015560808201518160020160006101000a81548160ff02191690831515021790555090505089600c60008a6001600160a01b03166001600160a01b03168152602001908152602001600020600601600087815260200190815260200160002060008d61ffff1661ffff1681526020019081526020016000208190555082600b6000866001600160a01b03166001600160a01b03168152602001908152602001600020546127409190613144565b6001600160a01b038581166000818152600b602052604080822094909455925163a9059cbb60e01b8152918b166004830152602482018590529063a9059cbb906044016020604051808303816000875af11580156127a2573d6000803e3d6000fd5b505050506040513d601f19601f820116820180604052508101906127c69190613127565b9050806127ff576001600160a01b0389166000908152600c602090815260408083208e84526005019091529020600201805460ff191690555b50505050505b50505050505050505050565b600280546001600160a01b038381166001600160a01b0319831681179093556040519116919082907f8be0079c531659141344cd1fd0a4f28419497f9722a3daafe3b4186f6b6457e090600090a35050565b604080516060810182526000808252602082018190529181019190915261156185858585604051806020016040528060008152506128c8565b600060a082901c156128c45760405163033b960d60e41b815260048101839052602401610926565b5090565b604080516060810182526000808252602082018190529181019190915260405163095ea7b360e01b81526001600160a01b037f0000000000000000000000000000000000000000000000000000000000000000811660048301526024820187905287169063095ea7b3906044016020604051808303816000875af1158015612954573d6000803e3d6000fd5b505050506040513d601f19601f820116820180604052508101906129789190613127565b5060007f00000000000000000000000000000000000000000000000000000000000000006001600160a01b031663c5a5ebda7f00000000000000000000000000000000000000000000000000000000000000006001600160a01b0316631a90a2196040518163ffffffff1660e01b8152600401602060405180830381865afa158015612a08573d6000803e3d6000fd5b505050506040513d601f19601f82011682018060405250810190612a2c9190613434565b8989896001600160a01b038a1660008a6040518863ffffffff1660e01b8152600401612a5d96959493929190613835565b60206040518083038185885af1158015612a7b573d6000803e3d6000fd5b50505050506040513d601f19601f82011682018060405250810190612aa091906137a5565b905060405180606001604052807f00000000000000000000000000000000000000000000000000000000000000006001600160a01b0316639a8a05926040518163ffffffff1660e01b8152600401602060405180830381865afa158015612b0b573d6000803e3d6000fd5b505050506040513d601f19601f82011682018060405250810190612b2f9190613515565b61ffff1681526020016001600160a01b037f0000000000000000000000000000000000000000000000000000000000000000168152602001826001600160401b031681525091505095945050505050565b6001600160a01b03811681146119a957600080fd5b60008060408385031215612ba857600080fd5b823591506020830135612bba81612b80565b809150509250929050565b60008060408385031215612bd857600080fd5b8235612be381612b80565b91506020830135612bba81612b80565b600060208284031215612c0557600080fd5b5035919050565b61ffff811681146119a957600080fd5b8035612c2781612c0c565b919050565b600080600080600080600060e0888a031215612c4757600080fd5b8735612c5281612c0c565b96506020880135612c6281612b80565b95506040880135612c7281612b80565b9450606088013593506080880135612c8981612b80565b925060a0880135915060c0880135612ca081612b80565b8091505092959891949750929550565b600060208284031215612cc257600080fd5b813561202581612b80565b600080600060608486031215612ce257600080fd5b8335612ced81612b80565b9250602084013591506040840135612d0481612c0c565b809150509250925092565b600080600060608486031215612d2457600080fd5b8335612d2f81612b80565b9250602084013591506040840135612d0481612b80565b634e487b7160e01b600052604160045260246000fd5b604051608081016001600160401b0381118282101715612d7e57612d7e612d46565b60405290565b60405161016081016001600160401b0381118282101715612d7e57612d7e612d46565b60405161010081016001600160401b0381118282101715612d7e57612d7e612d46565b604051601f8201601f191681016001600160401b0381118282101715612df257612df2612d46565b604052919050565b60006001600160401b03821115612e1357612e13612d46565b50601f01601f191660200190565b600082601f830112612e3257600080fd5b8135612e45612e4082612dfa565b612dca565b818152846020838601011115612e5a57600080fd5b816020850160208301376000918101602001919091529392505050565b60006001600160401b03821115612e9057612e90612d46565b5060051b60200190565b600080600080600060a08688031215612eb257600080fd5b85356001600160401b0380821115612ec957600080fd5b612ed589838a01612e21565b9650602091508188013581811115612eec57600080fd5b8801601f81018a13612efd57600080fd5b8035612f0b612e4082612e77565b81815260059190911b8201840190848101908c831115612f2a57600080fd5b8584015b83811015612f6257803586811115612f465760008081fd5b612f548f8983890101612e21565b845250918601918601612f2e565b50985050505060408801359450612f7e91505060608701612c1c565b949793965091946080013592915050565b600080600060608486031215612fa457600080fd5b8335612faf81612c0c565b95602085013595506040909401359392505050565b60008060408385031215612fd757600080fd5b8235612be381612c0c565b60008060408385031215612ff557600080fd5b823561300081612b80565b946020939093013593505050565b60008060008060008060c0878903121561302757600080fd5b863561303281612c0c565b9550602087013561304281612b80565b9450604087013561305281612b80565b9350606087013592506080870135915060a087013561307081612b80565b809150509295509295509295565b6000806040838503121561309157600080fd5b823561300081612c0c565b80151581146119a957600080fd5b6000602082840312156130bc57600080fd5b81356120258161309c565b6000806000606084860312156130dc57600080fd5b83356130e781612b80565b9250602084013591506040840135612d048161309c565b634e487b7160e01b600052601160045260246000fd5b818103818111156115e5576115e56130fe565b60006020828403121561313957600080fd5b81516120258161309c565b808201808211156115e5576115e56130fe565b634e487b7160e01b600052603260045260246000fd5b60005b83811015613188578181015183820152602001613170565b50506000910152565b600081518084526131a981602086016020860161316d565b601f01601f19169290920160200192915050565b6020815260006120256020830184613191565b805160ff81168114612c2757600080fd5b805163ffffffff81168114612c2757600080fd5b8051612c2781612c0c565b80516001600160401b0381168114612c2757600080fd5b600082601f83011261322857600080fd5b8151613236612e4082612dfa565b81815284602083860101111561324b57600080fd5b61325c82602083016020870161316d565b949350505050565b600082601f83011261327557600080fd5b81516020613285612e4083612e77565b82815260079290921b840181019181810190868411156132a457600080fd5b8286015b8481101561330557608081890312156132c15760008081fd5b6132c9612d5c565b81518152848201518582015260406132e28184016131d0565b9082015260606132f38382016131d0565b908201528352918301916080016132a8565b509695505050505050565b60006020828403121561332257600080fd5b81516001600160401b038082111561333957600080fd5b90830190610160828603121561334e57600080fd5b613356612d84565b61335f836131d0565b815261336d602084016131e1565b602082015261337e604084016131e1565b604082015261338f606084016131f5565b6060820152608083015160808201526133aa60a08401613200565b60a08201526133bb60c084016131d0565b60c082015260e0830151828111156133d257600080fd5b6133de87828601613217565b60e0830152506101006133f28185016131e1565b90820152610120838101518381111561340a57600080fd5b61341688828701613264565b91830191909152506101409283015192810192909252509392505050565b60006020828403121561344657600080fd5b5051919050565b60006020828403121561345f57600080fd5b81516001600160401b038082111561347657600080fd5b90830190610100828603121561348b57600080fd5b613493612da7565b61349c836131d0565b815260208301516020820152604083015160408201526134be606084016131f5565b6060820152608083015160808201526134d960a084016131f5565b60a082015260c083015160c082015260e0830151828111156134fa57600080fd5b61350687828601613217565b60e08301525095945050505050565b60006020828403121561352757600080fd5b815161202581612c0c565b60006020828403121561354457600080fd5b81516001600160401b0381111561355a57600080fd5b61325c84828501613217565b60ff82811682821603908111156115e5576115e56130fe565b600181815b808511156135ba5781600019048211156135a0576135a06130fe565b808516156135ad57918102915b93841c9390800290613584565b509250929050565b6000826135d1575060016115e5565b816135de575060006115e5565b81600181146135f457600281146135fe5761361a565b60019150506115e5565b60ff84111561360f5761360f6130fe565b50506001821b6115e5565b5060208310610133831016604e8410600b841016171561363d575081810a6115e5565b613647838361357f565b806000190482111561365b5761365b6130fe565b029392505050565b600061202560ff8416836135c2565b80820281158282048414176115e5576115e56130fe565b60006001820161369b5761369b6130fe565b5060010190565b600080604083850312156136b557600080fd5b505080516020909101519092909150565b6000602082840312156136d857600080fd5b815161202581612b80565b60008261370057634e487b7160e01b600052601260045260246000fd5b500490565b600061ffff8089168352602060018060a01b03891681850152604060c08186015261373360c086018a613191565b60608681018a90526080870189905286820360a088015287518083528489019285019060005b8181101561379157845180518916845287810151888501528601516001600160401b0316868401529386019391830191600101613759565b50909e9d5050505050505050505050505050565b6000602082840312156137b757600080fd5b61202582613200565b600082516137d281846020870161316d565b9190910192915050565b6000602082840312156137ee57600080fd5b612025826131d0565b60008060006060848603121561380c57600080fd5b835161381781612b80565b9250613825602085016131d0565b9150604084015190509250925092565b60018060a01b038716815285602082015261ffff8516604082015283606082015263ffffffff8316608082015260c060a0820152600061387860c0830184613191565b9897505050505050505056fedf7de25b7f1fd6d0b5205f0e18f1f35bd7b8d84cce336588d184533ce43a6f76a26469706673582212207b72650c6c3ee2ceee073c57771392ecf79f73ebcf4e1b21ee3e81a78fa3bfbd64736f6c63430008110033","opcodes":"PUSH1 0xE0 PUSH1 0x40 MSTORE PUSH7 0x38D7EA4C68000 PUSH1 0x3 SSTORE PUSH1 0x5 PUSH1 0x4 SSTORE PUSH1 0x13 PUSH1 0x6 SSTORE PUSH1 0x8 DUP1 SLOAD PUSH1 0xFF NOT AND PUSH1 0x1 OR SWAP1 SSTORE CALLVALUE DUP1 ISZERO PUSH3 0x33 JUMPI PUSH1 0x0 DUP1 REVERT JUMPDEST POP PUSH1 0x40 MLOAD PUSH3 0x3B11 CODESIZE SUB DUP1 PUSH3 0x3B11 DUP4 CODECOPY DUP2 ADD PUSH1 0x40 DUP2 SWAP1 MSTORE PUSH3 0x56 SWAP2 PUSH3 0x12C JUMP JUMPDEST PUSH1 0x1 PUSH1 0x1 PUSH1 0xA0 SHL SUB DUP1 DUP6 AND PUSH1 0x80 MSTORE DUP1 DUP4 AND PUSH1 0xA0 MSTORE PUSH1 0x0 DUP1 SLOAD PUSH1 0x1 PUSH1 0x1 PUSH1 0xA0 SHL SUB NOT AND CALLER OR SWAP1 SSTORE DUP4 AND PUSH1 0xC0 MSTORE PUSH3 0x93 PUSH3 0x8D CALLER SWAP1 JUMP JUMPDEST PUSH3 0xBD JUMP JUMPDEST PUSH1 0x5 DUP1 SLOAD PUSH1 0x1 PUSH1 0x1 PUSH1 0xA0 SHL SUB NOT AND PUSH1 0x1 PUSH1 0x1 PUSH1 0xA0 SHL SUB SWAP3 SWAP1 SWAP3 AND SWAP2 SWAP1 SWAP2 OR SWAP1 SSTORE POP PUSH3 0x189 SWAP2 POP POP JUMP JUMPDEST PUSH1 0x2 DUP1 SLOAD PUSH1 0x1 PUSH1 0x1 PUSH1 0xA0 SHL SUB DUP4 DUP2 AND PUSH1 0x1 PUSH1 0x1 PUSH1 0xA0 SHL SUB NOT DUP4 AND DUP2 OR SWAP1 SWAP4 SSTORE PUSH1 0x40 MLOAD SWAP2 AND SWAP2 SWAP1 DUP3 SWAP1 PUSH32 0x8BE0079C531659141344CD1FD0A4F28419497F9722A3DAAFE3B4186F6B6457E0 SWAP1 PUSH1 0x0 SWAP1 LOG3 POP POP JUMP JUMPDEST DUP1 MLOAD PUSH1 0x1 PUSH1 0x1 PUSH1 0xA0 SHL SUB DUP2 AND DUP2 EQ PUSH3 0x127 JUMPI PUSH1 0x0 DUP1 REVERT JUMPDEST SWAP2 SWAP1 POP JUMP JUMPDEST PUSH1 0x0 DUP1 PUSH1 0x0 DUP1 PUSH1 0x80 DUP6 DUP8 SUB SLT ISZERO PUSH3 0x143 JUMPI PUSH1 0x0 DUP1 REVERT JUMPDEST PUSH3 0x14E DUP6 PUSH3 0x10F JUMP JUMPDEST SWAP4 POP PUSH3 0x15E PUSH1 0x20 DUP7 ADD PUSH3 0x10F JUMP JUMPDEST SWAP3 POP PUSH3 0x16E PUSH1 0x40 DUP7 ADD PUSH3 0x10F JUMP JUMPDEST SWAP2 POP PUSH3 0x17E PUSH1 0x60 DUP7 ADD PUSH3 0x10F JUMP JUMPDEST SWAP1 POP SWAP3 SWAP6 SWAP2 SWAP5 POP SWAP3 POP JUMP JUMPDEST PUSH1 0x80 MLOAD PUSH1 0xA0 MLOAD PUSH1 0xC0 MLOAD PUSH2 0x38DA PUSH3 0x237 PUSH1 0x0 CODECOPY PUSH1 0x0 DUP2 DUP2 PUSH2 0x5DF ADD MSTORE DUP2 DUP2 PUSH2 0x1052 ADD MSTORE DUP2 DUP2 PUSH2 0x112F ADD MSTORE DUP2 DUP2 PUSH2 0x12A1 ADD MSTORE DUP2 DUP2 PUSH2 0x16DF ADD MSTORE DUP2 DUP2 PUSH2 0x1FA4 ADD MSTORE DUP2 DUP2 PUSH2 0x28FC ADD MSTORE DUP2 DUP2 PUSH2 0x297D ADD MSTORE PUSH2 0x2B42 ADD MSTORE PUSH1 0x0 DUP2 DUP2 PUSH2 0x427 ADD MSTORE DUP2 DUP2 PUSH2 0xF88 ADD MSTORE DUP2 DUP2 PUSH2 0x11B9 ADD MSTORE DUP2 DUP2 PUSH2 0x14CD ADD MSTORE DUP2 DUP2 PUSH2 0x1EF6 ADD MSTORE DUP2 DUP2 PUSH2 0x29AC ADD MSTORE PUSH2 0x2AAF ADD MSTORE PUSH1 0x0 DUP2 DUP2 PUSH2 0x742 ADD MSTORE DUP2 DUP2 PUSH2 0x1459 ADD MSTORE DUP2 DUP2 PUSH2 0x1C3C ADD MSTORE DUP2 DUP2 PUSH2 0x1CAB ADD MSTORE PUSH2 0x20D2 ADD MSTORE PUSH2 0x38DA PUSH1 0x0 RETURN INVALID PUSH1 0x80 PUSH1 0x40 MSTORE PUSH1 0x4 CALLDATASIZE LT PUSH2 0x20F JUMPI PUSH1 0x0 CALLDATALOAD PUSH1 0xE0 SHR DUP1 PUSH4 0xA74AE70D GT PUSH2 0x118 JUMPI DUP1 PUSH4 0xDD12D68B GT PUSH2 0xA0 JUMPI DUP1 PUSH4 0xEAD93C8F GT PUSH2 0x6F JUMPI DUP1 PUSH4 0xEAD93C8F EQ PUSH2 0x7E3 JUMPI DUP1 PUSH4 0xEFF6BE2F EQ PUSH2 0x7FD JUMPI DUP1 PUSH4 0xF2FDE38B EQ PUSH2 0x81D JUMPI DUP1 PUSH4 0xFDF04DA3 EQ PUSH2 0x83D JUMPI DUP1 PUSH4 0xFFC9896B EQ PUSH2 0x85D JUMPI PUSH1 0x0 DUP1 REVERT JUMPDEST DUP1 PUSH4 0xDD12D68B EQ PUSH2 0x777 JUMPI DUP1 PUSH4 0xDD3A2AE6 EQ PUSH2 0x797 JUMPI DUP1 PUSH4 0xDDCA3F43 EQ PUSH2 0x7AD JUMPI DUP1 PUSH4 0xE1DE15FB EQ PUSH2 0x7C3 JUMPI PUSH1 0x0 DUP1 REVERT JUMPDEST DUP1 PUSH4 0xC6328A46 GT PUSH2 0xE7 JUMPI DUP1 PUSH4 0xC6328A46 EQ PUSH2 0x5CD JUMPI DUP1 PUSH4 0xCB3BAD91 EQ PUSH2 0x601 JUMPI DUP1 PUSH4 0xCE9581B4 EQ PUSH2 0x621 JUMPI DUP1 PUSH4 0xDA25B725 EQ PUSH2 0x730 JUMPI DUP1 PUSH4 0xDB428491 EQ PUSH2 0x764 JUMPI PUSH1 0x0 DUP1 REVERT JUMPDEST DUP1 PUSH4 0xA74AE70D EQ PUSH2 0x4B4 JUMPI DUP1 PUSH4 0xA7EA87E2 EQ PUSH2 0x4D4 JUMPI DUP1 PUSH4 0xB7D5DADF EQ PUSH2 0x4F4 JUMPI DUP1 PUSH4 0xC3D9D2BF EQ PUSH2 0x582 JUMPI PUSH1 0x0 DUP1 REVERT JUMPDEST DUP1 PUSH4 0x567142BE GT PUSH2 0x19B JUMPI DUP1 PUSH4 0x82A1708E GT PUSH2 0x16A JUMPI DUP1 PUSH4 0x82A1708E EQ PUSH2 0x3F5 JUMPI DUP1 PUSH4 0x84ACD1BB EQ PUSH2 0x415 JUMPI DUP1 PUSH4 0x8DA5CB5B EQ PUSH2 0x449 JUMPI DUP1 PUSH4 0x940916D6 EQ PUSH2 0x467 JUMPI DUP1 PUSH4 0xA345908F EQ PUSH2 0x494 JUMPI PUSH1 0x0 DUP1 REVERT JUMPDEST DUP1 PUSH4 0x567142BE EQ PUSH2 0x394 JUMPI DUP1 PUSH4 0x6D8E6D72 EQ PUSH2 0x3AA JUMPI DUP1 PUSH4 0x715018A6 EQ PUSH2 0x3CA JUMPI DUP1 PUSH4 0x7877E724 EQ PUSH2 0x3DF JUMPI PUSH1 0x0 DUP1 REVERT JUMPDEST DUP1 PUSH4 0x346B994B GT PUSH2 0x1E2 JUMPI DUP1 PUSH4 0x346B994B EQ PUSH2 0x2D9 JUMPI DUP1 PUSH4 0x34AAD8D6 EQ PUSH2 0x2EC JUMPI DUP1 PUSH4 0x412222D0 EQ PUSH2 0x30C JUMPI DUP1 PUSH4 0x489895B0 EQ PUSH2 0x361 JUMPI DUP1 PUSH4 0x529DCA32 EQ PUSH2 0x381 JUMPI PUSH1 0x0 DUP1 REVERT JUMPDEST DUP1 PUSH4 0x6B2FC0B EQ PUSH2 0x214 JUMPI DUP1 PUSH4 0xFE51802 EQ PUSH2 0x236 JUMPI DUP1 PUSH4 0x17569377 EQ PUSH2 0x273 JUMPI DUP1 PUSH4 0x30F014B6 EQ PUSH2 0x2B9 JUMPI JUMPDEST PUSH1 0x0 DUP1 REVERT JUMPDEST CALLVALUE DUP1 ISZERO PUSH2 0x220 JUMPI PUSH1 0x0 DUP1 REVERT JUMPDEST POP PUSH2 0x234 PUSH2 0x22F CALLDATASIZE PUSH1 0x4 PUSH2 0x2B95 JUMP JUMPDEST PUSH2 0x8C9 JUMP JUMPDEST STOP JUMPDEST CALLVALUE DUP1 ISZERO PUSH2 0x242 JUMPI PUSH1 0x0 DUP1 REVERT JUMPDEST POP PUSH1 0x5 SLOAD PUSH2 0x256 SWAP1 PUSH1 0x1 PUSH1 0x1 PUSH1 0xA0 SHL SUB AND DUP2 JUMP JUMPDEST PUSH1 0x40 MLOAD PUSH1 0x1 PUSH1 0x1 PUSH1 0xA0 SHL SUB SWAP1 SWAP2 AND DUP2 MSTORE PUSH1 0x20 ADD JUMPDEST PUSH1 0x40 MLOAD DUP1 SWAP2 SUB SWAP1 RETURN JUMPDEST CALLVALUE DUP1 ISZERO PUSH2 0x27F JUMPI PUSH1 0x0 DUP1 REVERT JUMPDEST POP PUSH2 0x2AB PUSH2 0x28E CALLDATASIZE PUSH1 0x4 PUSH2 0x2BC5 JUMP JUMPDEST PUSH1 0x9 PUSH1 0x20 SWAP1 DUP2 MSTORE PUSH1 0x0 SWAP3 DUP4 MSTORE PUSH1 0x40 DUP1 DUP5 KECCAK256 SWAP1 SWAP2 MSTORE SWAP1 DUP3 MSTORE SWAP1 KECCAK256 SLOAD DUP2 JUMP JUMPDEST PUSH1 0x40 MLOAD SWAP1 DUP2 MSTORE PUSH1 0x20 ADD PUSH2 0x26A JUMP JUMPDEST CALLVALUE DUP1 ISZERO PUSH2 0x2C5 JUMPI PUSH1 0x0 DUP1 REVERT JUMPDEST POP PUSH2 0x234 PUSH2 0x2D4 CALLDATASIZE PUSH1 0x4 PUSH2 0x2BF3 JUMP JUMPDEST PUSH2 0x9A9 JUMP JUMPDEST PUSH2 0x234 PUSH2 0x2E7 CALLDATASIZE PUSH1 0x4 PUSH2 0x2C2C JUMP JUMPDEST PUSH2 0xB5D JUMP JUMPDEST CALLVALUE DUP1 ISZERO PUSH2 0x2F8 JUMPI PUSH1 0x0 DUP1 REVERT JUMPDEST POP PUSH2 0x234 PUSH2 0x307 CALLDATASIZE PUSH1 0x4 PUSH2 0x2CB0 JUMP JUMPDEST PUSH2 0xDA2 JUMP JUMPDEST CALLVALUE DUP1 ISZERO PUSH2 0x318 JUMPI PUSH1 0x0 DUP1 REVERT JUMPDEST POP PUSH2 0x2AB PUSH2 0x327 CALLDATASIZE PUSH1 0x4 PUSH2 0x2CCD JUMP JUMPDEST PUSH1 0x1 PUSH1 0x1 PUSH1 0xA0 SHL SUB DUP4 AND PUSH1 0x0 SWAP1 DUP2 MSTORE PUSH1 0xC PUSH1 0x20 SWAP1 DUP2 MSTORE PUSH1 0x40 DUP1 DUP4 KECCAK256 DUP6 DUP5 MSTORE PUSH1 0x6 ADD DUP3 MSTORE DUP1 DUP4 KECCAK256 PUSH2 0xFFFF DUP6 AND DUP5 MSTORE SWAP1 SWAP2 MSTORE SWAP1 KECCAK256 SLOAD SWAP4 SWAP3 POP POP POP JUMP JUMPDEST CALLVALUE DUP1 ISZERO PUSH2 0x36D JUMPI PUSH1 0x0 DUP1 REVERT JUMPDEST POP PUSH2 0x234 PUSH2 0x37C CALLDATASIZE PUSH1 0x4 PUSH2 0x2D0F JUMP JUMPDEST PUSH2 0xDDB JUMP JUMPDEST PUSH2 0x234 PUSH2 0x38F CALLDATASIZE PUSH1 0x4 PUSH2 0x2E9A JUMP JUMPDEST PUSH2 0xF01 JUMP JUMPDEST CALLVALUE DUP1 ISZERO PUSH2 0x3A0 JUMPI PUSH1 0x0 DUP1 REVERT JUMPDEST POP PUSH2 0x2AB PUSH1 0x7 SLOAD DUP2 JUMP JUMPDEST CALLVALUE DUP1 ISZERO PUSH2 0x3B6 JUMPI PUSH1 0x0 DUP1 REVERT JUMPDEST POP PUSH2 0x2AB PUSH2 0x3C5 CALLDATASIZE PUSH1 0x4 PUSH2 0x2F8F JUMP JUMPDEST PUSH2 0x1425 JUMP JUMPDEST CALLVALUE DUP1 ISZERO PUSH2 0x3D6 JUMPI PUSH1 0x0 DUP1 REVERT JUMPDEST POP PUSH2 0x234 PUSH2 0x156A JUMP JUMPDEST CALLVALUE DUP1 ISZERO PUSH2 0x3EB JUMPI PUSH1 0x0 DUP1 REVERT JUMPDEST POP PUSH2 0x2AB PUSH1 0x6 SLOAD DUP2 JUMP JUMPDEST CALLVALUE DUP1 ISZERO PUSH2 0x401 JUMPI PUSH1 0x0 DUP1 REVERT JUMPDEST POP PUSH2 0x234 PUSH2 0x410 CALLDATASIZE PUSH1 0x4 PUSH2 0x2FC4 JUMP JUMPDEST PUSH2 0x157E JUMP JUMPDEST CALLVALUE DUP1 ISZERO PUSH2 0x421 JUMPI PUSH1 0x0 DUP1 REVERT JUMPDEST POP PUSH2 0x256 PUSH32 0x0 DUP2 JUMP JUMPDEST CALLVALUE DUP1 ISZERO PUSH2 0x455 JUMPI PUSH1 0x0 DUP1 REVERT JUMPDEST POP PUSH1 0x2 SLOAD PUSH1 0x1 PUSH1 0x1 PUSH1 0xA0 SHL SUB AND PUSH2 0x256 JUMP JUMPDEST CALLVALUE DUP1 ISZERO PUSH2 0x473 JUMPI PUSH1 0x0 DUP1 REVERT JUMPDEST POP PUSH2 0x2AB PUSH2 0x482 CALLDATASIZE PUSH1 0x4 PUSH2 0x2CB0 JUMP JUMPDEST PUSH1 0xB PUSH1 0x20 MSTORE PUSH1 0x0 SWAP1 DUP2 MSTORE PUSH1 0x40 SWAP1 KECCAK256 SLOAD DUP2 JUMP JUMPDEST CALLVALUE DUP1 ISZERO PUSH2 0x4A0 JUMPI PUSH1 0x0 DUP1 REVERT JUMPDEST POP PUSH2 0x256 PUSH2 0x4AF CALLDATASIZE PUSH1 0x4 PUSH2 0x2FE2 JUMP JUMPDEST PUSH2 0x15BB JUMP JUMPDEST CALLVALUE DUP1 ISZERO PUSH2 0x4C0 JUMPI PUSH1 0x0 DUP1 REVERT JUMPDEST POP PUSH2 0x234 PUSH2 0x4CF CALLDATASIZE PUSH1 0x4 PUSH2 0x2BF3 JUMP JUMPDEST PUSH2 0x15EB JUMP JUMPDEST CALLVALUE DUP1 ISZERO PUSH2 0x4E0 JUMPI PUSH1 0x0 DUP1 REVERT JUMPDEST POP PUSH2 0x234 PUSH2 0x4EF CALLDATASIZE PUSH1 0x4 PUSH2 0x2FE2 JUMP JUMPDEST PUSH2 0x163C JUMP JUMPDEST CALLVALUE DUP1 ISZERO PUSH2 0x500 JUMPI PUSH1 0x0 DUP1 REVERT JUMPDEST POP PUSH2 0x55C PUSH2 0x50F CALLDATASIZE PUSH1 0x4 PUSH2 0x2CB0 JUMP JUMPDEST PUSH1 0x40 DUP1 MLOAD DUP1 DUP3 ADD DUP3 MSTORE PUSH1 0x0 DUP1 DUP3 MSTORE PUSH1 0x20 SWAP2 DUP3 ADD DUP2 SWAP1 MSTORE PUSH1 0x1 PUSH1 0x1 PUSH1 0xA0 SHL SUB SWAP4 DUP5 AND DUP2 MSTORE PUSH1 0xA DUP3 MSTORE DUP3 SWAP1 KECCAK256 DUP3 MLOAD DUP1 DUP5 ADD SWAP1 SWAP4 MSTORE SLOAD PUSH1 0xFF DUP2 AND ISZERO ISZERO DUP4 MSTORE PUSH2 0x100 SWAP1 DIV SWAP1 SWAP3 AND SWAP2 DUP2 ADD SWAP2 SWAP1 SWAP2 MSTORE SWAP1 JUMP JUMPDEST PUSH1 0x40 DUP1 MLOAD DUP3 MLOAD ISZERO ISZERO DUP2 MSTORE PUSH1 0x20 SWAP3 DUP4 ADD MLOAD PUSH1 0x1 PUSH1 0x1 PUSH1 0xA0 SHL SUB AND SWAP3 DUP2 ADD SWAP3 SWAP1 SWAP3 MSTORE ADD PUSH2 0x26A JUMP JUMPDEST CALLVALUE DUP1 ISZERO PUSH2 0x58E JUMPI PUSH1 0x0 DUP1 REVERT JUMPDEST POP PUSH2 0x5BD PUSH2 0x59D CALLDATASIZE PUSH1 0x4 PUSH2 0x2FC4 JUMP JUMPDEST PUSH1 0xD PUSH1 0x20 SWAP1 DUP2 MSTORE PUSH1 0x0 SWAP3 DUP4 MSTORE PUSH1 0x40 DUP1 DUP5 KECCAK256 SWAP1 SWAP2 MSTORE SWAP1 DUP3 MSTORE SWAP1 KECCAK256 SLOAD PUSH1 0xFF AND DUP2 JUMP JUMPDEST PUSH1 0x40 MLOAD SWAP1 ISZERO ISZERO DUP2 MSTORE PUSH1 0x20 ADD PUSH2 0x26A JUMP JUMPDEST CALLVALUE DUP1 ISZERO PUSH2 0x5D9 JUMPI PUSH1 0x0 DUP1 REVERT JUMPDEST POP PUSH2 0x256 PUSH32 0x0 DUP2 JUMP JUMPDEST CALLVALUE DUP1 ISZERO PUSH2 0x60D JUMPI PUSH1 0x0 DUP1 REVERT JUMPDEST POP PUSH2 0x234 PUSH2 0x61C CALLDATASIZE PUSH1 0x4 PUSH2 0x2BF3 JUMP JUMPDEST PUSH2 0x1663 JUMP JUMPDEST CALLVALUE DUP1 ISZERO PUSH2 0x62D JUMPI PUSH1 0x0 DUP1 REVERT JUMPDEST POP PUSH2 0x6E1 PUSH2 0x63C CALLDATASIZE PUSH1 0x4 PUSH2 0x2FE2 JUMP JUMPDEST PUSH1 0x40 DUP1 MLOAD PUSH1 0xA0 DUP2 ADD DUP3 MSTORE PUSH1 0x0 DUP1 DUP3 MSTORE PUSH1 0x20 DUP3 ADD DUP2 SWAP1 MSTORE SWAP2 DUP2 ADD DUP3 SWAP1 MSTORE PUSH1 0x60 DUP2 ADD DUP3 SWAP1 MSTORE PUSH1 0x80 DUP2 ADD SWAP2 SWAP1 SWAP2 MSTORE POP PUSH1 0x1 PUSH1 0x1 PUSH1 0xA0 SHL SUB DUP1 DUP4 AND PUSH1 0x0 SWAP1 DUP2 MSTORE PUSH1 0xC PUSH1 0x20 SWAP1 DUP2 MSTORE PUSH1 0x40 DUP1 DUP4 KECCAK256 DUP6 DUP5 MSTORE PUSH1 0x5 ADD DUP3 MSTORE SWAP2 DUP3 SWAP1 KECCAK256 DUP3 MLOAD PUSH1 0xA0 DUP2 ADD DUP5 MSTORE DUP2 SLOAD PUSH2 0xFFFF DUP2 AND DUP3 MSTORE PUSH1 0xFF PUSH3 0x10000 DUP3 DIV DUP2 AND SWAP5 DUP4 ADD SWAP5 SWAP1 SWAP5 MSTORE PUSH4 0x1000000 SWAP1 DIV SWAP1 SWAP5 AND SWAP3 DUP5 ADD SWAP3 SWAP1 SWAP3 MSTORE PUSH1 0x1 DUP3 ADD SLOAD PUSH1 0x60 DUP5 ADD MSTORE PUSH1 0x2 SWAP1 SWAP2 ADD SLOAD AND ISZERO ISZERO PUSH1 0x80 DUP3 ADD MSTORE SWAP3 SWAP2 POP POP JUMP JUMPDEST PUSH1 0x40 MLOAD PUSH2 0x26A SWAP2 SWAP1 DUP2 MLOAD PUSH2 0xFFFF AND DUP2 MSTORE PUSH1 0x20 DUP1 DUP4 ADD MLOAD PUSH1 0xFF AND SWAP1 DUP3 ADD MSTORE PUSH1 0x40 DUP1 DUP4 ADD MLOAD PUSH1 0x1 PUSH1 0x1 PUSH1 0xA0 SHL SUB AND SWAP1 DUP3 ADD MSTORE PUSH1 0x60 DUP1 DUP4 ADD MLOAD SWAP1 DUP3 ADD MSTORE PUSH1 0x80 SWAP2 DUP3 ADD MLOAD ISZERO ISZERO SWAP2 DUP2 ADD SWAP2 SWAP1 SWAP2 MSTORE PUSH1 0xA0 ADD SWAP1 JUMP JUMPDEST CALLVALUE DUP1 ISZERO PUSH2 0x73C JUMPI PUSH1 0x0 DUP1 REVERT JUMPDEST POP PUSH2 0x256 PUSH32 0x0 DUP2 JUMP JUMPDEST PUSH2 0x234 PUSH2 0x772 CALLDATASIZE PUSH1 0x4 PUSH2 0x300E JUMP JUMPDEST PUSH2 0x168C JUMP JUMPDEST CALLVALUE DUP1 ISZERO PUSH2 0x783 JUMPI PUSH1 0x0 DUP1 REVERT JUMPDEST POP PUSH2 0x234 PUSH2 0x792 CALLDATASIZE PUSH1 0x4 PUSH2 0x307E JUMP JUMPDEST PUSH2 0x188E JUMP JUMPDEST CALLVALUE DUP1 ISZERO PUSH2 0x7A3 JUMPI PUSH1 0x0 DUP1 REVERT JUMPDEST POP PUSH2 0x2AB PUSH1 0x4 SLOAD DUP2 JUMP JUMPDEST CALLVALUE DUP1 ISZERO PUSH2 0x7B9 JUMPI PUSH1 0x0 DUP1 REVERT JUMPDEST POP PUSH2 0x2AB PUSH1 0x3 SLOAD DUP2 JUMP JUMPDEST CALLVALUE DUP1 ISZERO PUSH2 0x7CF JUMPI PUSH1 0x0 DUP1 REVERT JUMPDEST POP PUSH2 0x234 PUSH2 0x7DE CALLDATASIZE PUSH1 0x4 PUSH2 0x30AA JUMP JUMPDEST PUSH2 0x190B JUMP JUMPDEST CALLVALUE DUP1 ISZERO PUSH2 0x7EF JUMPI PUSH1 0x0 DUP1 REVERT JUMPDEST POP PUSH1 0x8 SLOAD PUSH2 0x5BD SWAP1 PUSH1 0xFF AND DUP2 JUMP JUMPDEST CALLVALUE DUP1 ISZERO PUSH2 0x809 JUMPI PUSH1 0x0 DUP1 REVERT JUMPDEST POP PUSH2 0x234 PUSH2 0x818 CALLDATASIZE PUSH1 0x4 PUSH2 0x2BF3 JUMP JUMPDEST PUSH2 0x1926 JUMP JUMPDEST CALLVALUE DUP1 ISZERO PUSH2 0x829 JUMPI PUSH1 0x0 DUP1 REVERT JUMPDEST POP PUSH2 0x234 PUSH2 0x838 CALLDATASIZE PUSH1 0x4 PUSH2 0x2CB0 JUMP JUMPDEST PUSH2 0x1933 JUMP JUMPDEST CALLVALUE DUP1 ISZERO PUSH2 0x849 JUMPI PUSH1 0x0 DUP1 REVERT JUMPDEST POP PUSH2 0x234 PUSH2 0x858 CALLDATASIZE PUSH1 0x4 PUSH2 0x30C7 JUMP JUMPDEST PUSH2 0x19AC JUMP JUMPDEST CALLVALUE DUP1 ISZERO PUSH2 0x869 JUMPI PUSH1 0x0 DUP1 REVERT JUMPDEST POP PUSH2 0x8A9 PUSH2 0x878 CALLDATASIZE PUSH1 0x4 PUSH2 0x2CB0 JUMP JUMPDEST PUSH1 0x1 PUSH1 0x1 PUSH1 0xA0 SHL SUB AND PUSH1 0x0 SWAP1 DUP2 MSTORE PUSH1 0xC PUSH1 0x20 MSTORE PUSH1 0x40 SWAP1 KECCAK256 DUP1 SLOAD PUSH1 0x1 DUP3 ADD SLOAD PUSH1 0x2 DUP4 ADD SLOAD PUSH1 0x3 SWAP1 SWAP4 ADD SLOAD SWAP2 SWAP4 SWAP1 SWAP3 SWAP2 SWAP1 JUMP JUMPDEST PUSH1 0x40 DUP1 MLOAD SWAP5 DUP6 MSTORE PUSH1 0x20 DUP6 ADD SWAP4 SWAP1 SWAP4 MSTORE SWAP2 DUP4 ADD MSTORE PUSH1 0x60 DUP3 ADD MSTORE PUSH1 0x80 ADD PUSH2 0x26A JUMP JUMPDEST PUSH2 0x8D1 PUSH2 0x1ACF JUMP JUMPDEST PUSH1 0x0 DUP1 MSTORE PUSH1 0xB PUSH1 0x20 MSTORE PUSH1 0x0 DUP1 MLOAD PUSH1 0x20 PUSH2 0x3885 DUP4 CODECOPY DUP2 MLOAD SWAP2 MSTORE SLOAD DUP3 GT ISZERO PUSH2 0x92F JUMPI PUSH1 0x40 MLOAD PUSH3 0x461BCD PUSH1 0xE5 SHL DUP2 MSTORE PUSH1 0x20 PUSH1 0x4 DUP3 ADD MSTORE PUSH1 0xE PUSH1 0x24 DUP3 ADD MSTORE PUSH14 0x1B9BDD08195B9BDD59DA08185B5D PUSH1 0x92 SHL PUSH1 0x44 DUP3 ADD MSTORE PUSH1 0x64 ADD JUMPDEST PUSH1 0x40 MLOAD DUP1 SWAP2 SUB SWAP1 REVERT JUMPDEST PUSH1 0x0 DUP1 MSTORE PUSH1 0xB PUSH1 0x20 MSTORE PUSH1 0x0 DUP1 MLOAD PUSH1 0x20 PUSH2 0x3885 DUP4 CODECOPY DUP2 MLOAD SWAP2 MSTORE SLOAD PUSH2 0x953 SWAP1 DUP4 SWAP1 PUSH2 0x3114 JUMP JUMPDEST PUSH1 0x0 DUP1 DUP1 MSTORE PUSH1 0xB PUSH1 0x20 MSTORE PUSH1 0x0 DUP1 MLOAD PUSH1 0x20 PUSH2 0x3885 DUP4 CODECOPY DUP2 MLOAD SWAP2 MSTORE SWAP2 SWAP1 SWAP2 SSTORE PUSH1 0x40 MLOAD PUSH1 0x1 PUSH1 0x1 PUSH1 0xA0 SHL SUB DUP4 AND SWAP2 DUP5 ISZERO PUSH2 0x8FC MUL SWAP2 DUP6 SWAP2 DUP2 DUP2 DUP2 DUP6 DUP9 DUP9 CALL SWAP4 POP POP POP POP ISZERO DUP1 ISZERO PUSH2 0x9A4 JUMPI RETURNDATASIZE PUSH1 0x0 DUP1 RETURNDATACOPY RETURNDATASIZE PUSH1 0x0 REVERT JUMPDEST POP POP POP JUMP JUMPDEST CALLER PUSH1 0x0 SWAP1 DUP2 MSTORE PUSH1 0xC PUSH1 0x20 SWAP1 DUP2 MSTORE PUSH1 0x40 DUP1 DUP4 KECCAK256 DUP5 DUP5 MSTORE PUSH1 0x5 ADD DUP3 MSTORE SWAP2 DUP3 SWAP1 KECCAK256 DUP3 MLOAD PUSH1 0xA0 DUP2 ADD DUP5 MSTORE DUP2 SLOAD PUSH2 0xFFFF DUP2 AND DUP3 MSTORE PUSH1 0xFF PUSH3 0x10000 DUP3 DIV DUP2 AND SWAP5 DUP4 ADD SWAP5 SWAP1 SWAP5 MSTORE PUSH4 0x1000000 SWAP1 DIV PUSH1 0x1 PUSH1 0x1 PUSH1 0xA0 SHL SUB AND SWAP4 DUP2 ADD DUP5 SWAP1 MSTORE PUSH1 0x1 DUP3 ADD SLOAD PUSH1 0x60 DUP3 ADD DUP2 SWAP1 MSTORE PUSH1 0x2 SWAP1 SWAP3 ADD SLOAD SWAP1 SWAP3 AND ISZERO ISZERO PUSH1 0x80 DUP4 ADD DUP2 SWAP1 MSTORE SWAP2 SWAP3 DUP2 ISZERO DUP1 ISZERO SWAP1 PUSH2 0xA2C JUMPI POP DUP3 ISZERO JUMPDEST PUSH2 0xA6A JUMPI PUSH1 0x40 MLOAD PUSH3 0x461BCD PUSH1 0xE5 SHL DUP2 MSTORE PUSH1 0x20 PUSH1 0x4 DUP3 ADD MSTORE PUSH1 0xF PUSH1 0x24 DUP3 ADD MSTORE PUSH15 0x185B1C9958591E4818DB185A5B5959 PUSH1 0x8A SHL PUSH1 0x44 DUP3 ADD MSTORE PUSH1 0x64 ADD PUSH2 0x926 JUMP JUMPDEST PUSH1 0x20 DUP5 ADD MLOAD PUSH1 0xFF AND ISZERO DUP1 ISZERO PUSH2 0xA7F JUMPI POP PUSH1 0x0 DUP3 GT JUMPDEST DUP1 ISZERO PUSH2 0xA89 JUMPI POP DUP3 ISZERO JUMPDEST ISZERO PUSH2 0xABD JUMPI PUSH1 0x40 MLOAD CALLER SWAP1 DUP4 ISZERO PUSH2 0x8FC MUL SWAP1 DUP5 SWAP1 PUSH1 0x0 DUP2 DUP2 DUP2 DUP6 DUP9 DUP9 CALL SWAP4 POP POP POP POP ISZERO DUP1 ISZERO PUSH2 0xABB JUMPI RETURNDATASIZE PUSH1 0x0 DUP1 RETURNDATACOPY RETURNDATASIZE PUSH1 0x0 REVERT JUMPDEST POP JUMPDEST PUSH1 0x20 DUP5 ADD MLOAD PUSH1 0xFF AND PUSH1 0x1 EQ DUP1 ISZERO PUSH2 0xAD4 JUMPI POP PUSH1 0x0 DUP3 GT JUMPDEST DUP1 ISZERO PUSH2 0xADE JUMPI POP DUP3 ISZERO JUMPDEST ISZERO PUSH2 0xB56 JUMPI PUSH1 0x40 MLOAD PUSH4 0xA9059CBB PUSH1 0xE0 SHL DUP2 MSTORE CALLER PUSH1 0x4 DUP3 ADD MSTORE PUSH1 0x24 DUP2 ADD DUP4 SWAP1 MSTORE PUSH1 0x1 PUSH1 0x1 PUSH1 0xA0 SHL SUB DUP3 AND SWAP1 PUSH4 0xA9059CBB SWAP1 PUSH1 0x44 ADD PUSH1 0x20 PUSH1 0x40 MLOAD DUP1 DUP4 SUB DUP2 PUSH1 0x0 DUP8 GAS CALL ISZERO DUP1 ISZERO PUSH2 0xB30 JUMPI RETURNDATASIZE PUSH1 0x0 DUP1 RETURNDATACOPY RETURNDATASIZE PUSH1 0x0 REVERT JUMPDEST POP POP POP POP PUSH1 0x40 MLOAD RETURNDATASIZE PUSH1 0x1F NOT PUSH1 0x1F DUP3 ADD AND DUP3 ADD DUP1 PUSH1 0x40 MSTORE POP DUP2 ADD SWAP1 PUSH2 0xB54 SWAP2 SWAP1 PUSH2 0x3127 JUMP JUMPDEST POP JUMPDEST POP POP POP POP POP JUMP JUMPDEST PUSH1 0x0 PUSH2 0xB6B DUP9 PUSH1 0x0 DUP6 PUSH2 0x1425 JUMP JUMPDEST SWAP1 POP DUP1 CALLVALUE EQ PUSH2 0xBAC JUMPI PUSH1 0x40 MLOAD PUSH3 0x461BCD PUSH1 0xE5 SHL DUP2 MSTORE PUSH1 0x20 PUSH1 0x4 DUP3 ADD MSTORE PUSH1 0xD PUSH1 0x24 DUP3 ADD MSTORE PUSH13 0x1B9BDD0818DC9C98DD08185B5D PUSH1 0x9A SHL PUSH1 0x44 DUP3 ADD MSTORE PUSH1 0x64 ADD PUSH2 0x926 JUMP JUMPDEST PUSH1 0x40 MLOAD PUSH4 0x23B872DD PUSH1 0xE0 SHL DUP2 MSTORE CALLER PUSH1 0x4 DUP3 ADD MSTORE ADDRESS PUSH1 0x24 DUP3 ADD MSTORE PUSH1 0x44 DUP2 ADD DUP7 SWAP1 MSTORE PUSH1 0x0 SWAP1 PUSH1 0x1 PUSH1 0x1 PUSH1 0xA0 SHL SUB DUP7 AND SWAP1 PUSH4 0x23B872DD SWAP1 PUSH1 0x64 ADD PUSH1 0x20 PUSH1 0x40 MLOAD DUP1 DUP4 SUB DUP2 PUSH1 0x0 DUP8 GAS CALL ISZERO DUP1 ISZERO PUSH2 0xC02 JUMPI RETURNDATASIZE PUSH1 0x0 DUP1 RETURNDATACOPY RETURNDATASIZE PUSH1 0x0 REVERT JUMPDEST POP POP POP POP PUSH1 0x40 MLOAD RETURNDATASIZE PUSH1 0x1F NOT PUSH1 0x1F DUP3 ADD AND DUP3 ADD DUP1 PUSH1 0x40 MSTORE POP DUP2 ADD SWAP1 PUSH2 0xC26 SWAP2 SWAP1 PUSH2 0x3127 JUMP JUMPDEST SWAP1 POP DUP1 PUSH2 0xC5E JUMPI PUSH1 0x40 MLOAD PUSH3 0x461BCD PUSH1 0xE5 SHL DUP2 MSTORE PUSH1 0x20 PUSH1 0x4 DUP3 ADD MSTORE PUSH1 0x6 PUSH1 0x24 DUP3 ADD MSTORE PUSH6 0x19985A5B1959 PUSH1 0xD2 SHL PUSH1 0x44 DUP3 ADD MSTORE PUSH1 0x64 ADD PUSH2 0x926 JUMP JUMPDEST PUSH2 0xC69 PUSH1 0x3 SLOAD PUSH2 0x1B29 JUMP JUMPDEST POP PUSH1 0x3 SSTORE PUSH1 0x40 DUP1 MLOAD PUSH1 0x1 PUSH1 0x1 PUSH1 0xA0 SHL SUB DUP10 AND PUSH1 0x20 DUP3 ADD MSTORE PUSH1 0x1 SWAP2 DUP2 ADD SWAP2 SWAP1 SWAP2 MSTORE PUSH1 0x0 PUSH1 0x60 DUP3 ADD DUP2 SWAP1 MSTORE SWAP1 PUSH1 0x80 ADD PUSH1 0x40 MLOAD PUSH1 0x20 DUP2 DUP4 SUB SUB DUP2 MSTORE SWAP1 PUSH1 0x40 MSTORE SWAP1 POP PUSH2 0xCB7 DUP11 DUP11 DUP4 PUSH1 0x0 DUP10 DUP12 DUP14 PUSH2 0x1B97 JUMP JUMPDEST POP CALLER PUSH1 0x0 SWAP1 DUP2 MSTORE PUSH1 0x9 PUSH1 0x20 SWAP1 DUP2 MSTORE PUSH1 0x40 DUP1 DUP4 KECCAK256 PUSH1 0x1 PUSH1 0x1 PUSH1 0xA0 SHL SUB DUP11 AND DUP5 MSTORE SWAP1 SWAP2 MSTORE SWAP1 KECCAK256 SLOAD PUSH2 0xCE7 SWAP1 DUP9 SWAP1 PUSH2 0x3144 JUMP JUMPDEST CALLER PUSH1 0x0 DUP2 DUP2 MSTORE PUSH1 0x9 PUSH1 0x20 SWAP1 DUP2 MSTORE PUSH1 0x40 DUP1 DUP4 KECCAK256 PUSH1 0x1 PUSH1 0x1 PUSH1 0xA0 SHL SUB DUP13 AND DUP5 MSTORE SWAP1 SWAP2 MSTORE SWAP1 KECCAK256 SWAP2 SWAP1 SWAP2 SSTORE PUSH2 0xD18 SWAP1 DUP6 PUSH2 0x1D51 JUMP JUMPDEST PUSH2 0xD22 CALLER DUP6 PUSH2 0x1E47 JUMP JUMPDEST CALLER PUSH1 0x0 SWAP1 DUP2 MSTORE PUSH1 0xC PUSH1 0x20 MSTORE PUSH1 0x40 SWAP1 KECCAK256 PUSH1 0x1 SWAP1 DUP2 ADD SLOAD PUSH2 0xD40 SWAP2 PUSH2 0x3144 JUMP JUMPDEST CALLER PUSH1 0x0 SWAP1 DUP2 MSTORE PUSH1 0xC PUSH1 0x20 SWAP1 DUP2 MSTORE PUSH1 0x40 DUP3 KECCAK256 PUSH1 0x1 ADD SWAP3 SWAP1 SWAP3 SSTORE PUSH1 0x3 SLOAD SWAP1 DUP1 MSTORE PUSH1 0xB SWAP1 SWAP2 MSTORE PUSH1 0x0 DUP1 MLOAD PUSH1 0x20 PUSH2 0x3885 DUP4 CODECOPY DUP2 MLOAD SWAP2 MSTORE SLOAD PUSH2 0xD7D SWAP2 SWAP1 PUSH2 0x3144 JUMP JUMPDEST PUSH1 0x0 DUP1 MSTORE PUSH1 0xB PUSH1 0x20 MSTORE PUSH1 0x0 DUP1 MLOAD PUSH1 0x20 PUSH2 0x3885 DUP4 CODECOPY DUP2 MLOAD SWAP2 MSTORE SSTORE POP POP POP POP POP POP POP POP POP POP JUMP JUMPDEST PUSH1 0x5 SLOAD PUSH1 0x1 PUSH1 0x1 PUSH1 0xA0 SHL SUB AND CALLER EQ PUSH2 0xDB9 JUMPI PUSH1 0x0 DUP1 REVERT JUMPDEST PUSH1 0x5 DUP1 SLOAD PUSH1 0x1 PUSH1 0x1 PUSH1 0xA0 SHL SUB NOT AND PUSH1 0x1 PUSH1 0x1 PUSH1 0xA0 SHL SUB SWAP3 SWAP1 SWAP3 AND SWAP2 SWAP1 SWAP2 OR SWAP1 SSTORE JUMP JUMPDEST PUSH2 0xDE3 PUSH2 0x1ACF JUMP JUMPDEST PUSH1 0x1 PUSH1 0x1 PUSH1 0xA0 SHL SUB DUP4 AND PUSH1 0x0 SWAP1 DUP2 MSTORE PUSH1 0xB PUSH1 0x20 MSTORE PUSH1 0x40 SWAP1 KECCAK256 SLOAD DUP3 GT DUP1 ISZERO SWAP1 PUSH2 0xE13 JUMPI POP PUSH1 0x1 PUSH1 0x1 PUSH1 0xA0 SHL SUB DUP4 AND ISZERO ISZERO JUMPDEST PUSH2 0xE50 JUMPI PUSH1 0x40 MLOAD PUSH3 0x461BCD PUSH1 0xE5 SHL DUP2 MSTORE PUSH1 0x20 PUSH1 0x4 DUP3 ADD MSTORE PUSH1 0xE PUSH1 0x24 DUP3 ADD MSTORE PUSH14 0x1B9BDD08195B9BDD59DA08185B5D PUSH1 0x92 SHL PUSH1 0x44 DUP3 ADD MSTORE PUSH1 0x64 ADD PUSH2 0x926 JUMP JUMPDEST PUSH1 0x1 PUSH1 0x1 PUSH1 0xA0 SHL SUB DUP4 AND PUSH1 0x0 SWAP1 DUP2 MSTORE PUSH1 0xB PUSH1 0x20 MSTORE PUSH1 0x40 SWAP1 KECCAK256 SLOAD PUSH2 0xE74 SWAP1 DUP4 SWAP1 PUSH2 0x3114 JUMP JUMPDEST PUSH1 0x1 PUSH1 0x1 PUSH1 0xA0 SHL SUB DUP5 DUP2 AND PUSH1 0x0 DUP2 DUP2 MSTORE PUSH1 0xB PUSH1 0x20 MSTORE PUSH1 0x40 SWAP1 DUP2 SWAP1 KECCAK256 SWAP4 SWAP1 SWAP4 SSTORE SWAP2 MLOAD PUSH4 0xA9059CBB PUSH1 0xE0 SHL DUP2 MSTORE SWAP1 DUP4 AND PUSH1 0x4 DUP3 ADD MSTORE PUSH1 0x24 DUP2 ADD DUP5 SWAP1 MSTORE PUSH4 0xA9059CBB SWAP1 PUSH1 0x44 ADD JUMPDEST PUSH1 0x20 PUSH1 0x40 MLOAD DUP1 DUP4 SUB DUP2 PUSH1 0x0 DUP8 GAS CALL ISZERO DUP1 ISZERO PUSH2 0xED7 JUMPI RETURNDATASIZE PUSH1 0x0 DUP1 RETURNDATACOPY RETURNDATASIZE PUSH1 0x0 REVERT JUMPDEST POP POP POP POP PUSH1 0x40 MLOAD RETURNDATASIZE PUSH1 0x1F NOT PUSH1 0x1F DUP3 ADD AND DUP3 ADD DUP1 PUSH1 0x40 MSTORE POP DUP2 ADD SWAP1 PUSH2 0xEFB SWAP2 SWAP1 PUSH2 0x3127 JUMP JUMPDEST POP POP POP POP JUMP JUMPDEST PUSH1 0x0 DUP5 MLOAD PUSH1 0x1 PUSH1 0x1 PUSH1 0x40 SHL SUB DUP2 GT ISZERO PUSH2 0xF1C JUMPI PUSH2 0xF1C PUSH2 0x2D46 JUMP JUMPDEST PUSH1 0x40 MLOAD SWAP1 DUP1 DUP3 MSTORE DUP1 PUSH1 0x20 MUL PUSH1 0x20 ADD DUP3 ADD PUSH1 0x40 MSTORE DUP1 ISZERO PUSH2 0xF75 JUMPI DUP2 PUSH1 0x20 ADD JUMPDEST PUSH1 0x40 DUP1 MLOAD PUSH1 0xA0 DUP2 ADD DUP3 MSTORE PUSH1 0x0 DUP1 DUP3 MSTORE PUSH1 0x20 DUP1 DUP4 ADD DUP3 SWAP1 MSTORE SWAP3 DUP3 ADD DUP2 SWAP1 MSTORE PUSH1 0x60 DUP3 ADD DUP2 SWAP1 MSTORE PUSH1 0x80 DUP3 ADD MSTORE DUP3 MSTORE PUSH1 0x0 NOT SWAP1 SWAP3 ADD SWAP2 ADD DUP2 PUSH2 0xF3A JUMPI SWAP1 POP JUMPDEST POP SWAP1 POP PUSH1 0x0 JUMPDEST DUP6 MLOAD DUP2 LT ISZERO PUSH2 0x1417 JUMPI PUSH1 0x0 PUSH32 0x0 PUSH1 0x1 PUSH1 0x1 PUSH1 0xA0 SHL SUB AND PUSH4 0xA9E11893 DUP9 DUP5 DUP2 MLOAD DUP2 LT PUSH2 0xFC7 JUMPI PUSH2 0xFC7 PUSH2 0x3157 JUMP JUMPDEST PUSH1 0x20 MUL PUSH1 0x20 ADD ADD MLOAD PUSH1 0x40 MLOAD DUP3 PUSH4 0xFFFFFFFF AND PUSH1 0xE0 SHL DUP2 MSTORE PUSH1 0x4 ADD PUSH2 0xFEB SWAP2 SWAP1 PUSH2 0x31BD JUMP JUMPDEST PUSH1 0x0 PUSH1 0x40 MLOAD DUP1 DUP4 SUB DUP2 DUP7 GAS STATICCALL ISZERO DUP1 ISZERO PUSH2 0x1008 JUMPI RETURNDATASIZE PUSH1 0x0 DUP1 RETURNDATACOPY RETURNDATASIZE PUSH1 0x0 REVERT JUMPDEST POP POP POP POP PUSH1 0x40 MLOAD RETURNDATASIZE PUSH1 0x0 DUP3 RETURNDATACOPY PUSH1 0x1F RETURNDATASIZE SWAP1 DUP2 ADD PUSH1 0x1F NOT AND DUP3 ADD PUSH1 0x40 MSTORE PUSH2 0x1030 SWAP2 SWAP1 DUP2 ADD SWAP1 PUSH2 0x3310 JUMP JUMPDEST PUSH1 0x60 DUP2 ADD MLOAD PUSH1 0x40 MLOAD PUSH4 0xAD66A5F1 PUSH1 0xE0 SHL DUP2 MSTORE PUSH2 0xFFFF SWAP1 SWAP2 AND PUSH1 0x4 DUP3 ADD MSTORE SWAP1 SWAP2 POP PUSH32 0x0 PUSH1 0x1 PUSH1 0x1 PUSH1 0xA0 SHL SUB AND SWAP1 PUSH4 0xAD66A5F1 SWAP1 PUSH1 0x24 ADD PUSH1 0x20 PUSH1 0x40 MLOAD DUP1 DUP4 SUB DUP2 DUP7 GAS STATICCALL ISZERO DUP1 ISZERO PUSH2 0x10A1 JUMPI RETURNDATASIZE PUSH1 0x0 DUP1 RETURNDATACOPY RETURNDATASIZE PUSH1 0x0 REVERT JUMPDEST POP POP POP POP PUSH1 0x40 MLOAD RETURNDATASIZE PUSH1 0x1F NOT PUSH1 0x1F DUP3 ADD AND DUP3 ADD DUP1 PUSH1 0x40 MSTORE POP DUP2 ADD SWAP1 PUSH2 0x10C5 SWAP2 SWAP1 PUSH2 0x3434 JUMP JUMPDEST DUP2 PUSH1 0x80 ADD MLOAD EQ PUSH2 0x1110 JUMPI PUSH1 0x40 MLOAD PUSH3 0x461BCD PUSH1 0xE5 SHL DUP2 MSTORE PUSH1 0x20 PUSH1 0x4 DUP3 ADD MSTORE PUSH1 0x16 PUSH1 0x24 DUP3 ADD MSTORE PUSH22 0x4E6F74206120546F6B656E2042726964676520564141 PUSH1 0x50 SHL PUSH1 0x44 DUP3 ADD MSTORE PUSH1 0x64 ADD PUSH2 0x926 JUMP JUMPDEST PUSH1 0xE0 DUP2 ADD MLOAD PUSH1 0x40 MLOAD PUSH4 0xEA63738D PUSH1 0xE0 SHL DUP2 MSTORE PUSH1 0x0 SWAP2 PUSH1 0x1 PUSH1 0x1 PUSH1 0xA0 SHL SUB PUSH32 0x0 AND SWAP2 PUSH4 0xEA63738D SWAP2 PUSH2 0x1162 SWAP2 PUSH1 0x4 ADD PUSH2 0x31BD JUMP JUMPDEST PUSH1 0x0 PUSH1 0x40 MLOAD DUP1 DUP4 SUB DUP2 DUP7 GAS STATICCALL ISZERO DUP1 ISZERO PUSH2 0x117F JUMPI RETURNDATASIZE PUSH1 0x0 DUP1 RETURNDATACOPY RETURNDATASIZE PUSH1 0x0 REVERT JUMPDEST POP POP POP POP PUSH1 0x40 MLOAD RETURNDATASIZE PUSH1 0x0 DUP3 RETURNDATACOPY PUSH1 0x1F RETURNDATASIZE SWAP1 DUP2 ADD PUSH1 0x1F NOT AND DUP3 ADD PUSH1 0x40 MSTORE PUSH2 0x11A7 SWAP2 SWAP1 DUP2 ADD SWAP1 PUSH2 0x344D JUMP JUMPDEST SWAP1 POP ADDRESS DUP2 PUSH1 0x80 ADD MLOAD EQ DUP1 ISZERO PUSH2 0x1248 JUMPI POP PUSH32 0x0 PUSH1 0x1 PUSH1 0x1 PUSH1 0xA0 SHL SUB AND PUSH4 0x9A8A0592 PUSH1 0x40 MLOAD DUP2 PUSH4 0xFFFFFFFF AND PUSH1 0xE0 SHL DUP2 MSTORE PUSH1 0x4 ADD PUSH1 0x20 PUSH1 0x40 MLOAD DUP1 DUP4 SUB DUP2 DUP7 GAS STATICCALL ISZERO DUP1 ISZERO PUSH2 0x1215 JUMPI RETURNDATASIZE PUSH1 0x0 DUP1 RETURNDATACOPY RETURNDATASIZE PUSH1 0x0 REVERT JUMPDEST POP POP POP POP PUSH1 0x40 MLOAD RETURNDATASIZE PUSH1 0x1F NOT PUSH1 0x1F DUP3 ADD AND DUP3 ADD DUP1 PUSH1 0x40 MSTORE POP DUP2 ADD SWAP1 PUSH2 0x1239 SWAP2 SWAP1 PUSH2 0x3515 JUMP JUMPDEST PUSH2 0xFFFF AND DUP2 PUSH1 0xA0 ADD MLOAD PUSH2 0xFFFF AND EQ JUMPDEST PUSH2 0x129F JUMPI PUSH1 0x40 MLOAD PUSH3 0x461BCD PUSH1 0xE5 SHL DUP2 MSTORE PUSH1 0x20 PUSH1 0x4 DUP3 ADD MSTORE PUSH1 0x22 PUSH1 0x24 DUP3 ADD MSTORE PUSH32 0x546F6B656E20776173206E6F742073656E7420746F2074686973206164647265 PUSH1 0x44 DUP3 ADD MSTORE PUSH2 0x7373 PUSH1 0xF0 SHL PUSH1 0x64 DUP3 ADD MSTORE PUSH1 0x84 ADD PUSH2 0x926 JUMP JUMPDEST PUSH32 0x0 PUSH1 0x1 PUSH1 0x1 PUSH1 0xA0 SHL SUB AND PUSH4 0xC3F511C1 DUP10 DUP6 DUP2 MLOAD DUP2 LT PUSH2 0x12E0 JUMPI PUSH2 0x12E0 PUSH2 0x3157 JUMP JUMPDEST PUSH1 0x20 MUL PUSH1 0x20 ADD ADD MLOAD PUSH1 0x40 MLOAD DUP3 PUSH4 0xFFFFFFFF AND PUSH1 0xE0 SHL DUP2 MSTORE PUSH1 0x4 ADD PUSH2 0x1304 SWAP2 SWAP1 PUSH2 0x31BD JUMP JUMPDEST PUSH1 0x0 PUSH1 0x40 MLOAD DUP1 DUP4 SUB DUP2 PUSH1 0x0 DUP8 GAS CALL ISZERO DUP1 ISZERO PUSH2 0x1323 JUMPI RETURNDATASIZE PUSH1 0x0 DUP1 RETURNDATACOPY RETURNDATASIZE PUSH1 0x0 REVERT JUMPDEST POP POP POP POP PUSH1 0x40 MLOAD RETURNDATASIZE PUSH1 0x0 DUP3 RETURNDATACOPY PUSH1 0x1F RETURNDATASIZE SWAP1 DUP2 ADD PUSH1 0x1F NOT AND DUP3 ADD PUSH1 0x40 MSTORE PUSH2 0x134B SWAP2 SWAP1 DUP2 ADD SWAP1 PUSH2 0x3532 JUMP JUMPDEST POP PUSH1 0x0 PUSH2 0x1360 DUP3 PUSH1 0x60 ADD MLOAD DUP4 PUSH1 0x40 ADD MLOAD PUSH2 0x1EF2 JUMP JUMPDEST SWAP1 POP PUSH1 0x0 PUSH2 0x136D DUP3 PUSH2 0x202C JUMP JUMPDEST PUSH1 0x20 DUP5 ADD MLOAD SWAP1 SWAP2 POP PUSH1 0x8 PUSH1 0xFF DUP4 AND GT ISZERO PUSH2 0x13A4 JUMPI PUSH2 0x138C PUSH1 0x8 DUP4 PUSH2 0x3566 JUMP JUMPDEST PUSH2 0x1397 SWAP1 PUSH1 0xA PUSH2 0x3663 JUMP JUMPDEST PUSH2 0x13A1 SWAP1 DUP3 PUSH2 0x3672 JUMP JUMPDEST SWAP1 POP JUMPDEST PUSH1 0x40 MLOAD DUP1 PUSH1 0xA0 ADD PUSH1 0x40 MSTORE DUP1 DUP6 PUSH1 0x40 ADD MLOAD DUP2 MSTORE PUSH1 0x20 ADD DUP6 PUSH1 0x60 ADD MLOAD PUSH2 0xFFFF AND DUP2 MSTORE PUSH1 0x20 ADD DUP5 PUSH1 0x1 PUSH1 0x1 PUSH1 0xA0 SHL SUB AND DUP2 MSTORE PUSH1 0x20 ADD DUP3 DUP2 MSTORE PUSH1 0x20 ADD DUP6 PUSH1 0x20 ADD MLOAD DUP2 MSTORE POP DUP8 DUP8 DUP2 MLOAD DUP2 LT PUSH2 0x13F6 JUMPI PUSH2 0x13F6 PUSH2 0x3157 JUMP JUMPDEST PUSH1 0x20 MUL PUSH1 0x20 ADD ADD DUP2 SWAP1 MSTORE POP POP POP POP POP POP DUP1 PUSH2 0x1410 SWAP1 PUSH2 0x3689 JUMP JUMPDEST SWAP1 POP PUSH2 0xF7B JUMP JUMPDEST POP PUSH2 0xB54 DUP7 DUP3 DUP7 DUP7 DUP7 PUSH2 0x20C7 JUMP JUMPDEST PUSH1 0x40 MLOAD PUSH4 0xC23EE3C3 PUSH1 0xE0 SHL DUP2 MSTORE PUSH2 0xFFFF DUP5 AND PUSH1 0x4 DUP3 ADD MSTORE PUSH1 0x24 DUP2 ADD DUP4 SWAP1 MSTORE PUSH1 0x44 DUP2 ADD DUP3 SWAP1 MSTORE PUSH1 0x0 SWAP1 DUP2 SWAP1 PUSH1 0x1 PUSH1 0x1 PUSH1 0xA0 SHL SUB PUSH32 0x0 AND SWAP1 PUSH4 0xC23EE3C3 SWAP1 PUSH1 0x64 ADD PUSH1 0x40 DUP1 MLOAD DUP1 DUP4 SUB DUP2 DUP7 GAS STATICCALL ISZERO DUP1 ISZERO PUSH2 0x149F JUMPI RETURNDATASIZE PUSH1 0x0 DUP1 RETURNDATACOPY RETURNDATASIZE PUSH1 0x0 REVERT JUMPDEST POP POP POP POP PUSH1 0x40 MLOAD RETURNDATASIZE PUSH1 0x1F NOT PUSH1 0x1F DUP3 ADD AND DUP3 ADD DUP1 PUSH1 0x40 MSTORE POP DUP2 ADD SWAP1 PUSH2 0x14C3 SWAP2 SWAP1 PUSH2 0x36A2 JUMP JUMPDEST POP DUP1 SWAP2 POP POP PUSH1 0x3 SLOAD PUSH32 0x0 PUSH1 0x1 PUSH1 0x1 PUSH1 0xA0 SHL SUB AND PUSH4 0x1A90A219 PUSH1 0x40 MLOAD DUP2 PUSH4 0xFFFFFFFF AND PUSH1 0xE0 SHL DUP2 MSTORE PUSH1 0x4 ADD PUSH1 0x20 PUSH1 0x40 MLOAD DUP1 DUP4 SUB DUP2 DUP7 GAS STATICCALL ISZERO DUP1 ISZERO PUSH2 0x1529 JUMPI RETURNDATASIZE PUSH1 0x0 DUP1 RETURNDATACOPY RETURNDATASIZE PUSH1 0x0 REVERT JUMPDEST POP POP POP POP PUSH1 0x40 MLOAD RETURNDATASIZE PUSH1 0x1F NOT PUSH1 0x1F DUP3 ADD AND DUP3 ADD DUP1 PUSH1 0x40 MSTORE POP DUP2 ADD SWAP1 PUSH2 0x154D SWAP2 SWAP1 PUSH2 0x3434 JUMP JUMPDEST PUSH2 0x1557 SWAP1 DUP4 PUSH2 0x3144 JUMP JUMPDEST PUSH2 0x1561 SWAP2 SWAP1 PUSH2 0x3144 JUMP JUMPDEST SWAP6 SWAP5 POP POP POP POP POP JUMP JUMPDEST PUSH2 0x1572 PUSH2 0x1ACF JUMP JUMPDEST PUSH2 0x157C PUSH1 0x0 PUSH2 0x2811 JUMP JUMPDEST JUMP JUMPDEST PUSH2 0x1586 PUSH2 0x1ACF JUMP JUMPDEST PUSH2 0xFFFF SWAP1 SWAP2 AND PUSH1 0x0 SWAP1 DUP2 MSTORE PUSH1 0xD PUSH1 0x20 SWAP1 DUP2 MSTORE PUSH1 0x40 DUP1 DUP4 KECCAK256 PUSH1 0x1 PUSH1 0x1 PUSH1 0xA0 SHL SUB SWAP1 SWAP5 AND DUP4 MSTORE SWAP3 SWAP1 MSTORE KECCAK256 DUP1 SLOAD PUSH1 0xFF NOT AND PUSH1 0x1 OR SWAP1 SSTORE JUMP JUMPDEST PUSH1 0x1 PUSH1 0x1 PUSH1 0xA0 SHL SUB DUP1 DUP4 AND PUSH1 0x0 SWAP1 DUP2 MSTORE PUSH1 0xC PUSH1 0x20 SWAP1 DUP2 MSTORE PUSH1 0x40 DUP1 DUP4 KECCAK256 DUP6 DUP5 MSTORE PUSH1 0x4 ADD SWAP1 SWAP2 MSTORE SWAP1 KECCAK256 SLOAD AND JUMPDEST SWAP3 SWAP2 POP POP JUMP JUMPDEST PUSH2 0x15F3 PUSH2 0x1ACF JUMP JUMPDEST PUSH1 0x65 DUP2 LT PUSH2 0x1637 JUMPI PUSH1 0x40 MLOAD PUSH3 0x461BCD PUSH1 0xE5 SHL DUP2 MSTORE PUSH1 0x20 PUSH1 0x4 DUP3 ADD MSTORE PUSH1 0x11 PUSH1 0x24 DUP3 ADD MSTORE PUSH17 0x63616E6E6F742065786365656420313025 PUSH1 0x78 SHL PUSH1 0x44 DUP3 ADD MSTORE PUSH1 0x64 ADD PUSH2 0x926 JUMP JUMPDEST PUSH1 0x4 SSTORE JUMP JUMPDEST PUSH2 0x1644 PUSH2 0x1ACF JUMP JUMPDEST PUSH1 0x1 PUSH1 0x1 PUSH1 0xA0 SHL SUB SWAP1 SWAP2 AND PUSH1 0x0 SWAP1 DUP2 MSTORE PUSH1 0xC PUSH1 0x20 MSTORE PUSH1 0x40 SWAP1 KECCAK256 PUSH1 0x2 ADD SSTORE JUMP JUMPDEST PUSH1 0x14 DUP2 LT PUSH2 0x1670 JUMPI PUSH1 0x0 DUP1 REVERT JUMPDEST PUSH1 0x5 SLOAD PUSH1 0x1 PUSH1 0x1 PUSH1 0xA0 SHL SUB AND CALLER EQ PUSH2 0x1687 JUMPI PUSH1 0x0 DUP1 REVERT JUMPDEST PUSH1 0x6 SSTORE JUMP JUMPDEST PUSH1 0x0 PUSH2 0x1699 DUP8 DUP6 DUP6 PUSH2 0x1425 JUMP JUMPDEST SWAP1 POP DUP1 CALLVALUE LT ISZERO PUSH2 0x16DB JUMPI PUSH1 0x40 MLOAD PUSH3 0x461BCD PUSH1 0xE5 SHL DUP2 MSTORE PUSH1 0x20 PUSH1 0x4 DUP3 ADD MSTORE PUSH1 0xD PUSH1 0x24 DUP3 ADD MSTORE PUSH13 0x1B9BDD0818DC9C98DD08185B5D PUSH1 0x9A SHL PUSH1 0x44 DUP3 ADD MSTORE PUSH1 0x64 ADD PUSH2 0x926 JUMP JUMPDEST PUSH1 0x0 PUSH32 0x0 PUSH1 0x1 PUSH1 0x1 PUSH1 0xA0 SHL SUB AND PUSH4 0xAD5C4648 PUSH1 0x40 MLOAD DUP2 PUSH4 0xFFFFFFFF AND PUSH1 0xE0 SHL DUP2 MSTORE PUSH1 0x4 ADD PUSH1 0x20 PUSH1 0x40 MLOAD DUP1 DUP4 SUB DUP2 DUP7 GAS STATICCALL ISZERO DUP1 ISZERO PUSH2 0x173B JUMPI RETURNDATASIZE PUSH1 0x0 DUP1 RETURNDATACOPY RETURNDATASIZE PUSH1 0x0 REVERT JUMPDEST POP POP POP POP PUSH1 0x40 MLOAD RETURNDATASIZE PUSH1 0x1F NOT PUSH1 0x1F DUP3 ADD AND DUP3 ADD DUP1 PUSH1 0x40 MSTORE POP DUP2 ADD SWAP1 PUSH2 0x175F SWAP2 SWAP1 PUSH2 0x36C6 JUMP JUMPDEST SWAP1 POP PUSH2 0x176C PUSH1 0x3 SLOAD PUSH2 0x1B29 JUMP JUMPDEST POP PUSH1 0x3 SSTORE PUSH1 0x40 DUP1 MLOAD PUSH1 0x1 PUSH1 0x1 PUSH1 0xA0 SHL SUB DUP9 AND PUSH1 0x20 DUP3 ADD MSTORE PUSH1 0x0 SWAP2 DUP2 ADD DUP3 SWAP1 MSTORE PUSH1 0x60 DUP2 ADD DUP8 SWAP1 MSTORE PUSH1 0x80 ADD PUSH1 0x40 MLOAD PUSH1 0x20 DUP2 DUP4 SUB SUB DUP2 MSTORE SWAP1 PUSH1 0x40 MSTORE SWAP1 POP PUSH2 0x17B6 DUP10 DUP10 DUP4 DUP10 DUP10 DUP8 PUSH1 0x0 PUSH2 0x1B97 JUMP JUMPDEST POP CALLER PUSH1 0x0 SWAP1 DUP2 MSTORE PUSH1 0x9 PUSH1 0x20 SWAP1 DUP2 MSTORE PUSH1 0x40 DUP1 DUP4 KECCAK256 DUP4 DUP1 MSTORE SWAP1 SWAP2 MSTORE SWAP1 KECCAK256 SLOAD PUSH2 0x17DD SWAP1 DUP8 SWAP1 PUSH2 0x3144 JUMP JUMPDEST CALLER PUSH1 0x0 DUP2 DUP2 MSTORE PUSH1 0x9 PUSH1 0x20 SWAP1 DUP2 MSTORE PUSH1 0x40 DUP1 DUP4 KECCAK256 DUP4 DUP1 MSTORE SWAP1 SWAP2 MSTORE SWAP1 KECCAK256 SWAP2 SWAP1 SWAP2 SSTORE PUSH2 0x1805 SWAP1 DUP6 PUSH2 0x1D51 JUMP JUMPDEST PUSH2 0x180F CALLER DUP6 PUSH2 0x1E47 JUMP JUMPDEST CALLER PUSH1 0x0 SWAP1 DUP2 MSTORE PUSH1 0xC PUSH1 0x20 MSTORE PUSH1 0x40 SWAP1 KECCAK256 PUSH1 0x1 SWAP1 DUP2 ADD SLOAD PUSH2 0x182D SWAP2 PUSH2 0x3144 JUMP JUMPDEST CALLER PUSH1 0x0 SWAP1 DUP2 MSTORE PUSH1 0xC PUSH1 0x20 SWAP1 DUP2 MSTORE PUSH1 0x40 DUP3 KECCAK256 PUSH1 0x1 ADD SWAP3 SWAP1 SWAP3 SSTORE PUSH1 0x3 SLOAD SWAP1 DUP1 MSTORE PUSH1 0xB SWAP1 SWAP2 MSTORE PUSH1 0x0 DUP1 MLOAD PUSH1 0x20 PUSH2 0x3885 DUP4 CODECOPY DUP2 MLOAD SWAP2 MSTORE SLOAD PUSH2 0x186A SWAP2 SWAP1 PUSH2 0x3144 JUMP JUMPDEST PUSH1 0x0 DUP1 MSTORE PUSH1 0xB PUSH1 0x20 MSTORE PUSH1 0x0 DUP1 MLOAD PUSH1 0x20 PUSH2 0x3885 DUP4 CODECOPY DUP2 MLOAD SWAP2 MSTORE SSTORE POP POP POP POP POP POP POP POP POP JUMP JUMPDEST PUSH1 0x0 SLOAD PUSH1 0x1 PUSH1 0x1 PUSH1 0xA0 SHL SUB AND CALLER EQ PUSH2 0x18F4 JUMPI PUSH1 0x40 MLOAD PUSH3 0x461BCD PUSH1 0xE5 SHL DUP2 MSTORE PUSH1 0x20 PUSH1 0x4 DUP3 ADD MSTORE PUSH1 0x24 DUP1 DUP3 ADD MSTORE PUSH32 0x4E6F7420616C6C6F77656420746F207365742072656769737465726564207365 PUSH1 0x44 DUP3 ADD MSTORE PUSH4 0x373232B9 PUSH1 0xE1 SHL PUSH1 0x64 DUP3 ADD MSTORE PUSH1 0x84 ADD PUSH2 0x926 JUMP JUMPDEST PUSH2 0xFFFF SWAP1 SWAP2 AND PUSH1 0x0 SWAP1 DUP2 MSTORE PUSH1 0x1 PUSH1 0x20 MSTORE PUSH1 0x40 SWAP1 KECCAK256 SSTORE JUMP JUMPDEST PUSH2 0x1913 PUSH2 0x1ACF JUMP JUMPDEST PUSH1 0x8 DUP1 SLOAD PUSH1 0xFF NOT AND SWAP2 ISZERO ISZERO SWAP2 SWAP1 SWAP2 OR SWAP1 SSTORE JUMP JUMPDEST PUSH2 0x192E PUSH2 0x1ACF JUMP JUMPDEST PUSH1 0x3 SSTORE JUMP JUMPDEST PUSH2 0x193B PUSH2 0x1ACF JUMP JUMPDEST PUSH1 0x1 PUSH1 0x1 PUSH1 0xA0 SHL SUB DUP2 AND PUSH2 0x19A0 JUMPI PUSH1 0x40 MLOAD PUSH3 0x461BCD PUSH1 0xE5 SHL DUP2 MSTORE PUSH1 0x20 PUSH1 0x4 DUP3 ADD MSTORE PUSH1 0x26 PUSH1 0x24 DUP3 ADD MSTORE PUSH32 0x4F776E61626C653A206E6577206F776E657220697320746865207A65726F2061 PUSH1 0x44 DUP3 ADD MSTORE PUSH6 0x646472657373 PUSH1 0xD0 SHL PUSH1 0x64 DUP3 ADD MSTORE PUSH1 0x84 ADD PUSH2 0x926 JUMP JUMPDEST PUSH2 0x19A9 DUP2 PUSH2 0x2811 JUMP JUMPDEST POP JUMP JUMPDEST PUSH2 0x19B4 PUSH2 0x1ACF JUMP JUMPDEST PUSH1 0x8 SLOAD PUSH1 0xFF AND ISZERO PUSH2 0x1A19 JUMPI PUSH1 0x40 MLOAD PUSH3 0x461BCD PUSH1 0xE5 SHL DUP2 MSTORE PUSH1 0x20 PUSH1 0x4 DUP3 ADD MSTORE PUSH1 0x29 PUSH1 0x24 DUP3 ADD MSTORE PUSH32 0x4F6E6C7920616C6C6F7765642069662062726964676520696E61637469766520 PUSH1 0x44 DUP3 ADD MSTORE PUSH9 0x666F72207573657273 PUSH1 0xB8 SHL PUSH1 0x64 DUP3 ADD MSTORE PUSH1 0x84 ADD PUSH2 0x926 JUMP JUMPDEST DUP1 ISZERO ISZERO PUSH1 0x1 SUB PUSH2 0x1A61 JUMPI PUSH1 0x1 PUSH1 0x1 PUSH1 0xA0 SHL SUB DUP4 AND PUSH1 0x0 SWAP1 DUP2 MSTORE PUSH1 0xB PUSH1 0x20 MSTORE PUSH1 0x40 SWAP1 KECCAK256 SLOAD PUSH2 0x1A47 SWAP1 DUP4 SWAP1 PUSH2 0x3114 JUMP JUMPDEST PUSH1 0x1 PUSH1 0x1 PUSH1 0xA0 SHL SUB DUP5 AND PUSH1 0x0 SWAP1 DUP2 MSTORE PUSH1 0xB PUSH1 0x20 MSTORE PUSH1 0x40 SWAP1 KECCAK256 SSTORE JUMPDEST PUSH1 0x1 PUSH1 0x1 PUSH1 0xA0 SHL SUB DUP4 AND PUSH2 0x1A9C JUMPI PUSH1 0x40 MLOAD CALLER SWAP1 DUP4 ISZERO PUSH2 0x8FC MUL SWAP1 DUP5 SWAP1 PUSH1 0x0 DUP2 DUP2 DUP2 DUP6 DUP9 DUP9 CALL SWAP4 POP POP POP POP ISZERO DUP1 ISZERO PUSH2 0xEFB JUMPI RETURNDATASIZE PUSH1 0x0 DUP1 RETURNDATACOPY RETURNDATASIZE PUSH1 0x0 REVERT JUMPDEST PUSH1 0x40 MLOAD PUSH4 0xA9059CBB PUSH1 0xE0 SHL DUP2 MSTORE CALLER PUSH1 0x4 DUP3 ADD MSTORE PUSH1 0x24 DUP2 ADD DUP4 SWAP1 MSTORE PUSH1 0x1 PUSH1 0x1 PUSH1 0xA0 SHL SUB DUP5 AND SWAP1 PUSH4 0xA9059CBB SWAP1 PUSH1 0x44 ADD PUSH2 0xEB8 JUMP JUMPDEST PUSH1 0x2 SLOAD PUSH1 0x1 PUSH1 0x1 PUSH1 0xA0 SHL SUB AND CALLER EQ PUSH2 0x157C JUMPI PUSH1 0x40 MLOAD PUSH3 0x461BCD PUSH1 0xE5 SHL DUP2 MSTORE PUSH1 0x20 PUSH1 0x4 DUP3 ADD DUP2 SWAP1 MSTORE PUSH1 0x24 DUP3 ADD MSTORE PUSH32 0x4F776E61626C653A2063616C6C6572206973206E6F7420746865206F776E6572 PUSH1 0x44 DUP3 ADD MSTORE PUSH1 0x64 ADD PUSH2 0x926 JUMP JUMPDEST PUSH1 0x0 DUP1 PUSH1 0x0 PUSH1 0x64 PUSH1 0x6 SLOAD DUP6 PUSH2 0x1B3E SWAP2 SWAP1 PUSH2 0x3672 JUMP JUMPDEST PUSH2 0x1B48 SWAP2 SWAP1 PUSH2 0x36E3 JUMP JUMPDEST PUSH1 0x5 SLOAD PUSH1 0x40 MLOAD SWAP2 SWAP3 POP PUSH1 0x1 PUSH1 0x1 PUSH1 0xA0 SHL SUB AND SWAP1 DUP3 ISZERO PUSH2 0x8FC MUL SWAP1 DUP4 SWAP1 PUSH1 0x0 DUP2 DUP2 DUP2 DUP6 DUP9 DUP9 CALL SWAP4 POP POP POP POP ISZERO DUP1 ISZERO PUSH2 0x1B83 JUMPI RETURNDATASIZE PUSH1 0x0 DUP1 RETURNDATACOPY RETURNDATASIZE PUSH1 0x0 REVERT JUMPDEST POP PUSH2 0x1B8E DUP2 DUP6 PUSH2 0x3114 JUMP JUMPDEST SWAP5 SWAP1 SWAP4 POP SWAP2 POP POP JUMP JUMPDEST PUSH1 0x40 DUP1 MLOAD PUSH1 0x1 DUP1 DUP3 MSTORE DUP2 DUP4 ADD SWAP1 SWAP3 MSTORE PUSH1 0x0 SWAP2 DUP3 SWAP2 SWAP1 DUP2 PUSH1 0x20 ADD JUMPDEST PUSH1 0x40 DUP1 MLOAD PUSH1 0x60 DUP2 ADD DUP3 MSTORE PUSH1 0x0 DUP1 DUP3 MSTORE PUSH1 0x20 DUP1 DUP4 ADD DUP3 SWAP1 MSTORE SWAP3 DUP3 ADD MSTORE DUP3 MSTORE PUSH1 0x0 NOT SWAP1 SWAP3 ADD SWAP2 ADD DUP2 PUSH2 0x1BB1 JUMPI SWAP1 POP POP SWAP1 POP PUSH2 0x1BEC DUP5 DUP5 DUP12 DUP12 PUSH2 0x2863 JUMP JUMPDEST DUP2 PUSH1 0x0 DUP2 MLOAD DUP2 LT PUSH2 0x1BFF JUMPI PUSH2 0x1BFF PUSH2 0x3157 JUMP JUMPDEST PUSH1 0x20 SWAP1 DUP2 MUL SWAP2 SWAP1 SWAP2 ADD ADD MSTORE PUSH1 0x40 MLOAD PUSH4 0xC23EE3C3 PUSH1 0xE0 SHL DUP2 MSTORE PUSH2 0xFFFF DUP11 AND PUSH1 0x4 DUP3 ADD MSTORE PUSH1 0x24 DUP2 ADD DUP8 SWAP1 MSTORE PUSH1 0x44 DUP2 ADD DUP7 SWAP1 MSTORE PUSH1 0x0 SWAP1 PUSH1 0x1 PUSH1 0x1 PUSH1 0xA0 SHL SUB PUSH32 0x0 AND SWAP1 PUSH4 0xC23EE3C3 SWAP1 PUSH1 0x64 ADD PUSH1 0x40 DUP1 MLOAD DUP1 DUP4 SUB DUP2 DUP7 GAS STATICCALL ISZERO DUP1 ISZERO PUSH2 0x1C82 JUMPI RETURNDATASIZE PUSH1 0x0 DUP1 RETURNDATACOPY RETURNDATASIZE PUSH1 0x0 REVERT JUMPDEST POP POP POP POP PUSH1 0x40 MLOAD RETURNDATASIZE PUSH1 0x1F NOT PUSH1 0x1F DUP3 ADD AND DUP3 ADD DUP1 PUSH1 0x40 MSTORE POP DUP2 ADD SWAP1 PUSH2 0x1CA6 SWAP2 SWAP1 PUSH2 0x36A2 JUMP JUMPDEST POP SWAP1 POP PUSH32 0x0 PUSH1 0x1 PUSH1 0x1 PUSH1 0xA0 SHL SUB AND PUSH4 0x329A2BE7 DUP3 DUP13 DUP13 DUP13 DUP13 DUP13 DUP10 PUSH1 0x40 MLOAD DUP9 PUSH4 0xFFFFFFFF AND PUSH1 0xE0 SHL DUP2 MSTORE PUSH1 0x4 ADD PUSH2 0x1D00 SWAP7 SWAP6 SWAP5 SWAP4 SWAP3 SWAP2 SWAP1 PUSH2 0x3705 JUMP JUMPDEST PUSH1 0x20 PUSH1 0x40 MLOAD DUP1 DUP4 SUB DUP2 DUP6 DUP9 GAS CALL ISZERO DUP1 ISZERO PUSH2 0x1D1E JUMPI RETURNDATASIZE PUSH1 0x0 DUP1 RETURNDATACOPY RETURNDATASIZE PUSH1 0x0 REVERT JUMPDEST POP POP POP POP POP PUSH1 0x40 MLOAD RETURNDATASIZE PUSH1 0x1F NOT PUSH1 0x1F DUP3 ADD AND DUP3 ADD DUP1 PUSH1 0x40 MSTORE POP DUP2 ADD SWAP1 PUSH2 0x1D43 SWAP2 SWAP1 PUSH2 0x37A5 JUMP JUMPDEST SWAP11 SWAP10 POP POP POP POP POP POP POP POP POP POP JUMP JUMPDEST PUSH1 0x1 PUSH1 0x1 PUSH1 0xA0 SHL SUB DUP2 AND ISZERO DUP1 ISZERO SWAP1 PUSH2 0x1D82 JUMPI POP PUSH1 0x1 PUSH1 0x1 PUSH1 0xA0 SHL SUB DUP3 AND PUSH1 0x0 SWAP1 DUP2 MSTORE PUSH1 0xA PUSH1 0x20 MSTORE PUSH1 0x40 SWAP1 KECCAK256 SLOAD PUSH1 0xFF AND ISZERO JUMPDEST DUP1 ISZERO PUSH2 0x1DA9 JUMPI POP PUSH1 0x1 PUSH1 0x1 PUSH1 0xA0 SHL SUB DUP3 AND PUSH1 0x0 SWAP1 DUP2 MSTORE PUSH1 0xC PUSH1 0x20 MSTORE PUSH1 0x40 SWAP1 KECCAK256 PUSH1 0x1 SWAP1 DUP2 ADD SLOAD LT JUMPDEST ISZERO PUSH2 0x1E43 JUMPI PUSH1 0x1 PUSH1 0x1 PUSH1 0xA0 SHL SUB DUP3 DUP2 AND PUSH1 0x0 SWAP1 DUP2 MSTORE PUSH1 0xA PUSH1 0x20 SWAP1 DUP2 MSTORE PUSH1 0x40 DUP1 DUP4 KECCAK256 DUP1 SLOAD PUSH1 0x1 PUSH1 0x1 PUSH1 0x1 PUSH1 0xA8 SHL SUB NOT SWAP1 SWAP2 AND PUSH2 0x100 SWAP7 DUP9 AND SWAP7 DUP8 MUL OR DUP2 OR SWAP1 SWAP2 SSTORE SWAP4 DUP4 MSTORE PUSH1 0xC SWAP1 SWAP2 MSTORE SWAP1 KECCAK256 PUSH1 0x3 ADD SLOAD SWAP1 PUSH2 0x1E03 SWAP1 DUP3 SWAP1 PUSH2 0x3144 JUMP JUMPDEST PUSH1 0x1 PUSH1 0x1 PUSH1 0xA0 SHL SUB DUP4 AND PUSH1 0x0 SWAP1 DUP2 MSTORE PUSH1 0xC PUSH1 0x20 SWAP1 DUP2 MSTORE PUSH1 0x40 DUP1 DUP4 KECCAK256 PUSH1 0x3 DUP2 ADD SWAP5 SWAP1 SWAP5 SSTORE SWAP4 DUP3 MSTORE PUSH1 0x4 SWAP1 SWAP3 ADD SWAP1 SWAP2 MSTORE KECCAK256 DUP1 SLOAD PUSH1 0x1 PUSH1 0x1 PUSH1 0xA0 SHL SUB NOT AND CALLER OR SWAP1 SSTORE JUMPDEST POP POP JUMP JUMPDEST PUSH1 0x1 PUSH1 0x1 PUSH1 0xA0 SHL SUB DUP3 AND PUSH1 0x0 SWAP1 DUP2 MSTORE PUSH1 0xC PUSH1 0x20 MSTORE PUSH1 0x40 SWAP1 KECCAK256 PUSH1 0x2 ADD SLOAD PUSH2 0x1E6E SWAP1 PUSH1 0x1 PUSH2 0x3144 JUMP JUMPDEST PUSH1 0x1 PUSH1 0x1 PUSH1 0xA0 SHL SUB DUP1 DUP5 AND PUSH1 0x0 SWAP1 DUP2 MSTORE PUSH1 0xC PUSH1 0x20 MSTORE PUSH1 0x40 SWAP1 KECCAK256 PUSH1 0x2 ADD SWAP2 SWAP1 SWAP2 SSTORE DUP2 AND ISZERO PUSH2 0x1ED9 JUMPI PUSH1 0x1 PUSH1 0x1 PUSH1 0xA0 SHL SUB DUP2 AND PUSH1 0x0 SWAP1 DUP2 MSTORE PUSH1 0xC PUSH1 0x20 MSTORE PUSH1 0x40 SWAP1 KECCAK256 PUSH1 0x2 ADD SLOAD PUSH2 0x1EBC SWAP1 PUSH1 0x1 PUSH2 0x3144 JUMP JUMPDEST PUSH1 0x1 PUSH1 0x1 PUSH1 0xA0 SHL SUB DUP3 AND PUSH1 0x0 SWAP1 DUP2 MSTORE PUSH1 0xC PUSH1 0x20 MSTORE PUSH1 0x40 SWAP1 KECCAK256 PUSH1 0x2 ADD SSTORE JUMPDEST PUSH1 0x7 DUP1 SLOAD SWAP1 PUSH1 0x0 PUSH2 0x1EE9 DUP4 PUSH2 0x3689 JUMP JUMPDEST SWAP2 SWAP1 POP SSTORE POP POP POP JUMP JUMPDEST PUSH1 0x0 PUSH32 0x0 PUSH1 0x1 PUSH1 0x1 PUSH1 0xA0 SHL SUB AND PUSH4 0x9A8A0592 PUSH1 0x40 MLOAD DUP2 PUSH4 0xFFFFFFFF AND PUSH1 0xE0 SHL DUP2 MSTORE PUSH1 0x4 ADD PUSH1 0x20 PUSH1 0x40 MLOAD DUP1 DUP4 SUB DUP2 DUP7 GAS STATICCALL ISZERO DUP1 ISZERO PUSH2 0x1F52 JUMPI RETURNDATASIZE PUSH1 0x0 DUP1 RETURNDATACOPY RETURNDATASIZE PUSH1 0x0 REVERT JUMPDEST POP POP POP POP PUSH1 0x40 MLOAD RETURNDATASIZE PUSH1 0x1F NOT PUSH1 0x1F DUP3 ADD AND DUP3 ADD DUP1 PUSH1 0x40 MSTORE POP DUP2 ADD SWAP1 PUSH2 0x1F76 SWAP2 SWAP1 PUSH2 0x3515 JUMP JUMPDEST PUSH2 0xFFFF AND DUP4 PUSH2 0xFFFF AND EQ PUSH2 0x201C JUMPI PUSH1 0x40 MLOAD PUSH4 0xFF8F143 PUSH1 0xE1 SHL DUP2 MSTORE PUSH2 0xFFFF DUP5 AND PUSH1 0x4 DUP3 ADD MSTORE PUSH1 0x24 DUP2 ADD DUP4 SWAP1 MSTORE PUSH32 0x0 PUSH1 0x1 PUSH1 0x1 PUSH1 0xA0 SHL SUB AND SWAP1 PUSH4 0x1FF1E286 SWAP1 PUSH1 0x44 ADD PUSH1 0x20 PUSH1 0x40 MLOAD DUP1 DUP4 SUB DUP2 DUP7 GAS STATICCALL ISZERO DUP1 ISZERO PUSH2 0x1FF3 JUMPI RETURNDATASIZE PUSH1 0x0 DUP1 RETURNDATACOPY RETURNDATASIZE PUSH1 0x0 REVERT JUMPDEST POP POP POP POP PUSH1 0x40 MLOAD RETURNDATASIZE PUSH1 0x1F NOT PUSH1 0x1F DUP3 ADD AND DUP3 ADD DUP1 PUSH1 0x40 MSTORE POP DUP2 ADD SWAP1 PUSH2 0x2017 SWAP2 SWAP1 PUSH2 0x36C6 JUMP JUMPDEST PUSH2 0x2025 JUMP JUMPDEST PUSH2 0x2025 DUP3 PUSH2 0x289C JUMP JUMPDEST SWAP4 SWAP3 POP POP POP JUMP JUMPDEST PUSH1 0x40 DUP1 MLOAD PUSH1 0x4 DUP2 MSTORE PUSH1 0x24 DUP2 ADD DUP3 MSTORE PUSH1 0x20 DUP2 ADD DUP1 MLOAD PUSH1 0x1 PUSH1 0x1 PUSH1 0xE0 SHL SUB AND PUSH4 0x313CE567 PUSH1 0xE0 SHL OR SWAP1 MSTORE SWAP1 MLOAD PUSH1 0x0 SWAP2 DUP3 SWAP2 PUSH1 0x1 PUSH1 0x1 PUSH1 0xA0 SHL SUB DUP6 AND SWAP2 PUSH2 0x206F SWAP2 PUSH2 0x37C0 JUMP JUMPDEST PUSH1 0x0 PUSH1 0x40 MLOAD DUP1 DUP4 SUB DUP2 DUP6 GAS STATICCALL SWAP2 POP POP RETURNDATASIZE DUP1 PUSH1 0x0 DUP2 EQ PUSH2 0x20AA JUMPI PUSH1 0x40 MLOAD SWAP2 POP PUSH1 0x1F NOT PUSH1 0x3F RETURNDATASIZE ADD AND DUP3 ADD PUSH1 0x40 MSTORE RETURNDATASIZE DUP3 MSTORE RETURNDATASIZE PUSH1 0x0 PUSH1 0x20 DUP5 ADD RETURNDATACOPY PUSH2 0x20AF JUMP JUMPDEST PUSH1 0x60 SWAP2 POP JUMPDEST POP SWAP2 POP POP DUP1 DUP1 PUSH1 0x20 ADD SWAP1 MLOAD DUP2 ADD SWAP1 PUSH2 0x2025 SWAP2 SWAP1 PUSH2 0x37DC JUMP JUMPDEST CALLER PUSH1 0x1 PUSH1 0x1 PUSH1 0xA0 SHL SUB PUSH32 0x0 AND EQ PUSH2 0x214A JUMPI PUSH1 0x40 MLOAD PUSH3 0x461BCD PUSH1 0xE5 SHL DUP2 MSTORE PUSH1 0x20 PUSH1 0x4 DUP3 ADD MSTORE PUSH1 0x22 PUSH1 0x24 DUP3 ADD MSTORE PUSH32 0x4D73672E73656E646572206973206E6F7420576F726D686F6C652052656C6179 PUSH1 0x44 DUP3 ADD MSTORE PUSH2 0x32B9 PUSH1 0xF1 SHL PUSH1 0x64 DUP3 ADD MSTORE PUSH1 0x84 ADD PUSH2 0x926 JUMP JUMPDEST DUP4 MLOAD PUSH1 0x1 EQ PUSH2 0x2158 JUMPI PUSH1 0x0 DUP1 REVERT JUMPDEST PUSH1 0x0 PUSH2 0x2163 DUP5 PUSH2 0x289C JUMP JUMPDEST PUSH2 0xFFFF DUP5 AND PUSH1 0x0 SWAP1 DUP2 MSTORE PUSH1 0xD PUSH1 0x20 SWAP1 DUP2 MSTORE PUSH1 0x40 DUP1 DUP4 KECCAK256 PUSH1 0x1 PUSH1 0x1 PUSH1 0xA0 SHL SUB DUP6 AND DUP5 MSTORE SWAP1 SWAP2 MSTORE SWAP1 KECCAK256 SLOAD SWAP1 SWAP2 POP PUSH1 0xFF AND ISZERO ISZERO PUSH1 0x1 EQ PUSH2 0x219F JUMPI PUSH1 0x0 DUP1 REVERT JUMPDEST PUSH1 0x0 DUP1 PUSH1 0x0 DUP9 DUP1 PUSH1 0x20 ADD SWAP1 MLOAD DUP2 ADD SWAP1 PUSH2 0x21B8 SWAP2 SWAP1 PUSH2 0x37F7 JUMP JUMPDEST PUSH1 0x1 PUSH1 0x1 PUSH1 0xA0 SHL SUB DUP4 AND PUSH1 0x0 SWAP1 DUP2 MSTORE PUSH1 0xC PUSH1 0x20 SWAP1 DUP2 MSTORE PUSH1 0x40 DUP1 DUP4 KECCAK256 DUP12 DUP5 MSTORE PUSH1 0x5 ADD SWAP1 SWAP2 MSTORE SWAP1 KECCAK256 PUSH1 0x2 ADD SLOAD SWAP3 SWAP6 POP SWAP1 SWAP4 POP SWAP2 POP PUSH1 0xFF AND ISZERO PUSH2 0x21F7 JUMPI PUSH1 0x0 DUP1 REVERT JUMPDEST PUSH1 0x1 PUSH1 0x1 PUSH1 0xA0 SHL SUB DUP4 AND PUSH1 0x0 SWAP1 DUP2 MSTORE PUSH1 0xC PUSH1 0x20 MSTORE PUSH1 0x40 SWAP1 KECCAK256 SLOAD PUSH2 0x221B DUP2 PUSH1 0x1 PUSH2 0x3144 JUMP JUMPDEST PUSH1 0x1 PUSH1 0x1 PUSH1 0xA0 SHL SUB DUP6 AND PUSH1 0x0 SWAP1 DUP2 MSTORE PUSH1 0xC PUSH1 0x20 MSTORE PUSH1 0x40 SWAP1 KECCAK256 SSTORE PUSH1 0xFF DUP4 AND ISZERO DUP1 ISZERO PUSH2 0x2245 JUMPI POP PUSH1 0x0 DUP3 GT JUMPDEST ISZERO PUSH2 0x24DE JUMPI PUSH1 0x0 PUSH2 0x3E8 PUSH1 0x4 SLOAD DUP5 PUSH2 0x225D SWAP2 SWAP1 PUSH2 0x3672 JUMP JUMPDEST PUSH2 0x2267 SWAP2 SWAP1 PUSH2 0x36E3 JUMP JUMPDEST SWAP1 POP PUSH1 0x0 PUSH2 0x2275 DUP3 DUP6 PUSH2 0x3114 JUMP JUMPDEST SWAP1 POP PUSH1 0x0 PUSH1 0x40 MLOAD DUP1 PUSH1 0xA0 ADD PUSH1 0x40 MSTORE DUP1 DUP12 PUSH2 0xFFFF AND DUP2 MSTORE PUSH1 0x20 ADD DUP8 PUSH1 0xFF AND DUP2 MSTORE PUSH1 0x20 ADD PUSH1 0x0 PUSH1 0x1 PUSH1 0x1 PUSH1 0xA0 SHL SUB AND DUP2 MSTORE PUSH1 0x20 ADD DUP4 DUP2 MSTORE PUSH1 0x20 ADD PUSH1 0x1 ISZERO ISZERO DUP2 MSTORE POP SWAP1 POP DUP1 PUSH1 0xC PUSH1 0x0 DUP10 PUSH1 0x1 PUSH1 0x1 PUSH1 0xA0 SHL SUB AND PUSH1 0x1 PUSH1 0x1 PUSH1 0xA0 SHL SUB AND DUP2 MSTORE PUSH1 0x20 ADD SWAP1 DUP2 MSTORE PUSH1 0x20 ADD PUSH1 0x0 KECCAK256 PUSH1 0x5 ADD PUSH1 0x0 DUP12 DUP2 MSTORE PUSH1 0x20 ADD SWAP1 DUP2 MSTORE PUSH1 0x20 ADD PUSH1 0x0 KECCAK256 PUSH1 0x0 DUP3 ADD MLOAD DUP2 PUSH1 0x0 ADD PUSH1 0x0 PUSH2 0x100 EXP DUP2 SLOAD DUP2 PUSH2 0xFFFF MUL NOT AND SWAP1 DUP4 PUSH2 0xFFFF AND MUL OR SWAP1 SSTORE POP PUSH1 0x20 DUP3 ADD MLOAD DUP2 PUSH1 0x0 ADD PUSH1 0x2 PUSH2 0x100 EXP DUP2 SLOAD DUP2 PUSH1 0xFF MUL NOT AND SWAP1 DUP4 PUSH1 0xFF AND MUL OR SWAP1 SSTORE POP PUSH1 0x40 DUP3 ADD MLOAD DUP2 PUSH1 0x0 ADD PUSH1 0x3 PUSH2 0x100 EXP DUP2 SLOAD DUP2 PUSH1 0x1 PUSH1 0x1 PUSH1 0xA0 SHL SUB MUL NOT AND SWAP1 DUP4 PUSH1 0x1 PUSH1 0x1 PUSH1 0xA0 SHL SUB AND MUL OR SWAP1 SSTORE POP PUSH1 0x60 DUP3 ADD MLOAD DUP2 PUSH1 0x1 ADD SSTORE PUSH1 0x80 DUP3 ADD MLOAD DUP2 PUSH1 0x2 ADD PUSH1 0x0 PUSH2 0x100 EXP DUP2 SLOAD DUP2 PUSH1 0xFF MUL NOT AND SWAP1 DUP4 ISZERO ISZERO MUL OR SWAP1 SSTORE POP SWAP1 POP POP DUP9 PUSH1 0xC PUSH1 0x0 DUP10 PUSH1 0x1 PUSH1 0x1 PUSH1 0xA0 SHL SUB AND PUSH1 0x1 PUSH1 0x1 PUSH1 0xA0 SHL SUB AND DUP2 MSTORE PUSH1 0x20 ADD SWAP1 DUP2 MSTORE PUSH1 0x20 ADD PUSH1 0x0 KECCAK256 PUSH1 0x6 ADD PUSH1 0x0 DUP7 DUP2 MSTORE PUSH1 0x20 ADD SWAP1 DUP2 MSTORE PUSH1 0x20 ADD PUSH1 0x0 KECCAK256 PUSH1 0x0 DUP13 PUSH2 0xFFFF AND PUSH2 0xFFFF AND DUP2 MSTORE PUSH1 0x20 ADD SWAP1 DUP2 MSTORE PUSH1 0x20 ADD PUSH1 0x0 KECCAK256 DUP2 SWAP1 SSTORE POP DUP3 PUSH1 0xB PUSH1 0x0 DUP1 PUSH1 0x1 PUSH1 0x1 PUSH1 0xA0 SHL SUB AND PUSH1 0x1 PUSH1 0x1 PUSH1 0xA0 SHL SUB AND DUP2 MSTORE PUSH1 0x20 ADD SWAP1 DUP2 MSTORE PUSH1 0x20 ADD PUSH1 0x0 KECCAK256 SLOAD PUSH2 0x2416 SWAP2 SWAP1 PUSH2 0x3144 JUMP JUMPDEST PUSH1 0x0 DUP1 DUP1 MSTORE PUSH1 0xB PUSH1 0x20 SWAP1 DUP2 MSTORE PUSH1 0x0 DUP1 MLOAD PUSH1 0x20 PUSH2 0x3885 DUP4 CODECOPY DUP2 MLOAD SWAP2 MSTORE SWAP3 SWAP1 SWAP3 SSTORE PUSH1 0x40 DUP1 MLOAD DUP3 DUP2 MSTORE SWAP3 DUP4 ADD SWAP1 MSTORE SWAP1 PUSH1 0x1 PUSH1 0x1 PUSH1 0xA0 SHL SUB DUP10 AND SWAP1 DUP5 SWAP1 PUSH1 0x40 MLOAD PUSH2 0x245C SWAP2 SWAP1 PUSH2 0x37C0 JUMP JUMPDEST PUSH1 0x0 PUSH1 0x40 MLOAD DUP1 DUP4 SUB DUP2 DUP6 DUP8 GAS CALL SWAP3 POP POP POP RETURNDATASIZE DUP1 PUSH1 0x0 DUP2 EQ PUSH2 0x2499 JUMPI PUSH1 0x40 MLOAD SWAP2 POP PUSH1 0x1F NOT PUSH1 0x3F RETURNDATASIZE ADD AND DUP3 ADD PUSH1 0x40 MSTORE RETURNDATASIZE DUP3 MSTORE RETURNDATASIZE PUSH1 0x0 PUSH1 0x20 DUP5 ADD RETURNDATACOPY PUSH2 0x249E JUMP JUMPDEST PUSH1 0x60 SWAP2 POP JUMPDEST POP POP SWAP1 POP DUP1 PUSH2 0x24D9 JUMPI PUSH1 0x1 PUSH1 0x1 PUSH1 0xA0 SHL SUB DUP9 AND PUSH1 0x0 SWAP1 DUP2 MSTORE PUSH1 0xC PUSH1 0x20 SWAP1 DUP2 MSTORE PUSH1 0x40 DUP1 DUP4 KECCAK256 DUP14 DUP5 MSTORE PUSH1 0x5 ADD SWAP1 SWAP2 MSTORE SWAP1 KECCAK256 PUSH1 0x2 ADD DUP1 SLOAD PUSH1 0xFF NOT AND SWAP1 SSTORE JUMPDEST POP POP POP POP JUMPDEST PUSH1 0xFF DUP4 AND PUSH1 0x1 EQ DUP1 ISZERO PUSH2 0x250F JUMPI POP PUSH1 0x0 DUP10 PUSH1 0x0 DUP2 MLOAD DUP2 LT PUSH2 0x2501 JUMPI PUSH2 0x2501 PUSH2 0x3157 JUMP JUMPDEST PUSH1 0x20 MUL PUSH1 0x20 ADD ADD MLOAD PUSH1 0x60 ADD MLOAD GT JUMPDEST ISZERO PUSH2 0x2805 JUMPI PUSH1 0x0 DUP10 PUSH1 0x0 DUP2 MLOAD DUP2 LT PUSH2 0x2529 JUMPI PUSH2 0x2529 PUSH2 0x3157 JUMP JUMPDEST PUSH1 0x20 MUL PUSH1 0x20 ADD ADD MLOAD PUSH1 0x40 ADD MLOAD SWAP1 POP PUSH1 0x0 PUSH2 0x3E8 PUSH1 0x4 SLOAD DUP13 PUSH1 0x0 DUP2 MLOAD DUP2 LT PUSH2 0x2552 JUMPI PUSH2 0x2552 PUSH2 0x3157 JUMP JUMPDEST PUSH1 0x20 MUL PUSH1 0x20 ADD ADD MLOAD PUSH1 0x60 ADD MLOAD PUSH2 0x2568 SWAP2 SWAP1 PUSH2 0x3672 JUMP JUMPDEST PUSH2 0x2572 SWAP2 SWAP1 PUSH2 0x36E3 JUMP JUMPDEST SWAP1 POP PUSH1 0x0 DUP2 DUP13 PUSH1 0x0 DUP2 MLOAD DUP2 LT PUSH2 0x258A JUMPI PUSH2 0x258A PUSH2 0x3157 JUMP JUMPDEST PUSH1 0x20 MUL PUSH1 0x20 ADD ADD MLOAD PUSH1 0x60 ADD MLOAD PUSH2 0x25A0 SWAP2 SWAP1 PUSH2 0x3114 JUMP JUMPDEST SWAP1 POP PUSH1 0x0 PUSH1 0x40 MLOAD DUP1 PUSH1 0xA0 ADD PUSH1 0x40 MSTORE DUP1 DUP13 PUSH2 0xFFFF AND DUP2 MSTORE PUSH1 0x20 ADD DUP9 PUSH1 0xFF AND DUP2 MSTORE PUSH1 0x20 ADD DUP6 PUSH1 0x1 PUSH1 0x1 PUSH1 0xA0 SHL SUB AND DUP2 MSTORE PUSH1 0x20 ADD DUP4 DUP2 MSTORE PUSH1 0x20 ADD PUSH1 0x1 ISZERO ISZERO DUP2 MSTORE POP SWAP1 POP DUP1 PUSH1 0xC PUSH1 0x0 DUP11 PUSH1 0x1 PUSH1 0x1 PUSH1 0xA0 SHL SUB AND PUSH1 0x1 PUSH1 0x1 PUSH1 0xA0 SHL SUB AND DUP2 MSTORE PUSH1 0x20 ADD SWAP1 DUP2 MSTORE PUSH1 0x20 ADD PUSH1 0x0 KECCAK256 PUSH1 0x5 ADD PUSH1 0x0 DUP13 DUP2 MSTORE PUSH1 0x20 ADD SWAP1 DUP2 MSTORE PUSH1 0x20 ADD PUSH1 0x0 KECCAK256 PUSH1 0x0 DUP3 ADD MLOAD DUP2 PUSH1 0x0 ADD PUSH1 0x0 PUSH2 0x100 EXP DUP2 SLOAD DUP2 PUSH2 0xFFFF MUL NOT AND SWAP1 DUP4 PUSH2 0xFFFF AND MUL OR SWAP1 SSTORE POP PUSH1 0x20 DUP3 ADD MLOAD DUP2 PUSH1 0x0 ADD PUSH1 0x2 PUSH2 0x100 EXP DUP2 SLOAD DUP2 PUSH1 0xFF MUL NOT AND SWAP1 DUP4 PUSH1 0xFF AND MUL OR SWAP1 SSTORE POP PUSH1 0x40 DUP3 ADD MLOAD DUP2 PUSH1 0x0 ADD PUSH1 0x3 PUSH2 0x100 EXP DUP2 SLOAD DUP2 PUSH1 0x1 PUSH1 0x1 PUSH1 0xA0 SHL SUB MUL NOT AND SWAP1 DUP4 PUSH1 0x1 PUSH1 0x1 PUSH1 0xA0 SHL SUB AND MUL OR SWAP1 SSTORE POP PUSH1 0x60 DUP3 ADD MLOAD DUP2 PUSH1 0x1 ADD SSTORE PUSH1 0x80 DUP3 ADD MLOAD DUP2 PUSH1 0x2 ADD PUSH1 0x0 PUSH2 0x100 EXP DUP2 SLOAD DUP2 PUSH1 0xFF MUL NOT AND SWAP1 DUP4 ISZERO ISZERO MUL OR SWAP1 SSTORE POP SWAP1 POP POP DUP10 PUSH1 0xC PUSH1 0x0 DUP11 PUSH1 0x1 PUSH1 0x1 PUSH1 0xA0 SHL SUB AND PUSH1 0x1 PUSH1 0x1 PUSH1 0xA0 SHL SUB AND DUP2 MSTORE PUSH1 0x20 ADD SWAP1 DUP2 MSTORE PUSH1 0x20 ADD PUSH1 0x0 KECCAK256 PUSH1 0x6 ADD PUSH1 0x0 DUP8 DUP2 MSTORE PUSH1 0x20 ADD SWAP1 DUP2 MSTORE PUSH1 0x20 ADD PUSH1 0x0 KECCAK256 PUSH1 0x0 DUP14 PUSH2 0xFFFF AND PUSH2 0xFFFF AND DUP2 MSTORE PUSH1 0x20 ADD SWAP1 DUP2 MSTORE PUSH1 0x20 ADD PUSH1 0x0 KECCAK256 DUP2 SWAP1 SSTORE POP DUP3 PUSH1 0xB PUSH1 0x0 DUP7 PUSH1 0x1 PUSH1 0x1 PUSH1 0xA0 SHL SUB AND PUSH1 0x1 PUSH1 0x1 PUSH1 0xA0 SHL SUB AND DUP2 MSTORE PUSH1 0x20 ADD SWAP1 DUP2 MSTORE PUSH1 0x20 ADD PUSH1 0x0 KECCAK256 SLOAD PUSH2 0x2740 SWAP2 SWAP1 PUSH2 0x3144 JUMP JUMPDEST PUSH1 0x1 PUSH1 0x1 PUSH1 0xA0 SHL SUB DUP6 DUP2 AND PUSH1 0x0 DUP2 DUP2 MSTORE PUSH1 0xB PUSH1 0x20 MSTORE PUSH1 0x40 DUP1 DUP3 KECCAK256 SWAP5 SWAP1 SWAP5 SSTORE SWAP3 MLOAD PUSH4 0xA9059CBB PUSH1 0xE0 SHL DUP2 MSTORE SWAP2 DUP12 AND PUSH1 0x4 DUP4 ADD MSTORE PUSH1 0x24 DUP3 ADD DUP6 SWAP1 MSTORE SWAP1 PUSH4 0xA9059CBB SWAP1 PUSH1 0x44 ADD PUSH1 0x20 PUSH1 0x40 MLOAD DUP1 DUP4 SUB DUP2 PUSH1 0x0 DUP8 GAS CALL ISZERO DUP1 ISZERO PUSH2 0x27A2 JUMPI RETURNDATASIZE PUSH1 0x0 DUP1 RETURNDATACOPY RETURNDATASIZE PUSH1 0x0 REVERT JUMPDEST POP POP POP POP PUSH1 0x40 MLOAD RETURNDATASIZE PUSH1 0x1F NOT PUSH1 0x1F DUP3 ADD AND DUP3 ADD DUP1 PUSH1 0x40 MSTORE POP DUP2 ADD SWAP1 PUSH2 0x27C6 SWAP2 SWAP1 PUSH2 0x3127 JUMP JUMPDEST SWAP1 POP DUP1 PUSH2 0x27FF JUMPI PUSH1 0x1 PUSH1 0x1 PUSH1 0xA0 SHL SUB DUP10 AND PUSH1 0x0 SWAP1 DUP2 MSTORE PUSH1 0xC PUSH1 0x20 SWAP1 DUP2 MSTORE PUSH1 0x40 DUP1 DUP4 KECCAK256 DUP15 DUP5 MSTORE PUSH1 0x5 ADD SWAP1 SWAP2 MSTORE SWAP1 KECCAK256 PUSH1 0x2 ADD DUP1 SLOAD PUSH1 0xFF NOT AND SWAP1 SSTORE JUMPDEST POP POP POP POP POP JUMPDEST POP POP POP POP POP POP POP POP POP POP JUMP JUMPDEST PUSH1 0x2 DUP1 SLOAD PUSH1 0x1 PUSH1 0x1 PUSH1 0xA0 SHL SUB DUP4 DUP2 AND PUSH1 0x1 PUSH1 0x1 PUSH1 0xA0 SHL SUB NOT DUP4 AND DUP2 OR SWAP1 SWAP4 SSTORE PUSH1 0x40 MLOAD SWAP2 AND SWAP2 SWAP1 DUP3 SWAP1 PUSH32 0x8BE0079C531659141344CD1FD0A4F28419497F9722A3DAAFE3B4186F6B6457E0 SWAP1 PUSH1 0x0 SWAP1 LOG3 POP POP JUMP JUMPDEST PUSH1 0x40 DUP1 MLOAD PUSH1 0x60 DUP2 ADD DUP3 MSTORE PUSH1 0x0 DUP1 DUP3 MSTORE PUSH1 0x20 DUP3 ADD DUP2 SWAP1 MSTORE SWAP2 DUP2 ADD SWAP2 SWAP1 SWAP2 MSTORE PUSH2 0x1561 DUP6 DUP6 DUP6 DUP6 PUSH1 0x40 MLOAD DUP1 PUSH1 0x20 ADD PUSH1 0x40 MSTORE DUP1 PUSH1 0x0 DUP2 MSTORE POP PUSH2 0x28C8 JUMP JUMPDEST PUSH1 0x0 PUSH1 0xA0 DUP3 SWAP1 SHR ISZERO PUSH2 0x28C4 JUMPI PUSH1 0x40 MLOAD PUSH4 0x33B960D PUSH1 0xE4 SHL DUP2 MSTORE PUSH1 0x4 DUP2 ADD DUP4 SWAP1 MSTORE PUSH1 0x24 ADD PUSH2 0x926 JUMP JUMPDEST POP SWAP1 JUMP JUMPDEST PUSH1 0x40 DUP1 MLOAD PUSH1 0x60 DUP2 ADD DUP3 MSTORE PUSH1 0x0 DUP1 DUP3 MSTORE PUSH1 0x20 DUP3 ADD DUP2 SWAP1 MSTORE SWAP2 DUP2 ADD SWAP2 SWAP1 SWAP2 MSTORE PUSH1 0x40 MLOAD PUSH4 0x95EA7B3 PUSH1 0xE0 SHL DUP2 MSTORE PUSH1 0x1 PUSH1 0x1 PUSH1 0xA0 SHL SUB PUSH32 0x0 DUP2 AND PUSH1 0x4 DUP4 ADD MSTORE PUSH1 0x24 DUP3 ADD DUP8 SWAP1 MSTORE DUP8 AND SWAP1 PUSH4 0x95EA7B3 SWAP1 PUSH1 0x44 ADD PUSH1 0x20 PUSH1 0x40 MLOAD DUP1 DUP4 SUB DUP2 PUSH1 0x0 DUP8 GAS CALL ISZERO DUP1 ISZERO PUSH2 0x2954 JUMPI RETURNDATASIZE PUSH1 0x0 DUP1 RETURNDATACOPY RETURNDATASIZE PUSH1 0x0 REVERT JUMPDEST POP POP POP POP PUSH1 0x40 MLOAD RETURNDATASIZE PUSH1 0x1F NOT PUSH1 0x1F DUP3 ADD AND DUP3 ADD DUP1 PUSH1 0x40 MSTORE POP DUP2 ADD SWAP1 PUSH2 0x2978 SWAP2 SWAP1 PUSH2 0x3127 JUMP JUMPDEST POP PUSH1 0x0 PUSH32 0x0 PUSH1 0x1 PUSH1 0x1 PUSH1 0xA0 SHL SUB AND PUSH4 0xC5A5EBDA PUSH32 0x0 PUSH1 0x1 PUSH1 0x1 PUSH1 0xA0 SHL SUB AND PUSH4 0x1A90A219 PUSH1 0x40 MLOAD DUP2 PUSH4 0xFFFFFFFF AND PUSH1 0xE0 SHL DUP2 MSTORE PUSH1 0x4 ADD PUSH1 0x20 PUSH1 0x40 MLOAD DUP1 DUP4 SUB DUP2 DUP7 GAS STATICCALL ISZERO DUP1 ISZERO PUSH2 0x2A08 JUMPI RETURNDATASIZE PUSH1 0x0 DUP1 RETURNDATACOPY RETURNDATASIZE PUSH1 0x0 REVERT JUMPDEST POP POP POP POP PUSH1 0x40 MLOAD RETURNDATASIZE PUSH1 0x1F NOT PUSH1 0x1F DUP3 ADD AND DUP3 ADD DUP1 PUSH1 0x40 MSTORE POP DUP2 ADD SWAP1 PUSH2 0x2A2C SWAP2 SWAP1 PUSH2 0x3434 JUMP JUMPDEST DUP10 DUP10 DUP10 PUSH1 0x1 PUSH1 0x1 PUSH1 0xA0 SHL SUB DUP11 AND PUSH1 0x0 DUP11 PUSH1 0x40 MLOAD DUP9 PUSH4 0xFFFFFFFF AND PUSH1 0xE0 SHL DUP2 MSTORE PUSH1 0x4 ADD PUSH2 0x2A5D SWAP7 SWAP6 SWAP5 SWAP4 SWAP3 SWAP2 SWAP1 PUSH2 0x3835 JUMP JUMPDEST PUSH1 0x20 PUSH1 0x40 MLOAD DUP1 DUP4 SUB DUP2 DUP6 DUP9 GAS CALL ISZERO DUP1 ISZERO PUSH2 0x2A7B JUMPI RETURNDATASIZE PUSH1 0x0 DUP1 RETURNDATACOPY RETURNDATASIZE PUSH1 0x0 REVERT JUMPDEST POP POP POP POP POP PUSH1 0x40 MLOAD RETURNDATASIZE PUSH1 0x1F NOT PUSH1 0x1F DUP3 ADD AND DUP3 ADD DUP1 PUSH1 0x40 MSTORE POP DUP2 ADD SWAP1 PUSH2 0x2AA0 SWAP2 SWAP1 PUSH2 0x37A5 JUMP JUMPDEST SWAP1 POP PUSH1 0x40 MLOAD DUP1 PUSH1 0x60 ADD PUSH1 0x40 MSTORE DUP1 PUSH32 0x0 PUSH1 0x1 PUSH1 0x1 PUSH1 0xA0 SHL SUB AND PUSH4 0x9A8A0592 PUSH1 0x40 MLOAD DUP2 PUSH4 0xFFFFFFFF AND PUSH1 0xE0 SHL DUP2 MSTORE PUSH1 0x4 ADD PUSH1 0x20 PUSH1 0x40 MLOAD DUP1 DUP4 SUB DUP2 DUP7 GAS STATICCALL ISZERO DUP1 ISZERO PUSH2 0x2B0B JUMPI RETURNDATASIZE PUSH1 0x0 DUP1 RETURNDATACOPY RETURNDATASIZE PUSH1 0x0 REVERT JUMPDEST POP POP POP POP PUSH1 0x40 MLOAD RETURNDATASIZE PUSH1 0x1F NOT PUSH1 0x1F DUP3 ADD AND DUP3 ADD DUP1 PUSH1 0x40 MSTORE POP DUP2 ADD SWAP1 PUSH2 0x2B2F SWAP2 SWAP1 PUSH2 0x3515 JUMP JUMPDEST PUSH2 0xFFFF AND DUP2 MSTORE PUSH1 0x20 ADD PUSH1 0x1 PUSH1 0x1 PUSH1 0xA0 SHL SUB PUSH32 0x0 AND DUP2 MSTORE PUSH1 0x20 ADD DUP3 PUSH1 0x1 PUSH1 0x1 PUSH1 0x40 SHL SUB AND DUP2 MSTORE POP SWAP2 POP POP SWAP6 SWAP5 POP POP POP POP POP JUMP JUMPDEST PUSH1 0x1 PUSH1 0x1 PUSH1 0xA0 SHL SUB DUP2 AND DUP2 EQ PUSH2 0x19A9 JUMPI PUSH1 0x0 DUP1 REVERT JUMPDEST PUSH1 0x0 DUP1 PUSH1 0x40 DUP4 DUP6 SUB SLT ISZERO PUSH2 0x2BA8 JUMPI PUSH1 0x0 DUP1 REVERT JUMPDEST DUP3 CALLDATALOAD SWAP2 POP PUSH1 0x20 DUP4 ADD CALLDATALOAD PUSH2 0x2BBA DUP2 PUSH2 0x2B80 JUMP JUMPDEST DUP1 SWAP2 POP POP SWAP3 POP SWAP3 SWAP1 POP JUMP JUMPDEST PUSH1 0x0 DUP1 PUSH1 0x40 DUP4 DUP6 SUB SLT ISZERO PUSH2 0x2BD8 JUMPI PUSH1 0x0 DUP1 REVERT JUMPDEST DUP3 CALLDATALOAD PUSH2 0x2BE3 DUP2 PUSH2 0x2B80 JUMP JUMPDEST SWAP2 POP PUSH1 0x20 DUP4 ADD CALLDATALOAD PUSH2 0x2BBA DUP2 PUSH2 0x2B80 JUMP JUMPDEST PUSH1 0x0 PUSH1 0x20 DUP3 DUP5 SUB SLT ISZERO PUSH2 0x2C05 JUMPI PUSH1 0x0 DUP1 REVERT JUMPDEST POP CALLDATALOAD SWAP2 SWAP1 POP JUMP JUMPDEST PUSH2 0xFFFF DUP2 AND DUP2 EQ PUSH2 0x19A9 JUMPI PUSH1 0x0 DUP1 REVERT JUMPDEST DUP1 CALLDATALOAD PUSH2 0x2C27 DUP2 PUSH2 0x2C0C JUMP JUMPDEST SWAP2 SWAP1 POP JUMP JUMPDEST PUSH1 0x0 DUP1 PUSH1 0x0 DUP1 PUSH1 0x0 DUP1 PUSH1 0x0 PUSH1 0xE0 DUP9 DUP11 SUB SLT ISZERO PUSH2 0x2C47 JUMPI PUSH1 0x0 DUP1 REVERT JUMPDEST DUP8 CALLDATALOAD PUSH2 0x2C52 DUP2 PUSH2 0x2C0C JUMP JUMPDEST SWAP7 POP PUSH1 0x20 DUP9 ADD CALLDATALOAD PUSH2 0x2C62 DUP2 PUSH2 0x2B80 JUMP JUMPDEST SWAP6 POP PUSH1 0x40 DUP9 ADD CALLDATALOAD PUSH2 0x2C72 DUP2 PUSH2 0x2B80 JUMP JUMPDEST SWAP5 POP PUSH1 0x60 DUP9 ADD CALLDATALOAD SWAP4 POP PUSH1 0x80 DUP9 ADD CALLDATALOAD PUSH2 0x2C89 DUP2 PUSH2 0x2B80 JUMP JUMPDEST SWAP3 POP PUSH1 0xA0 DUP9 ADD CALLDATALOAD SWAP2 POP PUSH1 0xC0 DUP9 ADD CALLDATALOAD PUSH2 0x2CA0 DUP2 PUSH2 0x2B80 JUMP JUMPDEST DUP1 SWAP2 POP POP SWAP3 SWAP6 SWAP9 SWAP2 SWAP5 SWAP8 POP SWAP3 SWAP6 POP JUMP JUMPDEST PUSH1 0x0 PUSH1 0x20 DUP3 DUP5 SUB SLT ISZERO PUSH2 0x2CC2 JUMPI PUSH1 0x0 DUP1 REVERT JUMPDEST DUP2 CALLDATALOAD PUSH2 0x2025 DUP2 PUSH2 0x2B80 JUMP JUMPDEST PUSH1 0x0 DUP1 PUSH1 0x0 PUSH1 0x60 DUP5 DUP7 SUB SLT ISZERO PUSH2 0x2CE2 JUMPI PUSH1 0x0 DUP1 REVERT JUMPDEST DUP4 CALLDATALOAD PUSH2 0x2CED DUP2 PUSH2 0x2B80 JUMP JUMPDEST SWAP3 POP PUSH1 0x20 DUP5 ADD CALLDATALOAD SWAP2 POP PUSH1 0x40 DUP5 ADD CALLDATALOAD PUSH2 0x2D04 DUP2 PUSH2 0x2C0C JUMP JUMPDEST DUP1 SWAP2 POP POP SWAP3 POP SWAP3 POP SWAP3 JUMP JUMPDEST PUSH1 0x0 DUP1 PUSH1 0x0 PUSH1 0x60 DUP5 DUP7 SUB SLT ISZERO PUSH2 0x2D24 JUMPI PUSH1 0x0 DUP1 REVERT JUMPDEST DUP4 CALLDATALOAD PUSH2 0x2D2F DUP2 PUSH2 0x2B80 JUMP JUMPDEST SWAP3 POP PUSH1 0x20 DUP5 ADD CALLDATALOAD SWAP2 POP PUSH1 0x40 DUP5 ADD CALLDATALOAD PUSH2 0x2D04 DUP2 PUSH2 0x2B80 JUMP JUMPDEST PUSH4 0x4E487B71 PUSH1 0xE0 SHL PUSH1 0x0 MSTORE PUSH1 0x41 PUSH1 0x4 MSTORE PUSH1 0x24 PUSH1 0x0 REVERT JUMPDEST PUSH1 0x40 MLOAD PUSH1 0x80 DUP2 ADD PUSH1 0x1 PUSH1 0x1 PUSH1 0x40 SHL SUB DUP2 GT DUP3 DUP3 LT OR ISZERO PUSH2 0x2D7E JUMPI PUSH2 0x2D7E PUSH2 0x2D46 JUMP JUMPDEST PUSH1 0x40 MSTORE SWAP1 JUMP JUMPDEST PUSH1 0x40 MLOAD PUSH2 0x160 DUP2 ADD PUSH1 0x1 PUSH1 0x1 PUSH1 0x40 SHL SUB DUP2 GT DUP3 DUP3 LT OR ISZERO PUSH2 0x2D7E JUMPI PUSH2 0x2D7E PUSH2 0x2D46 JUMP JUMPDEST PUSH1 0x40 MLOAD PUSH2 0x100 DUP2 ADD PUSH1 0x1 PUSH1 0x1 PUSH1 0x40 SHL SUB DUP2 GT DUP3 DUP3 LT OR ISZERO PUSH2 0x2D7E JUMPI PUSH2 0x2D7E PUSH2 0x2D46 JUMP JUMPDEST PUSH1 0x40 MLOAD PUSH1 0x1F DUP3 ADD PUSH1 0x1F NOT AND DUP2 ADD PUSH1 0x1 PUSH1 0x1 PUSH1 0x40 SHL SUB DUP2 GT DUP3 DUP3 LT OR ISZERO PUSH2 0x2DF2 JUMPI PUSH2 0x2DF2 PUSH2 0x2D46 JUMP JUMPDEST PUSH1 0x40 MSTORE SWAP2 SWAP1 POP JUMP JUMPDEST PUSH1 0x0 PUSH1 0x1 PUSH1 0x1 PUSH1 0x40 SHL SUB DUP3 GT ISZERO PUSH2 0x2E13 JUMPI PUSH2 0x2E13 PUSH2 0x2D46 JUMP JUMPDEST POP PUSH1 0x1F ADD PUSH1 0x1F NOT AND PUSH1 0x20 ADD SWAP1 JUMP JUMPDEST PUSH1 0x0 DUP3 PUSH1 0x1F DUP4 ADD SLT PUSH2 0x2E32 JUMPI PUSH1 0x0 DUP1 REVERT JUMPDEST DUP2 CALLDATALOAD PUSH2 0x2E45 PUSH2 0x2E40 DUP3 PUSH2 0x2DFA JUMP JUMPDEST PUSH2 0x2DCA JUMP JUMPDEST DUP2 DUP2 MSTORE DUP5 PUSH1 0x20 DUP4 DUP7 ADD ADD GT ISZERO PUSH2 0x2E5A JUMPI PUSH1 0x0 DUP1 REVERT JUMPDEST DUP2 PUSH1 0x20 DUP6 ADD PUSH1 0x20 DUP4 ADD CALLDATACOPY PUSH1 0x0 SWAP2 DUP2 ADD PUSH1 0x20 ADD SWAP2 SWAP1 SWAP2 MSTORE SWAP4 SWAP3 POP POP POP JUMP JUMPDEST PUSH1 0x0 PUSH1 0x1 PUSH1 0x1 PUSH1 0x40 SHL SUB DUP3 GT ISZERO PUSH2 0x2E90 JUMPI PUSH2 0x2E90 PUSH2 0x2D46 JUMP JUMPDEST POP PUSH1 0x5 SHL PUSH1 0x20 ADD SWAP1 JUMP JUMPDEST PUSH1 0x0 DUP1 PUSH1 0x0 DUP1 PUSH1 0x0 PUSH1 0xA0 DUP7 DUP9 SUB SLT ISZERO PUSH2 0x2EB2 JUMPI PUSH1 0x0 DUP1 REVERT JUMPDEST DUP6 CALLDATALOAD PUSH1 0x1 PUSH1 0x1 PUSH1 0x40 SHL SUB DUP1 DUP3 GT ISZERO PUSH2 0x2EC9 JUMPI PUSH1 0x0 DUP1 REVERT JUMPDEST PUSH2 0x2ED5 DUP10 DUP4 DUP11 ADD PUSH2 0x2E21 JUMP JUMPDEST SWAP7 POP PUSH1 0x20 SWAP2 POP DUP2 DUP9 ADD CALLDATALOAD DUP2 DUP2 GT ISZERO PUSH2 0x2EEC JUMPI PUSH1 0x0 DUP1 REVERT JUMPDEST DUP9 ADD PUSH1 0x1F DUP2 ADD DUP11 SGT PUSH2 0x2EFD JUMPI PUSH1 0x0 DUP1 REVERT JUMPDEST DUP1 CALLDATALOAD PUSH2 0x2F0B PUSH2 0x2E40 DUP3 PUSH2 0x2E77 JUMP JUMPDEST DUP2 DUP2 MSTORE PUSH1 0x5 SWAP2 SWAP1 SWAP2 SHL DUP3 ADD DUP5 ADD SWAP1 DUP5 DUP2 ADD SWAP1 DUP13 DUP4 GT ISZERO PUSH2 0x2F2A JUMPI PUSH1 0x0 DUP1 REVERT JUMPDEST DUP6 DUP5 ADD JUMPDEST DUP4 DUP2 LT ISZERO PUSH2 0x2F62 JUMPI DUP1 CALLDATALOAD DUP7 DUP2 GT ISZERO PUSH2 0x2F46 JUMPI PUSH1 0x0 DUP1 DUP2 REVERT JUMPDEST PUSH2 0x2F54 DUP16 DUP10 DUP4 DUP10 ADD ADD PUSH2 0x2E21 JUMP JUMPDEST DUP5 MSTORE POP SWAP2 DUP7 ADD SWAP2 DUP7 ADD PUSH2 0x2F2E JUMP JUMPDEST POP SWAP9 POP POP POP POP PUSH1 0x40 DUP9 ADD CALLDATALOAD SWAP5 POP PUSH2 0x2F7E SWAP2 POP POP PUSH1 0x60 DUP8 ADD PUSH2 0x2C1C JUMP JUMPDEST SWAP5 SWAP8 SWAP4 SWAP7 POP SWAP2 SWAP5 PUSH1 0x80 ADD CALLDATALOAD SWAP3 SWAP2 POP POP JUMP JUMPDEST PUSH1 0x0 DUP1 PUSH1 0x0 PUSH1 0x60 DUP5 DUP7 SUB SLT ISZERO PUSH2 0x2FA4 JUMPI PUSH1 0x0 DUP1 REVERT JUMPDEST DUP4 CALLDATALOAD PUSH2 0x2FAF DUP2 PUSH2 0x2C0C JUMP JUMPDEST SWAP6 PUSH1 0x20 DUP6 ADD CALLDATALOAD SWAP6 POP PUSH1 0x40 SWAP1 SWAP5 ADD CALLDATALOAD SWAP4 SWAP3 POP POP POP JUMP JUMPDEST PUSH1 0x0 DUP1 PUSH1 0x40 DUP4 DUP6 SUB SLT ISZERO PUSH2 0x2FD7 JUMPI PUSH1 0x0 DUP1 REVERT JUMPDEST DUP3 CALLDATALOAD PUSH2 0x2BE3 DUP2 PUSH2 0x2C0C JUMP JUMPDEST PUSH1 0x0 DUP1 PUSH1 0x40 DUP4 DUP6 SUB SLT ISZERO PUSH2 0x2FF5 JUMPI PUSH1 0x0 DUP1 REVERT JUMPDEST DUP3 CALLDATALOAD PUSH2 0x3000 DUP2 PUSH2 0x2B80 JUMP JUMPDEST SWAP5 PUSH1 0x20 SWAP4 SWAP1 SWAP4 ADD CALLDATALOAD SWAP4 POP POP POP JUMP JUMPDEST PUSH1 0x0 DUP1 PUSH1 0x0 DUP1 PUSH1 0x0 DUP1 PUSH1 0xC0 DUP8 DUP10 SUB SLT ISZERO PUSH2 0x3027 JUMPI PUSH1 0x0 DUP1 REVERT JUMPDEST DUP7 CALLDATALOAD PUSH2 0x3032 DUP2 PUSH2 0x2C0C JUMP JUMPDEST SWAP6 POP PUSH1 0x20 DUP8 ADD CALLDATALOAD PUSH2 0x3042 DUP2 PUSH2 0x2B80 JUMP JUMPDEST SWAP5 POP PUSH1 0x40 DUP8 ADD CALLDATALOAD PUSH2 0x3052 DUP2 PUSH2 0x2B80 JUMP JUMPDEST SWAP4 POP PUSH1 0x60 DUP8 ADD CALLDATALOAD SWAP3 POP PUSH1 0x80 DUP8 ADD CALLDATALOAD SWAP2 POP PUSH1 0xA0 DUP8 ADD CALLDATALOAD PUSH2 0x3070 DUP2 PUSH2 0x2B80 JUMP JUMPDEST DUP1 SWAP2 POP POP SWAP3 SWAP6 POP SWAP3 SWAP6 POP SWAP3 SWAP6 JUMP JUMPDEST PUSH1 0x0 DUP1 PUSH1 0x40 DUP4 DUP6 SUB SLT ISZERO PUSH2 0x3091 JUMPI PUSH1 0x0 DUP1 REVERT JUMPDEST DUP3 CALLDATALOAD PUSH2 0x3000 DUP2 PUSH2 0x2C0C JUMP JUMPDEST DUP1 ISZERO ISZERO DUP2 EQ PUSH2 0x19A9 JUMPI PUSH1 0x0 DUP1 REVERT JUMPDEST PUSH1 0x0 PUSH1 0x20 DUP3 DUP5 SUB SLT ISZERO PUSH2 0x30BC JUMPI PUSH1 0x0 DUP1 REVERT JUMPDEST DUP2 CALLDATALOAD PUSH2 0x2025 DUP2 PUSH2 0x309C JUMP JUMPDEST PUSH1 0x0 DUP1 PUSH1 0x0 PUSH1 0x60 DUP5 DUP7 SUB SLT ISZERO PUSH2 0x30DC JUMPI PUSH1 0x0 DUP1 REVERT JUMPDEST DUP4 CALLDATALOAD PUSH2 0x30E7 DUP2 PUSH2 0x2B80 JUMP JUMPDEST SWAP3 POP PUSH1 0x20 DUP5 ADD CALLDATALOAD SWAP2 POP PUSH1 0x40 DUP5 ADD CALLDATALOAD PUSH2 0x2D04 DUP2 PUSH2 0x309C JUMP JUMPDEST PUSH4 0x4E487B71 PUSH1 0xE0 SHL PUSH1 0x0 MSTORE PUSH1 0x11 PUSH1 0x4 MSTORE PUSH1 0x24 PUSH1 0x0 REVERT JUMPDEST DUP2 DUP2 SUB DUP2 DUP2 GT ISZERO PUSH2 0x15E5 JUMPI PUSH2 0x15E5 PUSH2 0x30FE JUMP JUMPDEST PUSH1 0x0 PUSH1 0x20 DUP3 DUP5 SUB SLT ISZERO PUSH2 0x3139 JUMPI PUSH1 0x0 DUP1 REVERT JUMPDEST DUP2 MLOAD PUSH2 0x2025 DUP2 PUSH2 0x309C JUMP JUMPDEST DUP1 DUP3 ADD DUP1 DUP3 GT ISZERO PUSH2 0x15E5 JUMPI PUSH2 0x15E5 PUSH2 0x30FE JUMP JUMPDEST PUSH4 0x4E487B71 PUSH1 0xE0 SHL PUSH1 0x0 MSTORE PUSH1 0x32 PUSH1 0x4 MSTORE PUSH1 0x24 PUSH1 0x0 REVERT JUMPDEST PUSH1 0x0 JUMPDEST DUP4 DUP2 LT ISZERO PUSH2 0x3188 JUMPI DUP2 DUP2 ADD MLOAD DUP4 DUP3 ADD MSTORE PUSH1 0x20 ADD PUSH2 0x3170 JUMP JUMPDEST POP POP PUSH1 0x0 SWAP2 ADD MSTORE JUMP JUMPDEST PUSH1 0x0 DUP2 MLOAD DUP1 DUP5 MSTORE PUSH2 0x31A9 DUP2 PUSH1 0x20 DUP7 ADD PUSH1 0x20 DUP7 ADD PUSH2 0x316D JUMP JUMPDEST PUSH1 0x1F ADD PUSH1 0x1F NOT AND SWAP3 SWAP1 SWAP3 ADD PUSH1 0x20 ADD SWAP3 SWAP2 POP POP JUMP JUMPDEST PUSH1 0x20 DUP2 MSTORE PUSH1 0x0 PUSH2 0x2025 PUSH1 0x20 DUP4 ADD DUP5 PUSH2 0x3191 JUMP JUMPDEST DUP1 MLOAD PUSH1 0xFF DUP2 AND DUP2 EQ PUSH2 0x2C27 JUMPI PUSH1 0x0 DUP1 REVERT JUMPDEST DUP1 MLOAD PUSH4 0xFFFFFFFF DUP2 AND DUP2 EQ PUSH2 0x2C27 JUMPI PUSH1 0x0 DUP1 REVERT JUMPDEST DUP1 MLOAD PUSH2 0x2C27 DUP2 PUSH2 0x2C0C JUMP JUMPDEST DUP1 MLOAD PUSH1 0x1 PUSH1 0x1 PUSH1 0x40 SHL SUB DUP2 AND DUP2 EQ PUSH2 0x2C27 JUMPI PUSH1 0x0 DUP1 REVERT JUMPDEST PUSH1 0x0 DUP3 PUSH1 0x1F DUP4 ADD SLT PUSH2 0x3228 JUMPI PUSH1 0x0 DUP1 REVERT JUMPDEST DUP2 MLOAD PUSH2 0x3236 PUSH2 0x2E40 DUP3 PUSH2 0x2DFA JUMP JUMPDEST DUP2 DUP2 MSTORE DUP5 PUSH1 0x20 DUP4 DUP7 ADD ADD GT ISZERO PUSH2 0x324B JUMPI PUSH1 0x0 DUP1 REVERT JUMPDEST PUSH2 0x325C DUP3 PUSH1 0x20 DUP4 ADD PUSH1 0x20 DUP8 ADD PUSH2 0x316D JUMP JUMPDEST SWAP5 SWAP4 POP POP POP POP JUMP JUMPDEST PUSH1 0x0 DUP3 PUSH1 0x1F DUP4 ADD SLT PUSH2 0x3275 JUMPI PUSH1 0x0 DUP1 REVERT JUMPDEST DUP2 MLOAD PUSH1 0x20 PUSH2 0x3285 PUSH2 0x2E40 DUP4 PUSH2 0x2E77 JUMP JUMPDEST DUP3 DUP2 MSTORE PUSH1 0x7 SWAP3 SWAP1 SWAP3 SHL DUP5 ADD DUP2 ADD SWAP2 DUP2 DUP2 ADD SWAP1 DUP7 DUP5 GT ISZERO PUSH2 0x32A4 JUMPI PUSH1 0x0 DUP1 REVERT JUMPDEST DUP3 DUP7 ADD JUMPDEST DUP5 DUP2 LT ISZERO PUSH2 0x3305 JUMPI PUSH1 0x80 DUP2 DUP10 SUB SLT ISZERO PUSH2 0x32C1 JUMPI PUSH1 0x0 DUP1 DUP2 REVERT JUMPDEST PUSH2 0x32C9 PUSH2 0x2D5C JUMP JUMPDEST DUP2 MLOAD DUP2 MSTORE DUP5 DUP3 ADD MLOAD DUP6 DUP3 ADD MSTORE PUSH1 0x40 PUSH2 0x32E2 DUP2 DUP5 ADD PUSH2 0x31D0 JUMP JUMPDEST SWAP1 DUP3 ADD MSTORE PUSH1 0x60 PUSH2 0x32F3 DUP4 DUP3 ADD PUSH2 0x31D0 JUMP JUMPDEST SWAP1 DUP3 ADD MSTORE DUP4 MSTORE SWAP2 DUP4 ADD SWAP2 PUSH1 0x80 ADD PUSH2 0x32A8 JUMP JUMPDEST POP SWAP7 SWAP6 POP POP POP POP POP POP JUMP JUMPDEST PUSH1 0x0 PUSH1 0x20 DUP3 DUP5 SUB SLT ISZERO PUSH2 0x3322 JUMPI PUSH1 0x0 DUP1 REVERT JUMPDEST DUP2 MLOAD PUSH1 0x1 PUSH1 0x1 PUSH1 0x40 SHL SUB DUP1 DUP3 GT ISZERO PUSH2 0x3339 JUMPI PUSH1 0x0 DUP1 REVERT JUMPDEST SWAP1 DUP4 ADD SWAP1 PUSH2 0x160 DUP3 DUP7 SUB SLT ISZERO PUSH2 0x334E JUMPI PUSH1 0x0 DUP1 REVERT JUMPDEST PUSH2 0x3356 PUSH2 0x2D84 JUMP JUMPDEST PUSH2 0x335F DUP4 PUSH2 0x31D0 JUMP JUMPDEST DUP2 MSTORE PUSH2 0x336D PUSH1 0x20 DUP5 ADD PUSH2 0x31E1 JUMP JUMPDEST PUSH1 0x20 DUP3 ADD MSTORE PUSH2 0x337E PUSH1 0x40 DUP5 ADD PUSH2 0x31E1 JUMP JUMPDEST PUSH1 0x40 DUP3 ADD MSTORE PUSH2 0x338F PUSH1 0x60 DUP5 ADD PUSH2 0x31F5 JUMP JUMPDEST PUSH1 0x60 DUP3 ADD MSTORE PUSH1 0x80 DUP4 ADD MLOAD PUSH1 0x80 DUP3 ADD MSTORE PUSH2 0x33AA PUSH1 0xA0 DUP5 ADD PUSH2 0x3200 JUMP JUMPDEST PUSH1 0xA0 DUP3 ADD MSTORE PUSH2 0x33BB PUSH1 0xC0 DUP5 ADD PUSH2 0x31D0 JUMP JUMPDEST PUSH1 0xC0 DUP3 ADD MSTORE PUSH1 0xE0 DUP4 ADD MLOAD DUP3 DUP2 GT ISZERO PUSH2 0x33D2 JUMPI PUSH1 0x0 DUP1 REVERT JUMPDEST PUSH2 0x33DE DUP8 DUP3 DUP7 ADD PUSH2 0x3217 JUMP JUMPDEST PUSH1 0xE0 DUP4 ADD MSTORE POP PUSH2 0x100 PUSH2 0x33F2 DUP2 DUP6 ADD PUSH2 0x31E1 JUMP JUMPDEST SWAP1 DUP3 ADD MSTORE PUSH2 0x120 DUP4 DUP2 ADD MLOAD DUP4 DUP2 GT ISZERO PUSH2 0x340A JUMPI PUSH1 0x0 DUP1 REVERT JUMPDEST PUSH2 0x3416 DUP9 DUP3 DUP8 ADD PUSH2 0x3264 JUMP JUMPDEST SWAP2 DUP4 ADD SWAP2 SWAP1 SWAP2 MSTORE POP PUSH2 0x140 SWAP3 DUP4 ADD MLOAD SWAP3 DUP2 ADD SWAP3 SWAP1 SWAP3 MSTORE POP SWAP4 SWAP3 POP POP POP JUMP JUMPDEST PUSH1 0x0 PUSH1 0x20 DUP3 DUP5 SUB SLT ISZERO PUSH2 0x3446 JUMPI PUSH1 0x0 DUP1 REVERT JUMPDEST POP MLOAD SWAP2 SWAP1 POP JUMP JUMPDEST PUSH1 0x0 PUSH1 0x20 DUP3 DUP5 SUB SLT ISZERO PUSH2 0x345F JUMPI PUSH1 0x0 DUP1 REVERT JUMPDEST DUP2 MLOAD PUSH1 0x1 PUSH1 0x1 PUSH1 0x40 SHL SUB DUP1 DUP3 GT ISZERO PUSH2 0x3476 JUMPI PUSH1 0x0 DUP1 REVERT JUMPDEST SWAP1 DUP4 ADD SWAP1 PUSH2 0x100 DUP3 DUP7 SUB SLT ISZERO PUSH2 0x348B JUMPI PUSH1 0x0 DUP1 REVERT JUMPDEST PUSH2 0x3493 PUSH2 0x2DA7 JUMP JUMPDEST PUSH2 0x349C DUP4 PUSH2 0x31D0 JUMP JUMPDEST DUP2 MSTORE PUSH1 0x20 DUP4 ADD MLOAD PUSH1 0x20 DUP3 ADD MSTORE PUSH1 0x40 DUP4 ADD MLOAD PUSH1 0x40 DUP3 ADD MSTORE PUSH2 0x34BE PUSH1 0x60 DUP5 ADD PUSH2 0x31F5 JUMP JUMPDEST PUSH1 0x60 DUP3 ADD MSTORE PUSH1 0x80 DUP4 ADD MLOAD PUSH1 0x80 DUP3 ADD MSTORE PUSH2 0x34D9 PUSH1 0xA0 DUP5 ADD PUSH2 0x31F5 JUMP JUMPDEST PUSH1 0xA0 DUP3 ADD MSTORE PUSH1 0xC0 DUP4 ADD MLOAD PUSH1 0xC0 DUP3 ADD MSTORE PUSH1 0xE0 DUP4 ADD MLOAD DUP3 DUP2 GT ISZERO PUSH2 0x34FA JUMPI PUSH1 0x0 DUP1 REVERT JUMPDEST PUSH2 0x3506 DUP8 DUP3 DUP7 ADD PUSH2 0x3217 JUMP JUMPDEST PUSH1 0xE0 DUP4 ADD MSTORE POP SWAP6 SWAP5 POP POP POP POP POP JUMP JUMPDEST PUSH1 0x0 PUSH1 0x20 DUP3 DUP5 SUB SLT ISZERO PUSH2 0x3527 JUMPI PUSH1 0x0 DUP1 REVERT JUMPDEST DUP2 MLOAD PUSH2 0x2025 DUP2 PUSH2 0x2C0C JUMP JUMPDEST PUSH1 0x0 PUSH1 0x20 DUP3 DUP5 SUB SLT ISZERO PUSH2 0x3544 JUMPI PUSH1 0x0 DUP1 REVERT JUMPDEST DUP2 MLOAD PUSH1 0x1 PUSH1 0x1 PUSH1 0x40 SHL SUB DUP2 GT ISZERO PUSH2 0x355A JUMPI PUSH1 0x0 DUP1 REVERT JUMPDEST PUSH2 0x325C DUP5 DUP3 DUP6 ADD PUSH2 0x3217 JUMP JUMPDEST PUSH1 0xFF DUP3 DUP2 AND DUP3 DUP3 AND SUB SWAP1 DUP2 GT ISZERO PUSH2 0x15E5 JUMPI PUSH2 0x15E5 PUSH2 0x30FE JUMP JUMPDEST PUSH1 0x1 DUP2 DUP2 JUMPDEST DUP1 DUP6 GT ISZERO PUSH2 0x35BA JUMPI DUP2 PUSH1 0x0 NOT DIV DUP3 GT ISZERO PUSH2 0x35A0 JUMPI PUSH2 0x35A0 PUSH2 0x30FE JUMP JUMPDEST DUP1 DUP6 AND ISZERO PUSH2 0x35AD JUMPI SWAP2 DUP2 MUL SWAP2 JUMPDEST SWAP4 DUP5 SHR SWAP4 SWAP1 DUP1 MUL SWAP1 PUSH2 0x3584 JUMP JUMPDEST POP SWAP3 POP SWAP3 SWAP1 POP JUMP JUMPDEST PUSH1 0x0 DUP3 PUSH2 0x35D1 JUMPI POP PUSH1 0x1 PUSH2 0x15E5 JUMP JUMPDEST DUP2 PUSH2 0x35DE JUMPI POP PUSH1 0x0 PUSH2 0x15E5 JUMP JUMPDEST DUP2 PUSH1 0x1 DUP2 EQ PUSH2 0x35F4 JUMPI PUSH1 0x2 DUP2 EQ PUSH2 0x35FE JUMPI PUSH2 0x361A JUMP JUMPDEST PUSH1 0x1 SWAP2 POP POP PUSH2 0x15E5 JUMP JUMPDEST PUSH1 0xFF DUP5 GT ISZERO PUSH2 0x360F JUMPI PUSH2 0x360F PUSH2 0x30FE JUMP JUMPDEST POP POP PUSH1 0x1 DUP3 SHL PUSH2 0x15E5 JUMP JUMPDEST POP PUSH1 0x20 DUP4 LT PUSH2 0x133 DUP4 LT AND PUSH1 0x4E DUP5 LT PUSH1 0xB DUP5 LT AND OR ISZERO PUSH2 0x363D JUMPI POP DUP2 DUP2 EXP PUSH2 0x15E5 JUMP JUMPDEST PUSH2 0x3647 DUP4 DUP4 PUSH2 0x357F JUMP JUMPDEST DUP1 PUSH1 0x0 NOT DIV DUP3 GT ISZERO PUSH2 0x365B JUMPI PUSH2 0x365B PUSH2 0x30FE JUMP JUMPDEST MUL SWAP4 SWAP3 POP POP POP JUMP JUMPDEST PUSH1 0x0 PUSH2 0x2025 PUSH1 0xFF DUP5 AND DUP4 PUSH2 0x35C2 JUMP JUMPDEST DUP1 DUP3 MUL DUP2 ISZERO DUP3 DUP3 DIV DUP5 EQ OR PUSH2 0x15E5 JUMPI PUSH2 0x15E5 PUSH2 0x30FE JUMP JUMPDEST PUSH1 0x0 PUSH1 0x1 DUP3 ADD PUSH2 0x369B JUMPI PUSH2 0x369B PUSH2 0x30FE JUMP JUMPDEST POP PUSH1 0x1 ADD SWAP1 JUMP JUMPDEST PUSH1 0x0 DUP1 PUSH1 0x40 DUP4 DUP6 SUB SLT ISZERO PUSH2 0x36B5 JUMPI PUSH1 0x0 DUP1 REVERT JUMPDEST POP POP DUP1 MLOAD PUSH1 0x20 SWAP1 SWAP2 ADD MLOAD SWAP1 SWAP3 SWAP1 SWAP2 POP JUMP JUMPDEST PUSH1 0x0 PUSH1 0x20 DUP3 DUP5 SUB SLT ISZERO PUSH2 0x36D8 JUMPI PUSH1 0x0 DUP1 REVERT JUMPDEST DUP2 MLOAD PUSH2 0x2025 DUP2 PUSH2 0x2B80 JUMP JUMPDEST PUSH1 0x0 DUP3 PUSH2 0x3700 JUMPI PUSH4 0x4E487B71 PUSH1 0xE0 SHL PUSH1 0x0 MSTORE PUSH1 0x12 PUSH1 0x4 MSTORE PUSH1 0x24 PUSH1 0x0 REVERT JUMPDEST POP DIV SWAP1 JUMP JUMPDEST PUSH1 0x0 PUSH2 0xFFFF DUP1 DUP10 AND DUP4 MSTORE PUSH1 0x20 PUSH1 0x1 DUP1 PUSH1 0xA0 SHL SUB DUP10 AND DUP2 DUP6 ADD MSTORE PUSH1 0x40 PUSH1 0xC0 DUP2 DUP7 ADD MSTORE PUSH2 0x3733 PUSH1 0xC0 DUP7 ADD DUP11 PUSH2 0x3191 JUMP JUMPDEST PUSH1 0x60 DUP7 DUP2 ADD DUP11 SWAP1 MSTORE PUSH1 0x80 DUP8 ADD DUP10 SWAP1 MSTORE DUP7 DUP3 SUB PUSH1 0xA0 DUP9 ADD MSTORE DUP8 MLOAD DUP1 DUP4 MSTORE DUP5 DUP10 ADD SWAP3 DUP6 ADD SWAP1 PUSH1 0x0 JUMPDEST DUP2 DUP2 LT ISZERO PUSH2 0x3791 JUMPI DUP5 MLOAD DUP1 MLOAD DUP10 AND DUP5 MSTORE DUP8 DUP2 ADD MLOAD DUP9 DUP6 ADD MSTORE DUP7 ADD MLOAD PUSH1 0x1 PUSH1 0x1 PUSH1 0x40 SHL SUB AND DUP7 DUP5 ADD MSTORE SWAP4 DUP7 ADD SWAP4 SWAP2 DUP4 ADD SWAP2 PUSH1 0x1 ADD PUSH2 0x3759 JUMP JUMPDEST POP SWAP1 SWAP15 SWAP14 POP POP POP POP POP POP POP POP POP POP POP POP POP POP JUMP JUMPDEST PUSH1 0x0 PUSH1 0x20 DUP3 DUP5 SUB SLT ISZERO PUSH2 0x37B7 JUMPI PUSH1 0x0 DUP1 REVERT JUMPDEST PUSH2 0x2025 DUP3 PUSH2 0x3200 JUMP JUMPDEST PUSH1 0x0 DUP3 MLOAD PUSH2 0x37D2 DUP2 DUP5 PUSH1 0x20 DUP8 ADD PUSH2 0x316D JUMP JUMPDEST SWAP2 SWAP1 SWAP2 ADD SWAP3 SWAP2 POP POP JUMP JUMPDEST PUSH1 0x0 PUSH1 0x20 DUP3 DUP5 SUB SLT ISZERO PUSH2 0x37EE JUMPI PUSH1 0x0 DUP1 REVERT JUMPDEST PUSH2 0x2025 DUP3 PUSH2 0x31D0 JUMP JUMPDEST PUSH1 0x0 DUP1 PUSH1 0x0 PUSH1 0x60 DUP5 DUP7 SUB SLT ISZERO PUSH2 0x380C JUMPI PUSH1 0x0 DUP1 REVERT JUMPDEST DUP4 MLOAD PUSH2 0x3817 DUP2 PUSH2 0x2B80 JUMP JUMPDEST SWAP3 POP PUSH2 0x3825 PUSH1 0x20 DUP6 ADD PUSH2 0x31D0 JUMP JUMPDEST SWAP2 POP PUSH1 0x40 DUP5 ADD MLOAD SWAP1 POP SWAP3 POP SWAP3 POP SWAP3 JUMP JUMPDEST PUSH1 0x1 DUP1 PUSH1 0xA0 SHL SUB DUP8 AND DUP2 MSTORE DUP6 PUSH1 0x20 DUP3 ADD MSTORE PUSH2 0xFFFF DUP6 AND PUSH1 0x40 DUP3 ADD MSTORE DUP4 PUSH1 0x60 DUP3 ADD MSTORE PUSH4 0xFFFFFFFF DUP4 AND PUSH1 0x80 DUP3 ADD MSTORE PUSH1 0xC0 PUSH1 0xA0 DUP3 ADD MSTORE PUSH1 0x0 PUSH2 0x3878 PUSH1 0xC0 DUP4 ADD DUP5 PUSH2 0x3191 JUMP JUMPDEST SWAP9 SWAP8 POP POP POP POP POP POP POP POP JUMP INVALID 0xDF PUSH30 0xE25B7F1FD6D0B5205F0E18F1F35BD7B8D84CCE336588D184533CE43A6F76 LOG2 PUSH5 0x6970667358 0x22 SLT KECCAK256 PUSH28 0x72650C6C3EE2CEEE073C57771392ECF79F73EBCF4E1B21EE3E81A78F LOG3 0xBF 0xBD PUSH5 0x736F6C6343 STOP ADDMOD GT STOP CALLER "},"methodIdentifiers":{"bridgeActive()":"ead93c8f","bridgeErc20(uint16,address,address,uint256,address,uint256,address)":"346b994b","bridgeEther(uint16,address,address,uint256,uint256,address)":"db428491","changeBaseFee(uint256)":"eff6be2f","changePercentFee(uint256)":"a74ae70d","claimFailedBridge(bytes32)":"30f014b6","endpoints(uint16,address)":"c3d9d2bf","fMultiplier()":"dd3a2ae6","fee()":"ddca3f43","feesTotal(address)":"940916d6","getUserBridgeHashes(address,uint256,uint16)":"412222d0","getUserBridges(address,bytes32)":"ce9581b4","getUserData(address)":"ffc9896b","getUserReferalStat(address)":"b7d5dadf","getUserReferals(address,uint256)":"a345908f","owner()":"8da5cb5b","quoteCrossChainDeposit(uint16,uint256,uint256)":"6d8e6d72","receiveWormholeMessages(bytes,bytes[],bytes32,uint16,bytes32)":"529dca32","renounceOwnership()":"715018a6","setAllowedEndpoint(uint16,address)":"82a1708e","setProfitShareAddr(address)":"34aad8d6","setProfitSharePercent(uint256)":"cb3bad91","setRegisteredSender(uint16,bytes32)":"dd12d68b","setUserPoints(address,uint256)":"a7ea87e2","solutionsProviderAddress()":"0fe51802","solutionsProviderShare()":"7877e724","toggleState(bool)":"e1de15fb","tokenBridge()":"c6328a46","totalPoints()":"567142be","totalUserVolume(address,address)":"17569377","transferOwnership(address)":"f2fde38b","unsafeWithdraw(address,uint256,bool)":"fdf04da3","withdrawEthRevenue(uint256,address)":"06b2fc0b","withdrawTokenRevenue(address,uint256,address)":"489895b0","wormhole()":"84acd1bb","wormholeRelayer()":"da25b725"}}}}}