{
  "_format": "hh-sol-artifact-1",
  "contractName": "BridgeV0",
  "sourceName": "contracts/BridgeSimple.sol",
  "abi": [
    {
      "inputs": [
        {
          "internalType": "address",
          "name": "_wormholeRelayer",
          "type": "address"
        },
        {
          "internalType": "address",
          "name": "_tokenBridge",
          "type": "address"
        },
        {
          "internalType": "address",
          "name": "_wormhole",
          "type": "address"
        }
      ],
      "stateMutability": "nonpayable",
      "type": "constructor"
    },
    {
      "inputs": [
        {
          "internalType": "bytes32",
          "name": "",
          "type": "bytes32"
        }
      ],
      "name": "NotAnEvmAddress",
      "type": "error"
    },
    {
      "anonymous": false,
      "inputs": [
        {
          "indexed": true,
          "internalType": "address",
          "name": "previousOwner",
          "type": "address"
        },
        {
          "indexed": true,
          "internalType": "address",
          "name": "newOwner",
          "type": "address"
        }
      ],
      "name": "OwnershipTransferred",
      "type": "event"
    },
    {
      "inputs": [
        {
          "internalType": "uint16",
          "name": "targetChain",
          "type": "uint16"
        },
        {
          "internalType": "address",
          "name": "targetHelloToken",
          "type": "address"
        },
        {
          "internalType": "address",
          "name": "recipient",
          "type": "address"
        },
        {
          "internalType": "uint256",
          "name": "amount",
          "type": "uint256"
        },
        {
          "internalType": "address",
          "name": "token",
          "type": "address"
        },
        {
          "internalType": "uint256",
          "name": "dstGas",
          "type": "uint256"
        }
      ],
      "name": "bridgeErc20",
      "outputs": [],
      "stateMutability": "payable",
      "type": "function"
    },
    {
      "inputs": [
        {
          "internalType": "uint16",
          "name": "targetChain",
          "type": "uint16"
        },
        {
          "internalType": "address",
          "name": "targetHelloToken",
          "type": "address"
        },
        {
          "internalType": "address",
          "name": "recipient",
          "type": "address"
        },
        {
          "internalType": "uint256",
          "name": "amount",
          "type": "uint256"
        },
        {
          "internalType": "uint256",
          "name": "dstGas",
          "type": "uint256"
        }
      ],
      "name": "bridgeEther",
      "outputs": [],
      "stateMutability": "payable",
      "type": "function"
    },
    {
      "inputs": [
        {
          "internalType": "address",
          "name": "",
          "type": "address"
        },
        {
          "internalType": "bytes32",
          "name": "",
          "type": "bytes32"
        }
      ],
      "name": "delivered",
      "outputs": [
        {
          "internalType": "bool",
          "name": "",
          "type": "bool"
        }
      ],
      "stateMutability": "view",
      "type": "function"
    },
    {
      "inputs": [
        {
          "internalType": "uint16",
          "name": "",
          "type": "uint16"
        },
        {
          "internalType": "address",
          "name": "",
          "type": "address"
        }
      ],
      "name": "endpoints",
      "outputs": [
        {
          "internalType": "bool",
          "name": "",
          "type": "bool"
        }
      ],
      "stateMutability": "view",
      "type": "function"
    },
    {
      "inputs": [],
      "name": "owner",
      "outputs": [
        {
          "internalType": "address",
          "name": "",
          "type": "address"
        }
      ],
      "stateMutability": "view",
      "type": "function"
    },
    {
      "inputs": [
        {
          "internalType": "uint16",
          "name": "targetChain",
          "type": "uint16"
        },
        {
          "internalType": "uint256",
          "name": "amt",
          "type": "uint256"
        },
        {
          "internalType": "uint256",
          "name": "gasUnits",
          "type": "uint256"
        }
      ],
      "name": "quoteCrossChainDeposit",
      "outputs": [
        {
          "internalType": "uint256",
          "name": "cost",
          "type": "uint256"
        }
      ],
      "stateMutability": "view",
      "type": "function"
    },
    {
      "inputs": [
        {
          "internalType": "bytes",
          "name": "payload",
          "type": "bytes"
        },
        {
          "internalType": "bytes[]",
          "name": "additionalVaas",
          "type": "bytes[]"
        },
        {
          "internalType": "bytes32",
          "name": "sourceAddress",
          "type": "bytes32"
        },
        {
          "internalType": "uint16",
          "name": "sourceChain",
          "type": "uint16"
        },
        {
          "internalType": "bytes32",
          "name": "deliveryHash",
          "type": "bytes32"
        }
      ],
      "name": "receiveWormholeMessages",
      "outputs": [],
      "stateMutability": "payable",
      "type": "function"
    },
    {
      "inputs": [],
      "name": "renounceOwnership",
      "outputs": [],
      "stateMutability": "nonpayable",
      "type": "function"
    },
    {
      "inputs": [
        {
          "internalType": "uint16",
          "name": "ch",
          "type": "uint16"
        },
        {
          "internalType": "address",
          "name": "Address",
          "type": "address"
        }
      ],
      "name": "setEndpointForRecieve",
      "outputs": [],
      "stateMutability": "nonpayable",
      "type": "function"
    },
    {
      "inputs": [
        {
          "internalType": "uint16",
          "name": "sourceChain",
          "type": "uint16"
        },
        {
          "internalType": "bytes32",
          "name": "sourceAddress",
          "type": "bytes32"
        }
      ],
      "name": "setRegisteredSender",
      "outputs": [],
      "stateMutability": "nonpayable",
      "type": "function"
    },
    {
      "inputs": [],
      "name": "tokenBridge",
      "outputs": [
        {
          "internalType": "contract ITokenBridge",
          "name": "",
          "type": "address"
        }
      ],
      "stateMutability": "view",
      "type": "function"
    },
    {
      "inputs": [
        {
          "internalType": "address",
          "name": "newOwner",
          "type": "address"
        }
      ],
      "name": "transferOwnership",
      "outputs": [],
      "stateMutability": "nonpayable",
      "type": "function"
    },
    {
      "inputs": [],
      "name": "wormhole",
      "outputs": [
        {
          "internalType": "contract IWormhole",
          "name": "",
          "type": "address"
        }
      ],
      "stateMutability": "view",
      "type": "function"
    },
    {
      "inputs": [],
      "name": "wormholeRelayer",
      "outputs": [
        {
          "internalType": "contract IWormholeRelayer",
          "name": "",
          "type": "address"
        }
      ],
      "stateMutability": "view",
      "type": "function"
    }
  ],
  "bytecode": "0x60e06040523480156200001157600080fd5b50604051620024c6380380620024c68339810160408190526200003491620000e9565b6001600160a01b0380841660805280821660a052600080546001600160a01b03191633179055821660c052620000716200006b3390565b6200007a565b50505062000133565b600280546001600160a01b038381166001600160a01b0319831681179093556040519116919082907f8be0079c531659141344cd1fd0a4f28419497f9722a3daafe3b4186f6b6457e090600090a35050565b80516001600160a01b0381168114620000e457600080fd5b919050565b600080600060608486031215620000ff57600080fd5b6200010a84620000cc565b92506200011a60208501620000cc565b91506200012a60408501620000cc565b90509250925092565b60805160a05160c0516122e5620001e16000396000818161024c0152818161046e01528181610550015281816106c201528181610b7701528181610de9015281816114b70152818161153801526116fd015260008181610184015281816103a4015281816105da015281816108f301528181610d3b01528181611567015261166a0152600081816102800152818161088201528181610f200152818161130e015261137d01526122e56000f3fe6080604052600436106100dd5760003560e01c806390cb47781161007f578063da25b72511610059578063da25b7251461026e578063dbcef05e146102a2578063dd12d68b146102dd578063f2fde38b146102fd57600080fd5b806390cb4778146101dc578063c3d9d2bf146101ef578063c6328a461461023a57600080fd5b806372009ed2116100bb57806372009ed21461013f57806383baeb1a1461015f57806384acd1bb146101725780638da5cb5b146101be57600080fd5b8063529dca32146100e25780636d8e6d72146100f7578063715018a61461012a575b600080fd5b6100f56100f03660046118af565b61031d565b005b34801561010357600080fd5b506101176101123660046119a4565b61084e565b6040519081526020015b60405180910390f35b34801561013657600080fd5b506100f5610986565b34801561014b57600080fd5b506100f561015a3660046119ee565b61099a565b6100f561016d366004611a27565b6109d7565b34801561017e57600080fd5b506101a67f000000000000000000000000000000000000000000000000000000000000000081565b6040516001600160a01b039091168152602001610121565b3480156101ca57600080fd5b506002546001600160a01b03166101a6565b6100f56101ea366004611a97565b610b22565b3480156101fb57600080fd5b5061022a61020a3660046119ee565b600460209081526000928352604080842090915290825290205460ff1681565b6040519015158152602001610121565b34801561024657600080fd5b506101a67f000000000000000000000000000000000000000000000000000000000000000081565b34801561027a57600080fd5b506101a67f000000000000000000000000000000000000000000000000000000000000000081565b3480156102ae57600080fd5b5061022a6102bd366004611af2565b600360209081526000928352604080842090915290825290205460ff1681565b3480156102e957600080fd5b506100f56102f8366004611b1e565b610c41565b34801561030957600080fd5b506100f5610318366004611b3c565b610cbe565b600084516001600160401b038111156103385761033861173b565b60405190808252806020026020018201604052801561039157816020015b6040805160a0810182526000808252602080830182905292820181905260608201819052608082015282526000199092019101816103565790505b50905060005b85518110156108385760007f00000000000000000000000000000000000000000000000000000000000000006001600160a01b031663a9e118938884815181106103e3576103e3611b59565b60200260200101516040518263ffffffff1660e01b81526004016104079190611bbf565b600060405180830381865afa158015610424573d6000803e3d6000fd5b505050506040513d6000823e601f3d908101601f1916820160405261044c9190810190611d12565b606081015160405163ad66a5f160e01b815261ffff90911660048201529091507f00000000000000000000000000000000000000000000000000000000000000006001600160a01b03169063ad66a5f190602401602060405180830381865afa1580156104bd573d6000803e3d6000fd5b505050506040513d601f19601f820116820180604052508101906104e19190611e36565b8160800151146105315760405162461bcd60e51b81526020600482015260166024820152754e6f74206120546f6b656e204272696467652056414160501b60448201526064015b60405180910390fd5b60e081015160405163ea63738d60e01b81526000916001600160a01b037f0000000000000000000000000000000000000000000000000000000000000000169163ea63738d9161058391600401611bbf565b600060405180830381865afa1580156105a0573d6000803e3d6000fd5b505050506040513d6000823e601f3d908101601f191682016040526105c89190810190611e4f565b905030816080015114801561066957507f00000000000000000000000000000000000000000000000000000000000000006001600160a01b0316639a8a05926040518163ffffffff1660e01b8152600401602060405180830381865afa158015610636573d6000803e3d6000fd5b505050506040513d601f19601f8201168201806040525081019061065a9190611f17565b61ffff168160a0015161ffff16145b6106c05760405162461bcd60e51b815260206004820152602260248201527f546f6b656e20776173206e6f742073656e7420746f2074686973206164647265604482015261737360f01b6064820152608401610528565b7f00000000000000000000000000000000000000000000000000000000000000006001600160a01b031663c3f511c189858151811061070157610701611b59565b60200260200101516040518263ffffffff1660e01b81526004016107259190611bbf565b6000604051808303816000875af1158015610744573d6000803e3d6000fd5b505050506040513d6000823e601f3d908101601f1916820160405261076c9190810190611f34565b50600061078182606001518360400151610d37565b9050600061078e82610e73565b6020840151909150600860ff831611156107c5576107ad600883611f7e565b6107b890600a61207b565b6107c2908261208a565b90505b6040518060a0016040528085604001518152602001856060015161ffff168152602001846001600160a01b03168152602001828152602001856020015181525087878151811061081757610817611b59565b6020026020010181905250505050505080610831906120a1565b9050610397565b506108468682868686610f15565b505050505050565b60405163c23ee3c360e01b815261ffff84166004820152602481018390526044810182905260009081906001600160a01b037f0000000000000000000000000000000000000000000000000000000000000000169063c23ee3c3906064016040805180830381865afa1580156108c8573d6000803e3d6000fd5b505050506040513d601f19601f820116820180604052508101906108ec91906120ba565b50809150507f00000000000000000000000000000000000000000000000000000000000000006001600160a01b0316631a90a2196040518163ffffffff1660e01b8152600401602060405180830381865afa15801561094f573d6000803e3d6000fd5b505050506040513d601f19601f820116820180604052508101906109739190611e36565b61097d90826120de565b95945050505050565b61098e6111bd565b6109986000611217565b565b6109a26111bd565b61ffff90911660009081526004602090815260408083206001600160a01b03909416835292905220805460ff19166001179055565b60006109e58760008461084e565b905080341015610a555760405162461bcd60e51b815260206004820152603560248201527f6d73672e76616c7565206d7573742062652071756f746543726f7373436861696044820152746e4465706f73697428746172676574436861696e2960581b6064820152608401610528565b6040516323b872dd60e01b8152336004820152306024820152604481018590526001600160a01b038416906323b872dd906064016020604051808303816000875af1158015610aa8573d6000803e3d6000fd5b505050506040513d601f19601f82011682018060405250810190610acc91906120f1565b50604080516001600160a01b0387166020820152600191810191909152600060608201819052906080016040516020818303038152906040529050610b17888883600087898b611269565b505050505050505050565b6000610b2f86848461084e565b905080341015610b735760405162461bcd60e51b815260206004820152600f60248201526e6d69736d6174636820696e2066656560881b6044820152606401610528565b60007f00000000000000000000000000000000000000000000000000000000000000006001600160a01b031663ad5c46486040518163ffffffff1660e01b8152600401602060405180830381865afa158015610bd3573d6000803e3d6000fd5b505050506040513d601f19601f82011682018060405250810190610bf79190612113565b604080516001600160a01b0388166020820152600091810182905260608101879052919250906080016040516020818303038152906040529050610b178888838888876000611269565b6000546001600160a01b03163314610ca75760405162461bcd60e51b8152602060048201526024808201527f4e6f7420616c6c6f77656420746f207365742072656769737465726564207365604482015263373232b960e11b6064820152608401610528565b61ffff909116600090815260016020526040902055565b610cc66111bd565b6001600160a01b038116610d2b5760405162461bcd60e51b815260206004820152602660248201527f4f776e61626c653a206e6577206f776e657220697320746865207a65726f206160448201526564647265737360d01b6064820152608401610528565b610d3481611217565b50565b60007f00000000000000000000000000000000000000000000000000000000000000006001600160a01b0316639a8a05926040518163ffffffff1660e01b8152600401602060405180830381865afa158015610d97573d6000803e3d6000fd5b505050506040513d601f19601f82011682018060405250810190610dbb9190611f17565b61ffff168361ffff1614610e6157604051630ff8f14360e11b815261ffff84166004820152602481018390527f00000000000000000000000000000000000000000000000000000000000000006001600160a01b031690631ff1e28690604401602060405180830381865afa158015610e38573d6000803e3d6000fd5b505050506040513d601f19601f82011682018060405250810190610e5c9190612113565b610e6a565b610e6a82611423565b90505b92915050565b60408051600481526024810182526020810180516001600160e01b031663313ce56760e01b179052905160009182916001600160a01b03851691610eb691612130565b600060405180830381855afa9150503d8060008114610ef1576040519150601f19603f3d011682016040523d82523d6000602084013e610ef6565b606091505b5091505080806020019051810190610f0e919061214c565b9392505050565b336001600160a01b037f00000000000000000000000000000000000000000000000000000000000000001614610f985760405162461bcd60e51b815260206004820152602260248201527f4d73672e73656e646572206973206e6f7420576f726d686f6c652052656c617960448201526132b960f11b6064820152608401610528565b8351600114610fa657600080fd5b61ffff8216600090815260046020526040812090610fc385611423565b6001600160a01b0316815260208101919091526040016000205460ff161515600114610fee57600080fd5b6000806000878060200190518101906110079190612167565b6001600160a01b03831660009081526003602090815260408083208a8452909152902054929550909350915060ff161561104057600080fd5b60008760008151811061105557611055611b59565b6020026020010151604001519050600060ff168360ff16036110db576040516001600160a01b0385169083156108fc029084906000818181858888f193505050501580156110a7573d6000803e3d6000fd5b506001600160a01b03841660009081526003602090815260408083208884529091529020805460ff19166001179055610b17565b60001960ff841601610b17576000886000815181106110fc576110fc611b59565b60209081029190910101516060015160405163a9059cbb60e01b81526001600160a01b038781166004830152602482018390529192509083169063a9059cbb906044016020604051808303816000875af115801561115e573d6000803e3d6000fd5b505050506040513d601f19601f8201168201806040525081019061118291906120f1565b50506001600160a01b03841660009081526003602090815260408083208884529091529020805460ff19166001179055505050505050505050565b6002546001600160a01b031633146109985760405162461bcd60e51b815260206004820181905260248201527f4f776e61626c653a2063616c6c6572206973206e6f7420746865206f776e65726044820152606401610528565b600280546001600160a01b038381166001600160a01b0319831681179093556040519116919082907f8be0079c531659141344cd1fd0a4f28419497f9722a3daafe3b4186f6b6457e090600090a35050565b604080516001808252818301909252600091829190816020015b60408051606081018252600080825260208083018290529282015282526000199092019101816112835790505090506112be84848b8b61144f565b816000815181106112d1576112d1611b59565b602090810291909101015260405163c23ee3c360e01b815261ffff8a16600482015260248101879052604481018690526000906001600160a01b037f0000000000000000000000000000000000000000000000000000000000000000169063c23ee3c3906064016040805180830381865afa158015611354573d6000803e3d6000fd5b505050506040513d601f19601f8201168201806040525081019061137891906120ba565b5090507f00000000000000000000000000000000000000000000000000000000000000006001600160a01b031663329a2be7828c8c8c8c8c896040518863ffffffff1660e01b81526004016113d2969594939291906121a5565b60206040518083038185885af11580156113f0573d6000803e3d6000fd5b50505050506040513d601f19601f820116820180604052508101906114159190612245565b9a9950505050505050505050565b600060a082901c1561144b5760405163033b960d60e41b815260048101839052602401610528565b5090565b604080516060810182526000808252602082018190529181019190915261097d8585858560405180602001604052806000815250604080516060810182526000808252602082018190529181019190915260405163095ea7b360e01b81526001600160a01b037f0000000000000000000000000000000000000000000000000000000000000000811660048301526024820187905287169063095ea7b3906044016020604051808303816000875af115801561150f573d6000803e3d6000fd5b505050506040513d601f19601f8201168201806040525081019061153391906120f1565b5060007f00000000000000000000000000000000000000000000000000000000000000006001600160a01b031663c5a5ebda7f00000000000000000000000000000000000000000000000000000000000000006001600160a01b0316631a90a2196040518163ffffffff1660e01b8152600401602060405180830381865afa1580156115c3573d6000803e3d6000fd5b505050506040513d601f19601f820116820180604052508101906115e79190611e36565b8989896001600160a01b038a1660008a6040518863ffffffff1660e01b815260040161161896959493929190612260565b60206040518083038185885af1158015611636573d6000803e3d6000fd5b50505050506040513d601f19601f8201168201806040525081019061165b9190612245565b905060405180606001604052807f00000000000000000000000000000000000000000000000000000000000000006001600160a01b0316639a8a05926040518163ffffffff1660e01b8152600401602060405180830381865afa1580156116c6573d6000803e3d6000fd5b505050506040513d601f19601f820116820180604052508101906116ea9190611f17565b61ffff1681526020016001600160a01b037f0000000000000000000000000000000000000000000000000000000000000000168152602001826001600160401b031681525091505095945050505050565b634e487b7160e01b600052604160045260246000fd5b604051608081016001600160401b03811182821017156117735761177361173b565b60405290565b60405161016081016001600160401b03811182821017156117735761177361173b565b60405161010081016001600160401b03811182821017156117735761177361173b565b604051601f8201601f191681016001600160401b03811182821017156117e7576117e761173b565b604052919050565b60006001600160401b038211156118085761180861173b565b50601f01601f191660200190565b600082601f83011261182757600080fd5b813561183a611835826117ef565b6117bf565b81815284602083860101111561184f57600080fd5b816020850160208301376000918101602001919091529392505050565b60006001600160401b038211156118855761188561173b565b5060051b60200190565b61ffff81168114610d3457600080fd5b80356118aa8161188f565b919050565b600080600080600060a086880312156118c757600080fd5b85356001600160401b03808211156118de57600080fd5b6118ea89838a01611816565b965060209150818801358181111561190157600080fd5b8801601f81018a1361191257600080fd5b80356119206118358261186c565b81815260059190911b8201840190848101908c83111561193f57600080fd5b8584015b838110156119775780358681111561195b5760008081fd5b6119698f8983890101611816565b845250918601918601611943565b509850505050604088013594506119939150506060870161189f565b949793965091946080013592915050565b6000806000606084860312156119b957600080fd5b83356119c48161188f565b95602085013595506040909401359392505050565b6001600160a01b0381168114610d3457600080fd5b60008060408385031215611a0157600080fd5b8235611a0c8161188f565b91506020830135611a1c816119d9565b809150509250929050565b60008060008060008060c08789031215611a4057600080fd5b8635611a4b8161188f565b95506020870135611a5b816119d9565b94506040870135611a6b816119d9565b9350606087013592506080870135611a82816119d9565b8092505060a087013590509295509295509295565b600080600080600060a08688031215611aaf57600080fd5b8535611aba8161188f565b94506020860135611aca816119d9565b93506040860135611ada816119d9565b94979396509394606081013594506080013592915050565b60008060408385031215611b0557600080fd5b8235611b10816119d9565b946020939093013593505050565b60008060408385031215611b3157600080fd5b8235611b108161188f565b600060208284031215611b4e57600080fd5b8135610f0e816119d9565b634e487b7160e01b600052603260045260246000fd5b60005b83811015611b8a578181015183820152602001611b72565b50506000910152565b60008151808452611bab816020860160208601611b6f565b601f01601f19169290920160200192915050565b602081526000610e6a6020830184611b93565b805160ff811681146118aa57600080fd5b805163ffffffff811681146118aa57600080fd5b80516118aa8161188f565b80516001600160401b03811681146118aa57600080fd5b600082601f830112611c2a57600080fd5b8151611c38611835826117ef565b818152846020838601011115611c4d57600080fd5b611c5e826020830160208701611b6f565b949350505050565b600082601f830112611c7757600080fd5b81516020611c876118358361186c565b82815260079290921b84018101918181019086841115611ca657600080fd5b8286015b84811015611d075760808189031215611cc35760008081fd5b611ccb611751565b8151815284820151858201526040611ce4818401611bd2565b908201526060611cf5838201611bd2565b90820152835291830191608001611caa565b509695505050505050565b600060208284031215611d2457600080fd5b81516001600160401b0380821115611d3b57600080fd5b908301906101608286031215611d5057600080fd5b611d58611779565b611d6183611bd2565b8152611d6f60208401611be3565b6020820152611d8060408401611be3565b6040820152611d9160608401611bf7565b606082015260808301516080820152611dac60a08401611c02565b60a0820152611dbd60c08401611bd2565b60c082015260e083015182811115611dd457600080fd5b611de087828601611c19565b60e083015250610100611df4818501611be3565b908201526101208381015183811115611e0c57600080fd5b611e1888828701611c66565b91830191909152506101409283015192810192909252509392505050565b600060208284031215611e4857600080fd5b5051919050565b600060208284031215611e6157600080fd5b81516001600160401b0380821115611e7857600080fd5b908301906101008286031215611e8d57600080fd5b611e9561179c565b611e9e83611bd2565b81526020830151602082015260408301516040820152611ec060608401611bf7565b606082015260808301516080820152611edb60a08401611bf7565b60a082015260c083015160c082015260e083015182811115611efc57600080fd5b611f0887828601611c19565b60e08301525095945050505050565b600060208284031215611f2957600080fd5b8151610f0e8161188f565b600060208284031215611f4657600080fd5b81516001600160401b03811115611f5c57600080fd5b611c5e84828501611c19565b634e487b7160e01b600052601160045260246000fd5b60ff8281168282160390811115610e6d57610e6d611f68565b600181815b80851115611fd2578160001904821115611fb857611fb8611f68565b80851615611fc557918102915b93841c9390800290611f9c565b509250929050565b600082611fe957506001610e6d565b81611ff657506000610e6d565b816001811461200c576002811461201657612032565b6001915050610e6d565b60ff84111561202757612027611f68565b50506001821b610e6d565b5060208310610133831016604e8410600b8410161715612055575081810a610e6d565b61205f8383611f97565b806000190482111561207357612073611f68565b029392505050565b6000610e6a60ff841683611fda565b8082028115828204841417610e6d57610e6d611f68565b6000600182016120b3576120b3611f68565b5060010190565b600080604083850312156120cd57600080fd5b505080516020909101519092909150565b80820180821115610e6d57610e6d611f68565b60006020828403121561210357600080fd5b81518015158114610f0e57600080fd5b60006020828403121561212557600080fd5b8151610f0e816119d9565b60008251612142818460208701611b6f565b9190910192915050565b60006020828403121561215e57600080fd5b610e6a82611bd2565b60008060006060848603121561217c57600080fd5b8351612187816119d9565b925061219560208501611bd2565b9150604084015190509250925092565b600061ffff8089168352602060018060a01b03891681850152604060c0818601526121d360c086018a611b93565b60608681018a90526080870189905286820360a088015287518083528489019285019060005b8181101561223157845180518916845287810151888501528601516001600160401b03168684015293860193918301916001016121f9565b50909e9d5050505050505050505050505050565b60006020828403121561225757600080fd5b610e6a82611c02565b60018060a01b038716815285602082015261ffff8516604082015283606082015263ffffffff8316608082015260c060a082015260006122a360c0830184611b93565b9897505050505050505056fea26469706673582212202312bb0666e67de2bffd58bdaf4f998ac40e44cd74a656cae6e61476987ae68564736f6c63430008110033",
  "linkReferences": {},
  "deployedLinkReferences": {}
}